{
  "contractName": "CharityPlatform",
  "abi": [
    {
      "inputs": [
        {
          "internalType": "address",
          "name": "_donationToken",
          "type": "address"
        }
      ],
      "stateMutability": "nonpayable",
      "type": "constructor"
    },
    {
      "inputs": [],
      "name": "AccessControlBadConfirmation",
      "type": "error"
    },
    {
      "inputs": [
        {
          "internalType": "address",
          "name": "account",
          "type": "address"
        },
        {
          "internalType": "bytes32",
          "name": "neededRole",
          "type": "bytes32"
        }
      ],
      "name": "AccessControlUnauthorizedAccount",
      "type": "error"
    },
    {
      "inputs": [],
      "name": "ReentrancyGuardReentrantCall",
      "type": "error"
    },
    {
      "anonymous": false,
      "inputs": [
        {
          "indexed": true,
          "internalType": "uint256",
          "name": "projectId",
          "type": "uint256"
        },
        {
          "indexed": true,
          "internalType": "address",
          "name": "donor",
          "type": "address"
        },
        {
          "indexed": false,
          "internalType": "uint256",
          "name": "amount",
          "type": "uint256"
        }
      ],
      "name": "DonationReceived",
      "type": "event"
    },
    {
      "anonymous": false,
      "inputs": [
        {
          "indexed": true,
          "internalType": "uint256",
          "name": "projectId",
          "type": "uint256"
        },
        {
          "indexed": false,
          "internalType": "uint256",
          "name": "amount",
          "type": "uint256"
        }
      ],
      "name": "FundsReleased",
      "type": "event"
    },
    {
      "anonymous": false,
      "inputs": [
        {
          "indexed": false,
          "internalType": "uint256",
          "name": "milestoneIndex",
          "type": "uint256"
        }
      ],
      "name": "MilestoneCompleted",
      "type": "event"
    },
    {
      "anonymous": false,
      "inputs": [
        {
          "indexed": true,
          "internalType": "uint256",
          "name": "projectId",
          "type": "uint256"
        },
        {
          "indexed": false,
          "internalType": "string",
          "name": "name",
          "type": "string"
        },
        {
          "indexed": false,
          "internalType": "address",
          "name": "charityAddress",
          "type": "address"
        }
      ],
      "name": "ProjectCreated",
      "type": "event"
    },
    {
      "anonymous": false,
      "inputs": [
        {
          "indexed": true,
          "internalType": "uint256",
          "name": "projectId",
          "type": "uint256"
        },
        {
          "indexed": true,
          "internalType": "address",
          "name": "donor",
          "type": "address"
        },
        {
          "indexed": false,
          "internalType": "uint256",
          "name": "amount",
          "type": "uint256"
        }
      ],
      "name": "RefundIssued",
      "type": "event"
    },
    {
      "anonymous": false,
      "inputs": [
        {
          "indexed": true,
          "internalType": "bytes32",
          "name": "role",
          "type": "bytes32"
        },
        {
          "indexed": true,
          "internalType": "bytes32",
          "name": "previousAdminRole",
          "type": "bytes32"
        },
        {
          "indexed": true,
          "internalType": "bytes32",
          "name": "newAdminRole",
          "type": "bytes32"
        }
      ],
      "name": "RoleAdminChanged",
      "type": "event"
    },
    {
      "anonymous": false,
      "inputs": [
        {
          "indexed": true,
          "internalType": "bytes32",
          "name": "role",
          "type": "bytes32"
        },
        {
          "indexed": true,
          "internalType": "address",
          "name": "account",
          "type": "address"
        },
        {
          "indexed": true,
          "internalType": "address",
          "name": "sender",
          "type": "address"
        }
      ],
      "name": "RoleGranted",
      "type": "event"
    },
    {
      "anonymous": false,
      "inputs": [
        {
          "indexed": true,
          "internalType": "bytes32",
          "name": "role",
          "type": "bytes32"
        },
        {
          "indexed": true,
          "internalType": "address",
          "name": "account",
          "type": "address"
        },
        {
          "indexed": true,
          "internalType": "address",
          "name": "sender",
          "type": "address"
        }
      ],
      "name": "RoleRevoked",
      "type": "event"
    },
    {
      "inputs": [],
      "name": "ADMIN_ROLE",
      "outputs": [
        {
          "internalType": "bytes32",
          "name": "",
          "type": "bytes32"
        }
      ],
      "stateMutability": "view",
      "type": "function"
    },
    {
      "inputs": [],
      "name": "CHARITY_ROLE",
      "outputs": [
        {
          "internalType": "bytes32",
          "name": "",
          "type": "bytes32"
        }
      ],
      "stateMutability": "view",
      "type": "function"
    },
    {
      "inputs": [],
      "name": "DEFAULT_ADMIN_ROLE",
      "outputs": [
        {
          "internalType": "bytes32",
          "name": "",
          "type": "bytes32"
        }
      ],
      "stateMutability": "view",
      "type": "function"
    },
    {
      "inputs": [],
      "name": "donationToken",
      "outputs": [
        {
          "internalType": "contract DonationToken",
          "name": "",
          "type": "address"
        }
      ],
      "stateMutability": "view",
      "type": "function"
    },
    {
      "inputs": [
        {
          "internalType": "bytes32",
          "name": "role",
          "type": "bytes32"
        }
      ],
      "name": "getRoleAdmin",
      "outputs": [
        {
          "internalType": "bytes32",
          "name": "",
          "type": "bytes32"
        }
      ],
      "stateMutability": "view",
      "type": "function"
    },
    {
      "inputs": [
        {
          "internalType": "bytes32",
          "name": "role",
          "type": "bytes32"
        },
        {
          "internalType": "address",
          "name": "account",
          "type": "address"
        }
      ],
      "name": "grantRole",
      "outputs": [],
      "stateMutability": "nonpayable",
      "type": "function"
    },
    {
      "inputs": [
        {
          "internalType": "bytes32",
          "name": "role",
          "type": "bytes32"
        },
        {
          "internalType": "address",
          "name": "account",
          "type": "address"
        }
      ],
      "name": "hasRole",
      "outputs": [
        {
          "internalType": "bool",
          "name": "",
          "type": "bool"
        }
      ],
      "stateMutability": "view",
      "type": "function"
    },
    {
      "inputs": [
        {
          "internalType": "uint256",
          "name": "",
          "type": "uint256"
        }
      ],
      "name": "milestones",
      "outputs": [
        {
          "internalType": "uint256",
          "name": "id",
          "type": "uint256"
        },
        {
          "internalType": "uint256",
          "name": "projectId",
          "type": "uint256"
        },
        {
          "internalType": "string",
          "name": "description",
          "type": "string"
        },
        {
          "internalType": "uint256",
          "name": "targetAmount",
          "type": "uint256"
        },
        {
          "internalType": "uint256",
          "name": "raisedAmount",
          "type": "uint256"
        },
        {
          "internalType": "bool",
          "name": "isCompleted",
          "type": "bool"
        },
        {
          "internalType": "bool",
          "name": "fundsReleased",
          "type": "bool"
        }
      ],
      "stateMutability": "view",
      "type": "function"
    },
    {
      "inputs": [],
      "name": "milestonesCount",
      "outputs": [
        {
          "internalType": "uint256",
          "name": "",
          "type": "uint256"
        }
      ],
      "stateMutability": "view",
      "type": "function"
    },
    {
      "inputs": [],
      "name": "projectCount",
      "outputs": [
        {
          "internalType": "uint256",
          "name": "",
          "type": "uint256"
        }
      ],
      "stateMutability": "view",
      "type": "function"
    },
    {
      "inputs": [
        {
          "internalType": "uint256",
          "name": "",
          "type": "uint256"
        }
      ],
      "name": "projectIds",
      "outputs": [
        {
          "internalType": "uint256",
          "name": "",
          "type": "uint256"
        }
      ],
      "stateMutability": "view",
      "type": "function"
    },
    {
      "inputs": [
        {
          "internalType": "uint256",
          "name": "",
          "type": "uint256"
        }
      ],
      "name": "projects",
      "outputs": [
        {
          "internalType": "uint256",
          "name": "id",
          "type": "uint256"
        },
        {
          "internalType": "string",
          "name": "name",
          "type": "string"
        },
        {
          "internalType": "address",
          "name": "charityAddress",
          "type": "address"
        },
        {
          "internalType": "uint256",
          "name": "goalAmount",
          "type": "uint256"
        },
        {
          "internalType": "uint256",
          "name": "raisedAmount",
          "type": "uint256"
        },
        {
          "internalType": "bool",
          "name": "isActive",
          "type": "bool"
        }
      ],
      "stateMutability": "view",
      "type": "function"
    },
    {
      "inputs": [
        {
          "internalType": "bytes32",
          "name": "role",
          "type": "bytes32"
        },
        {
          "internalType": "address",
          "name": "callerConfirmation",
          "type": "address"
        }
      ],
      "name": "renounceRole",
      "outputs": [],
      "stateMutability": "nonpayable",
      "type": "function"
    },
    {
      "inputs": [
        {
          "internalType": "bytes32",
          "name": "role",
          "type": "bytes32"
        },
        {
          "internalType": "address",
          "name": "account",
          "type": "address"
        }
      ],
      "name": "revokeRole",
      "outputs": [],
      "stateMutability": "nonpayable",
      "type": "function"
    },
    {
      "inputs": [
        {
          "internalType": "bytes4",
          "name": "interfaceId",
          "type": "bytes4"
        }
      ],
      "name": "supportsInterface",
      "outputs": [
        {
          "internalType": "bool",
          "name": "",
          "type": "bool"
        }
      ],
      "stateMutability": "view",
      "type": "function"
    },
    {
      "stateMutability": "payable",
      "type": "receive"
    },
    {
      "inputs": [
        {
          "internalType": "address",
          "name": "_address",
          "type": "address"
        },
        {
          "internalType": "string",
          "name": "_name",
          "type": "string"
        },
        {
          "internalType": "uint256",
          "name": "_goalAmount",
          "type": "uint256"
        },
        {
          "internalType": "string[]",
          "name": "_milestoneDescriptions",
          "type": "string[]"
        },
        {
          "internalType": "uint256[]",
          "name": "_milestoneTargets",
          "type": "uint256[]"
        }
      ],
      "name": "createProject",
      "outputs": [],
      "stateMutability": "nonpayable",
      "type": "function"
    },
    {
      "inputs": [
        {
          "internalType": "uint256",
          "name": "_projectId",
          "type": "uint256"
        },
        {
          "internalType": "uint256",
          "name": "_milestoneId",
          "type": "uint256"
        },
        {
          "internalType": "address",
          "name": "_donor",
          "type": "address"
        },
        {
          "internalType": "address",
          "name": "_recipient",
          "type": "address"
        }
      ],
      "name": "donate",
      "outputs": [],
      "stateMutability": "payable",
      "type": "function"
    },
    {
      "inputs": [
        {
          "internalType": "uint256",
          "name": "_projectId",
          "type": "uint256"
        }
      ],
      "name": "requestRefund",
      "outputs": [],
      "stateMutability": "nonpayable",
      "type": "function"
    },
    {
      "inputs": [
        {
          "internalType": "uint256",
          "name": "_projectId",
          "type": "uint256"
        },
        {
          "internalType": "address",
          "name": "_sender",
          "type": "address"
        }
      ],
      "name": "deactivateProject",
      "outputs": [],
      "stateMutability": "nonpayable",
      "type": "function"
    },
    {
      "inputs": [
        {
          "internalType": "address",
          "name": "_charityAddress",
          "type": "address"
        }
      ],
      "name": "addCharity",
      "outputs": [],
      "stateMutability": "nonpayable",
      "type": "function"
    },
    {
      "inputs": [
        {
          "internalType": "address",
          "name": "_charityAddress",
          "type": "address"
        }
      ],
      "name": "removeCharity",
      "outputs": [],
      "stateMutability": "nonpayable",
      "type": "function"
    },
    {
      "inputs": [
        {
          "internalType": "uint256",
          "name": "_projectId",
          "type": "uint256"
        }
      ],
      "name": "getProject",
      "outputs": [
        {
          "internalType": "string",
          "name": "name",
          "type": "string"
        },
        {
          "internalType": "address",
          "name": "charityAddress",
          "type": "address"
        },
        {
          "internalType": "uint256",
          "name": "goalAmount",
          "type": "uint256"
        },
        {
          "internalType": "uint256",
          "name": "raisedAmount",
          "type": "uint256"
        },
        {
          "internalType": "bool",
          "name": "isActive",
          "type": "bool"
        },
        {
          "internalType": "uint256",
          "name": "milestoneCount",
          "type": "uint256"
        }
      ],
      "stateMutability": "view",
      "type": "function"
    },
    {
      "inputs": [
        {
          "internalType": "uint256",
          "name": "_projectId",
          "type": "uint256"
        },
        {
          "internalType": "address",
          "name": "_donor",
          "type": "address"
        }
      ],
      "name": "getProjectDonations",
      "outputs": [
        {
          "internalType": "uint256",
          "name": "donorAmount",
          "type": "uint256"
        }
      ],
      "stateMutability": "view",
      "type": "function"
    },
    {
      "inputs": [],
      "name": "getProjects",
      "outputs": [
        {
          "internalType": "string[]",
          "name": "name",
          "type": "string[]"
        },
        {
          "internalType": "address[]",
          "name": "charityAddress",
          "type": "address[]"
        },
        {
          "internalType": "uint256[]",
          "name": "goalAmount",
          "type": "uint256[]"
        },
        {
          "internalType": "uint256[]",
          "name": "raisedAmount",
          "type": "uint256[]"
        },
        {
          "internalType": "bool[]",
          "name": "isActive",
          "type": "bool[]"
        },
        {
          "internalType": "uint256[]",
          "name": "milestoneCount",
          "type": "uint256[]"
        }
      ],
      "stateMutability": "view",
      "type": "function"
    },
    {
      "inputs": [
        {
          "internalType": "uint256",
          "name": "_projectId",
          "type": "uint256"
        },
        {
          "internalType": "uint256",
          "name": "_milestoneIndex",
          "type": "uint256"
        }
      ],
      "name": "getMilestone",
      "outputs": [
        {
          "internalType": "string",
          "name": "description",
          "type": "string"
        },
        {
          "internalType": "uint256",
          "name": "targetAmount",
          "type": "uint256"
        },
        {
          "internalType": "uint256",
          "name": "raisedAmount",
          "type": "uint256"
        },
        {
          "internalType": "bool",
          "name": "isCompleted",
          "type": "bool"
        },
        {
          "internalType": "bool",
          "name": "fundsReleased",
          "type": "bool"
        }
      ],
      "stateMutability": "view",
      "type": "function"
    },
    {
      "inputs": [
        {
          "internalType": "address",
          "name": "_address",
          "type": "address"
        },
        {
          "internalType": "uint256",
          "name": "_projectId",
          "type": "uint256"
        },
        {
          "internalType": "uint256",
          "name": "_milestoneIndex",
          "type": "uint256"
        }
      ],
      "name": "getMilestoneAmount",
      "outputs": [
        {
          "internalType": "uint256",
          "name": "donatedAmount",
          "type": "uint256"
        }
      ],
      "stateMutability": "view",
      "type": "function"
    }
  ],
  "bytecode": "0x60806040523480156200001157600080fd5b5060405162003c3f38038062003c3f8339818101604052810190620000379190620002c0565b6001600081905550620000546000801b33620000e060201b60201c565b50620000877fa49807205ce4d355092ef5a8a18f56e8913cf4a201fbe287825b095693c2177533620000e060201b60201c565b5080600260006101000a81548173ffffffffffffffffffffffffffffffffffffffff021916908373ffffffffffffffffffffffffffffffffffffffff1602179055506000600681905550600060078190555050620002f2565b6000620000f48383620001e360201b60201c565b620001d857600180600085815260200190815260200160002060000160008473ffffffffffffffffffffffffffffffffffffffff1673ffffffffffffffffffffffffffffffffffffffff16815260200190815260200160002060006101000a81548160ff021916908315150217905550620001746200024e60201b60201c565b73ffffffffffffffffffffffffffffffffffffffff168273ffffffffffffffffffffffffffffffffffffffff16847f2f8788117e7eff1d82e926ec794901d17c78024a50270940304540a733656f0d60405160405180910390a460019050620001dd565b600090505b92915050565b60006001600084815260200190815260200160002060000160008373ffffffffffffffffffffffffffffffffffffffff1673ffffffffffffffffffffffffffffffffffffffff16815260200190815260200160002060009054906101000a900460ff16905092915050565b600033905090565b600080fd5b600073ffffffffffffffffffffffffffffffffffffffff82169050919050565b600062000288826200025b565b9050919050565b6200029a816200027b565b8114620002a657600080fd5b50565b600081519050620002ba816200028f565b92915050565b600060208284031215620002d957620002d862000256565b5b6000620002e984828501620002a9565b91505092915050565b61393d80620003026000396000f3fe6080604052600436106101855760003560e01c806391d14854116100d1578063b55d84731161008a578063dcc6012811610064578063dcc60128146105ab578063dd36341a146105db578063e89e4ed614610618578063f0f3f2c81461065b5761018c565b8063b55d84731461051c578063ca314f1d14610545578063d547741f146105825761018c565b806391d148541461041b578063a217fddf14610458578063a4b2409e14610483578063aa974f37146104ac578063ab36e4a6146104c8578063abefe591146104f35761018c565b806336fbad261161013e5780636f0c8067116101185780636f0c80671461035b57806375b238fc1461038657806378b14f0a146103b15780638ed9895c146103da5761018c565b806336fbad26146102ca57806348c35ad4146102f55780636cd0b5d1146103325761018c565b806301ffc9a7146101915780630df72159146101ce578063107046bd146101f9578063248a9ca31461023b5780632f2ff15d1461027857806336568abe146102a15761018c565b3661018c57005b600080fd5b34801561019d57600080fd5b506101b860048036038101906101b3919061222a565b61069d565b6040516101c59190612272565b60405180910390f35b3480156101da57600080fd5b506101e3610717565b6040516101f0919061230c565b60405180910390f35b34801561020557600080fd5b50610220600480360381019061021b919061235d565b61073d565b6040516102329695949392919061244a565b60405180910390f35b34801561024757600080fd5b50610262600480360381019061025d91906124e8565b61082e565b60405161026f9190612524565b60405180910390f35b34801561028457600080fd5b5061029f600480360381019061029a919061256b565b61084e565b005b3480156102ad57600080fd5b506102c860048036038101906102c3919061256b565b610870565b005b3480156102d657600080fd5b506102df6108eb565b6040516102ec91906125ab565b60405180910390f35b34801561030157600080fd5b5061031c6004803603810190610317919061235d565b6108f1565b60405161032991906125ab565b60405180910390f35b34801561033e57600080fd5b50610359600480360381019061035491906128a4565b610915565b005b34801561036757600080fd5b50610370610b0b565b60405161037d9190612524565b60405180910390f35b34801561039257600080fd5b5061039b610b2f565b6040516103a89190612524565b60405180910390f35b3480156103bd57600080fd5b506103d860048036038101906103d39190612973565b610b53565b005b3480156103e657600080fd5b5061040160048036038101906103fc91906129a0565b610bac565b6040516104129594939291906129e0565b60405180910390f35b34801561042757600080fd5b50610442600480360381019061043d919061256b565b610d25565b60405161044f9190612272565b60405180910390f35b34801561046457600080fd5b5061046d610d90565b60405161047a9190612524565b60405180910390f35b34801561048f57600080fd5b506104aa60048036038101906104a5919061235d565b610d97565b005b6104c660048036038101906104c19190612a3a565b610fe1565b005b3480156104d457600080fd5b506104dd611372565b6040516104ea91906125ab565b60405180910390f35b3480156104ff57600080fd5b5061051a60048036038101906105159190612973565b611378565b005b34801561052857600080fd5b50610543600480360381019061053e9190612aa1565b6113d0565b005b34801561055157600080fd5b5061056c60048036038101906105679190612ae1565b611517565b60405161057991906125ab565b60405180910390f35b34801561058e57600080fd5b506105a960048036038101906105a4919061256b565b611602565b005b3480156105b757600080fd5b506105c0611624565b6040516105d296959493929190612e7a565b60405180910390f35b3480156105e757600080fd5b5061060260048036038101906105fd9190612aa1565b611a7c565b60405161060f91906125ab565b60405180910390f35b34801561062457600080fd5b5061063f600480360381019061063a919061235d565b611ae5565b6040516106529796959493929190612f05565b60405180910390f35b34801561066757600080fd5b50610682600480360381019061067d919061235d565b611bc9565b60405161069496959493929190612f7b565b60405180910390f35b60007f7965db0b000000000000000000000000000000000000000000000000000000007bffffffffffffffffffffffffffffffffffffffffffffffffffffffff1916827bffffffffffffffffffffffffffffffffffffffffffffffffffffffff19161480610710575061070f82611cd8565b5b9050919050565b600260009054906101000a900473ffffffffffffffffffffffffffffffffffffffff1681565b600360205280600052604060002060009150905080600001549080600101805461076690613012565b80601f016020809104026020016040519081016040528092919081815260200182805461079290613012565b80156107df5780601f106107b4576101008083540402835291602001916107df565b820191906000526020600020905b8154815290600101906020018083116107c257829003601f168201915b5050505050908060020160009054906101000a900473ffffffffffffffffffffffffffffffffffffffff16908060030154908060040154908060050160009054906101000a900460ff16905086565b600060016000838152602001908152602001600020600101549050919050565b6108578261082e565b61086081611d42565b61086a8383611d56565b50505050565b610878611e47565b73ffffffffffffffffffffffffffffffffffffffff168173ffffffffffffffffffffffffffffffffffffffff16146108dc576040517f6697b23200000000000000000000000000000000000000000000000000000000815260040160405180910390fd5b6108e68282611e4f565b505050565b60065481565b6004818154811061090157600080fd5b906000526020600020016000915090505481565b7f838cb9e68162e54d2dfda44baa96273d8a6cb729c0d42995215e0f52841feb7761093f81611d42565b8151835114610983576040517f08c379a000000000000000000000000000000000000000000000000000000000815260040161097a9061308f565b60405180910390fd5b60066000815480929190610996906130de565b919050555060006003600060065481526020019081526020016000209050600460065490806001815401808255809150506001900390600052602060002001600090919091909150556006548160000181905550858160010190816109fb91906132c8565b50868160020160006101000a81548173ffffffffffffffffffffffffffffffffffffffff021916908373ffffffffffffffffffffffffffffffffffffffff16021790555084816003018190555060018160050160006101000a81548160ff02191690831515021790555060005b8451811015610ac557610ab2858281518110610a8757610a8661339a565b5b6020026020010151858381518110610aa257610aa161339a565b5b6020026020010151600654611f42565b8080610abd906130de565b915050610a68565b506006547fc0c54fed07481d0998e1446b2c13759606bf4f26b78306307413ac4c4309aa828789604051610afa9291906133c9565b60405180910390a250505050505050565b7f838cb9e68162e54d2dfda44baa96273d8a6cb729c0d42995215e0f52841feb7781565b7fa49807205ce4d355092ef5a8a18f56e8913cf4a201fbe287825b095693c2177581565b7fa49807205ce4d355092ef5a8a18f56e8913cf4a201fbe287825b095693c21775610b7d81611d42565b610ba77f838cb9e68162e54d2dfda44baa96273d8a6cb729c0d42995215e0f52841feb7783611d56565b505050565b6060600080600080600060036000898152602001908152602001600020905080600601805490508710610c14576040517f08c379a0000000000000000000000000000000000000000000000000000000008152600401610c0b90613445565b60405180910390fd5b6000816006018881548110610c2c57610c2b61339a565b5b90600052602060002001549050600060056000838152602001908152602001600020905080600201816003015482600401548360050160009054906101000a900460ff168460050160019054906101000a900460ff16848054610c8e90613012565b80601f0160208091040260200160405190810160405280929190818152602001828054610cba90613012565b8015610d075780601f10610cdc57610100808354040283529160200191610d07565b820191906000526020600020905b815481529060010190602001808311610cea57829003601f168201915b50505050509450975097509750975097505050509295509295909350565b60006001600084815260200190815260200160002060000160008373ffffffffffffffffffffffffffffffffffffffff1673ffffffffffffffffffffffffffffffffffffffff16815260200190815260200160002060009054906101000a900460ff16905092915050565b6000801b81565b610d9f61205c565b60006003600083815260200190815260200160002090508060050160009054906101000a900460ff1615610e08576040517f08c379a0000000000000000000000000000000000000000000000000000000008152600401610dff906134b1565b60405180910390fd5b60008160070160003373ffffffffffffffffffffffffffffffffffffffff1673ffffffffffffffffffffffffffffffffffffffff16815260200190815260200160002054905060008111610e91576040517f08c379a0000000000000000000000000000000000000000000000000000000008152600401610e889061351d565b60405180910390fd5b60008260070160003373ffffffffffffffffffffffffffffffffffffffff1673ffffffffffffffffffffffffffffffffffffffff1681526020019081526020016000208190555060003373ffffffffffffffffffffffffffffffffffffffff1682604051610efe9061356e565b60006040518083038185875af1925050503d8060008114610f3b576040519150601f19603f3d011682016040523d82523d6000602084013e610f40565b606091505b5050905080610f84576040517f08c379a0000000000000000000000000000000000000000000000000000000008152600401610f7b906135cf565b60405180910390fd5b3373ffffffffffffffffffffffffffffffffffffffff16847f7a482fdeb6bc9a1376f597068a214a7a39472bb2eff1b8cad21ba04f49ddca1b84604051610fcb91906125ab565b60405180910390a3505050610fde6120a2565b50565b610fe961205c565b60006003600086815260200190815260200160002090508060050160009054906101000a900460ff16611051576040517f08c379a00000000000000000000000000000000000000000000000000000000081526004016110489061363b565b60405180910390fd5b60003411611094576040517f08c379a000000000000000000000000000000000000000000000000000000000815260040161108b906136cd565b60405180910390fd5b600082905060008173ffffffffffffffffffffffffffffffffffffffff166108fc349081150290604051600060405180830381858888f19350505050905080611112576040517f08c379a000000000000000000000000000000000000000000000000000000000815260040161110990613739565b60405180910390fd5b348360070160008773ffffffffffffffffffffffffffffffffffffffff1673ffffffffffffffffffffffffffffffffffffffff16815260200190815260200160002060008282546111639190613759565b925050819055503483600401600082825461117e9190613759565b92505081905550600260009054906101000a900473ffffffffffffffffffffffffffffffffffffffff1673ffffffffffffffffffffffffffffffffffffffff1663156e29f68689346040518463ffffffff1660e01b81526004016111e49392919061378d565b6020604051808303816000875af1158015611203573d6000803e3d6000fd5b505050506040513d601f19601f8201168201806040525081019061122791906137d9565b5060008360060187815481106112405761123f61339a565b5b906000526020600020015490506000600560008381526020019081526020016000209050348160060160008973ffffffffffffffffffffffffffffffffffffffff1673ffffffffffffffffffffffffffffffffffffffff16815260200190815260200160002060008282546112b59190613759565b92505081905550348160040160008282546112d09190613759565b925050819055508673ffffffffffffffffffffffffffffffffffffffff16897f0b5b4c52969ff7329ecf7ee536409fda87812b15a8622bc6e8cdeab3aee14a263460405161131e91906125ab565b60405180910390a38060030154816004015414801561134c57508060050160009054906101000a900460ff16155b1561135f5761135e81600001546120ac565b5b505050505061136c6120a2565b50505050565b60075481565b7fa49807205ce4d355092ef5a8a18f56e8913cf4a201fbe287825b095693c217756113a281611d42565b6113cc7f838cb9e68162e54d2dfda44baa96273d8a6cb729c0d42995215e0f52841feb7783611602565b5050565b7f838cb9e68162e54d2dfda44baa96273d8a6cb729c0d42995215e0f52841feb776113fa81611d42565b60006003600085815260200190815260200160002090508060050160009054906101000a900460ff16611462576040517f08c379a000000000000000000000000000000000000000000000000000000000815260040161145990613852565b60405180910390fd5b8273ffffffffffffffffffffffffffffffffffffffff168160020160009054906101000a900473ffffffffffffffffffffffffffffffffffffffff1673ffffffffffffffffffffffffffffffffffffffff16146114f4576040517f08c379a00000000000000000000000000000000000000000000000000000000081526004016114eb90613852565b60405180910390fd5b60008160050160006101000a81548160ff02191690831515021790555050505050565b60008060036000858152602001908152602001600020905080600601805490508310611578576040517f08c379a000000000000000000000000000000000000000000000000000000000815260040161156f90613445565b60405180910390fd5b60008160060184815481106115905761158f61339a565b5b9060005260206000200154905060006005600083815260200190815260200160002090508060060160008873ffffffffffffffffffffffffffffffffffffffff1673ffffffffffffffffffffffffffffffffffffffff1681526020019081526020016000205493505050509392505050565b61160b8261082e565b61161481611d42565b61161e8383611e4f565b50505050565b606080606080606080600060065467ffffffffffffffff81111561164b5761164a6125d0565b5b60405190808252806020026020018201604052801561167e57816020015b60608152602001906001900390816116695790505b509050600060065467ffffffffffffffff81111561169f5761169e6125d0565b5b6040519080825280602002602001820160405280156116cd5781602001602082028036833780820191505090505b509050600060065467ffffffffffffffff8111156116ee576116ed6125d0565b5b60405190808252806020026020018201604052801561171c5781602001602082028036833780820191505090505b509050600060065467ffffffffffffffff81111561173d5761173c6125d0565b5b60405190808252806020026020018201604052801561176b5781602001602082028036833780820191505090505b509050600060065467ffffffffffffffff81111561178c5761178b6125d0565b5b6040519080825280602002602001820160405280156117ba5781602001602082028036833780820191505090505b509050600060065467ffffffffffffffff8111156117db576117da6125d0565b5b6040519080825280602002602001820160405280156118095781602001602082028036833780820191505090505b50905060005b600654811015611a5b5760036000828152602001908152602001600020600101805461183a90613012565b80601f016020809104026020016040519081016040528092919081815260200182805461186690613012565b80156118b35780601f10611888576101008083540402835291602001916118b3565b820191906000526020600020905b81548152906001019060200180831161189657829003601f168201915b50505050508782815181106118cb576118ca61339a565b5b60200260200101819052506003600082815260200190815260200160002060020160009054906101000a900473ffffffffffffffffffffffffffffffffffffffff168682815181106119205761191f61339a565b5b602002602001019073ffffffffffffffffffffffffffffffffffffffff16908173ffffffffffffffffffffffffffffffffffffffff168152505060036000828152602001908152602001600020600301548582815181106119845761198361339a565b5b60200260200101818152505060036000828152602001908152602001600020600401548482815181106119ba576119b961339a565b5b6020026020010181815250506003600082815260200190815260200160002060050160009054906101000a900460ff168382815181106119fd576119fc61339a565b5b6020026020010190151590811515815250506003600082815260200190815260200160002060060180549050828281518110611a3c57611a3b61339a565b5b6020026020010181815250508080611a53906130de565b91505061180f565b508585858585859b509b509b509b509b509b50505050505050909192939495565b60008060036000858152602001908152602001600020905060008160070160008573ffffffffffffffffffffffffffffffffffffffff1673ffffffffffffffffffffffffffffffffffffffff168152602001908152602001600020549050809250505092915050565b6005602052806000526040600020600091509050806000015490806001015490806002018054611b1490613012565b80601f0160208091040260200160405190810160405280929190818152602001828054611b4090613012565b8015611b8d5780601f10611b6257610100808354040283529160200191611b8d565b820191906000526020600020905b815481529060010190602001808311611b7057829003601f168201915b5050505050908060030154908060040154908060050160009054906101000a900460ff16908060050160019054906101000a900460ff16905087565b6060600080600080600080600360008981526020019081526020016000209050806001018160020160009054906101000a900473ffffffffffffffffffffffffffffffffffffffff16826003015483600401548460050160009054906101000a900460ff168560060180549050858054611c4290613012565b80601f0160208091040260200160405190810160405280929190818152602001828054611c6e90613012565b8015611cbb5780601f10611c9057610100808354040283529160200191611cbb565b820191906000526020600020905b815481529060010190602001808311611c9e57829003601f168201915b505050505095509650965096509650965096505091939550919395565b60007f01ffc9a7000000000000000000000000000000000000000000000000000000007bffffffffffffffffffffffffffffffffffffffffffffffffffffffff1916827bffffffffffffffffffffffffffffffffffffffffffffffffffffffff1916149050919050565b611d5381611d4e611e47565b61216d565b50565b6000611d628383610d25565b611e3c57600180600085815260200190815260200160002060000160008473ffffffffffffffffffffffffffffffffffffffff1673ffffffffffffffffffffffffffffffffffffffff16815260200190815260200160002060006101000a81548160ff021916908315150217905550611dd9611e47565b73ffffffffffffffffffffffffffffffffffffffff168273ffffffffffffffffffffffffffffffffffffffff16847f2f8788117e7eff1d82e926ec794901d17c78024a50270940304540a733656f0d60405160405180910390a460019050611e41565b600090505b92915050565b600033905090565b6000611e5b8383610d25565b15611f375760006001600085815260200190815260200160002060000160008473ffffffffffffffffffffffffffffffffffffffff1673ffffffffffffffffffffffffffffffffffffffff16815260200190815260200160002060006101000a81548160ff021916908315150217905550611ed4611e47565b73ffffffffffffffffffffffffffffffffffffffff168273ffffffffffffffffffffffffffffffffffffffff16847ff6391f5c32d9c69d2a47ea670b442974b53935d1edc7fd64eb21e047a839171b60405160405180910390a460019050611f3c565b600090505b92915050565b7f838cb9e68162e54d2dfda44baa96273d8a6cb729c0d42995215e0f52841feb77611f6c81611d42565b60076000815480929190611f7f906130de565b919050555060006005600060075481526020019081526020016000209050600754816000018190555082816001018190555084816002019081611fc291906132c8565b508381600301819055506000816004018190555060008160050160006101000a81548160ff02191690831515021790555060008160050160016101000a81548160ff0219169083151502179055506000600360008581526020019081526020016000209050806006016007549080600181540180825580915050600190039060005260206000200160009091909190915055505050505050565b600260005403612098576040517f3ee5aeb500000000000000000000000000000000000000000000000000000000815260040160405180910390fd5b6002600081905550565b6001600081905550565b60006005600083815260200190815260200160002090508060050160009054906101000a900460ff1615612115576040517f08c379a000000000000000000000000000000000000000000000000000000000815260040161210c906138be565b60405180910390fd5b60018160050160006101000a81548160ff0219169083151502179055507f41f5e423c5ae79dcb8565618891e74a7a6e76232568150b33d79001a62391b1e8260405161216191906125ab565b60405180910390a15050565b6121778282610d25565b6121ba5780826040517fe2517d3f0000000000000000000000000000000000000000000000000000000081526004016121b19291906138de565b60405180910390fd5b5050565b6000604051905090565b600080fd5b600080fd5b60007fffffffff0000000000000000000000000000000000000000000000000000000082169050919050565b612207816121d2565b811461221257600080fd5b50565b600081359050612224816121fe565b92915050565b6000602082840312156122405761223f6121c8565b5b600061224e84828501612215565b91505092915050565b60008115159050919050565b61226c81612257565b82525050565b60006020820190506122876000830184612263565b92915050565b600073ffffffffffffffffffffffffffffffffffffffff82169050919050565b6000819050919050565b60006122d26122cd6122c88461228d565b6122ad565b61228d565b9050919050565b60006122e4826122b7565b9050919050565b60006122f6826122d9565b9050919050565b612306816122eb565b82525050565b600060208201905061232160008301846122fd565b92915050565b6000819050919050565b61233a81612327565b811461234557600080fd5b50565b60008135905061235781612331565b92915050565b600060208284031215612373576123726121c8565b5b600061238184828501612348565b91505092915050565b61239381612327565b82525050565b600081519050919050565b600082825260208201905092915050565b60005b838110156123d35780820151818401526020810190506123b8565b60008484015250505050565b6000601f19601f8301169050919050565b60006123fb82612399565b61240581856123a4565b93506124158185602086016123b5565b61241e816123df565b840191505092915050565b60006124348261228d565b9050919050565b61244481612429565b82525050565b600060c08201905061245f600083018961238a565b818103602083015261247181886123f0565b9050612480604083018761243b565b61248d606083018661238a565b61249a608083018561238a565b6124a760a0830184612263565b979650505050505050565b6000819050919050565b6124c5816124b2565b81146124d057600080fd5b50565b6000813590506124e2816124bc565b92915050565b6000602082840312156124fe576124fd6121c8565b5b600061250c848285016124d3565b91505092915050565b61251e816124b2565b82525050565b60006020820190506125396000830184612515565b92915050565b61254881612429565b811461255357600080fd5b50565b6000813590506125658161253f565b92915050565b60008060408385031215612582576125816121c8565b5b6000612590858286016124d3565b92505060206125a185828601612556565b9150509250929050565b60006020820190506125c0600083018461238a565b92915050565b600080fd5b600080fd5b7f4e487b7100000000000000000000000000000000000000000000000000000000600052604160045260246000fd5b612608826123df565b810181811067ffffffffffffffff82111715612627576126266125d0565b5b80604052505050565b600061263a6121be565b905061264682826125ff565b919050565b600067ffffffffffffffff821115612666576126656125d0565b5b61266f826123df565b9050602081019050919050565b82818337600083830152505050565b600061269e6126998461264b565b612630565b9050828152602081018484840111156126ba576126b96125cb565b5b6126c584828561267c565b509392505050565b600082601f8301126126e2576126e16125c6565b5b81356126f284826020860161268b565b91505092915050565b600067ffffffffffffffff821115612716576127156125d0565b5b602082029050602081019050919050565b600080fd5b600061273f61273a846126fb565b612630565b9050808382526020820190506020840283018581111561276257612761612727565b5b835b818110156127a957803567ffffffffffffffff811115612787576127866125c6565b5b80860161279489826126cd565b85526020850194505050602081019050612764565b5050509392505050565b600082601f8301126127c8576127c76125c6565b5b81356127d884826020860161272c565b91505092915050565b600067ffffffffffffffff8211156127fc576127fb6125d0565b5b602082029050602081019050919050565b600061282061281b846127e1565b612630565b9050808382526020820190506020840283018581111561284357612842612727565b5b835b8181101561286c57806128588882612348565b845260208401935050602081019050612845565b5050509392505050565b600082601f83011261288b5761288a6125c6565b5b813561289b84826020860161280d565b91505092915050565b600080600080600060a086880312156128c0576128bf6121c8565b5b60006128ce88828901612556565b955050602086013567ffffffffffffffff8111156128ef576128ee6121cd565b5b6128fb888289016126cd565b945050604061290c88828901612348565b935050606086013567ffffffffffffffff81111561292d5761292c6121cd565b5b612939888289016127b3565b925050608086013567ffffffffffffffff81111561295a576129596121cd565b5b61296688828901612876565b9150509295509295909350565b600060208284031215612989576129886121c8565b5b600061299784828501612556565b91505092915050565b600080604083850312156129b7576129b66121c8565b5b60006129c585828601612348565b92505060206129d685828601612348565b9150509250929050565b600060a08201905081810360008301526129fa81886123f0565b9050612a09602083018761238a565b612a16604083018661238a565b612a236060830185612263565b612a306080830184612263565b9695505050505050565b60008060008060808587031215612a5457612a536121c8565b5b6000612a6287828801612348565b9450506020612a7387828801612348565b9350506040612a8487828801612556565b9250506060612a9587828801612556565b91505092959194509250565b60008060408385031215612ab857612ab76121c8565b5b6000612ac685828601612348565b9250506020612ad785828601612556565b9150509250929050565b600080600060608486031215612afa57612af96121c8565b5b6000612b0886828701612556565b9350506020612b1986828701612348565b9250506040612b2a86828701612348565b9150509250925092565b600081519050919050565b600082825260208201905092915050565b6000819050602082019050919050565b600082825260208201905092915050565b6000612b7c82612399565b612b868185612b60565b9350612b968185602086016123b5565b612b9f816123df565b840191505092915050565b6000612bb68383612b71565b905092915050565b6000602082019050919050565b6000612bd682612b34565b612be08185612b3f565b935083602082028501612bf285612b50565b8060005b85811015612c2e5784840389528151612c0f8582612baa565b9450612c1a83612bbe565b925060208a01995050600181019050612bf6565b50829750879550505050505092915050565b600081519050919050565b600082825260208201905092915050565b6000819050602082019050919050565b612c7581612429565b82525050565b6000612c878383612c6c565b60208301905092915050565b6000602082019050919050565b6000612cab82612c40565b612cb58185612c4b565b9350612cc083612c5c565b8060005b83811015612cf1578151612cd88882612c7b565b9750612ce383612c93565b925050600181019050612cc4565b5085935050505092915050565b600081519050919050565b600082825260208201905092915050565b6000819050602082019050919050565b612d3381612327565b82525050565b6000612d458383612d2a565b60208301905092915050565b6000602082019050919050565b6000612d6982612cfe565b612d738185612d09565b9350612d7e83612d1a565b8060005b83811015612daf578151612d968882612d39565b9750612da183612d51565b925050600181019050612d82565b5085935050505092915050565b600081519050919050565b600082825260208201905092915050565b6000819050602082019050919050565b612df181612257565b82525050565b6000612e038383612de8565b60208301905092915050565b6000602082019050919050565b6000612e2782612dbc565b612e318185612dc7565b9350612e3c83612dd8565b8060005b83811015612e6d578151612e548882612df7565b9750612e5f83612e0f565b925050600181019050612e40565b5085935050505092915050565b600060c0820190508181036000830152612e948189612bcb565b90508181036020830152612ea88188612ca0565b90508181036040830152612ebc8187612d5e565b90508181036060830152612ed08186612d5e565b90508181036080830152612ee48185612e1c565b905081810360a0830152612ef88184612d5e565b9050979650505050505050565b600060e082019050612f1a600083018a61238a565b612f27602083018961238a565b8181036040830152612f3981886123f0565b9050612f48606083018761238a565b612f55608083018661238a565b612f6260a0830185612263565b612f6f60c0830184612263565b98975050505050505050565b600060c0820190508181036000830152612f9581896123f0565b9050612fa4602083018861243b565b612fb1604083018761238a565b612fbe606083018661238a565b612fcb6080830185612263565b612fd860a083018461238a565b979650505050505050565b7f4e487b7100000000000000000000000000000000000000000000000000000000600052602260045260246000fd5b6000600282049050600182168061302a57607f821691505b60208210810361303d5761303c612fe3565b5b50919050565b7f4d696c6573746f6e6520617272617973206d757374206d617463680000000000600082015250565b6000613079601b836123a4565b915061308482613043565b602082019050919050565b600060208201905081810360008301526130a88161306c565b9050919050565b7f4e487b7100000000000000000000000000000000000000000000000000000000600052601160045260246000fd5b60006130e982612327565b91507fffffffffffffffffffffffffffffffffffffffffffffffffffffffffffffffff820361311b5761311a6130af565b5b600182019050919050565b60008190508160005260206000209050919050565b60006020601f8301049050919050565b600082821b905092915050565b6000600883026131887fffffffffffffffffffffffffffffffffffffffffffffffffffffffffffffffff8261314b565b613192868361314b565b95508019841693508086168417925050509392505050565b60006131c56131c06131bb84612327565b6122ad565b612327565b9050919050565b6000819050919050565b6131df836131aa565b6131f36131eb826131cc565b848454613158565b825550505050565b600090565b6132086131fb565b6132138184846131d6565b505050565b5b818110156132375761322c600082613200565b600181019050613219565b5050565b601f82111561327c5761324d81613126565b6132568461313b565b81016020851015613265578190505b6132796132718561313b565b830182613218565b50505b505050565b600082821c905092915050565b600061329f60001984600802613281565b1980831691505092915050565b60006132b8838361328e565b9150826002028217905092915050565b6132d182612399565b67ffffffffffffffff8111156132ea576132e96125d0565b5b6132f48254613012565b6132ff82828561323b565b600060209050601f8311600181146133325760008415613320578287015190505b61332a85826132ac565b865550613392565b601f19841661334086613126565b60005b8281101561336857848901518255600182019150602085019450602081019050613343565b868310156133855784890151613381601f89168261328e565b8355505b6001600288020188555050505b505050505050565b7f4e487b7100000000000000000000000000000000000000000000000000000000600052603260045260246000fd5b600060408201905081810360008301526133e381856123f0565b90506133f2602083018461243b565b9392505050565b7f496e76616c6964206d696c6573746f6e6520696e646578000000000000000000600082015250565b600061342f6017836123a4565b915061343a826133f9565b602082019050919050565b6000602082019050818103600083015261345e81613422565b9050919050565b7f50726f6a656374206973207374696c6c20616374697665000000000000000000600082015250565b600061349b6017836123a4565b91506134a682613465565b602082019050919050565b600060208201905081810360008301526134ca8161348e565b9050919050565b7f4e6f20646f6e6174696f6e20666f756e64000000000000000000000000000000600082015250565b60006135076011836123a4565b9150613512826134d1565b602082019050919050565b60006020820190508181036000830152613536816134fa565b9050919050565b600081905092915050565b50565b600061355860008361353d565b915061356382613548565b600082019050919050565b60006135798261354b565b9150819050919050565b7f526566756e64207472616e73666572206661696c656400000000000000000000600082015250565b60006135b96016836123a4565b91506135c482613583565b602082019050919050565b600060208201905081810360008301526135e8816135ac565b9050919050565b7f50726f6a656374206973206e6f74206163746976650000000000000000000000600082015250565b60006136256015836123a4565b9150613630826135ef565b602082019050919050565b6000602082019050818103600083015261365481613618565b9050919050565b7f446f6e6174696f6e20616d6f756e74206d75737420626520677265617465722060008201527f7468616e20300000000000000000000000000000000000000000000000000000602082015250565b60006136b76026836123a4565b91506136c28261365b565b604082019050919050565b600060208201905081810360008301526136e6816136aa565b9050919050565b7f4574686572207472616e73666572206661696c65640000000000000000000000600082015250565b60006137236015836123a4565b915061372e826136ed565b602082019050919050565b6000602082019050818103600083015261375281613716565b9050919050565b600061376482612327565b915061376f83612327565b9250828201905080821115613787576137866130af565b5b92915050565b60006060820190506137a2600083018661243b565b6137af602083018561238a565b6137bc604083018461238a565b949350505050565b6000815190506137d381612331565b92915050565b6000602082840312156137ef576137ee6121c8565b5b60006137fd848285016137c4565b91505092915050565b7f50726f6a65637420616c726561647920696e6163746976650000000000000000600082015250565b600061383c6018836123a4565b915061384782613806565b602082019050919050565b6000602082019050818103600083015261386b8161382f565b9050919050565b7f4d696c6573746f6e6520616c726561647920636f6d706c657465640000000000600082015250565b60006138a8601b836123a4565b91506138b382613872565b602082019050919050565b600060208201905081810360008301526138d78161389b565b9050919050565b60006040820190506138f3600083018561243b565b6139006020830184612515565b939250505056fea2646970667358221220ed001f69ba75fdd3d2230f26ff638451f2d7d4d8d4b1e8b3601e41b7afcdc9f664736f6c63430008150033",
  "immutableReferences": {},
  "source": "// SPDX-License-Identifier: MIT\npragma solidity ^0.8.21;\n\nimport \"@openzeppelin/contracts/utils/ReentrancyGuard.sol\";\nimport \"@openzeppelin/contracts/access/AccessControl.sol\";\nimport \"@openzeppelin/contracts/token/ERC20/IERC20.sol\";\nimport \"./DonationToken.sol\";\n\ncontract CharityPlatform is ReentrancyGuard, AccessControl {\n    bytes32 public constant ADMIN_ROLE = keccak256(\"ADMIN_ROLE\");\n    bytes32 public constant CHARITY_ROLE = keccak256(\"CHARITY_ROLE\");\n\n    DonationToken public donationToken;\n    \n    struct Project {\n        uint256 id;\n        string name;\n        address charityAddress;\n        uint256 goalAmount;\n        uint256 raisedAmount;\n        bool isActive;\n        uint256[] milestones;\n        mapping(address => uint256) donations;\n    }\n\n    struct Milestone {\n        uint256 id;\n        uint256 projectId;\n        string description;\n        uint256 targetAmount;\n        uint256 raisedAmount;\n        bool isCompleted;\n        bool fundsReleased;\n        mapping(address => uint256) donations;\n    }\n\n    mapping(uint256 => Project) public projects;\n    uint256[] public projectIds;\n    mapping(uint256 => Milestone) public milestones;\n    uint256 public projectCount;\n    uint256 public milestonesCount;\n\n    event ProjectCreated(uint256 indexed projectId, string name, address charityAddress);\n    event DonationReceived(uint256 indexed projectId, address indexed donor, uint256 amount);\n    event MilestoneCompleted(uint256 milestoneIndex);\n    event FundsReleased(uint256 indexed projectId, uint256 amount);\n    event RefundIssued(uint256 indexed projectId, address indexed donor, uint256 amount);\n\n    constructor(address _donationToken) {\n        _grantRole(DEFAULT_ADMIN_ROLE, msg.sender);\n        _grantRole(ADMIN_ROLE, msg.sender);\n        donationToken = DonationToken(_donationToken);\n        projectCount = 0;\n        milestonesCount = 0;\n    }\n\n    function createProject(\n        address _address,\n        string memory _name,\n        uint256 _goalAmount,\n        string[] memory _milestoneDescriptions,\n        uint256[] memory _milestoneTargets\n    ) external onlyRole(CHARITY_ROLE) {\n        require(_milestoneDescriptions.length == _milestoneTargets.length, \"Milestone arrays must match\");\n        \n        projectCount++;\n        Project storage project = projects[projectCount];\n        projectIds.push(projectCount);\n        project.id = projectCount;\n        project.name = _name;\n        project.charityAddress = _address;\n        project.goalAmount = _goalAmount;\n        project.isActive = true;\n\n        for(uint i = 0; i < _milestoneDescriptions.length; i++) {\n            createMilestone(_milestoneDescriptions[i], _milestoneTargets[i], projectCount);\n        }\n\n        emit ProjectCreated(projectCount, _name, _address);\n    }\n\n    function createMilestone(\n        string memory _description,\n        uint256 _targetAmount,\n        uint256 _projectId\n    ) internal onlyRole(CHARITY_ROLE) {\n        milestonesCount++;\n        Milestone storage milestone = milestones[milestonesCount];\n        milestone.id = milestonesCount;\n        milestone.projectId = _projectId;\n        milestone.description = _description;\n        milestone.targetAmount = _targetAmount;\n        milestone.raisedAmount = 0;\n        milestone.isCompleted = false;\n        milestone.fundsReleased = false;\n        Project storage project = projects[_projectId];\n        project.milestones.push(milestonesCount);\n    }\n\n    function donate(uint256 _projectId, uint256 _milestoneId, address _donor, address _recipient) external payable nonReentrant {\n        Project storage project = projects[_projectId];\n        require(project.isActive, \"Project is not active\");\n        require(msg.value > 0, \"Donation amount must be greater than 0\");\n        address payable recipient = payable(_recipient); \n        bool success = recipient.send(msg.value);\n        require(success, \"Ether transfer failed\");\n        project.donations[_donor] += msg.value;\n        project.raisedAmount += msg.value;\n        donationToken.mint(_donor, _projectId, msg.value);\n\n        uint256 milestoneProjectIndex = project.milestones[_milestoneId];\n        Milestone storage milestone = milestones[milestoneProjectIndex];\n        milestone.donations[_donor] += msg.value;\n        milestone.raisedAmount += msg.value;\n\n        emit DonationReceived(_projectId, _donor, msg.value);\n\n        if (milestone.raisedAmount == milestone.targetAmount && !milestone.isCompleted) {\n            completeMilestone(milestone.id);\n        }\n    }\n\n    function completeMilestone(uint256 _milestoneIndex) internal {\n        Milestone storage milestone = milestones[_milestoneIndex];\n        require(!milestone.isCompleted, \"Milestone already completed\");\n        \n        milestone.isCompleted = true;\n        emit MilestoneCompleted(_milestoneIndex);\n    }\n\n    function requestRefund(uint256 _projectId) external nonReentrant {\n        Project storage project = projects[_projectId];\n        require(!project.isActive, \"Project is still active\");\n        \n        uint256 donationAmount = project.donations[msg.sender];\n        require(donationAmount > 0, \"No donation found\");\n\n        project.donations[msg.sender] = 0;\n        \n        (bool success, ) = msg.sender.call{value: donationAmount}(\"\");\n        require(success, \"Refund transfer failed\");\n\n        emit RefundIssued(_projectId, msg.sender, donationAmount);\n    }\n\n    function deactivateProject(uint256 _projectId, address _sender) external onlyRole(CHARITY_ROLE) {\n        Project storage project = projects[_projectId];\n        require(project.isActive, \"Project already inactive\");\n        require(project.charityAddress == _sender, \"Project already inactive\");\n        project.isActive = false;\n    }\n\n    // Administrative functions\n    function addCharity(address _charityAddress) external onlyRole(ADMIN_ROLE) {\n        _grantRole(CHARITY_ROLE, _charityAddress);\n    }\n\n    function removeCharity(address _charityAddress) external onlyRole(ADMIN_ROLE) {\n        revokeRole(CHARITY_ROLE, _charityAddress);\n    }\n\n    // View functions\n    function getProject(uint256 _projectId) external view returns (\n        string memory name,\n        address charityAddress,\n        uint256 goalAmount,\n        uint256 raisedAmount,\n        bool isActive,\n        uint256 milestoneCount\n    ) {\n        Project storage project = projects[_projectId];\n        return (\n            project.name,\n            project.charityAddress,\n            project.goalAmount,\n            project.raisedAmount,\n            project.isActive,\n            project.milestones.length\n        );\n    }\n\n    function getProjectDonations(uint256 _projectId, address _donor) external view returns (\n        uint256 donorAmount\n    ) {\n        Project storage project = projects[_projectId];\n        uint256 amount = project.donations[_donor];\n        return (\n            amount\n        );\n    }\n\n    function getProjects() external view returns (\n        string[] memory name,\n        address[] memory charityAddress,\n        uint256[] memory goalAmount,\n        uint256[] memory raisedAmount,\n        bool[] memory isActive,\n        uint256[] memory milestoneCount\n    ) {\n        string[] memory allNames = new string[](projectCount);\n        address[] memory allCharityAddreses = new address[](projectCount);\n        uint256[] memory allGoalAmounts = new uint256[](projectCount);\n        uint256[] memory allRaisedAmounts = new uint256[](projectCount);\n        bool[] memory areActive = new bool[](projectCount);\n        uint256[] memory milestoneCounts = new uint256[](projectCount);\n        for (uint i = 0; i < projectCount; i++) {\n            allNames[i] = projects[i].name;\n            allCharityAddreses[i] = projects[i].charityAddress;\n            allGoalAmounts[i] = projects[i].goalAmount;\n            allRaisedAmounts[i] = projects[i].raisedAmount;\n            areActive[i] = projects[i].isActive;\n            milestoneCounts[i] = projects[i].milestones.length;\n        }\n        return (\n            allNames, \n            allCharityAddreses, \n            allGoalAmounts,\n            allRaisedAmounts,\n            areActive,\n            milestoneCounts\n        );\n    }\n\n    function getMilestone(uint256 _projectId, uint256 _milestoneIndex) external view returns (\n        string memory description,\n        uint256 targetAmount,\n        uint256 raisedAmount,\n        bool isCompleted,\n        bool fundsReleased\n    ) {\n        Project storage project = projects[_projectId];\n        require(_milestoneIndex < project.milestones.length, \"Invalid milestone index\");\n        \n        uint256 milestoneProjectIndex = project.milestones[_milestoneIndex];\n        Milestone storage milestone = milestones[milestoneProjectIndex];\n\n        return (\n            milestone.description,\n            milestone.targetAmount,\n            milestone.raisedAmount,\n            milestone.isCompleted,\n            milestone.fundsReleased\n        );\n    }\n\n    function getMilestoneAmount(address _address, uint256 _projectId, uint256 _milestoneIndex) external view returns (\n        uint256 donatedAmount\n    ) {\n        Project storage project = projects[_projectId];\n        require(_milestoneIndex < project.milestones.length, \"Invalid milestone index\");\n        \n        uint256 milestoneProjectIndex = project.milestones[_milestoneIndex];\n        Milestone storage milestone = milestones[milestoneProjectIndex];\n\n        return (\n            milestone.donations[_address]\n        );\n    }\n\n    receive() external payable {}\n}",
  "sourcePath": "/Users/artazidele/Documents/LU-2023-2024/Blokkedes biznesa/CharityDonation/contracts/CharityPlatform.sol",
  "compiler": {
    "name": "solc",
    "version": "0.8.21+commit.d9974bed.Emscripten.clang"
  },
  "schemaVersion": "3.4.16",
  "updatedAt": "2025-01-09T20:20:42.227Z",
  "networkType": "ethereum",
  "devdoc": {
    "errors": {
      "AccessControlBadConfirmation()": [
        {
          "details": "The caller of a function is not the expected one. NOTE: Don't confuse with {AccessControlUnauthorizedAccount}."
        }
      ],
      "AccessControlUnauthorizedAccount(address,bytes32)": [
        {
          "details": "The `account` is missing a role."
        }
      ],
      "ReentrancyGuardReentrantCall()": [
        {
          "details": "Unauthorized reentrant call."
        }
      ]
    },
    "events": {
      "RoleAdminChanged(bytes32,bytes32,bytes32)": {
        "details": "Emitted when `newAdminRole` is set as ``role``'s admin role, replacing `previousAdminRole` `DEFAULT_ADMIN_ROLE` is the starting admin for all roles, despite {RoleAdminChanged} not being emitted signaling this."
      },
      "RoleGranted(bytes32,address,address)": {
        "details": "Emitted when `account` is granted `role`. `sender` is the account that originated the contract call. This account bears the admin role (for the granted role). Expected in cases where the role was granted using the internal {AccessControl-_grantRole}."
      },
      "RoleRevoked(bytes32,address,address)": {
        "details": "Emitted when `account` is revoked `role`. `sender` is the account that originated the contract call:   - if using `revokeRole`, it is the admin role bearer   - if using `renounceRole`, it is the role bearer (i.e. `account`)"
      }
    },
    "kind": "dev",
    "methods": {
      "getRoleAdmin(bytes32)": {
        "details": "Returns the admin role that controls `role`. See {grantRole} and {revokeRole}. To change a role's admin, use {_setRoleAdmin}."
      },
      "grantRole(bytes32,address)": {
        "details": "Grants `role` to `account`. If `account` had not been already granted `role`, emits a {RoleGranted} event. Requirements: - the caller must have ``role``'s admin role. May emit a {RoleGranted} event."
      },
      "hasRole(bytes32,address)": {
        "details": "Returns `true` if `account` has been granted `role`."
      },
      "renounceRole(bytes32,address)": {
        "details": "Revokes `role` from the calling account. Roles are often managed via {grantRole} and {revokeRole}: this function's purpose is to provide a mechanism for accounts to lose their privileges if they are compromised (such as when a trusted device is misplaced). If the calling account had been revoked `role`, emits a {RoleRevoked} event. Requirements: - the caller must be `callerConfirmation`. May emit a {RoleRevoked} event."
      },
      "revokeRole(bytes32,address)": {
        "details": "Revokes `role` from `account`. If `account` had been granted `role`, emits a {RoleRevoked} event. Requirements: - the caller must have ``role``'s admin role. May emit a {RoleRevoked} event."
      },
      "supportsInterface(bytes4)": {
        "details": "See {IERC165-supportsInterface}."
      }
    },
    "version": 1
  },
  "userdoc": {
    "kind": "user",
    "methods": {},
    "version": 1
  }
}