{
  "contractName": "CharityPlatform",
  "abi": [
    {
      "inputs": [
        {
          "internalType": "address",
          "name": "_donationToken",
          "type": "address"
        }
      ],
      "stateMutability": "nonpayable",
      "type": "constructor"
    },
    {
      "inputs": [],
      "name": "AccessControlBadConfirmation",
      "type": "error"
    },
    {
      "inputs": [
        {
          "internalType": "address",
          "name": "account",
          "type": "address"
        },
        {
          "internalType": "bytes32",
          "name": "neededRole",
          "type": "bytes32"
        }
      ],
      "name": "AccessControlUnauthorizedAccount",
      "type": "error"
    },
    {
      "inputs": [],
      "name": "ReentrancyGuardReentrantCall",
      "type": "error"
    },
    {
      "anonymous": false,
      "inputs": [
        {
          "indexed": true,
          "internalType": "uint256",
          "name": "projectId",
          "type": "uint256"
        },
        {
          "indexed": true,
          "internalType": "address",
          "name": "donor",
          "type": "address"
        },
        {
          "indexed": false,
          "internalType": "uint256",
          "name": "amount",
          "type": "uint256"
        }
      ],
      "name": "DonationReceived",
      "type": "event"
    },
    {
      "anonymous": false,
      "inputs": [
        {
          "indexed": true,
          "internalType": "uint256",
          "name": "projectId",
          "type": "uint256"
        },
        {
          "indexed": false,
          "internalType": "uint256",
          "name": "amount",
          "type": "uint256"
        }
      ],
      "name": "FundsReleased",
      "type": "event"
    },
    {
      "anonymous": false,
      "inputs": [
        {
          "indexed": true,
          "internalType": "uint256",
          "name": "projectId",
          "type": "uint256"
        },
        {
          "indexed": false,
          "internalType": "uint256",
          "name": "milestoneIndex",
          "type": "uint256"
        }
      ],
      "name": "MilestoneCompleted",
      "type": "event"
    },
    {
      "anonymous": false,
      "inputs": [
        {
          "indexed": true,
          "internalType": "uint256",
          "name": "projectId",
          "type": "uint256"
        },
        {
          "indexed": false,
          "internalType": "string",
          "name": "name",
          "type": "string"
        },
        {
          "indexed": false,
          "internalType": "address",
          "name": "charityAddress",
          "type": "address"
        }
      ],
      "name": "ProjectCreated",
      "type": "event"
    },
    {
      "anonymous": false,
      "inputs": [
        {
          "indexed": true,
          "internalType": "uint256",
          "name": "projectId",
          "type": "uint256"
        },
        {
          "indexed": true,
          "internalType": "address",
          "name": "donor",
          "type": "address"
        },
        {
          "indexed": false,
          "internalType": "uint256",
          "name": "amount",
          "type": "uint256"
        }
      ],
      "name": "RefundIssued",
      "type": "event"
    },
    {
      "anonymous": false,
      "inputs": [
        {
          "indexed": true,
          "internalType": "bytes32",
          "name": "role",
          "type": "bytes32"
        },
        {
          "indexed": true,
          "internalType": "bytes32",
          "name": "previousAdminRole",
          "type": "bytes32"
        },
        {
          "indexed": true,
          "internalType": "bytes32",
          "name": "newAdminRole",
          "type": "bytes32"
        }
      ],
      "name": "RoleAdminChanged",
      "type": "event"
    },
    {
      "anonymous": false,
      "inputs": [
        {
          "indexed": true,
          "internalType": "bytes32",
          "name": "role",
          "type": "bytes32"
        },
        {
          "indexed": true,
          "internalType": "address",
          "name": "account",
          "type": "address"
        },
        {
          "indexed": true,
          "internalType": "address",
          "name": "sender",
          "type": "address"
        }
      ],
      "name": "RoleGranted",
      "type": "event"
    },
    {
      "anonymous": false,
      "inputs": [
        {
          "indexed": true,
          "internalType": "bytes32",
          "name": "role",
          "type": "bytes32"
        },
        {
          "indexed": true,
          "internalType": "address",
          "name": "account",
          "type": "address"
        },
        {
          "indexed": true,
          "internalType": "address",
          "name": "sender",
          "type": "address"
        }
      ],
      "name": "RoleRevoked",
      "type": "event"
    },
    {
      "inputs": [],
      "name": "ADMIN_ROLE",
      "outputs": [
        {
          "internalType": "bytes32",
          "name": "",
          "type": "bytes32"
        }
      ],
      "stateMutability": "view",
      "type": "function"
    },
    {
      "inputs": [],
      "name": "CHARITY_ROLE",
      "outputs": [
        {
          "internalType": "bytes32",
          "name": "",
          "type": "bytes32"
        }
      ],
      "stateMutability": "view",
      "type": "function"
    },
    {
      "inputs": [],
      "name": "DEFAULT_ADMIN_ROLE",
      "outputs": [
        {
          "internalType": "bytes32",
          "name": "",
          "type": "bytes32"
        }
      ],
      "stateMutability": "view",
      "type": "function"
    },
    {
      "inputs": [],
      "name": "donationToken",
      "outputs": [
        {
          "internalType": "contract DonationToken",
          "name": "",
          "type": "address"
        }
      ],
      "stateMutability": "view",
      "type": "function"
    },
    {
      "inputs": [
        {
          "internalType": "bytes32",
          "name": "role",
          "type": "bytes32"
        }
      ],
      "name": "getRoleAdmin",
      "outputs": [
        {
          "internalType": "bytes32",
          "name": "",
          "type": "bytes32"
        }
      ],
      "stateMutability": "view",
      "type": "function"
    },
    {
      "inputs": [
        {
          "internalType": "bytes32",
          "name": "role",
          "type": "bytes32"
        },
        {
          "internalType": "address",
          "name": "account",
          "type": "address"
        }
      ],
      "name": "grantRole",
      "outputs": [],
      "stateMutability": "nonpayable",
      "type": "function"
    },
    {
      "inputs": [
        {
          "internalType": "bytes32",
          "name": "role",
          "type": "bytes32"
        },
        {
          "internalType": "address",
          "name": "account",
          "type": "address"
        }
      ],
      "name": "hasRole",
      "outputs": [
        {
          "internalType": "bool",
          "name": "",
          "type": "bool"
        }
      ],
      "stateMutability": "view",
      "type": "function"
    },
    {
      "inputs": [],
      "name": "projectCount",
      "outputs": [
        {
          "internalType": "uint256",
          "name": "",
          "type": "uint256"
        }
      ],
      "stateMutability": "view",
      "type": "function"
    },
    {
      "inputs": [
        {
          "internalType": "uint256",
          "name": "",
          "type": "uint256"
        }
      ],
      "name": "projects",
      "outputs": [
        {
          "internalType": "string",
          "name": "name",
          "type": "string"
        },
        {
          "internalType": "address",
          "name": "charityAddress",
          "type": "address"
        },
        {
          "internalType": "uint256",
          "name": "goalAmount",
          "type": "uint256"
        },
        {
          "internalType": "uint256",
          "name": "raisedAmount",
          "type": "uint256"
        },
        {
          "internalType": "bool",
          "name": "isActive",
          "type": "bool"
        }
      ],
      "stateMutability": "view",
      "type": "function"
    },
    {
      "inputs": [
        {
          "internalType": "bytes32",
          "name": "role",
          "type": "bytes32"
        },
        {
          "internalType": "address",
          "name": "callerConfirmation",
          "type": "address"
        }
      ],
      "name": "renounceRole",
      "outputs": [],
      "stateMutability": "nonpayable",
      "type": "function"
    },
    {
      "inputs": [
        {
          "internalType": "bytes32",
          "name": "role",
          "type": "bytes32"
        },
        {
          "internalType": "address",
          "name": "account",
          "type": "address"
        }
      ],
      "name": "revokeRole",
      "outputs": [],
      "stateMutability": "nonpayable",
      "type": "function"
    },
    {
      "inputs": [
        {
          "internalType": "bytes4",
          "name": "interfaceId",
          "type": "bytes4"
        }
      ],
      "name": "supportsInterface",
      "outputs": [
        {
          "internalType": "bool",
          "name": "",
          "type": "bool"
        }
      ],
      "stateMutability": "view",
      "type": "function"
    },
    {
      "stateMutability": "payable",
      "type": "receive"
    },
    {
      "inputs": [
        {
          "internalType": "string",
          "name": "_name",
          "type": "string"
        },
        {
          "internalType": "uint256",
          "name": "_goalAmount",
          "type": "uint256"
        },
        {
          "internalType": "string[]",
          "name": "_milestoneDescriptions",
          "type": "string[]"
        },
        {
          "internalType": "uint256[]",
          "name": "_milestoneTargets",
          "type": "uint256[]"
        }
      ],
      "name": "createProject",
      "outputs": [],
      "stateMutability": "nonpayable",
      "type": "function"
    },
    {
      "inputs": [
        {
          "internalType": "uint256",
          "name": "_projectId",
          "type": "uint256"
        }
      ],
      "name": "donate",
      "outputs": [],
      "stateMutability": "payable",
      "type": "function"
    },
    {
      "inputs": [
        {
          "internalType": "uint256",
          "name": "_projectId",
          "type": "uint256"
        },
        {
          "internalType": "uint256",
          "name": "_milestoneIndex",
          "type": "uint256"
        }
      ],
      "name": "completeMilestone",
      "outputs": [],
      "stateMutability": "nonpayable",
      "type": "function"
    },
    {
      "inputs": [
        {
          "internalType": "uint256",
          "name": "_projectId",
          "type": "uint256"
        }
      ],
      "name": "requestRefund",
      "outputs": [],
      "stateMutability": "nonpayable",
      "type": "function"
    },
    {
      "inputs": [
        {
          "internalType": "uint256",
          "name": "_projectId",
          "type": "uint256"
        }
      ],
      "name": "deactivateProject",
      "outputs": [],
      "stateMutability": "nonpayable",
      "type": "function"
    },
    {
      "inputs": [
        {
          "internalType": "uint256",
          "name": "_projectId",
          "type": "uint256"
        },
        {
          "internalType": "address",
          "name": "_tokenAddress",
          "type": "address"
        },
        {
          "internalType": "uint256",
          "name": "_amount",
          "type": "uint256"
        }
      ],
      "name": "donateToken",
      "outputs": [],
      "stateMutability": "nonpayable",
      "type": "function"
    },
    {
      "inputs": [
        {
          "internalType": "address",
          "name": "_charityAddress",
          "type": "address"
        }
      ],
      "name": "addCharity",
      "outputs": [],
      "stateMutability": "nonpayable",
      "type": "function"
    },
    {
      "inputs": [
        {
          "internalType": "address",
          "name": "_charityAddress",
          "type": "address"
        }
      ],
      "name": "removeCharity",
      "outputs": [],
      "stateMutability": "nonpayable",
      "type": "function"
    },
    {
      "inputs": [
        {
          "internalType": "uint256",
          "name": "_projectId",
          "type": "uint256"
        }
      ],
      "name": "getProject",
      "outputs": [
        {
          "internalType": "string",
          "name": "name",
          "type": "string"
        },
        {
          "internalType": "address",
          "name": "charityAddress",
          "type": "address"
        },
        {
          "internalType": "uint256",
          "name": "goalAmount",
          "type": "uint256"
        },
        {
          "internalType": "uint256",
          "name": "raisedAmount",
          "type": "uint256"
        },
        {
          "internalType": "bool",
          "name": "isActive",
          "type": "bool"
        },
        {
          "internalType": "uint256",
          "name": "milestoneCount",
          "type": "uint256"
        }
      ],
      "stateMutability": "view",
      "type": "function"
    },
    {
      "inputs": [
        {
          "internalType": "uint256",
          "name": "_projectId",
          "type": "uint256"
        },
        {
          "internalType": "uint256",
          "name": "_milestoneIndex",
          "type": "uint256"
        }
      ],
      "name": "getMilestone",
      "outputs": [
        {
          "internalType": "string",
          "name": "description",
          "type": "string"
        },
        {
          "internalType": "uint256",
          "name": "targetAmount",
          "type": "uint256"
        },
        {
          "internalType": "bool",
          "name": "isCompleted",
          "type": "bool"
        },
        {
          "internalType": "bool",
          "name": "fundsReleased",
          "type": "bool"
        }
      ],
      "stateMutability": "view",
      "type": "function"
    }
  ],
  "bytecode": "0x60806040523480156200001157600080fd5b50604051620031d8380380620031d88339818101604052810190620000379190620002b0565b6001600081905550620000546000801b33620000d060201b60201c565b50620000877fa49807205ce4d355092ef5a8a18f56e8913cf4a201fbe287825b095693c2177533620000d060201b60201c565b5080600260006101000a81548173ffffffffffffffffffffffffffffffffffffffff021916908373ffffffffffffffffffffffffffffffffffffffff16021790555050620002e2565b6000620000e48383620001d360201b60201c565b620001c857600180600085815260200190815260200160002060000160008473ffffffffffffffffffffffffffffffffffffffff1673ffffffffffffffffffffffffffffffffffffffff16815260200190815260200160002060006101000a81548160ff021916908315150217905550620001646200023e60201b60201c565b73ffffffffffffffffffffffffffffffffffffffff168273ffffffffffffffffffffffffffffffffffffffff16847f2f8788117e7eff1d82e926ec794901d17c78024a50270940304540a733656f0d60405160405180910390a460019050620001cd565b600090505b92915050565b60006001600084815260200190815260200160002060000160008373ffffffffffffffffffffffffffffffffffffffff1673ffffffffffffffffffffffffffffffffffffffff16815260200190815260200160002060009054906101000a900460ff16905092915050565b600033905090565b600080fd5b600073ffffffffffffffffffffffffffffffffffffffff82169050919050565b600062000278826200024b565b9050919050565b6200028a816200026b565b81146200029657600080fd5b50565b600081519050620002aa816200027f565b92915050565b600060208284031215620002c957620002c862000246565b5b6000620002d98482850162000299565b91505092915050565b612ee680620002f26000396000f3fe6080604052600436106101395760003560e01c80638ed9895c116100ab578063afd14b821161006f578063afd14b821461044a578063d547741f14610473578063f05719351461049c578063f0f3f2c8146104c5578063f14faf6f14610507578063f326206b1461052357610140565b80638ed9895c1461035057806391d1485414610390578063a217fddf146103cd578063a4b2409e146103f8578063abefe5911461042157610140565b806336568abe116100fd57806336568abe1461025457806336fbad261461027d578063436e6958146102a85780636f0c8067146102d157806375b238fc146102fc57806378b14f0a1461032757610140565b806301ffc9a7146101455780630df7215914610182578063107046bd146101ad578063248a9ca3146101ee5780632f2ff15d1461022b57610140565b3661014057005b600080fd5b34801561015157600080fd5b5061016c60048036038101906101679190611bf5565b61054c565b6040516101799190611c3d565b60405180910390f35b34801561018e57600080fd5b506101976105c6565b6040516101a49190611cd7565b60405180910390f35b3480156101b957600080fd5b506101d460048036038101906101cf9190611d28565b6105ec565b6040516101e5959493929190611e15565b60405180910390f35b3480156101fa57600080fd5b5061021560048036038101906102109190611ea5565b6106d7565b6040516102229190611ee1565b60405180910390f35b34801561023757600080fd5b50610252600480360381019061024d9190611f28565b6106f7565b005b34801561026057600080fd5b5061027b60048036038101906102769190611f28565b610719565b005b34801561028957600080fd5b50610292610794565b60405161029f9190611f68565b60405180910390f35b3480156102b457600080fd5b506102cf60048036038101906102ca9190611d28565b61079a565b005b3480156102dd57600080fd5b506102e661084e565b6040516102f39190611ee1565b60405180910390f35b34801561030857600080fd5b50610311610872565b60405161031e9190611ee1565b60405180910390f35b34801561033357600080fd5b5061034e60048036038101906103499190611f83565b610896565b005b34801561035c57600080fd5b5061037760048036038101906103729190611fb0565b6108ee565b6040516103879493929190611ff0565b60405180910390f35b34801561039c57600080fd5b506103b760048036038101906103b29190611f28565b610a48565b6040516103c49190611c3d565b60405180910390f35b3480156103d957600080fd5b506103e2610ab3565b6040516103ef9190611ee1565b60405180910390f35b34801561040457600080fd5b5061041f600480360381019061041a9190611d28565b610aba565b005b34801561042d57600080fd5b5061044860048036038101906104439190611f83565b610d04565b005b34801561045657600080fd5b50610471600480360381019061046c919061231a565b610d5c565b005b34801561047f57600080fd5b5061049a60048036038101906104959190611f28565b610fc4565b005b3480156104a857600080fd5b506104c360048036038101906104be91906123d5565b610fe6565b005b3480156104d157600080fd5b506104ec60048036038101906104e79190611d28565b61128e565b6040516104fe96959493929190612428565b60405180910390f35b610521600480360381019061051c9190611d28565b61139d565b005b34801561052f57600080fd5b5061054a60048036038101906105459190611fb0565b6115c1565b005b60007f7965db0b000000000000000000000000000000000000000000000000000000007bffffffffffffffffffffffffffffffffffffffffffffffffffffffff1916827bffffffffffffffffffffffffffffffffffffffffffffffffffffffff191614806105bf57506105be8261187e565b5b9050919050565b600260009054906101000a900473ffffffffffffffffffffffffffffffffffffffff1681565b600360205280600052604060002060009150905080600001805461060f906124bf565b80601f016020809104026020016040519081016040528092919081815260200182805461063b906124bf565b80156106885780601f1061065d57610100808354040283529160200191610688565b820191906000526020600020905b81548152906001019060200180831161066b57829003601f168201915b5050505050908060010160009054906101000a900473ffffffffffffffffffffffffffffffffffffffff16908060020154908060030154908060040160009054906101000a900460ff16905085565b600060016000838152602001908152602001600020600101549050919050565b610700826106d7565b610709816118e8565b61071383836118fc565b50505050565b6107216119ed565b73ffffffffffffffffffffffffffffffffffffffff168173ffffffffffffffffffffffffffffffffffffffff1614610785576040517f6697b23200000000000000000000000000000000000000000000000000000000815260040160405180910390fd5b61078f82826119f5565b505050565b60045481565b7fa49807205ce4d355092ef5a8a18f56e8913cf4a201fbe287825b095693c217756107c4816118e8565b60006003600084815260200190815260200160002090508060040160009054906101000a900460ff1661082c576040517f08c379a00000000000000000000000000000000000000000000000000000000081526004016108239061253c565b60405180910390fd5b60008160040160006101000a81548160ff021916908315150217905550505050565b7f838cb9e68162e54d2dfda44baa96273d8a6cb729c0d42995215e0f52841feb7781565b7fa49807205ce4d355092ef5a8a18f56e8913cf4a201fbe287825b095693c2177581565b7fa49807205ce4d355092ef5a8a18f56e8913cf4a201fbe287825b095693c217756108c0816118e8565b6108ea7f838cb9e68162e54d2dfda44baa96273d8a6cb729c0d42995215e0f52841feb77836106f7565b5050565b606060008060008060036000888152602001908152602001600020905080600501805490508610610954576040517f08c379a000000000000000000000000000000000000000000000000000000000815260040161094b906125a8565b60405180910390fd5b600081600501878154811061096c5761096b6125c8565b5b906000526020600020906003020190508060000181600101548260020160009054906101000a900460ff168360020160019054906101000a900460ff168380546109b5906124bf565b80601f01602080910402602001604051908101604052809291908181526020018280546109e1906124bf565b8015610a2e5780601f10610a0357610100808354040283529160200191610a2e565b820191906000526020600020905b815481529060010190602001808311610a1157829003601f168201915b505050505093509550955095509550505092959194509250565b60006001600084815260200190815260200160002060000160008373ffffffffffffffffffffffffffffffffffffffff1673ffffffffffffffffffffffffffffffffffffffff16815260200190815260200160002060009054906101000a900460ff16905092915050565b6000801b81565b610ac2611ae8565b60006003600083815260200190815260200160002090508060040160009054906101000a900460ff1615610b2b576040517f08c379a0000000000000000000000000000000000000000000000000000000008152600401610b2290612643565b60405180910390fd5b60008160060160003373ffffffffffffffffffffffffffffffffffffffff1673ffffffffffffffffffffffffffffffffffffffff16815260200190815260200160002054905060008111610bb4576040517f08c379a0000000000000000000000000000000000000000000000000000000008152600401610bab906126af565b60405180910390fd5b60008260060160003373ffffffffffffffffffffffffffffffffffffffff1673ffffffffffffffffffffffffffffffffffffffff1681526020019081526020016000208190555060003373ffffffffffffffffffffffffffffffffffffffff1682604051610c2190612700565b60006040518083038185875af1925050503d8060008114610c5e576040519150601f19603f3d011682016040523d82523d6000602084013e610c63565b606091505b5050905080610ca7576040517f08c379a0000000000000000000000000000000000000000000000000000000008152600401610c9e90612761565b60405180910390fd5b3373ffffffffffffffffffffffffffffffffffffffff16847f7a482fdeb6bc9a1376f597068a214a7a39472bb2eff1b8cad21ba04f49ddca1b84604051610cee9190611f68565b60405180910390a3505050610d01611b2e565b50565b7fa49807205ce4d355092ef5a8a18f56e8913cf4a201fbe287825b095693c21775610d2e816118e8565b610d587f838cb9e68162e54d2dfda44baa96273d8a6cb729c0d42995215e0f52841feb7783610fc4565b5050565b7f838cb9e68162e54d2dfda44baa96273d8a6cb729c0d42995215e0f52841feb77610d86816118e8565b8151835114610dca576040517f08c379a0000000000000000000000000000000000000000000000000000000008152600401610dc1906127cd565b60405180910390fd5b60046000815480929190610ddd9061281c565b91905055506000600360006004548152602001908152602001600020905085816000019081610e0c9190612a06565b50338160010160006101000a81548173ffffffffffffffffffffffffffffffffffffffff021916908373ffffffffffffffffffffffffffffffffffffffff16021790555084816002018190555060018160040160006101000a81548160ff02191690831515021790555060005b8451811015610f7f57816005016040518060800160405280878481518110610ea457610ea36125c8565b5b60200260200101518152602001868481518110610ec457610ec36125c8565b5b602002602001015181526020016000151581526020016000151581525090806001815401808255809150506001900390600052602060002090600302016000909190919091506000820151816000019081610f1f9190612a06565b506020820151816001015560408201518160020160006101000a81548160ff02191690831515021790555060608201518160020160016101000a81548160ff02191690831515021790555050508080610f779061281c565b915050610e79565b506004547fc0c54fed07481d0998e1446b2c13759606bf4f26b78306307413ac4c4309aa828733604051610fb4929190612ad8565b60405180910390a2505050505050565b610fcd826106d7565b610fd6816118e8565b610fe083836119f5565b50505050565b610fee611ae8565b60006003600085815260200190815260200160002090508060040160009054906101000a900460ff16611056576040517f08c379a000000000000000000000000000000000000000000000000000000000815260040161104d90612b54565b60405180910390fd5b60008390508073ffffffffffffffffffffffffffffffffffffffff166323b872dd3330866040518463ffffffff1660e01b815260040161109893929190612b74565b6020604051808303816000875af11580156110b7573d6000803e3d6000fd5b505050506040513d601f19601f820116820180604052508101906110db9190612bd7565b61111a576040517f08c379a000000000000000000000000000000000000000000000000000000000815260040161111190612c50565b60405180910390fd5b828260060160003373ffffffffffffffffffffffffffffffffffffffff1673ffffffffffffffffffffffffffffffffffffffff168152602001908152602001600020600082825461116b9190612c70565b92505081905550828260030160008282546111869190612c70565b92505081905550600260009054906101000a900473ffffffffffffffffffffffffffffffffffffffff1673ffffffffffffffffffffffffffffffffffffffff1663156e29f63387866040518463ffffffff1660e01b81526004016111ec93929190612ca4565b6020604051808303816000875af115801561120b573d6000803e3d6000fd5b505050506040513d601f19601f8201168201806040525081019061122f9190612cf0565b503373ffffffffffffffffffffffffffffffffffffffff16857f0b5b4c52969ff7329ecf7ee536409fda87812b15a8622bc6e8cdeab3aee14a26856040516112779190611f68565b60405180910390a35050611289611b2e565b505050565b6060600080600080600080600360008981526020019081526020016000209050806000018160010160009054906101000a900473ffffffffffffffffffffffffffffffffffffffff16826002015483600301548460040160009054906101000a900460ff168560050180549050858054611307906124bf565b80601f0160208091040260200160405190810160405280929190818152602001828054611333906124bf565b80156113805780601f1061135557610100808354040283529160200191611380565b820191906000526020600020905b81548152906001019060200180831161136357829003601f168201915b505050505095509650965096509650965096505091939550919395565b6113a5611ae8565b60006003600083815260200190815260200160002090508060040160009054906101000a900460ff1661140d576040517f08c379a000000000000000000000000000000000000000000000000000000000815260040161140490612b54565b60405180910390fd5b60003411611450576040517f08c379a000000000000000000000000000000000000000000000000000000000815260040161144790612d8f565b60405180910390fd5b348160060160003373ffffffffffffffffffffffffffffffffffffffff1673ffffffffffffffffffffffffffffffffffffffff16815260200190815260200160002060008282546114a19190612c70565b92505081905550348160030160008282546114bc9190612c70565b92505081905550600260009054906101000a900473ffffffffffffffffffffffffffffffffffffffff1673ffffffffffffffffffffffffffffffffffffffff1663156e29f63384346040518463ffffffff1660e01b815260040161152293929190612ca4565b6020604051808303816000875af1158015611541573d6000803e3d6000fd5b505050506040513d601f19601f820116820180604052508101906115659190612cf0565b503373ffffffffffffffffffffffffffffffffffffffff16827f0b5b4c52969ff7329ecf7ee536409fda87812b15a8622bc6e8cdeab3aee14a26346040516115ad9190611f68565b60405180910390a3506115be611b2e565b50565b7fa49807205ce4d355092ef5a8a18f56e8913cf4a201fbe287825b095693c217756115eb816118e8565b60006003600085815260200190815260200160002090508060050180549050831061164b576040517f08c379a0000000000000000000000000000000000000000000000000000000008152600401611642906125a8565b60405180910390fd5b6000816005018481548110611663576116626125c8565b5b906000526020600020906003020190508060020160009054906101000a900460ff16156116c5576040517f08c379a00000000000000000000000000000000000000000000000000000000081526004016116bc90612dfb565b60405180910390fd5b60018160020160006101000a81548160ff021916908315150217905550847f1b7218c0ac23ea9cbe4df603d2b340fbf469a115b73ea3d11460727f445d6be1856040516117129190611f68565b60405180910390a28060020160019054906101000a900460ff1615801561174157508060010154826003015410155b156118775760018160020160016101000a81548160ff02191690831515021790555060008160010154905060008360010160009054906101000a900473ffffffffffffffffffffffffffffffffffffffff1673ffffffffffffffffffffffffffffffffffffffff16826040516117b690612700565b60006040518083038185875af1925050503d80600081146117f3576040519150601f19603f3d011682016040523d82523d6000602084013e6117f8565b606091505b505090508061183c576040517f08c379a000000000000000000000000000000000000000000000000000000000815260040161183390612e67565b60405180910390fd5b867f80230996023d69b50793fa73f1919127c9d8e741d3989743c479169f22e7a2888360405161186c9190611f68565b60405180910390a250505b5050505050565b60007f01ffc9a7000000000000000000000000000000000000000000000000000000007bffffffffffffffffffffffffffffffffffffffffffffffffffffffff1916827bffffffffffffffffffffffffffffffffffffffffffffffffffffffff1916149050919050565b6118f9816118f46119ed565b611b38565b50565b60006119088383610a48565b6119e257600180600085815260200190815260200160002060000160008473ffffffffffffffffffffffffffffffffffffffff1673ffffffffffffffffffffffffffffffffffffffff16815260200190815260200160002060006101000a81548160ff02191690831515021790555061197f6119ed565b73ffffffffffffffffffffffffffffffffffffffff168273ffffffffffffffffffffffffffffffffffffffff16847f2f8788117e7eff1d82e926ec794901d17c78024a50270940304540a733656f0d60405160405180910390a4600190506119e7565b600090505b92915050565b600033905090565b6000611a018383610a48565b15611add5760006001600085815260200190815260200160002060000160008473ffffffffffffffffffffffffffffffffffffffff1673ffffffffffffffffffffffffffffffffffffffff16815260200190815260200160002060006101000a81548160ff021916908315150217905550611a7a6119ed565b73ffffffffffffffffffffffffffffffffffffffff168273ffffffffffffffffffffffffffffffffffffffff16847ff6391f5c32d9c69d2a47ea670b442974b53935d1edc7fd64eb21e047a839171b60405160405180910390a460019050611ae2565b600090505b92915050565b600260005403611b24576040517f3ee5aeb500000000000000000000000000000000000000000000000000000000815260040160405180910390fd5b6002600081905550565b6001600081905550565b611b428282610a48565b611b855780826040517fe2517d3f000000000000000000000000000000000000000000000000000000008152600401611b7c929190612e87565b60405180910390fd5b5050565b6000604051905090565b600080fd5b600080fd5b60007fffffffff0000000000000000000000000000000000000000000000000000000082169050919050565b611bd281611b9d565b8114611bdd57600080fd5b50565b600081359050611bef81611bc9565b92915050565b600060208284031215611c0b57611c0a611b93565b5b6000611c1984828501611be0565b91505092915050565b60008115159050919050565b611c3781611c22565b82525050565b6000602082019050611c526000830184611c2e565b92915050565b600073ffffffffffffffffffffffffffffffffffffffff82169050919050565b6000819050919050565b6000611c9d611c98611c9384611c58565b611c78565b611c58565b9050919050565b6000611caf82611c82565b9050919050565b6000611cc182611ca4565b9050919050565b611cd181611cb6565b82525050565b6000602082019050611cec6000830184611cc8565b92915050565b6000819050919050565b611d0581611cf2565b8114611d1057600080fd5b50565b600081359050611d2281611cfc565b92915050565b600060208284031215611d3e57611d3d611b93565b5b6000611d4c84828501611d13565b91505092915050565b600081519050919050565b600082825260208201905092915050565b60005b83811015611d8f578082015181840152602081019050611d74565b60008484015250505050565b6000601f19601f8301169050919050565b6000611db782611d55565b611dc18185611d60565b9350611dd1818560208601611d71565b611dda81611d9b565b840191505092915050565b6000611df082611c58565b9050919050565b611e0081611de5565b82525050565b611e0f81611cf2565b82525050565b600060a0820190508181036000830152611e2f8188611dac565b9050611e3e6020830187611df7565b611e4b6040830186611e06565b611e586060830185611e06565b611e656080830184611c2e565b9695505050505050565b6000819050919050565b611e8281611e6f565b8114611e8d57600080fd5b50565b600081359050611e9f81611e79565b92915050565b600060208284031215611ebb57611eba611b93565b5b6000611ec984828501611e90565b91505092915050565b611edb81611e6f565b82525050565b6000602082019050611ef66000830184611ed2565b92915050565b611f0581611de5565b8114611f1057600080fd5b50565b600081359050611f2281611efc565b92915050565b60008060408385031215611f3f57611f3e611b93565b5b6000611f4d85828601611e90565b9250506020611f5e85828601611f13565b9150509250929050565b6000602082019050611f7d6000830184611e06565b92915050565b600060208284031215611f9957611f98611b93565b5b6000611fa784828501611f13565b91505092915050565b60008060408385031215611fc757611fc6611b93565b5b6000611fd585828601611d13565b9250506020611fe685828601611d13565b9150509250929050565b6000608082019050818103600083015261200a8187611dac565b90506120196020830186611e06565b6120266040830185611c2e565b6120336060830184611c2e565b95945050505050565b600080fd5b600080fd5b7f4e487b7100000000000000000000000000000000000000000000000000000000600052604160045260246000fd5b61207e82611d9b565b810181811067ffffffffffffffff8211171561209d5761209c612046565b5b80604052505050565b60006120b0611b89565b90506120bc8282612075565b919050565b600067ffffffffffffffff8211156120dc576120db612046565b5b6120e582611d9b565b9050602081019050919050565b82818337600083830152505050565b600061211461210f846120c1565b6120a6565b9050828152602081018484840111156121305761212f612041565b5b61213b8482856120f2565b509392505050565b600082601f8301126121585761215761203c565b5b8135612168848260208601612101565b91505092915050565b600067ffffffffffffffff82111561218c5761218b612046565b5b602082029050602081019050919050565b600080fd5b60006121b56121b084612171565b6120a6565b905080838252602082019050602084028301858111156121d8576121d761219d565b5b835b8181101561221f57803567ffffffffffffffff8111156121fd576121fc61203c565b5b80860161220a8982612143565b855260208501945050506020810190506121da565b5050509392505050565b600082601f83011261223e5761223d61203c565b5b813561224e8482602086016121a2565b91505092915050565b600067ffffffffffffffff82111561227257612271612046565b5b602082029050602081019050919050565b600061229661229184612257565b6120a6565b905080838252602082019050602084028301858111156122b9576122b861219d565b5b835b818110156122e257806122ce8882611d13565b8452602084019350506020810190506122bb565b5050509392505050565b600082601f8301126123015761230061203c565b5b8135612311848260208601612283565b91505092915050565b6000806000806080858703121561233457612333611b93565b5b600085013567ffffffffffffffff81111561235257612351611b98565b5b61235e87828801612143565b945050602061236f87828801611d13565b935050604085013567ffffffffffffffff8111156123905761238f611b98565b5b61239c87828801612229565b925050606085013567ffffffffffffffff8111156123bd576123bc611b98565b5b6123c9878288016122ec565b91505092959194509250565b6000806000606084860312156123ee576123ed611b93565b5b60006123fc86828701611d13565b935050602061240d86828701611f13565b925050604061241e86828701611d13565b9150509250925092565b600060c08201905081810360008301526124428189611dac565b90506124516020830188611df7565b61245e6040830187611e06565b61246b6060830186611e06565b6124786080830185611c2e565b61248560a0830184611e06565b979650505050505050565b7f4e487b7100000000000000000000000000000000000000000000000000000000600052602260045260246000fd5b600060028204905060018216806124d757607f821691505b6020821081036124ea576124e9612490565b5b50919050565b7f50726f6a65637420616c726561647920696e6163746976650000000000000000600082015250565b6000612526601883611d60565b9150612531826124f0565b602082019050919050565b6000602082019050818103600083015261255581612519565b9050919050565b7f496e76616c6964206d696c6573746f6e6520696e646578000000000000000000600082015250565b6000612592601783611d60565b915061259d8261255c565b602082019050919050565b600060208201905081810360008301526125c181612585565b9050919050565b7f4e487b7100000000000000000000000000000000000000000000000000000000600052603260045260246000fd5b7f50726f6a656374206973207374696c6c20616374697665000000000000000000600082015250565b600061262d601783611d60565b9150612638826125f7565b602082019050919050565b6000602082019050818103600083015261265c81612620565b9050919050565b7f4e6f20646f6e6174696f6e20666f756e64000000000000000000000000000000600082015250565b6000612699601183611d60565b91506126a482612663565b602082019050919050565b600060208201905081810360008301526126c88161268c565b9050919050565b600081905092915050565b50565b60006126ea6000836126cf565b91506126f5826126da565b600082019050919050565b600061270b826126dd565b9150819050919050565b7f526566756e64207472616e73666572206661696c656400000000000000000000600082015250565b600061274b601683611d60565b915061275682612715565b602082019050919050565b6000602082019050818103600083015261277a8161273e565b9050919050565b7f4d696c6573746f6e6520617272617973206d757374206d617463680000000000600082015250565b60006127b7601b83611d60565b91506127c282612781565b602082019050919050565b600060208201905081810360008301526127e6816127aa565b9050919050565b7f4e487b7100000000000000000000000000000000000000000000000000000000600052601160045260246000fd5b600061282782611cf2565b91507fffffffffffffffffffffffffffffffffffffffffffffffffffffffffffffffff8203612859576128586127ed565b5b600182019050919050565b60008190508160005260206000209050919050565b60006020601f8301049050919050565b600082821b905092915050565b6000600883026128c67fffffffffffffffffffffffffffffffffffffffffffffffffffffffffffffffff82612889565b6128d08683612889565b95508019841693508086168417925050509392505050565b60006129036128fe6128f984611cf2565b611c78565b611cf2565b9050919050565b6000819050919050565b61291d836128e8565b6129316129298261290a565b848454612896565b825550505050565b600090565b612946612939565b612951818484612914565b505050565b5b818110156129755761296a60008261293e565b600181019050612957565b5050565b601f8211156129ba5761298b81612864565b61299484612879565b810160208510156129a3578190505b6129b76129af85612879565b830182612956565b50505b505050565b600082821c905092915050565b60006129dd600019846008026129bf565b1980831691505092915050565b60006129f683836129cc565b9150826002028217905092915050565b612a0f82611d55565b67ffffffffffffffff811115612a2857612a27612046565b5b612a3282546124bf565b612a3d828285612979565b600060209050601f831160018114612a705760008415612a5e578287015190505b612a6885826129ea565b865550612ad0565b601f198416612a7e86612864565b60005b82811015612aa657848901518255600182019150602085019450602081019050612a81565b86831015612ac35784890151612abf601f8916826129cc565b8355505b6001600288020188555050505b505050505050565b60006040820190508181036000830152612af28185611dac565b9050612b016020830184611df7565b9392505050565b7f50726f6a656374206973206e6f74206163746976650000000000000000000000600082015250565b6000612b3e601583611d60565b9150612b4982612b08565b602082019050919050565b60006020820190508181036000830152612b6d81612b31565b9050919050565b6000606082019050612b896000830186611df7565b612b966020830185611df7565b612ba36040830184611e06565b949350505050565b612bb481611c22565b8114612bbf57600080fd5b50565b600081519050612bd181612bab565b92915050565b600060208284031215612bed57612bec611b93565b5b6000612bfb84828501612bc2565b91505092915050565b7f546f6b656e207472616e73666572206661696c65640000000000000000000000600082015250565b6000612c3a601583611d60565b9150612c4582612c04565b602082019050919050565b60006020820190508181036000830152612c6981612c2d565b9050919050565b6000612c7b82611cf2565b9150612c8683611cf2565b9250828201905080821115612c9e57612c9d6127ed565b5b92915050565b6000606082019050612cb96000830186611df7565b612cc66020830185611e06565b612cd36040830184611e06565b949350505050565b600081519050612cea81611cfc565b92915050565b600060208284031215612d0657612d05611b93565b5b6000612d1484828501612cdb565b91505092915050565b7f446f6e6174696f6e20616d6f756e74206d75737420626520677265617465722060008201527f7468616e20300000000000000000000000000000000000000000000000000000602082015250565b6000612d79602683611d60565b9150612d8482612d1d565b604082019050919050565b60006020820190508181036000830152612da881612d6c565b9050919050565b7f4d696c6573746f6e6520616c726561647920636f6d706c657465640000000000600082015250565b6000612de5601b83611d60565b9150612df082612daf565b602082019050919050565b60006020820190508181036000830152612e1481612dd8565b9050919050565b7f46756e64207472616e73666572206661696c6564000000000000000000000000600082015250565b6000612e51601483611d60565b9150612e5c82612e1b565b602082019050919050565b60006020820190508181036000830152612e8081612e44565b9050919050565b6000604082019050612e9c6000830185611df7565b612ea96020830184611ed2565b939250505056fea26469706673582212206695e36396d03e3befb3a245a350ca808e2a5e1c37dada19043c385ec4cabe9f64736f6c63430008150033",
  "immutableReferences": {},
  "source": "// SPDX-License-Identifier: MIT\npragma solidity ^0.8.21;\n\nimport \"@openzeppelin/contracts/utils/ReentrancyGuard.sol\";\nimport \"@openzeppelin/contracts/access/AccessControl.sol\";\nimport \"@openzeppelin/contracts/token/ERC20/IERC20.sol\";\nimport \"./DonationToken.sol\";\n\ncontract CharityPlatform is ReentrancyGuard, AccessControl {\n    bytes32 public constant ADMIN_ROLE = keccak256(\"ADMIN_ROLE\");\n    bytes32 public constant CHARITY_ROLE = keccak256(\"CHARITY_ROLE\");\n\n    DonationToken public donationToken;\n    \n    struct Project {\n        string name;\n        address charityAddress;\n        uint256 goalAmount;\n        uint256 raisedAmount;\n        bool isActive;\n        Milestone[] milestones;\n        mapping(address => uint256) donations;\n    }\n\n    struct Milestone {\n        string description;\n        uint256 targetAmount;\n        bool isCompleted;\n        bool fundsReleased;\n    }\n\n    mapping(uint256 => Project) public projects;\n    uint256 public projectCount;\n\n    event ProjectCreated(uint256 indexed projectId, string name, address charityAddress);\n    event DonationReceived(uint256 indexed projectId, address indexed donor, uint256 amount);\n    event MilestoneCompleted(uint256 indexed projectId, uint256 milestoneIndex);\n    event FundsReleased(uint256 indexed projectId, uint256 amount);\n    event RefundIssued(uint256 indexed projectId, address indexed donor, uint256 amount);\n\n    constructor(address _donationToken) {\n        _grantRole(DEFAULT_ADMIN_ROLE, msg.sender);\n        _grantRole(ADMIN_ROLE, msg.sender);\n        donationToken = DonationToken(_donationToken);\n    }\n\n    function createProject(\n        string memory _name,\n        uint256 _goalAmount,\n        string[] memory _milestoneDescriptions,\n        uint256[] memory _milestoneTargets\n    ) external onlyRole(CHARITY_ROLE) {\n        require(_milestoneDescriptions.length == _milestoneTargets.length, \"Milestone arrays must match\");\n        \n        projectCount++;\n        Project storage project = projects[projectCount];\n        project.name = _name;\n        project.charityAddress = msg.sender;\n        project.goalAmount = _goalAmount;\n        project.isActive = true;\n\n        for(uint i = 0; i < _milestoneDescriptions.length; i++) {\n            project.milestones.push(Milestone({\n                description: _milestoneDescriptions[i],\n                targetAmount: _milestoneTargets[i],\n                isCompleted: false,\n                fundsReleased: false\n            }));\n        }\n\n        emit ProjectCreated(projectCount, _name, msg.sender);\n    }\n\n    function donate(uint256 _projectId) external payable nonReentrant {\n        Project storage project = projects[_projectId];\n        require(project.isActive, \"Project is not active\");\n        require(msg.value > 0, \"Donation amount must be greater than 0\");\n\n        project.donations[msg.sender] += msg.value;\n        project.raisedAmount += msg.value;\n\n        // Mint donation NFT\n        donationToken.mint(msg.sender, _projectId, msg.value);\n\n        emit DonationReceived(_projectId, msg.sender, msg.value);\n    }\n\n    function completeMilestone(uint256 _projectId, uint256 _milestoneIndex) external onlyRole(ADMIN_ROLE) {\n        Project storage project = projects[_projectId];\n        require(_milestoneIndex < project.milestones.length, \"Invalid milestone index\");\n        \n        Milestone storage milestone = project.milestones[_milestoneIndex];\n        require(!milestone.isCompleted, \"Milestone already completed\");\n        \n        milestone.isCompleted = true;\n        emit MilestoneCompleted(_projectId, _milestoneIndex);\n\n        // Release funds for completed milestone\n        if(!milestone.fundsReleased && project.raisedAmount >= milestone.targetAmount) {\n            milestone.fundsReleased = true;\n            uint256 releaseAmount = milestone.targetAmount;\n            \n            (bool success, ) = project.charityAddress.call{value: releaseAmount}(\"\");\n            require(success, \"Fund transfer failed\");\n            \n            emit FundsReleased(_projectId, releaseAmount);\n        }\n    }\n\n    function requestRefund(uint256 _projectId) external nonReentrant {\n        Project storage project = projects[_projectId];\n        require(!project.isActive, \"Project is still active\");\n        \n        uint256 donationAmount = project.donations[msg.sender];\n        require(donationAmount > 0, \"No donation found\");\n\n        project.donations[msg.sender] = 0;\n        \n        (bool success, ) = msg.sender.call{value: donationAmount}(\"\");\n        require(success, \"Refund transfer failed\");\n\n        emit RefundIssued(_projectId, msg.sender, donationAmount);\n    }\n\n    function deactivateProject(uint256 _projectId) external onlyRole(ADMIN_ROLE) {\n        Project storage project = projects[_projectId];\n        require(project.isActive, \"Project already inactive\");\n        project.isActive = false;\n    }\n\n    // Multi-currency support functions\n    function donateToken(uint256 _projectId, address _tokenAddress, uint256 _amount) external nonReentrant {\n        Project storage project = projects[_projectId];\n        require(project.isActive, \"Project is not active\");\n        \n        IERC20 token = IERC20(_tokenAddress);\n        require(token.transferFrom(msg.sender, address(this), _amount), \"Token transfer failed\");\n        \n        project.donations[msg.sender] += _amount;\n        project.raisedAmount += _amount;\n\n        // Mint donation NFT\n        donationToken.mint(msg.sender, _projectId, _amount);\n        \n        emit DonationReceived(_projectId, msg.sender, _amount);\n    }\n\n    // Administrative functions\n    function addCharity(address _charityAddress) external onlyRole(ADMIN_ROLE) {\n        grantRole(CHARITY_ROLE, _charityAddress);\n    }\n\n    function removeCharity(address _charityAddress) external onlyRole(ADMIN_ROLE) {\n        revokeRole(CHARITY_ROLE, _charityAddress);\n    }\n\n    // View functions\n    function getProject(uint256 _projectId) external view returns (\n        string memory name,\n        address charityAddress,\n        uint256 goalAmount,\n        uint256 raisedAmount,\n        bool isActive,\n        uint256 milestoneCount\n    ) {\n        Project storage project = projects[_projectId];\n        return (\n            project.name,\n            project.charityAddress,\n            project.goalAmount,\n            project.raisedAmount,\n            project.isActive,\n            project.milestones.length\n        );\n    }\n\n    function getMilestone(uint256 _projectId, uint256 _milestoneIndex) external view returns (\n        string memory description,\n        uint256 targetAmount,\n        bool isCompleted,\n        bool fundsReleased\n    ) {\n        Project storage project = projects[_projectId];\n        require(_milestoneIndex < project.milestones.length, \"Invalid milestone index\");\n        \n        Milestone storage milestone = project.milestones[_milestoneIndex];\n        return (\n            milestone.description,\n            milestone.targetAmount,\n            milestone.isCompleted,\n            milestone.fundsReleased\n        );\n    }\n\n    receive() external payable {}\n}",
  "sourcePath": "/Users/artazidele/Documents/LU-2023-2024/Blokkedes biznesa/CharityDonation/contracts/CharityPlatform.sol",
  "compiler": {
    "name": "solc",
    "version": "0.8.21+commit.d9974bed.Emscripten.clang"
  },
  "schemaVersion": "3.4.16",
  "updatedAt": "2024-11-24T18:50:26.055Z",
  "networkType": "ethereum",
  "devdoc": {
    "errors": {
      "AccessControlBadConfirmation()": [
        {
          "details": "The caller of a function is not the expected one. NOTE: Don't confuse with {AccessControlUnauthorizedAccount}."
        }
      ],
      "AccessControlUnauthorizedAccount(address,bytes32)": [
        {
          "details": "The `account` is missing a role."
        }
      ],
      "ReentrancyGuardReentrantCall()": [
        {
          "details": "Unauthorized reentrant call."
        }
      ]
    },
    "events": {
      "RoleAdminChanged(bytes32,bytes32,bytes32)": {
        "details": "Emitted when `newAdminRole` is set as ``role``'s admin role, replacing `previousAdminRole` `DEFAULT_ADMIN_ROLE` is the starting admin for all roles, despite {RoleAdminChanged} not being emitted signaling this."
      },
      "RoleGranted(bytes32,address,address)": {
        "details": "Emitted when `account` is granted `role`. `sender` is the account that originated the contract call. This account bears the admin role (for the granted role). Expected in cases where the role was granted using the internal {AccessControl-_grantRole}."
      },
      "RoleRevoked(bytes32,address,address)": {
        "details": "Emitted when `account` is revoked `role`. `sender` is the account that originated the contract call:   - if using `revokeRole`, it is the admin role bearer   - if using `renounceRole`, it is the role bearer (i.e. `account`)"
      }
    },
    "kind": "dev",
    "methods": {
      "getRoleAdmin(bytes32)": {
        "details": "Returns the admin role that controls `role`. See {grantRole} and {revokeRole}. To change a role's admin, use {_setRoleAdmin}."
      },
      "grantRole(bytes32,address)": {
        "details": "Grants `role` to `account`. If `account` had not been already granted `role`, emits a {RoleGranted} event. Requirements: - the caller must have ``role``'s admin role. May emit a {RoleGranted} event."
      },
      "hasRole(bytes32,address)": {
        "details": "Returns `true` if `account` has been granted `role`."
      },
      "renounceRole(bytes32,address)": {
        "details": "Revokes `role` from the calling account. Roles are often managed via {grantRole} and {revokeRole}: this function's purpose is to provide a mechanism for accounts to lose their privileges if they are compromised (such as when a trusted device is misplaced). If the calling account had been revoked `role`, emits a {RoleRevoked} event. Requirements: - the caller must be `callerConfirmation`. May emit a {RoleRevoked} event."
      },
      "revokeRole(bytes32,address)": {
        "details": "Revokes `role` from `account`. If `account` had been granted `role`, emits a {RoleRevoked} event. Requirements: - the caller must have ``role``'s admin role. May emit a {RoleRevoked} event."
      },
      "supportsInterface(bytes4)": {
        "details": "See {IERC165-supportsInterface}."
      }
    },
    "version": 1
  },
  "userdoc": {
    "kind": "user",
    "methods": {},
    "version": 1
  }
}