{
  "contractName": "CharityPlatform",
  "abi": [
    {
      "inputs": [
        {
          "internalType": "address",
          "name": "_donationToken",
          "type": "address"
        }
      ],
      "stateMutability": "nonpayable",
      "type": "constructor"
    },
    {
      "inputs": [],
      "name": "AccessControlBadConfirmation",
      "type": "error"
    },
    {
      "inputs": [
        {
          "internalType": "address",
          "name": "account",
          "type": "address"
        },
        {
          "internalType": "bytes32",
          "name": "neededRole",
          "type": "bytes32"
        }
      ],
      "name": "AccessControlUnauthorizedAccount",
      "type": "error"
    },
    {
      "inputs": [],
      "name": "ReentrancyGuardReentrantCall",
      "type": "error"
    },
    {
      "anonymous": false,
      "inputs": [
        {
          "indexed": true,
          "internalType": "uint256",
          "name": "projectId",
          "type": "uint256"
        },
        {
          "indexed": true,
          "internalType": "address",
          "name": "donor",
          "type": "address"
        },
        {
          "indexed": false,
          "internalType": "uint256",
          "name": "amount",
          "type": "uint256"
        }
      ],
      "name": "DonationReceived",
      "type": "event"
    },
    {
      "anonymous": false,
      "inputs": [
        {
          "indexed": true,
          "internalType": "uint256",
          "name": "projectId",
          "type": "uint256"
        },
        {
          "indexed": false,
          "internalType": "uint256",
          "name": "amount",
          "type": "uint256"
        }
      ],
      "name": "FundsReleased",
      "type": "event"
    },
    {
      "anonymous": false,
      "inputs": [
        {
          "indexed": true,
          "internalType": "uint256",
          "name": "projectId",
          "type": "uint256"
        },
        {
          "indexed": false,
          "internalType": "uint256",
          "name": "milestoneIndex",
          "type": "uint256"
        }
      ],
      "name": "MilestoneCompleted",
      "type": "event"
    },
    {
      "anonymous": false,
      "inputs": [
        {
          "indexed": true,
          "internalType": "uint256",
          "name": "projectId",
          "type": "uint256"
        },
        {
          "indexed": false,
          "internalType": "string",
          "name": "name",
          "type": "string"
        },
        {
          "indexed": false,
          "internalType": "address",
          "name": "charityAddress",
          "type": "address"
        }
      ],
      "name": "ProjectCreated",
      "type": "event"
    },
    {
      "anonymous": false,
      "inputs": [
        {
          "indexed": true,
          "internalType": "uint256",
          "name": "projectId",
          "type": "uint256"
        },
        {
          "indexed": true,
          "internalType": "address",
          "name": "donor",
          "type": "address"
        },
        {
          "indexed": false,
          "internalType": "uint256",
          "name": "amount",
          "type": "uint256"
        }
      ],
      "name": "RefundIssued",
      "type": "event"
    },
    {
      "anonymous": false,
      "inputs": [
        {
          "indexed": true,
          "internalType": "bytes32",
          "name": "role",
          "type": "bytes32"
        },
        {
          "indexed": true,
          "internalType": "bytes32",
          "name": "previousAdminRole",
          "type": "bytes32"
        },
        {
          "indexed": true,
          "internalType": "bytes32",
          "name": "newAdminRole",
          "type": "bytes32"
        }
      ],
      "name": "RoleAdminChanged",
      "type": "event"
    },
    {
      "anonymous": false,
      "inputs": [
        {
          "indexed": true,
          "internalType": "bytes32",
          "name": "role",
          "type": "bytes32"
        },
        {
          "indexed": true,
          "internalType": "address",
          "name": "account",
          "type": "address"
        },
        {
          "indexed": true,
          "internalType": "address",
          "name": "sender",
          "type": "address"
        }
      ],
      "name": "RoleGranted",
      "type": "event"
    },
    {
      "anonymous": false,
      "inputs": [
        {
          "indexed": true,
          "internalType": "bytes32",
          "name": "role",
          "type": "bytes32"
        },
        {
          "indexed": true,
          "internalType": "address",
          "name": "account",
          "type": "address"
        },
        {
          "indexed": true,
          "internalType": "address",
          "name": "sender",
          "type": "address"
        }
      ],
      "name": "RoleRevoked",
      "type": "event"
    },
    {
      "inputs": [],
      "name": "ADMIN_ROLE",
      "outputs": [
        {
          "internalType": "bytes32",
          "name": "",
          "type": "bytes32"
        }
      ],
      "stateMutability": "view",
      "type": "function"
    },
    {
      "inputs": [],
      "name": "CHARITY_ROLE",
      "outputs": [
        {
          "internalType": "bytes32",
          "name": "",
          "type": "bytes32"
        }
      ],
      "stateMutability": "view",
      "type": "function"
    },
    {
      "inputs": [],
      "name": "DEFAULT_ADMIN_ROLE",
      "outputs": [
        {
          "internalType": "bytes32",
          "name": "",
          "type": "bytes32"
        }
      ],
      "stateMutability": "view",
      "type": "function"
    },
    {
      "inputs": [],
      "name": "donationToken",
      "outputs": [
        {
          "internalType": "contract DonationToken",
          "name": "",
          "type": "address"
        }
      ],
      "stateMutability": "view",
      "type": "function"
    },
    {
      "inputs": [
        {
          "internalType": "bytes32",
          "name": "role",
          "type": "bytes32"
        }
      ],
      "name": "getRoleAdmin",
      "outputs": [
        {
          "internalType": "bytes32",
          "name": "",
          "type": "bytes32"
        }
      ],
      "stateMutability": "view",
      "type": "function"
    },
    {
      "inputs": [
        {
          "internalType": "bytes32",
          "name": "role",
          "type": "bytes32"
        },
        {
          "internalType": "address",
          "name": "account",
          "type": "address"
        }
      ],
      "name": "grantRole",
      "outputs": [],
      "stateMutability": "nonpayable",
      "type": "function"
    },
    {
      "inputs": [
        {
          "internalType": "bytes32",
          "name": "role",
          "type": "bytes32"
        },
        {
          "internalType": "address",
          "name": "account",
          "type": "address"
        }
      ],
      "name": "hasRole",
      "outputs": [
        {
          "internalType": "bool",
          "name": "",
          "type": "bool"
        }
      ],
      "stateMutability": "view",
      "type": "function"
    },
    {
      "inputs": [],
      "name": "projectCount",
      "outputs": [
        {
          "internalType": "uint256",
          "name": "",
          "type": "uint256"
        }
      ],
      "stateMutability": "view",
      "type": "function"
    },
    {
      "inputs": [
        {
          "internalType": "uint256",
          "name": "",
          "type": "uint256"
        }
      ],
      "name": "projects",
      "outputs": [
        {
          "internalType": "string",
          "name": "name",
          "type": "string"
        },
        {
          "internalType": "address",
          "name": "charityAddress",
          "type": "address"
        },
        {
          "internalType": "uint256",
          "name": "goalAmount",
          "type": "uint256"
        },
        {
          "internalType": "uint256",
          "name": "raisedAmount",
          "type": "uint256"
        },
        {
          "internalType": "bool",
          "name": "isActive",
          "type": "bool"
        }
      ],
      "stateMutability": "view",
      "type": "function"
    },
    {
      "inputs": [
        {
          "internalType": "bytes32",
          "name": "role",
          "type": "bytes32"
        },
        {
          "internalType": "address",
          "name": "callerConfirmation",
          "type": "address"
        }
      ],
      "name": "renounceRole",
      "outputs": [],
      "stateMutability": "nonpayable",
      "type": "function"
    },
    {
      "inputs": [
        {
          "internalType": "bytes32",
          "name": "role",
          "type": "bytes32"
        },
        {
          "internalType": "address",
          "name": "account",
          "type": "address"
        }
      ],
      "name": "revokeRole",
      "outputs": [],
      "stateMutability": "nonpayable",
      "type": "function"
    },
    {
      "inputs": [
        {
          "internalType": "bytes4",
          "name": "interfaceId",
          "type": "bytes4"
        }
      ],
      "name": "supportsInterface",
      "outputs": [
        {
          "internalType": "bool",
          "name": "",
          "type": "bool"
        }
      ],
      "stateMutability": "view",
      "type": "function"
    },
    {
      "stateMutability": "payable",
      "type": "receive"
    },
    {
      "inputs": [
        {
          "internalType": "string",
          "name": "_name",
          "type": "string"
        },
        {
          "internalType": "uint256",
          "name": "_goalAmount",
          "type": "uint256"
        },
        {
          "internalType": "string[]",
          "name": "_milestoneDescriptions",
          "type": "string[]"
        },
        {
          "internalType": "uint256[]",
          "name": "_milestoneTargets",
          "type": "uint256[]"
        }
      ],
      "name": "createProject",
      "outputs": [],
      "stateMutability": "nonpayable",
      "type": "function"
    },
    {
      "inputs": [
        {
          "internalType": "uint256",
          "name": "_projectId",
          "type": "uint256"
        }
      ],
      "name": "donate",
      "outputs": [],
      "stateMutability": "payable",
      "type": "function"
    },
    {
      "inputs": [
        {
          "internalType": "uint256",
          "name": "_projectId",
          "type": "uint256"
        },
        {
          "internalType": "uint256",
          "name": "_milestoneIndex",
          "type": "uint256"
        }
      ],
      "name": "completeMilestone",
      "outputs": [],
      "stateMutability": "nonpayable",
      "type": "function"
    },
    {
      "inputs": [
        {
          "internalType": "uint256",
          "name": "_projectId",
          "type": "uint256"
        }
      ],
      "name": "requestRefund",
      "outputs": [],
      "stateMutability": "nonpayable",
      "type": "function"
    },
    {
      "inputs": [
        {
          "internalType": "uint256",
          "name": "_projectId",
          "type": "uint256"
        }
      ],
      "name": "deactivateProject",
      "outputs": [],
      "stateMutability": "nonpayable",
      "type": "function"
    },
    {
      "inputs": [
        {
          "internalType": "uint256",
          "name": "_projectId",
          "type": "uint256"
        },
        {
          "internalType": "address",
          "name": "_tokenAddress",
          "type": "address"
        },
        {
          "internalType": "uint256",
          "name": "_amount",
          "type": "uint256"
        }
      ],
      "name": "donateToken",
      "outputs": [],
      "stateMutability": "nonpayable",
      "type": "function"
    },
    {
      "inputs": [
        {
          "internalType": "address",
          "name": "_charityAddress",
          "type": "address"
        }
      ],
      "name": "addCharity",
      "outputs": [],
      "stateMutability": "nonpayable",
      "type": "function"
    },
    {
      "inputs": [
        {
          "internalType": "address",
          "name": "_charityAddress",
          "type": "address"
        }
      ],
      "name": "removeCharity",
      "outputs": [],
      "stateMutability": "nonpayable",
      "type": "function"
    },
    {
      "inputs": [
        {
          "internalType": "uint256",
          "name": "_projectId",
          "type": "uint256"
        }
      ],
      "name": "getProject",
      "outputs": [
        {
          "internalType": "string",
          "name": "name",
          "type": "string"
        },
        {
          "internalType": "address",
          "name": "charityAddress",
          "type": "address"
        },
        {
          "internalType": "uint256",
          "name": "goalAmount",
          "type": "uint256"
        },
        {
          "internalType": "uint256",
          "name": "raisedAmount",
          "type": "uint256"
        },
        {
          "internalType": "bool",
          "name": "isActive",
          "type": "bool"
        },
        {
          "internalType": "uint256",
          "name": "milestoneCount",
          "type": "uint256"
        }
      ],
      "stateMutability": "view",
      "type": "function"
    },
    {
      "inputs": [],
      "name": "getProjects",
      "outputs": [
        {
          "internalType": "string[]",
          "name": "name",
          "type": "string[]"
        },
        {
          "internalType": "address[]",
          "name": "charityAddress",
          "type": "address[]"
        },
        {
          "internalType": "uint256[]",
          "name": "goalAmount",
          "type": "uint256[]"
        },
        {
          "internalType": "uint256[]",
          "name": "raisedAmount",
          "type": "uint256[]"
        },
        {
          "internalType": "bool[]",
          "name": "isActive",
          "type": "bool[]"
        },
        {
          "internalType": "uint256[]",
          "name": "milestoneCount",
          "type": "uint256[]"
        }
      ],
      "stateMutability": "view",
      "type": "function"
    },
    {
      "inputs": [
        {
          "internalType": "uint256",
          "name": "_projectId",
          "type": "uint256"
        },
        {
          "internalType": "uint256",
          "name": "_milestoneIndex",
          "type": "uint256"
        }
      ],
      "name": "getMilestone",
      "outputs": [
        {
          "internalType": "string",
          "name": "description",
          "type": "string"
        },
        {
          "internalType": "uint256",
          "name": "targetAmount",
          "type": "uint256"
        },
        {
          "internalType": "bool",
          "name": "isCompleted",
          "type": "bool"
        },
        {
          "internalType": "bool",
          "name": "fundsReleased",
          "type": "bool"
        }
      ],
      "stateMutability": "view",
      "type": "function"
    }
  ],
  "bytecode": "0x60806040523480156200001157600080fd5b5060405162003a3d38038062003a3d8339818101604052810190620000379190620002b0565b6001600081905550620000546000801b33620000d060201b60201c565b50620000877fa49807205ce4d355092ef5a8a18f56e8913cf4a201fbe287825b095693c2177533620000d060201b60201c565b5080600260006101000a81548173ffffffffffffffffffffffffffffffffffffffff021916908373ffffffffffffffffffffffffffffffffffffffff16021790555050620002e2565b6000620000e48383620001d360201b60201c565b620001c857600180600085815260200190815260200160002060000160008473ffffffffffffffffffffffffffffffffffffffff1673ffffffffffffffffffffffffffffffffffffffff16815260200190815260200160002060006101000a81548160ff021916908315150217905550620001646200023e60201b60201c565b73ffffffffffffffffffffffffffffffffffffffff168273ffffffffffffffffffffffffffffffffffffffff16847f2f8788117e7eff1d82e926ec794901d17c78024a50270940304540a733656f0d60405160405180910390a460019050620001cd565b600090505b92915050565b60006001600084815260200190815260200160002060000160008373ffffffffffffffffffffffffffffffffffffffff1673ffffffffffffffffffffffffffffffffffffffff16815260200190815260200160002060009054906101000a900460ff16905092915050565b600033905090565b600080fd5b600073ffffffffffffffffffffffffffffffffffffffff82169050919050565b600062000278826200024b565b9050919050565b6200028a816200026b565b81146200029657600080fd5b50565b600081519050620002aa816200027f565b92915050565b600060208284031215620002c957620002c862000246565b5b6000620002d98482850162000299565b91505092915050565b61374b80620002f26000396000f3fe6080604052600436106101445760003560e01c80638ed9895c116100b6578063d547741f1161006f578063d547741f1461047e578063dcc60128146104a7578063f0571935146104d7578063f0f3f2c814610500578063f14faf6f14610542578063f326206b1461055e5761014b565b80638ed9895c1461035b57806391d148541461039b578063a217fddf146103d8578063a4b2409e14610403578063abefe5911461042c578063afd14b82146104555761014b565b806336568abe1161010857806336568abe1461025f57806336fbad2614610288578063436e6958146102b35780636f0c8067146102dc57806375b238fc1461030757806378b14f0a146103325761014b565b806301ffc9a7146101505780630df721591461018d578063107046bd146101b8578063248a9ca3146101f95780632f2ff15d146102365761014b565b3661014b57005b600080fd5b34801561015c57600080fd5b5061017760048036038101906101729190612089565b610587565b60405161018491906120d1565b60405180910390f35b34801561019957600080fd5b506101a2610601565b6040516101af919061216b565b60405180910390f35b3480156101c457600080fd5b506101df60048036038101906101da91906121bc565b610627565b6040516101f09594939291906122a9565b60405180910390f35b34801561020557600080fd5b50610220600480360381019061021b9190612339565b610712565b60405161022d9190612375565b60405180910390f35b34801561024257600080fd5b5061025d600480360381019061025891906123bc565b610732565b005b34801561026b57600080fd5b50610286600480360381019061028191906123bc565b610754565b005b34801561029457600080fd5b5061029d6107cf565b6040516102aa91906123fc565b60405180910390f35b3480156102bf57600080fd5b506102da60048036038101906102d591906121bc565b6107d5565b005b3480156102e857600080fd5b506102f1610889565b6040516102fe9190612375565b60405180910390f35b34801561031357600080fd5b5061031c6108ad565b6040516103299190612375565b60405180910390f35b34801561033e57600080fd5b5061035960048036038101906103549190612417565b6108d1565b005b34801561036757600080fd5b50610382600480360381019061037d9190612444565b61092a565b6040516103929493929190612484565b60405180910390f35b3480156103a757600080fd5b506103c260048036038101906103bd91906123bc565b610a84565b6040516103cf91906120d1565b60405180910390f35b3480156103e457600080fd5b506103ed610aef565b6040516103fa9190612375565b60405180910390f35b34801561040f57600080fd5b5061042a600480360381019061042591906121bc565b610af6565b005b34801561043857600080fd5b50610453600480360381019061044e9190612417565b610d40565b005b34801561046157600080fd5b5061047c600480360381019061047791906127ae565b610d98565b005b34801561048a57600080fd5b506104a560048036038101906104a091906123bc565b611000565b005b3480156104b357600080fd5b506104bc611022565b6040516104ce96959493929190612baf565b60405180910390f35b3480156104e357600080fd5b506104fe60048036038101906104f99190612c3a565b61147a565b005b34801561050c57600080fd5b50610527600480360381019061052291906121bc565b611722565b60405161053996959493929190612c8d565b60405180910390f35b61055c600480360381019061055791906121bc565b611831565b005b34801561056a57600080fd5b5061058560048036038101906105809190612444565b611a55565b005b60007f7965db0b000000000000000000000000000000000000000000000000000000007bffffffffffffffffffffffffffffffffffffffffffffffffffffffff1916827bffffffffffffffffffffffffffffffffffffffffffffffffffffffff191614806105fa57506105f982611d12565b5b9050919050565b600260009054906101000a900473ffffffffffffffffffffffffffffffffffffffff1681565b600360205280600052604060002060009150905080600001805461064a90612d24565b80601f016020809104026020016040519081016040528092919081815260200182805461067690612d24565b80156106c35780601f10610698576101008083540402835291602001916106c3565b820191906000526020600020905b8154815290600101906020018083116106a657829003601f168201915b5050505050908060010160009054906101000a900473ffffffffffffffffffffffffffffffffffffffff16908060020154908060030154908060040160009054906101000a900460ff16905085565b600060016000838152602001908152602001600020600101549050919050565b61073b82610712565b61074481611d7c565b61074e8383611d90565b50505050565b61075c611e81565b73ffffffffffffffffffffffffffffffffffffffff168173ffffffffffffffffffffffffffffffffffffffff16146107c0576040517f6697b23200000000000000000000000000000000000000000000000000000000815260040160405180910390fd5b6107ca8282611e89565b505050565b60045481565b7fa49807205ce4d355092ef5a8a18f56e8913cf4a201fbe287825b095693c217756107ff81611d7c565b60006003600084815260200190815260200160002090508060040160009054906101000a900460ff16610867576040517f08c379a000000000000000000000000000000000000000000000000000000000815260040161085e90612da1565b60405180910390fd5b60008160040160006101000a81548160ff021916908315150217905550505050565b7f838cb9e68162e54d2dfda44baa96273d8a6cb729c0d42995215e0f52841feb7781565b7fa49807205ce4d355092ef5a8a18f56e8913cf4a201fbe287825b095693c2177581565b7fa49807205ce4d355092ef5a8a18f56e8913cf4a201fbe287825b095693c217756108fb81611d7c565b6109257f838cb9e68162e54d2dfda44baa96273d8a6cb729c0d42995215e0f52841feb7783611d90565b505050565b606060008060008060036000888152602001908152602001600020905080600501805490508610610990576040517f08c379a000000000000000000000000000000000000000000000000000000000815260040161098790612e0d565b60405180910390fd5b60008160050187815481106109a8576109a7612e2d565b5b906000526020600020906003020190508060000181600101548260020160009054906101000a900460ff168360020160019054906101000a900460ff168380546109f190612d24565b80601f0160208091040260200160405190810160405280929190818152602001828054610a1d90612d24565b8015610a6a5780601f10610a3f57610100808354040283529160200191610a6a565b820191906000526020600020905b815481529060010190602001808311610a4d57829003601f168201915b505050505093509550955095509550505092959194509250565b60006001600084815260200190815260200160002060000160008373ffffffffffffffffffffffffffffffffffffffff1673ffffffffffffffffffffffffffffffffffffffff16815260200190815260200160002060009054906101000a900460ff16905092915050565b6000801b81565b610afe611f7c565b60006003600083815260200190815260200160002090508060040160009054906101000a900460ff1615610b67576040517f08c379a0000000000000000000000000000000000000000000000000000000008152600401610b5e90612ea8565b60405180910390fd5b60008160060160003373ffffffffffffffffffffffffffffffffffffffff1673ffffffffffffffffffffffffffffffffffffffff16815260200190815260200160002054905060008111610bf0576040517f08c379a0000000000000000000000000000000000000000000000000000000008152600401610be790612f14565b60405180910390fd5b60008260060160003373ffffffffffffffffffffffffffffffffffffffff1673ffffffffffffffffffffffffffffffffffffffff1681526020019081526020016000208190555060003373ffffffffffffffffffffffffffffffffffffffff1682604051610c5d90612f65565b60006040518083038185875af1925050503d8060008114610c9a576040519150601f19603f3d011682016040523d82523d6000602084013e610c9f565b606091505b5050905080610ce3576040517f08c379a0000000000000000000000000000000000000000000000000000000008152600401610cda90612fc6565b60405180910390fd5b3373ffffffffffffffffffffffffffffffffffffffff16847f7a482fdeb6bc9a1376f597068a214a7a39472bb2eff1b8cad21ba04f49ddca1b84604051610d2a91906123fc565b60405180910390a3505050610d3d611fc2565b50565b7fa49807205ce4d355092ef5a8a18f56e8913cf4a201fbe287825b095693c21775610d6a81611d7c565b610d947f838cb9e68162e54d2dfda44baa96273d8a6cb729c0d42995215e0f52841feb7783611000565b5050565b7f838cb9e68162e54d2dfda44baa96273d8a6cb729c0d42995215e0f52841feb77610dc281611d7c565b8151835114610e06576040517f08c379a0000000000000000000000000000000000000000000000000000000008152600401610dfd90613032565b60405180910390fd5b60046000815480929190610e1990613081565b91905055506000600360006004548152602001908152602001600020905085816000019081610e48919061326b565b50338160010160006101000a81548173ffffffffffffffffffffffffffffffffffffffff021916908373ffffffffffffffffffffffffffffffffffffffff16021790555084816002018190555060018160040160006101000a81548160ff02191690831515021790555060005b8451811015610fbb57816005016040518060800160405280878481518110610ee057610edf612e2d565b5b60200260200101518152602001868481518110610f0057610eff612e2d565b5b602002602001015181526020016000151581526020016000151581525090806001815401808255809150506001900390600052602060002090600302016000909190919091506000820151816000019081610f5b919061326b565b506020820151816001015560408201518160020160006101000a81548160ff02191690831515021790555060608201518160020160016101000a81548160ff02191690831515021790555050508080610fb390613081565b915050610eb5565b506004547fc0c54fed07481d0998e1446b2c13759606bf4f26b78306307413ac4c4309aa828733604051610ff092919061333d565b60405180910390a2505050505050565b61100982610712565b61101281611d7c565b61101c8383611e89565b50505050565b606080606080606080600060045467ffffffffffffffff811115611049576110486124da565b5b60405190808252806020026020018201604052801561107c57816020015b60608152602001906001900390816110675790505b509050600060045467ffffffffffffffff81111561109d5761109c6124da565b5b6040519080825280602002602001820160405280156110cb5781602001602082028036833780820191505090505b509050600060045467ffffffffffffffff8111156110ec576110eb6124da565b5b60405190808252806020026020018201604052801561111a5781602001602082028036833780820191505090505b509050600060045467ffffffffffffffff81111561113b5761113a6124da565b5b6040519080825280602002602001820160405280156111695781602001602082028036833780820191505090505b509050600060045467ffffffffffffffff81111561118a576111896124da565b5b6040519080825280602002602001820160405280156111b85781602001602082028036833780820191505090505b509050600060045467ffffffffffffffff8111156111d9576111d86124da565b5b6040519080825280602002602001820160405280156112075781602001602082028036833780820191505090505b50905060005b6004548110156114595760036000828152602001908152602001600020600001805461123890612d24565b80601f016020809104026020016040519081016040528092919081815260200182805461126490612d24565b80156112b15780601f10611286576101008083540402835291602001916112b1565b820191906000526020600020905b81548152906001019060200180831161129457829003601f168201915b50505050508782815181106112c9576112c8612e2d565b5b60200260200101819052506003600082815260200190815260200160002060010160009054906101000a900473ffffffffffffffffffffffffffffffffffffffff1686828151811061131e5761131d612e2d565b5b602002602001019073ffffffffffffffffffffffffffffffffffffffff16908173ffffffffffffffffffffffffffffffffffffffff1681525050600360008281526020019081526020016000206002015485828151811061138257611381612e2d565b5b60200260200101818152505060036000828152602001908152602001600020600301548482815181106113b8576113b7612e2d565b5b6020026020010181815250506003600082815260200190815260200160002060040160009054906101000a900460ff168382815181106113fb576113fa612e2d565b5b602002602001019015159081151581525050600360008281526020019081526020016000206005018054905082828151811061143a57611439612e2d565b5b602002602001018181525050808061145190613081565b91505061120d565b508585858585859b509b509b509b509b509b50505050505050909192939495565b611482611f7c565b60006003600085815260200190815260200160002090508060040160009054906101000a900460ff166114ea576040517f08c379a00000000000000000000000000000000000000000000000000000000081526004016114e1906133b9565b60405180910390fd5b60008390508073ffffffffffffffffffffffffffffffffffffffff166323b872dd3330866040518463ffffffff1660e01b815260040161152c939291906133d9565b6020604051808303816000875af115801561154b573d6000803e3d6000fd5b505050506040513d601f19601f8201168201806040525081019061156f919061343c565b6115ae576040517f08c379a00000000000000000000000000000000000000000000000000000000081526004016115a5906134b5565b60405180910390fd5b828260060160003373ffffffffffffffffffffffffffffffffffffffff1673ffffffffffffffffffffffffffffffffffffffff16815260200190815260200160002060008282546115ff91906134d5565b925050819055508282600301600082825461161a91906134d5565b92505081905550600260009054906101000a900473ffffffffffffffffffffffffffffffffffffffff1673ffffffffffffffffffffffffffffffffffffffff1663156e29f63387866040518463ffffffff1660e01b815260040161168093929190613509565b6020604051808303816000875af115801561169f573d6000803e3d6000fd5b505050506040513d601f19601f820116820180604052508101906116c39190613555565b503373ffffffffffffffffffffffffffffffffffffffff16857f0b5b4c52969ff7329ecf7ee536409fda87812b15a8622bc6e8cdeab3aee14a268560405161170b91906123fc565b60405180910390a3505061171d611fc2565b505050565b6060600080600080600080600360008981526020019081526020016000209050806000018160010160009054906101000a900473ffffffffffffffffffffffffffffffffffffffff16826002015483600301548460040160009054906101000a900460ff16856005018054905085805461179b90612d24565b80601f01602080910402602001604051908101604052809291908181526020018280546117c790612d24565b80156118145780601f106117e957610100808354040283529160200191611814565b820191906000526020600020905b8154815290600101906020018083116117f757829003601f168201915b505050505095509650965096509650965096505091939550919395565b611839611f7c565b60006003600083815260200190815260200160002090508060040160009054906101000a900460ff166118a1576040517f08c379a0000000000000000000000000000000000000000000000000000000008152600401611898906133b9565b60405180910390fd5b600034116118e4576040517f08c379a00000000000000000000000000000000000000000000000000000000081526004016118db906135f4565b60405180910390fd5b348160060160003373ffffffffffffffffffffffffffffffffffffffff1673ffffffffffffffffffffffffffffffffffffffff168152602001908152602001600020600082825461193591906134d5565b925050819055503481600301600082825461195091906134d5565b92505081905550600260009054906101000a900473ffffffffffffffffffffffffffffffffffffffff1673ffffffffffffffffffffffffffffffffffffffff1663156e29f63384346040518463ffffffff1660e01b81526004016119b693929190613509565b6020604051808303816000875af11580156119d5573d6000803e3d6000fd5b505050506040513d601f19601f820116820180604052508101906119f99190613555565b503373ffffffffffffffffffffffffffffffffffffffff16827f0b5b4c52969ff7329ecf7ee536409fda87812b15a8622bc6e8cdeab3aee14a2634604051611a4191906123fc565b60405180910390a350611a52611fc2565b50565b7fa49807205ce4d355092ef5a8a18f56e8913cf4a201fbe287825b095693c21775611a7f81611d7c565b600060036000858152602001908152602001600020905080600501805490508310611adf576040517f08c379a0000000000000000000000000000000000000000000000000000000008152600401611ad690612e0d565b60405180910390fd5b6000816005018481548110611af757611af6612e2d565b5b906000526020600020906003020190508060020160009054906101000a900460ff1615611b59576040517f08c379a0000000000000000000000000000000000000000000000000000000008152600401611b5090613660565b60405180910390fd5b60018160020160006101000a81548160ff021916908315150217905550847f1b7218c0ac23ea9cbe4df603d2b340fbf469a115b73ea3d11460727f445d6be185604051611ba691906123fc565b60405180910390a28060020160019054906101000a900460ff16158015611bd557508060010154826003015410155b15611d0b5760018160020160016101000a81548160ff02191690831515021790555060008160010154905060008360010160009054906101000a900473ffffffffffffffffffffffffffffffffffffffff1673ffffffffffffffffffffffffffffffffffffffff1682604051611c4a90612f65565b60006040518083038185875af1925050503d8060008114611c87576040519150601f19603f3d011682016040523d82523d6000602084013e611c8c565b606091505b5050905080611cd0576040517f08c379a0000000000000000000000000000000000000000000000000000000008152600401611cc7906136cc565b60405180910390fd5b867f80230996023d69b50793fa73f1919127c9d8e741d3989743c479169f22e7a28883604051611d0091906123fc565b60405180910390a250505b5050505050565b60007f01ffc9a7000000000000000000000000000000000000000000000000000000007bffffffffffffffffffffffffffffffffffffffffffffffffffffffff1916827bffffffffffffffffffffffffffffffffffffffffffffffffffffffff1916149050919050565b611d8d81611d88611e81565b611fcc565b50565b6000611d9c8383610a84565b611e7657600180600085815260200190815260200160002060000160008473ffffffffffffffffffffffffffffffffffffffff1673ffffffffffffffffffffffffffffffffffffffff16815260200190815260200160002060006101000a81548160ff021916908315150217905550611e13611e81565b73ffffffffffffffffffffffffffffffffffffffff168273ffffffffffffffffffffffffffffffffffffffff16847f2f8788117e7eff1d82e926ec794901d17c78024a50270940304540a733656f0d60405160405180910390a460019050611e7b565b600090505b92915050565b600033905090565b6000611e958383610a84565b15611f715760006001600085815260200190815260200160002060000160008473ffffffffffffffffffffffffffffffffffffffff1673ffffffffffffffffffffffffffffffffffffffff16815260200190815260200160002060006101000a81548160ff021916908315150217905550611f0e611e81565b73ffffffffffffffffffffffffffffffffffffffff168273ffffffffffffffffffffffffffffffffffffffff16847ff6391f5c32d9c69d2a47ea670b442974b53935d1edc7fd64eb21e047a839171b60405160405180910390a460019050611f76565b600090505b92915050565b600260005403611fb8576040517f3ee5aeb500000000000000000000000000000000000000000000000000000000815260040160405180910390fd5b6002600081905550565b6001600081905550565b611fd68282610a84565b6120195780826040517fe2517d3f0000000000000000000000000000000000000000000000000000000081526004016120109291906136ec565b60405180910390fd5b5050565b6000604051905090565b600080fd5b600080fd5b60007fffffffff0000000000000000000000000000000000000000000000000000000082169050919050565b61206681612031565b811461207157600080fd5b50565b6000813590506120838161205d565b92915050565b60006020828403121561209f5761209e612027565b5b60006120ad84828501612074565b91505092915050565b60008115159050919050565b6120cb816120b6565b82525050565b60006020820190506120e660008301846120c2565b92915050565b600073ffffffffffffffffffffffffffffffffffffffff82169050919050565b6000819050919050565b600061213161212c612127846120ec565b61210c565b6120ec565b9050919050565b600061214382612116565b9050919050565b600061215582612138565b9050919050565b6121658161214a565b82525050565b6000602082019050612180600083018461215c565b92915050565b6000819050919050565b61219981612186565b81146121a457600080fd5b50565b6000813590506121b681612190565b92915050565b6000602082840312156121d2576121d1612027565b5b60006121e0848285016121a7565b91505092915050565b600081519050919050565b600082825260208201905092915050565b60005b83811015612223578082015181840152602081019050612208565b60008484015250505050565b6000601f19601f8301169050919050565b600061224b826121e9565b61225581856121f4565b9350612265818560208601612205565b61226e8161222f565b840191505092915050565b6000612284826120ec565b9050919050565b61229481612279565b82525050565b6122a381612186565b82525050565b600060a08201905081810360008301526122c38188612240565b90506122d2602083018761228b565b6122df604083018661229a565b6122ec606083018561229a565b6122f960808301846120c2565b9695505050505050565b6000819050919050565b61231681612303565b811461232157600080fd5b50565b6000813590506123338161230d565b92915050565b60006020828403121561234f5761234e612027565b5b600061235d84828501612324565b91505092915050565b61236f81612303565b82525050565b600060208201905061238a6000830184612366565b92915050565b61239981612279565b81146123a457600080fd5b50565b6000813590506123b681612390565b92915050565b600080604083850312156123d3576123d2612027565b5b60006123e185828601612324565b92505060206123f2858286016123a7565b9150509250929050565b6000602082019050612411600083018461229a565b92915050565b60006020828403121561242d5761242c612027565b5b600061243b848285016123a7565b91505092915050565b6000806040838503121561245b5761245a612027565b5b6000612469858286016121a7565b925050602061247a858286016121a7565b9150509250929050565b6000608082019050818103600083015261249e8187612240565b90506124ad602083018661229a565b6124ba60408301856120c2565b6124c760608301846120c2565b95945050505050565b600080fd5b600080fd5b7f4e487b7100000000000000000000000000000000000000000000000000000000600052604160045260246000fd5b6125128261222f565b810181811067ffffffffffffffff82111715612531576125306124da565b5b80604052505050565b600061254461201d565b90506125508282612509565b919050565b600067ffffffffffffffff8211156125705761256f6124da565b5b6125798261222f565b9050602081019050919050565b82818337600083830152505050565b60006125a86125a384612555565b61253a565b9050828152602081018484840111156125c4576125c36124d5565b5b6125cf848285612586565b509392505050565b600082601f8301126125ec576125eb6124d0565b5b81356125fc848260208601612595565b91505092915050565b600067ffffffffffffffff8211156126205761261f6124da565b5b602082029050602081019050919050565b600080fd5b600061264961264484612605565b61253a565b9050808382526020820190506020840283018581111561266c5761266b612631565b5b835b818110156126b357803567ffffffffffffffff811115612691576126906124d0565b5b80860161269e89826125d7565b8552602085019450505060208101905061266e565b5050509392505050565b600082601f8301126126d2576126d16124d0565b5b81356126e2848260208601612636565b91505092915050565b600067ffffffffffffffff821115612706576127056124da565b5b602082029050602081019050919050565b600061272a612725846126eb565b61253a565b9050808382526020820190506020840283018581111561274d5761274c612631565b5b835b81811015612776578061276288826121a7565b84526020840193505060208101905061274f565b5050509392505050565b600082601f830112612795576127946124d0565b5b81356127a5848260208601612717565b91505092915050565b600080600080608085870312156127c8576127c7612027565b5b600085013567ffffffffffffffff8111156127e6576127e561202c565b5b6127f2878288016125d7565b9450506020612803878288016121a7565b935050604085013567ffffffffffffffff8111156128245761282361202c565b5b612830878288016126bd565b925050606085013567ffffffffffffffff8111156128515761285061202c565b5b61285d87828801612780565b91505092959194509250565b600081519050919050565b600082825260208201905092915050565b6000819050602082019050919050565b600082825260208201905092915050565b60006128b1826121e9565b6128bb8185612895565b93506128cb818560208601612205565b6128d48161222f565b840191505092915050565b60006128eb83836128a6565b905092915050565b6000602082019050919050565b600061290b82612869565b6129158185612874565b93508360208202850161292785612885565b8060005b85811015612963578484038952815161294485826128df565b945061294f836128f3565b925060208a0199505060018101905061292b565b50829750879550505050505092915050565b600081519050919050565b600082825260208201905092915050565b6000819050602082019050919050565b6129aa81612279565b82525050565b60006129bc83836129a1565b60208301905092915050565b6000602082019050919050565b60006129e082612975565b6129ea8185612980565b93506129f583612991565b8060005b83811015612a26578151612a0d88826129b0565b9750612a18836129c8565b9250506001810190506129f9565b5085935050505092915050565b600081519050919050565b600082825260208201905092915050565b6000819050602082019050919050565b612a6881612186565b82525050565b6000612a7a8383612a5f565b60208301905092915050565b6000602082019050919050565b6000612a9e82612a33565b612aa88185612a3e565b9350612ab383612a4f565b8060005b83811015612ae4578151612acb8882612a6e565b9750612ad683612a86565b925050600181019050612ab7565b5085935050505092915050565b600081519050919050565b600082825260208201905092915050565b6000819050602082019050919050565b612b26816120b6565b82525050565b6000612b388383612b1d565b60208301905092915050565b6000602082019050919050565b6000612b5c82612af1565b612b668185612afc565b9350612b7183612b0d565b8060005b83811015612ba2578151612b898882612b2c565b9750612b9483612b44565b925050600181019050612b75565b5085935050505092915050565b600060c0820190508181036000830152612bc98189612900565b90508181036020830152612bdd81886129d5565b90508181036040830152612bf18187612a93565b90508181036060830152612c058186612a93565b90508181036080830152612c198185612b51565b905081810360a0830152612c2d8184612a93565b9050979650505050505050565b600080600060608486031215612c5357612c52612027565b5b6000612c61868287016121a7565b9350506020612c72868287016123a7565b9250506040612c83868287016121a7565b9150509250925092565b600060c0820190508181036000830152612ca78189612240565b9050612cb6602083018861228b565b612cc3604083018761229a565b612cd0606083018661229a565b612cdd60808301856120c2565b612cea60a083018461229a565b979650505050505050565b7f4e487b7100000000000000000000000000000000000000000000000000000000600052602260045260246000fd5b60006002820490506001821680612d3c57607f821691505b602082108103612d4f57612d4e612cf5565b5b50919050565b7f50726f6a65637420616c726561647920696e6163746976650000000000000000600082015250565b6000612d8b6018836121f4565b9150612d9682612d55565b602082019050919050565b60006020820190508181036000830152612dba81612d7e565b9050919050565b7f496e76616c6964206d696c6573746f6e6520696e646578000000000000000000600082015250565b6000612df76017836121f4565b9150612e0282612dc1565b602082019050919050565b60006020820190508181036000830152612e2681612dea565b9050919050565b7f4e487b7100000000000000000000000000000000000000000000000000000000600052603260045260246000fd5b7f50726f6a656374206973207374696c6c20616374697665000000000000000000600082015250565b6000612e926017836121f4565b9150612e9d82612e5c565b602082019050919050565b60006020820190508181036000830152612ec181612e85565b9050919050565b7f4e6f20646f6e6174696f6e20666f756e64000000000000000000000000000000600082015250565b6000612efe6011836121f4565b9150612f0982612ec8565b602082019050919050565b60006020820190508181036000830152612f2d81612ef1565b9050919050565b600081905092915050565b50565b6000612f4f600083612f34565b9150612f5a82612f3f565b600082019050919050565b6000612f7082612f42565b9150819050919050565b7f526566756e64207472616e73666572206661696c656400000000000000000000600082015250565b6000612fb06016836121f4565b9150612fbb82612f7a565b602082019050919050565b60006020820190508181036000830152612fdf81612fa3565b9050919050565b7f4d696c6573746f6e6520617272617973206d757374206d617463680000000000600082015250565b600061301c601b836121f4565b915061302782612fe6565b602082019050919050565b6000602082019050818103600083015261304b8161300f565b9050919050565b7f4e487b7100000000000000000000000000000000000000000000000000000000600052601160045260246000fd5b600061308c82612186565b91507fffffffffffffffffffffffffffffffffffffffffffffffffffffffffffffffff82036130be576130bd613052565b5b600182019050919050565b60008190508160005260206000209050919050565b60006020601f8301049050919050565b600082821b905092915050565b60006008830261312b7fffffffffffffffffffffffffffffffffffffffffffffffffffffffffffffffff826130ee565b61313586836130ee565b95508019841693508086168417925050509392505050565b600061316861316361315e84612186565b61210c565b612186565b9050919050565b6000819050919050565b6131828361314d565b61319661318e8261316f565b8484546130fb565b825550505050565b600090565b6131ab61319e565b6131b6818484613179565b505050565b5b818110156131da576131cf6000826131a3565b6001810190506131bc565b5050565b601f82111561321f576131f0816130c9565b6131f9846130de565b81016020851015613208578190505b61321c613214856130de565b8301826131bb565b50505b505050565b600082821c905092915050565b600061324260001984600802613224565b1980831691505092915050565b600061325b8383613231565b9150826002028217905092915050565b613274826121e9565b67ffffffffffffffff81111561328d5761328c6124da565b5b6132978254612d24565b6132a28282856131de565b600060209050601f8311600181146132d557600084156132c3578287015190505b6132cd858261324f565b865550613335565b601f1984166132e3866130c9565b60005b8281101561330b578489015182556001820191506020850194506020810190506132e6565b868310156133285784890151613324601f891682613231565b8355505b6001600288020188555050505b505050505050565b600060408201905081810360008301526133578185612240565b9050613366602083018461228b565b9392505050565b7f50726f6a656374206973206e6f74206163746976650000000000000000000000600082015250565b60006133a36015836121f4565b91506133ae8261336d565b602082019050919050565b600060208201905081810360008301526133d281613396565b9050919050565b60006060820190506133ee600083018661228b565b6133fb602083018561228b565b613408604083018461229a565b949350505050565b613419816120b6565b811461342457600080fd5b50565b60008151905061343681613410565b92915050565b60006020828403121561345257613451612027565b5b600061346084828501613427565b91505092915050565b7f546f6b656e207472616e73666572206661696c65640000000000000000000000600082015250565b600061349f6015836121f4565b91506134aa82613469565b602082019050919050565b600060208201905081810360008301526134ce81613492565b9050919050565b60006134e082612186565b91506134eb83612186565b925082820190508082111561350357613502613052565b5b92915050565b600060608201905061351e600083018661228b565b61352b602083018561229a565b613538604083018461229a565b949350505050565b60008151905061354f81612190565b92915050565b60006020828403121561356b5761356a612027565b5b600061357984828501613540565b91505092915050565b7f446f6e6174696f6e20616d6f756e74206d75737420626520677265617465722060008201527f7468616e20300000000000000000000000000000000000000000000000000000602082015250565b60006135de6026836121f4565b91506135e982613582565b604082019050919050565b6000602082019050818103600083015261360d816135d1565b9050919050565b7f4d696c6573746f6e6520616c726561647920636f6d706c657465640000000000600082015250565b600061364a601b836121f4565b915061365582613614565b602082019050919050565b600060208201905081810360008301526136798161363d565b9050919050565b7f46756e64207472616e73666572206661696c6564000000000000000000000000600082015250565b60006136b66014836121f4565b91506136c182613680565b602082019050919050565b600060208201905081810360008301526136e5816136a9565b9050919050565b6000604082019050613701600083018561228b565b61370e6020830184612366565b939250505056fea2646970667358221220e0b28af0f550602bf9a528306c41cd10b0dee27583be02af3db9da14e14adb1e64736f6c63430008150033",
  "immutableReferences": {},
  "source": "// SPDX-License-Identifier: MIT\npragma solidity ^0.8.21;\n\nimport \"@openzeppelin/contracts/utils/ReentrancyGuard.sol\";\nimport \"@openzeppelin/contracts/access/AccessControl.sol\";\nimport \"@openzeppelin/contracts/token/ERC20/IERC20.sol\";\nimport \"./DonationToken.sol\";\n\ncontract CharityPlatform is ReentrancyGuard, AccessControl {\n    bytes32 public constant ADMIN_ROLE = keccak256(\"ADMIN_ROLE\");\n    bytes32 public constant CHARITY_ROLE = keccak256(\"CHARITY_ROLE\");\n\n    DonationToken public donationToken;\n    \n    struct Project {\n        string name;\n        address charityAddress;\n        uint256 goalAmount;\n        uint256 raisedAmount;\n        bool isActive;\n        Milestone[] milestones;\n        mapping(address => uint256) donations;\n    }\n\n    struct Milestone {\n        string description;\n        uint256 targetAmount;\n        bool isCompleted;\n        bool fundsReleased;\n    }\n\n    mapping(uint256 => Project) public projects;\n    uint256 public projectCount;\n\n    event ProjectCreated(uint256 indexed projectId, string name, address charityAddress);\n    event DonationReceived(uint256 indexed projectId, address indexed donor, uint256 amount);\n    event MilestoneCompleted(uint256 indexed projectId, uint256 milestoneIndex);\n    event FundsReleased(uint256 indexed projectId, uint256 amount);\n    event RefundIssued(uint256 indexed projectId, address indexed donor, uint256 amount);\n\n    constructor(address _donationToken) {\n        _grantRole(DEFAULT_ADMIN_ROLE, msg.sender);\n        _grantRole(ADMIN_ROLE, msg.sender);\n        donationToken = DonationToken(_donationToken);\n    }\n\n    function createProject(\n        string memory _name,\n        uint256 _goalAmount,\n        string[] memory _milestoneDescriptions,\n        uint256[] memory _milestoneTargets\n    ) external onlyRole(CHARITY_ROLE) {\n        require(_milestoneDescriptions.length == _milestoneTargets.length, \"Milestone arrays must match\");\n        \n        projectCount++;\n        Project storage project = projects[projectCount];\n        project.name = _name;\n        project.charityAddress = msg.sender;\n        project.goalAmount = _goalAmount;\n        project.isActive = true;\n\n        for(uint i = 0; i < _milestoneDescriptions.length; i++) {\n            project.milestones.push(Milestone({\n                description: _milestoneDescriptions[i],\n                targetAmount: _milestoneTargets[i],\n                isCompleted: false,\n                fundsReleased: false\n            }));\n        }\n\n        emit ProjectCreated(projectCount, _name, msg.sender);\n    }\n\n    function donate(uint256 _projectId) external payable nonReentrant {\n        Project storage project = projects[_projectId];\n        require(project.isActive, \"Project is not active\");\n        require(msg.value > 0, \"Donation amount must be greater than 0\");\n\n        project.donations[msg.sender] += msg.value;\n        project.raisedAmount += msg.value;\n\n        // Mint donation NFT\n        donationToken.mint(msg.sender, _projectId, msg.value);\n\n        emit DonationReceived(_projectId, msg.sender, msg.value);\n    }\n\n    function completeMilestone(uint256 _projectId, uint256 _milestoneIndex) external onlyRole(ADMIN_ROLE) {\n        Project storage project = projects[_projectId];\n        require(_milestoneIndex < project.milestones.length, \"Invalid milestone index\");\n        \n        Milestone storage milestone = project.milestones[_milestoneIndex];\n        require(!milestone.isCompleted, \"Milestone already completed\");\n        \n        milestone.isCompleted = true;\n        emit MilestoneCompleted(_projectId, _milestoneIndex);\n\n        // Release funds for completed milestone\n        if(!milestone.fundsReleased && project.raisedAmount >= milestone.targetAmount) {\n            milestone.fundsReleased = true;\n            uint256 releaseAmount = milestone.targetAmount;\n            \n            (bool success, ) = project.charityAddress.call{value: releaseAmount}(\"\");\n            require(success, \"Fund transfer failed\");\n            \n            emit FundsReleased(_projectId, releaseAmount);\n        }\n    }\n\n    function requestRefund(uint256 _projectId) external nonReentrant {\n        Project storage project = projects[_projectId];\n        require(!project.isActive, \"Project is still active\");\n        \n        uint256 donationAmount = project.donations[msg.sender];\n        require(donationAmount > 0, \"No donation found\");\n\n        project.donations[msg.sender] = 0;\n        \n        (bool success, ) = msg.sender.call{value: donationAmount}(\"\");\n        require(success, \"Refund transfer failed\");\n\n        emit RefundIssued(_projectId, msg.sender, donationAmount);\n    }\n\n    function deactivateProject(uint256 _projectId) external onlyRole(ADMIN_ROLE) {\n        Project storage project = projects[_projectId];\n        require(project.isActive, \"Project already inactive\");\n        project.isActive = false;\n    }\n\n    // Multi-currency support functions\n    function donateToken(uint256 _projectId, address _tokenAddress, uint256 _amount) external nonReentrant {\n        Project storage project = projects[_projectId];\n        require(project.isActive, \"Project is not active\");\n        \n        IERC20 token = IERC20(_tokenAddress);\n        require(token.transferFrom(msg.sender, address(this), _amount), \"Token transfer failed\");\n        \n        project.donations[msg.sender] += _amount;\n        project.raisedAmount += _amount;\n\n        // Mint donation NFT\n        donationToken.mint(msg.sender, _projectId, _amount);\n        \n        emit DonationReceived(_projectId, msg.sender, _amount);\n    }\n\n    // Administrative functions\n    function addCharity(address _charityAddress) external onlyRole(ADMIN_ROLE) {\n        _grantRole(CHARITY_ROLE, _charityAddress);\n    }\n\n    function removeCharity(address _charityAddress) external onlyRole(ADMIN_ROLE) {\n        revokeRole(CHARITY_ROLE, _charityAddress);\n    }\n\n    // View functions\n    function getProject(uint256 _projectId) external view returns (\n        string memory name,\n        address charityAddress,\n        uint256 goalAmount,\n        uint256 raisedAmount,\n        bool isActive,\n        uint256 milestoneCount\n    ) {\n        Project storage project = projects[_projectId];\n        return (\n            project.name,\n            project.charityAddress,\n            project.goalAmount,\n            project.raisedAmount,\n            project.isActive,\n            project.milestones.length\n        );\n    }\n\n    function getProjects() external view returns (\n        string[] memory name,\n        address[] memory charityAddress,\n        uint256[] memory goalAmount,\n        uint256[] memory raisedAmount,\n        bool[] memory isActive,\n        uint256[] memory milestoneCount\n    ) {\n        string[] memory allNames = new string[](projectCount);\n        address[] memory allCharityAddreses = new address[](projectCount);\n        uint256[] memory allGoalAmounts = new uint256[](projectCount);\n        uint256[] memory allRaisedAmounts = new uint256[](projectCount);\n        bool[] memory areActive = new bool[](projectCount);\n        uint256[] memory milestoneCounts = new uint256[](projectCount);\n        for (uint i = 0; i < projectCount; i++) {\n            allNames[i] = projects[i].name;\n            allCharityAddreses[i] = projects[i].charityAddress;\n            allGoalAmounts[i] = projects[i].goalAmount;\n            allRaisedAmounts[i] = projects[i].raisedAmount;\n            areActive[i] = projects[i].isActive;\n            milestoneCounts[i] = projects[i].milestones.length;\n        }\n        return (\n            allNames, \n            allCharityAddreses, \n            allGoalAmounts,\n            allRaisedAmounts,\n            areActive,\n            milestoneCounts\n        );\n    }\n\n    function getMilestone(uint256 _projectId, uint256 _milestoneIndex) external view returns (\n        string memory description,\n        uint256 targetAmount,\n        bool isCompleted,\n        bool fundsReleased\n    ) {\n        Project storage project = projects[_projectId];\n        require(_milestoneIndex < project.milestones.length, \"Invalid milestone index\");\n        \n        Milestone storage milestone = project.milestones[_milestoneIndex];\n        return (\n            milestone.description,\n            milestone.targetAmount,\n            milestone.isCompleted,\n            milestone.fundsReleased\n        );\n    }\n\n    receive() external payable {}\n}",
  "sourcePath": "/Users/artazidele/Documents/LU-2023-2024/Blokkedes biznesa/CharityDonation/contracts/CharityPlatform.sol",
  "compiler": {
    "name": "solc",
    "version": "0.8.21+commit.d9974bed.Emscripten.clang"
  },
  "schemaVersion": "3.4.16",
  "updatedAt": "2024-12-02T23:30:09.448Z",
  "networkType": "ethereum",
  "devdoc": {
    "errors": {
      "AccessControlBadConfirmation()": [
        {
          "details": "The caller of a function is not the expected one. NOTE: Don't confuse with {AccessControlUnauthorizedAccount}."
        }
      ],
      "AccessControlUnauthorizedAccount(address,bytes32)": [
        {
          "details": "The `account` is missing a role."
        }
      ],
      "ReentrancyGuardReentrantCall()": [
        {
          "details": "Unauthorized reentrant call."
        }
      ]
    },
    "events": {
      "RoleAdminChanged(bytes32,bytes32,bytes32)": {
        "details": "Emitted when `newAdminRole` is set as ``role``'s admin role, replacing `previousAdminRole` `DEFAULT_ADMIN_ROLE` is the starting admin for all roles, despite {RoleAdminChanged} not being emitted signaling this."
      },
      "RoleGranted(bytes32,address,address)": {
        "details": "Emitted when `account` is granted `role`. `sender` is the account that originated the contract call. This account bears the admin role (for the granted role). Expected in cases where the role was granted using the internal {AccessControl-_grantRole}."
      },
      "RoleRevoked(bytes32,address,address)": {
        "details": "Emitted when `account` is revoked `role`. `sender` is the account that originated the contract call:   - if using `revokeRole`, it is the admin role bearer   - if using `renounceRole`, it is the role bearer (i.e. `account`)"
      }
    },
    "kind": "dev",
    "methods": {
      "getRoleAdmin(bytes32)": {
        "details": "Returns the admin role that controls `role`. See {grantRole} and {revokeRole}. To change a role's admin, use {_setRoleAdmin}."
      },
      "grantRole(bytes32,address)": {
        "details": "Grants `role` to `account`. If `account` had not been already granted `role`, emits a {RoleGranted} event. Requirements: - the caller must have ``role``'s admin role. May emit a {RoleGranted} event."
      },
      "hasRole(bytes32,address)": {
        "details": "Returns `true` if `account` has been granted `role`."
      },
      "renounceRole(bytes32,address)": {
        "details": "Revokes `role` from the calling account. Roles are often managed via {grantRole} and {revokeRole}: this function's purpose is to provide a mechanism for accounts to lose their privileges if they are compromised (such as when a trusted device is misplaced). If the calling account had been revoked `role`, emits a {RoleRevoked} event. Requirements: - the caller must be `callerConfirmation`. May emit a {RoleRevoked} event."
      },
      "revokeRole(bytes32,address)": {
        "details": "Revokes `role` from `account`. If `account` had been granted `role`, emits a {RoleRevoked} event. Requirements: - the caller must have ``role``'s admin role. May emit a {RoleRevoked} event."
      },
      "supportsInterface(bytes4)": {
        "details": "See {IERC165-supportsInterface}."
      }
    },
    "version": 1
  },
  "userdoc": {
    "kind": "user",
    "methods": {},
    "version": 1
  }
}