{
  "contractName": "CharityPlatform",
  "abi": [
    {
      "inputs": [
        {
          "internalType": "address",
          "name": "_donationToken",
          "type": "address"
        }
      ],
      "stateMutability": "nonpayable",
      "type": "constructor"
    },
    {
      "inputs": [],
      "name": "AccessControlBadConfirmation",
      "type": "error"
    },
    {
      "inputs": [
        {
          "internalType": "address",
          "name": "account",
          "type": "address"
        },
        {
          "internalType": "bytes32",
          "name": "neededRole",
          "type": "bytes32"
        }
      ],
      "name": "AccessControlUnauthorizedAccount",
      "type": "error"
    },
    {
      "inputs": [],
      "name": "ReentrancyGuardReentrantCall",
      "type": "error"
    },
    {
      "anonymous": false,
      "inputs": [
        {
          "indexed": true,
          "internalType": "uint256",
          "name": "projectId",
          "type": "uint256"
        },
        {
          "indexed": true,
          "internalType": "address",
          "name": "donor",
          "type": "address"
        },
        {
          "indexed": false,
          "internalType": "uint256",
          "name": "amount",
          "type": "uint256"
        }
      ],
      "name": "DonationReceived",
      "type": "event"
    },
    {
      "anonymous": false,
      "inputs": [
        {
          "indexed": true,
          "internalType": "uint256",
          "name": "projectId",
          "type": "uint256"
        },
        {
          "indexed": false,
          "internalType": "uint256",
          "name": "amount",
          "type": "uint256"
        }
      ],
      "name": "FundsReleased",
      "type": "event"
    },
    {
      "anonymous": false,
      "inputs": [
        {
          "indexed": true,
          "internalType": "uint256",
          "name": "projectId",
          "type": "uint256"
        },
        {
          "indexed": false,
          "internalType": "uint256",
          "name": "milestoneIndex",
          "type": "uint256"
        }
      ],
      "name": "MilestoneCompleted",
      "type": "event"
    },
    {
      "anonymous": false,
      "inputs": [
        {
          "indexed": true,
          "internalType": "uint256",
          "name": "projectId",
          "type": "uint256"
        },
        {
          "indexed": false,
          "internalType": "string",
          "name": "name",
          "type": "string"
        },
        {
          "indexed": false,
          "internalType": "address",
          "name": "charityAddress",
          "type": "address"
        }
      ],
      "name": "ProjectCreated",
      "type": "event"
    },
    {
      "anonymous": false,
      "inputs": [
        {
          "indexed": true,
          "internalType": "uint256",
          "name": "projectId",
          "type": "uint256"
        },
        {
          "indexed": true,
          "internalType": "address",
          "name": "donor",
          "type": "address"
        },
        {
          "indexed": false,
          "internalType": "uint256",
          "name": "amount",
          "type": "uint256"
        }
      ],
      "name": "RefundIssued",
      "type": "event"
    },
    {
      "anonymous": false,
      "inputs": [
        {
          "indexed": true,
          "internalType": "bytes32",
          "name": "role",
          "type": "bytes32"
        },
        {
          "indexed": true,
          "internalType": "bytes32",
          "name": "previousAdminRole",
          "type": "bytes32"
        },
        {
          "indexed": true,
          "internalType": "bytes32",
          "name": "newAdminRole",
          "type": "bytes32"
        }
      ],
      "name": "RoleAdminChanged",
      "type": "event"
    },
    {
      "anonymous": false,
      "inputs": [
        {
          "indexed": true,
          "internalType": "bytes32",
          "name": "role",
          "type": "bytes32"
        },
        {
          "indexed": true,
          "internalType": "address",
          "name": "account",
          "type": "address"
        },
        {
          "indexed": true,
          "internalType": "address",
          "name": "sender",
          "type": "address"
        }
      ],
      "name": "RoleGranted",
      "type": "event"
    },
    {
      "anonymous": false,
      "inputs": [
        {
          "indexed": true,
          "internalType": "bytes32",
          "name": "role",
          "type": "bytes32"
        },
        {
          "indexed": true,
          "internalType": "address",
          "name": "account",
          "type": "address"
        },
        {
          "indexed": true,
          "internalType": "address",
          "name": "sender",
          "type": "address"
        }
      ],
      "name": "RoleRevoked",
      "type": "event"
    },
    {
      "inputs": [],
      "name": "ADMIN_ROLE",
      "outputs": [
        {
          "internalType": "bytes32",
          "name": "",
          "type": "bytes32"
        }
      ],
      "stateMutability": "view",
      "type": "function"
    },
    {
      "inputs": [],
      "name": "CHARITY_ROLE",
      "outputs": [
        {
          "internalType": "bytes32",
          "name": "",
          "type": "bytes32"
        }
      ],
      "stateMutability": "view",
      "type": "function"
    },
    {
      "inputs": [],
      "name": "DEFAULT_ADMIN_ROLE",
      "outputs": [
        {
          "internalType": "bytes32",
          "name": "",
          "type": "bytes32"
        }
      ],
      "stateMutability": "view",
      "type": "function"
    },
    {
      "inputs": [],
      "name": "donationToken",
      "outputs": [
        {
          "internalType": "contract DonationToken",
          "name": "",
          "type": "address"
        }
      ],
      "stateMutability": "view",
      "type": "function"
    },
    {
      "inputs": [
        {
          "internalType": "bytes32",
          "name": "role",
          "type": "bytes32"
        }
      ],
      "name": "getRoleAdmin",
      "outputs": [
        {
          "internalType": "bytes32",
          "name": "",
          "type": "bytes32"
        }
      ],
      "stateMutability": "view",
      "type": "function"
    },
    {
      "inputs": [
        {
          "internalType": "bytes32",
          "name": "role",
          "type": "bytes32"
        },
        {
          "internalType": "address",
          "name": "account",
          "type": "address"
        }
      ],
      "name": "grantRole",
      "outputs": [],
      "stateMutability": "nonpayable",
      "type": "function"
    },
    {
      "inputs": [
        {
          "internalType": "bytes32",
          "name": "role",
          "type": "bytes32"
        },
        {
          "internalType": "address",
          "name": "account",
          "type": "address"
        }
      ],
      "name": "hasRole",
      "outputs": [
        {
          "internalType": "bool",
          "name": "",
          "type": "bool"
        }
      ],
      "stateMutability": "view",
      "type": "function"
    },
    {
      "inputs": [],
      "name": "projectCount",
      "outputs": [
        {
          "internalType": "uint256",
          "name": "",
          "type": "uint256"
        }
      ],
      "stateMutability": "view",
      "type": "function"
    },
    {
      "inputs": [
        {
          "internalType": "uint256",
          "name": "",
          "type": "uint256"
        }
      ],
      "name": "projects",
      "outputs": [
        {
          "internalType": "string",
          "name": "name",
          "type": "string"
        },
        {
          "internalType": "address",
          "name": "charityAddress",
          "type": "address"
        },
        {
          "internalType": "uint256",
          "name": "goalAmount",
          "type": "uint256"
        },
        {
          "internalType": "uint256",
          "name": "raisedAmount",
          "type": "uint256"
        },
        {
          "internalType": "bool",
          "name": "isActive",
          "type": "bool"
        }
      ],
      "stateMutability": "view",
      "type": "function"
    },
    {
      "inputs": [
        {
          "internalType": "bytes32",
          "name": "role",
          "type": "bytes32"
        },
        {
          "internalType": "address",
          "name": "callerConfirmation",
          "type": "address"
        }
      ],
      "name": "renounceRole",
      "outputs": [],
      "stateMutability": "nonpayable",
      "type": "function"
    },
    {
      "inputs": [
        {
          "internalType": "bytes32",
          "name": "role",
          "type": "bytes32"
        },
        {
          "internalType": "address",
          "name": "account",
          "type": "address"
        }
      ],
      "name": "revokeRole",
      "outputs": [],
      "stateMutability": "nonpayable",
      "type": "function"
    },
    {
      "inputs": [
        {
          "internalType": "bytes4",
          "name": "interfaceId",
          "type": "bytes4"
        }
      ],
      "name": "supportsInterface",
      "outputs": [
        {
          "internalType": "bool",
          "name": "",
          "type": "bool"
        }
      ],
      "stateMutability": "view",
      "type": "function"
    },
    {
      "stateMutability": "payable",
      "type": "receive"
    },
    {
      "inputs": [
        {
          "internalType": "address",
          "name": "_address",
          "type": "address"
        },
        {
          "internalType": "string",
          "name": "_name",
          "type": "string"
        },
        {
          "internalType": "uint256",
          "name": "_goalAmount",
          "type": "uint256"
        },
        {
          "internalType": "string[]",
          "name": "_milestoneDescriptions",
          "type": "string[]"
        },
        {
          "internalType": "uint256[]",
          "name": "_milestoneTargets",
          "type": "uint256[]"
        }
      ],
      "name": "createProject",
      "outputs": [],
      "stateMutability": "nonpayable",
      "type": "function"
    },
    {
      "inputs": [
        {
          "internalType": "uint256",
          "name": "_projectId",
          "type": "uint256"
        },
        {
          "internalType": "address",
          "name": "_donor",
          "type": "address"
        },
        {
          "internalType": "address",
          "name": "_recipient",
          "type": "address"
        }
      ],
      "name": "donate",
      "outputs": [],
      "stateMutability": "payable",
      "type": "function"
    },
    {
      "inputs": [
        {
          "internalType": "uint256",
          "name": "_projectId",
          "type": "uint256"
        }
      ],
      "name": "requestRefund",
      "outputs": [],
      "stateMutability": "nonpayable",
      "type": "function"
    },
    {
      "inputs": [
        {
          "internalType": "uint256",
          "name": "_projectId",
          "type": "uint256"
        }
      ],
      "name": "deactivateProject",
      "outputs": [],
      "stateMutability": "nonpayable",
      "type": "function"
    },
    {
      "inputs": [
        {
          "internalType": "uint256",
          "name": "_projectId",
          "type": "uint256"
        },
        {
          "internalType": "address",
          "name": "_tokenAddress",
          "type": "address"
        },
        {
          "internalType": "uint256",
          "name": "_amount",
          "type": "uint256"
        }
      ],
      "name": "donateToken",
      "outputs": [],
      "stateMutability": "nonpayable",
      "type": "function"
    },
    {
      "inputs": [
        {
          "internalType": "address",
          "name": "_charityAddress",
          "type": "address"
        }
      ],
      "name": "addCharity",
      "outputs": [],
      "stateMutability": "nonpayable",
      "type": "function"
    },
    {
      "inputs": [
        {
          "internalType": "address",
          "name": "_charityAddress",
          "type": "address"
        }
      ],
      "name": "removeCharity",
      "outputs": [],
      "stateMutability": "nonpayable",
      "type": "function"
    },
    {
      "inputs": [
        {
          "internalType": "uint256",
          "name": "_projectId",
          "type": "uint256"
        }
      ],
      "name": "getProject",
      "outputs": [
        {
          "internalType": "string",
          "name": "name",
          "type": "string"
        },
        {
          "internalType": "address",
          "name": "charityAddress",
          "type": "address"
        },
        {
          "internalType": "uint256",
          "name": "goalAmount",
          "type": "uint256"
        },
        {
          "internalType": "uint256",
          "name": "raisedAmount",
          "type": "uint256"
        },
        {
          "internalType": "bool",
          "name": "isActive",
          "type": "bool"
        },
        {
          "internalType": "uint256",
          "name": "milestoneCount",
          "type": "uint256"
        }
      ],
      "stateMutability": "view",
      "type": "function"
    },
    {
      "inputs": [
        {
          "internalType": "uint256",
          "name": "_projectId",
          "type": "uint256"
        },
        {
          "internalType": "address",
          "name": "_donor",
          "type": "address"
        }
      ],
      "name": "getProjectDonations",
      "outputs": [
        {
          "internalType": "uint256",
          "name": "donorAmount",
          "type": "uint256"
        }
      ],
      "stateMutability": "view",
      "type": "function"
    },
    {
      "inputs": [],
      "name": "getProjects",
      "outputs": [
        {
          "internalType": "string[]",
          "name": "name",
          "type": "string[]"
        },
        {
          "internalType": "address[]",
          "name": "charityAddress",
          "type": "address[]"
        },
        {
          "internalType": "uint256[]",
          "name": "goalAmount",
          "type": "uint256[]"
        },
        {
          "internalType": "uint256[]",
          "name": "raisedAmount",
          "type": "uint256[]"
        },
        {
          "internalType": "bool[]",
          "name": "isActive",
          "type": "bool[]"
        },
        {
          "internalType": "uint256[]",
          "name": "milestoneCount",
          "type": "uint256[]"
        }
      ],
      "stateMutability": "view",
      "type": "function"
    },
    {
      "inputs": [
        {
          "internalType": "address",
          "name": "_donor",
          "type": "address"
        }
      ],
      "name": "getMyDonationProjectIds",
      "outputs": [
        {
          "internalType": "uint256[]",
          "name": "id",
          "type": "uint256[]"
        }
      ],
      "stateMutability": "view",
      "type": "function"
    },
    {
      "inputs": [
        {
          "internalType": "uint256",
          "name": "_projectId",
          "type": "uint256"
        },
        {
          "internalType": "address",
          "name": "_donor",
          "type": "address"
        }
      ],
      "name": "getMyDonationProject",
      "outputs": [
        {
          "internalType": "string",
          "name": "name",
          "type": "string"
        },
        {
          "internalType": "address",
          "name": "charityAddress",
          "type": "address"
        },
        {
          "internalType": "uint256",
          "name": "goalAmount",
          "type": "uint256"
        },
        {
          "internalType": "uint256",
          "name": "raisedAmount",
          "type": "uint256"
        },
        {
          "internalType": "bool",
          "name": "isActive",
          "type": "bool"
        },
        {
          "internalType": "uint256",
          "name": "milestoneCount",
          "type": "uint256"
        },
        {
          "internalType": "uint256",
          "name": "donorAmount",
          "type": "uint256"
        }
      ],
      "stateMutability": "view",
      "type": "function"
    },
    {
      "inputs": [
        {
          "internalType": "address",
          "name": "_address",
          "type": "address"
        }
      ],
      "name": "getMyCharityProjectIds",
      "outputs": [
        {
          "internalType": "uint256[]",
          "name": "id",
          "type": "uint256[]"
        }
      ],
      "stateMutability": "view",
      "type": "function"
    },
    {
      "inputs": [
        {
          "internalType": "uint256",
          "name": "_projectId",
          "type": "uint256"
        },
        {
          "internalType": "uint256",
          "name": "_milestoneIndex",
          "type": "uint256"
        }
      ],
      "name": "getMilestone",
      "outputs": [
        {
          "internalType": "string",
          "name": "description",
          "type": "string"
        },
        {
          "internalType": "uint256",
          "name": "targetAmount",
          "type": "uint256"
        },
        {
          "internalType": "bool",
          "name": "isCompleted",
          "type": "bool"
        },
        {
          "internalType": "bool",
          "name": "fundsReleased",
          "type": "bool"
        }
      ],
      "stateMutability": "view",
      "type": "function"
    }
  ],
  "bytecode": "0x60806040523480156200001157600080fd5b5060405162004022380380620040228339818101604052810190620000379190620002b0565b6001600081905550620000546000801b33620000d060201b60201c565b50620000877fa49807205ce4d355092ef5a8a18f56e8913cf4a201fbe287825b095693c2177533620000d060201b60201c565b5080600260006101000a81548173ffffffffffffffffffffffffffffffffffffffff021916908373ffffffffffffffffffffffffffffffffffffffff16021790555050620002e2565b6000620000e48383620001d360201b60201c565b620001c857600180600085815260200190815260200160002060000160008473ffffffffffffffffffffffffffffffffffffffff1673ffffffffffffffffffffffffffffffffffffffff16815260200190815260200160002060006101000a81548160ff021916908315150217905550620001646200023e60201b60201c565b73ffffffffffffffffffffffffffffffffffffffff168273ffffffffffffffffffffffffffffffffffffffff16847f2f8788117e7eff1d82e926ec794901d17c78024a50270940304540a733656f0d60405160405180910390a460019050620001cd565b600090505b92915050565b60006001600084815260200190815260200160002060000160008373ffffffffffffffffffffffffffffffffffffffff1673ffffffffffffffffffffffffffffffffffffffff16815260200190815260200160002060009054906101000a900460ff16905092915050565b600033905090565b600080fd5b600073ffffffffffffffffffffffffffffffffffffffff82169050919050565b600062000278826200024b565b9050919050565b6200028a816200026b565b81146200029657600080fd5b50565b600081519050620002aa816200027f565b92915050565b600060208284031215620002c957620002c862000246565b5b6000620002d98482850162000299565b91505092915050565b613d3080620002f26000396000f3fe6080604052600436106101855760003560e01c806378b14f0a116100d1578063ac350c591161008a578063dcc6012811610064578063dcc60128146105c1578063dd36341a146105f1578063f05719351461062e578063f0f3f2c8146106575761018c565b8063ac350c5914610518578063d358d8e914610555578063d547741f146105985761018c565b806378b14f0a146103f55780638ed9895c1461041e57806391d148541461045e578063a217fddf1461049b578063a4b2409e146104c6578063abefe591146104ef5761018c565b806336fbad261161013e5780636cd0b5d1116101185780636cd0b5d1146103395780636f0c80671461036257806371b8ab321461038d57806375b238fc146103ca5761018c565b806336fbad26146102c957806337f3f7ea146102f4578063436e6958146103105761018c565b806301ffc9a7146101915780630df72159146101ce578063107046bd146101f9578063248a9ca31461023a5780632f2ff15d1461027757806336568abe146102a05761018c565b3661018c57005b600080fd5b34801561019d57600080fd5b506101b860048036038101906101b3919061252f565b610699565b6040516101c59190612577565b60405180910390f35b3480156101da57600080fd5b506101e3610713565b6040516101f09190612611565b60405180910390f35b34801561020557600080fd5b50610220600480360381019061021b9190612662565b610739565b60405161023195949392919061274f565b60405180910390f35b34801561024657600080fd5b50610261600480360381019061025c91906127df565b610824565b60405161026e919061281b565b60405180910390f35b34801561028357600080fd5b5061029e60048036038101906102999190612862565b610844565b005b3480156102ac57600080fd5b506102c760048036038101906102c29190612862565b610866565b005b3480156102d557600080fd5b506102de6108e1565b6040516102eb91906128a2565b60405180910390f35b61030e600480360381019061030991906128bd565b6108e7565b005b34801561031c57600080fd5b5061033760048036038101906103329190612662565b610c40565b005b34801561034557600080fd5b50610360600480360381019061035b9190612bee565b610cf4565b005b34801561036e57600080fd5b50610377610f5d565b604051610384919061281b565b60405180910390f35b34801561039957600080fd5b506103b460048036038101906103af9190612cbd565b610f81565b6040516103c19190612da8565b60405180910390f35b3480156103d657600080fd5b506103df61108a565b6040516103ec919061281b565b60405180910390f35b34801561040157600080fd5b5061041c60048036038101906104179190612cbd565b6110ae565b005b34801561042a57600080fd5b5061044560048036038101906104409190612dca565b611107565b6040516104559493929190612e0a565b60405180910390f35b34801561046a57600080fd5b5061048560048036038101906104809190612862565b611261565b6040516104929190612577565b60405180910390f35b3480156104a757600080fd5b506104b06112cc565b6040516104bd919061281b565b60405180910390f35b3480156104d257600080fd5b506104ed60048036038101906104e89190612662565b6112d3565b005b3480156104fb57600080fd5b5061051660048036038101906105119190612cbd565b61151d565b005b34801561052457600080fd5b5061053f600480360381019061053a9190612cbd565b611575565b60405161054c9190612da8565b60405180910390f35b34801561056157600080fd5b5061057c60048036038101906105779190612e56565b61168b565b60405161058f9796959493929190612e96565b60405180910390f35b3480156105a457600080fd5b506105bf60048036038101906105ba9190612862565b6117e9565b005b3480156105cd57600080fd5b506105d661180b565b6040516105e896959493929190613194565b60405180910390f35b3480156105fd57600080fd5b5061061860048036038101906106139190612e56565b611c63565b60405161062591906128a2565b60405180910390f35b34801561063a57600080fd5b506106556004803603810190610650919061321f565b611ccc565b005b34801561066357600080fd5b5061067e60048036038101906106799190612662565b611f74565b60405161069096959493929190613272565b60405180910390f35b60007f7965db0b000000000000000000000000000000000000000000000000000000007bffffffffffffffffffffffffffffffffffffffffffffffffffffffff1916827bffffffffffffffffffffffffffffffffffffffffffffffffffffffff1916148061070c575061070b82612083565b5b9050919050565b600260009054906101000a900473ffffffffffffffffffffffffffffffffffffffff1681565b600360205280600052604060002060009150905080600001805461075c90613309565b80601f016020809104026020016040519081016040528092919081815260200182805461078890613309565b80156107d55780601f106107aa576101008083540402835291602001916107d5565b820191906000526020600020905b8154815290600101906020018083116107b857829003601f168201915b5050505050908060010160009054906101000a900473ffffffffffffffffffffffffffffffffffffffff16908060020154908060030154908060040160009054906101000a900460ff16905085565b600060016000838152602001908152602001600020600101549050919050565b61084d82610824565b610856816120ed565b6108608383612101565b50505050565b61086e6121f2565b73ffffffffffffffffffffffffffffffffffffffff168173ffffffffffffffffffffffffffffffffffffffff16146108d2576040517f6697b23200000000000000000000000000000000000000000000000000000000815260040160405180910390fd5b6108dc82826121fa565b505050565b60045481565b6108ef6122ed565b60006003600085815260200190815260200160002090508060040160009054906101000a900460ff16610957576040517f08c379a000000000000000000000000000000000000000000000000000000000815260040161094e90613386565b60405180910390fd5b6000341161099a576040517f08c379a000000000000000000000000000000000000000000000000000000000815260040161099190613418565b60405180910390fd5b600082905060008173ffffffffffffffffffffffffffffffffffffffff166108fc349081150290604051600060405180830381858888f19350505050905080610a18576040517f08c379a0000000000000000000000000000000000000000000000000000000008152600401610a0f90613484565b60405180910390fd5b348360060160008773ffffffffffffffffffffffffffffffffffffffff1673ffffffffffffffffffffffffffffffffffffffff1681526020019081526020016000206000828254610a6991906134d3565b9250508190555034836003016000828254610a8491906134d3565b92505081905550600260009054906101000a900473ffffffffffffffffffffffffffffffffffffffff1673ffffffffffffffffffffffffffffffffffffffff1663156e29f68688346040518463ffffffff1660e01b8152600401610aea93929190613507565b6020604051808303816000875af1158015610b09573d6000803e3d6000fd5b505050506040513d601f19601f82011682018060405250810190610b2d9190613553565b508473ffffffffffffffffffffffffffffffffffffffff16867f0b5b4c52969ff7329ecf7ee536409fda87812b15a8622bc6e8cdeab3aee14a2634604051610b7591906128a2565b60405180910390a36000805b8460050180549050811015610c2e57846005018181548110610ba657610ba5613580565b5b90600052602060002090600302016001015482610bc391906134d3565b915081856003015410158015610c0b5750846005018181548110610bea57610be9613580565b5b906000526020600020906003020160020160009054906101000a900460ff16155b15610c1b57610c1a8882612333565b5b8080610c26906135af565b915050610b81565b5050505050610c3b612468565b505050565b7fa49807205ce4d355092ef5a8a18f56e8913cf4a201fbe287825b095693c21775610c6a816120ed565b60006003600084815260200190815260200160002090508060040160009054906101000a900460ff16610cd2576040517f08c379a0000000000000000000000000000000000000000000000000000000008152600401610cc990613643565b60405180910390fd5b60008160040160006101000a81548160ff021916908315150217905550505050565b7f838cb9e68162e54d2dfda44baa96273d8a6cb729c0d42995215e0f52841feb77610d1e816120ed565b8151835114610d62576040517f08c379a0000000000000000000000000000000000000000000000000000000008152600401610d59906136af565b60405180910390fd5b60046000815480929190610d75906135af565b91905055506000600360006004548152602001908152602001600020905085816000019081610da49190613871565b50868160010160006101000a81548173ffffffffffffffffffffffffffffffffffffffff021916908373ffffffffffffffffffffffffffffffffffffffff16021790555084816002018190555060018160040160006101000a81548160ff02191690831515021790555060005b8451811015610f1757816005016040518060800160405280878481518110610e3c57610e3b613580565b5b60200260200101518152602001868481518110610e5c57610e5b613580565b5b602002602001015181526020016000151581526020016000151581525090806001815401808255809150506001900390600052602060002090600302016000909190919091506000820151816000019081610eb79190613871565b506020820151816001015560408201518160020160006101000a81548160ff02191690831515021790555060608201518160020160016101000a81548160ff02191690831515021790555050508080610f0f906135af565b915050610e11565b506004547fc0c54fed07481d0998e1446b2c13759606bf4f26b78306307413ac4c4309aa828789604051610f4c929190613943565b60405180910390a250505050505050565b7f838cb9e68162e54d2dfda44baa96273d8a6cb729c0d42995215e0f52841feb7781565b6060600060045467ffffffffffffffff811115610fa157610fa061291a565b5b604051908082528060200260200182016040528015610fcf5781602001602082028036833780820191505090505b5090506000805b60045481101561107f5760006003600083815260200190815260200160002060060160008773ffffffffffffffffffffffffffffffffffffffff1673ffffffffffffffffffffffffffffffffffffffff16815260200190815260200160002054111561106c57808383815181106110505761104f613580565b5b60200260200101818152505060018261106991906134d3565b91505b8080611077906135af565b915050610fd6565b508192505050919050565b7fa49807205ce4d355092ef5a8a18f56e8913cf4a201fbe287825b095693c2177581565b7fa49807205ce4d355092ef5a8a18f56e8913cf4a201fbe287825b095693c217756110d8816120ed565b6111027f838cb9e68162e54d2dfda44baa96273d8a6cb729c0d42995215e0f52841feb7783612101565b505050565b60606000806000806003600088815260200190815260200160002090508060050180549050861061116d576040517f08c379a0000000000000000000000000000000000000000000000000000000008152600401611164906139bf565b60405180910390fd5b600081600501878154811061118557611184613580565b5b906000526020600020906003020190508060000181600101548260020160009054906101000a900460ff168360020160019054906101000a900460ff168380546111ce90613309565b80601f01602080910402602001604051908101604052809291908181526020018280546111fa90613309565b80156112475780601f1061121c57610100808354040283529160200191611247565b820191906000526020600020905b81548152906001019060200180831161122a57829003601f168201915b505050505093509550955095509550505092959194509250565b60006001600084815260200190815260200160002060000160008373ffffffffffffffffffffffffffffffffffffffff1673ffffffffffffffffffffffffffffffffffffffff16815260200190815260200160002060009054906101000a900460ff16905092915050565b6000801b81565b6112db6122ed565b60006003600083815260200190815260200160002090508060040160009054906101000a900460ff1615611344576040517f08c379a000000000000000000000000000000000000000000000000000000000815260040161133b90613a2b565b60405180910390fd5b60008160060160003373ffffffffffffffffffffffffffffffffffffffff1673ffffffffffffffffffffffffffffffffffffffff168152602001908152602001600020549050600081116113cd576040517f08c379a00000000000000000000000000000000000000000000000000000000081526004016113c490613a97565b60405180910390fd5b60008260060160003373ffffffffffffffffffffffffffffffffffffffff1673ffffffffffffffffffffffffffffffffffffffff1681526020019081526020016000208190555060003373ffffffffffffffffffffffffffffffffffffffff168260405161143a90613ae8565b60006040518083038185875af1925050503d8060008114611477576040519150601f19603f3d011682016040523d82523d6000602084013e61147c565b606091505b50509050806114c0576040517f08c379a00000000000000000000000000000000000000000000000000000000081526004016114b790613b49565b60405180910390fd5b3373ffffffffffffffffffffffffffffffffffffffff16847f7a482fdeb6bc9a1376f597068a214a7a39472bb2eff1b8cad21ba04f49ddca1b8460405161150791906128a2565b60405180910390a350505061151a612468565b50565b7fa49807205ce4d355092ef5a8a18f56e8913cf4a201fbe287825b095693c21775611547816120ed565b6115717f838cb9e68162e54d2dfda44baa96273d8a6cb729c0d42995215e0f52841feb77836117e9565b5050565b6060600060045467ffffffffffffffff8111156115955761159461291a565b5b6040519080825280602002602001820160405280156115c35781602001602082028036833780820191505090505b5090506000805b600454811015611680578473ffffffffffffffffffffffffffffffffffffffff166003600083815260200190815260200160002060010160009054906101000a900473ffffffffffffffffffffffffffffffffffffffff1673ffffffffffffffffffffffffffffffffffffffff160361166d578083838151811061165157611650613580565b5b60200260200101818152505060018261166a91906134d3565b91505b8080611678906135af565b9150506115ca565b508192505050919050565b60606000806000806000806000600360008b8152602001908152602001600020905060008160060160008b73ffffffffffffffffffffffffffffffffffffffff1673ffffffffffffffffffffffffffffffffffffffff168152602001908152602001600020549050816000018260010160009054906101000a900473ffffffffffffffffffffffffffffffffffffffff16836002015484600301548560040160009054906101000a900460ff1686600501805490508686805461174d90613309565b80601f016020809104026020016040519081016040528092919081815260200182805461177990613309565b80156117c65780601f1061179b576101008083540402835291602001916117c6565b820191906000526020600020905b8154815290600101906020018083116117a957829003601f168201915b505050505096509850985098509850985098509850505092959891949750929550565b6117f282610824565b6117fb816120ed565b61180583836121fa565b50505050565b606080606080606080600060045467ffffffffffffffff8111156118325761183161291a565b5b60405190808252806020026020018201604052801561186557816020015b60608152602001906001900390816118505790505b509050600060045467ffffffffffffffff8111156118865761188561291a565b5b6040519080825280602002602001820160405280156118b45781602001602082028036833780820191505090505b509050600060045467ffffffffffffffff8111156118d5576118d461291a565b5b6040519080825280602002602001820160405280156119035781602001602082028036833780820191505090505b509050600060045467ffffffffffffffff8111156119245761192361291a565b5b6040519080825280602002602001820160405280156119525781602001602082028036833780820191505090505b509050600060045467ffffffffffffffff8111156119735761197261291a565b5b6040519080825280602002602001820160405280156119a15781602001602082028036833780820191505090505b509050600060045467ffffffffffffffff8111156119c2576119c161291a565b5b6040519080825280602002602001820160405280156119f05781602001602082028036833780820191505090505b50905060005b600454811015611c4257600360008281526020019081526020016000206000018054611a2190613309565b80601f0160208091040260200160405190810160405280929190818152602001828054611a4d90613309565b8015611a9a5780601f10611a6f57610100808354040283529160200191611a9a565b820191906000526020600020905b815481529060010190602001808311611a7d57829003601f168201915b5050505050878281518110611ab257611ab1613580565b5b60200260200101819052506003600082815260200190815260200160002060010160009054906101000a900473ffffffffffffffffffffffffffffffffffffffff16868281518110611b0757611b06613580565b5b602002602001019073ffffffffffffffffffffffffffffffffffffffff16908173ffffffffffffffffffffffffffffffffffffffff16815250506003600082815260200190815260200160002060020154858281518110611b6b57611b6a613580565b5b6020026020010181815250506003600082815260200190815260200160002060030154848281518110611ba157611ba0613580565b5b6020026020010181815250506003600082815260200190815260200160002060040160009054906101000a900460ff16838281518110611be457611be3613580565b5b6020026020010190151590811515815250506003600082815260200190815260200160002060050180549050828281518110611c2357611c22613580565b5b6020026020010181815250508080611c3a906135af565b9150506119f6565b508585858585859b509b509b509b509b509b50505050505050909192939495565b60008060036000858152602001908152602001600020905060008160060160008573ffffffffffffffffffffffffffffffffffffffff1673ffffffffffffffffffffffffffffffffffffffff168152602001908152602001600020549050809250505092915050565b611cd46122ed565b60006003600085815260200190815260200160002090508060040160009054906101000a900460ff16611d3c576040517f08c379a0000000000000000000000000000000000000000000000000000000008152600401611d3390613386565b60405180910390fd5b60008390508073ffffffffffffffffffffffffffffffffffffffff166323b872dd3330866040518463ffffffff1660e01b8152600401611d7e93929190613b69565b6020604051808303816000875af1158015611d9d573d6000803e3d6000fd5b505050506040513d601f19601f82011682018060405250810190611dc19190613bcc565b611e00576040517f08c379a0000000000000000000000000000000000000000000000000000000008152600401611df790613c45565b60405180910390fd5b828260060160003373ffffffffffffffffffffffffffffffffffffffff1673ffffffffffffffffffffffffffffffffffffffff1681526020019081526020016000206000828254611e5191906134d3565b9250508190555082826003016000828254611e6c91906134d3565b92505081905550600260009054906101000a900473ffffffffffffffffffffffffffffffffffffffff1673ffffffffffffffffffffffffffffffffffffffff1663156e29f63387866040518463ffffffff1660e01b8152600401611ed293929190613507565b6020604051808303816000875af1158015611ef1573d6000803e3d6000fd5b505050506040513d601f19601f82011682018060405250810190611f159190613553565b503373ffffffffffffffffffffffffffffffffffffffff16857f0b5b4c52969ff7329ecf7ee536409fda87812b15a8622bc6e8cdeab3aee14a2685604051611f5d91906128a2565b60405180910390a35050611f6f612468565b505050565b6060600080600080600080600360008981526020019081526020016000209050806000018160010160009054906101000a900473ffffffffffffffffffffffffffffffffffffffff16826002015483600301548460040160009054906101000a900460ff168560050180549050858054611fed90613309565b80601f016020809104026020016040519081016040528092919081815260200182805461201990613309565b80156120665780601f1061203b57610100808354040283529160200191612066565b820191906000526020600020905b81548152906001019060200180831161204957829003601f168201915b505050505095509650965096509650965096505091939550919395565b60007f01ffc9a7000000000000000000000000000000000000000000000000000000007bffffffffffffffffffffffffffffffffffffffffffffffffffffffff1916827bffffffffffffffffffffffffffffffffffffffffffffffffffffffff1916149050919050565b6120fe816120f96121f2565b612472565b50565b600061210d8383611261565b6121e757600180600085815260200190815260200160002060000160008473ffffffffffffffffffffffffffffffffffffffff1673ffffffffffffffffffffffffffffffffffffffff16815260200190815260200160002060006101000a81548160ff0219169083151502179055506121846121f2565b73ffffffffffffffffffffffffffffffffffffffff168273ffffffffffffffffffffffffffffffffffffffff16847f2f8788117e7eff1d82e926ec794901d17c78024a50270940304540a733656f0d60405160405180910390a4600190506121ec565b600090505b92915050565b600033905090565b60006122068383611261565b156122e25760006001600085815260200190815260200160002060000160008473ffffffffffffffffffffffffffffffffffffffff1673ffffffffffffffffffffffffffffffffffffffff16815260200190815260200160002060006101000a81548160ff02191690831515021790555061227f6121f2565b73ffffffffffffffffffffffffffffffffffffffff168273ffffffffffffffffffffffffffffffffffffffff16847ff6391f5c32d9c69d2a47ea670b442974b53935d1edc7fd64eb21e047a839171b60405160405180910390a4600190506122e7565b600090505b92915050565b600260005403612329576040517f3ee5aeb500000000000000000000000000000000000000000000000000000000815260040160405180910390fd5b6002600081905550565b600060036000848152602001908152602001600020905080600501805490508210612393576040517f08c379a000000000000000000000000000000000000000000000000000000000815260040161238a906139bf565b60405180910390fd5b60008160050183815481106123ab576123aa613580565b5b906000526020600020906003020190508060020160009054906101000a900460ff161561240d576040517f08c379a000000000000000000000000000000000000000000000000000000000815260040161240490613cb1565b60405180910390fd5b60018160020160006101000a81548160ff021916908315150217905550837f1b7218c0ac23ea9cbe4df603d2b340fbf469a115b73ea3d11460727f445d6be18460405161245a91906128a2565b60405180910390a250505050565b6001600081905550565b61247c8282611261565b6124bf5780826040517fe2517d3f0000000000000000000000000000000000000000000000000000000081526004016124b6929190613cd1565b60405180910390fd5b5050565b6000604051905090565b600080fd5b600080fd5b60007fffffffff0000000000000000000000000000000000000000000000000000000082169050919050565b61250c816124d7565b811461251757600080fd5b50565b60008135905061252981612503565b92915050565b600060208284031215612545576125446124cd565b5b60006125538482850161251a565b91505092915050565b60008115159050919050565b6125718161255c565b82525050565b600060208201905061258c6000830184612568565b92915050565b600073ffffffffffffffffffffffffffffffffffffffff82169050919050565b6000819050919050565b60006125d76125d26125cd84612592565b6125b2565b612592565b9050919050565b60006125e9826125bc565b9050919050565b60006125fb826125de565b9050919050565b61260b816125f0565b82525050565b60006020820190506126266000830184612602565b92915050565b6000819050919050565b61263f8161262c565b811461264a57600080fd5b50565b60008135905061265c81612636565b92915050565b600060208284031215612678576126776124cd565b5b60006126868482850161264d565b91505092915050565b600081519050919050565b600082825260208201905092915050565b60005b838110156126c95780820151818401526020810190506126ae565b60008484015250505050565b6000601f19601f8301169050919050565b60006126f18261268f565b6126fb818561269a565b935061270b8185602086016126ab565b612714816126d5565b840191505092915050565b600061272a82612592565b9050919050565b61273a8161271f565b82525050565b6127498161262c565b82525050565b600060a082019050818103600083015261276981886126e6565b90506127786020830187612731565b6127856040830186612740565b6127926060830185612740565b61279f6080830184612568565b9695505050505050565b6000819050919050565b6127bc816127a9565b81146127c757600080fd5b50565b6000813590506127d9816127b3565b92915050565b6000602082840312156127f5576127f46124cd565b5b6000612803848285016127ca565b91505092915050565b612815816127a9565b82525050565b6000602082019050612830600083018461280c565b92915050565b61283f8161271f565b811461284a57600080fd5b50565b60008135905061285c81612836565b92915050565b60008060408385031215612879576128786124cd565b5b6000612887858286016127ca565b92505060206128988582860161284d565b9150509250929050565b60006020820190506128b76000830184612740565b92915050565b6000806000606084860312156128d6576128d56124cd565b5b60006128e48682870161264d565b93505060206128f58682870161284d565b92505060406129068682870161284d565b9150509250925092565b600080fd5b600080fd5b7f4e487b7100000000000000000000000000000000000000000000000000000000600052604160045260246000fd5b612952826126d5565b810181811067ffffffffffffffff821117156129715761297061291a565b5b80604052505050565b60006129846124c3565b90506129908282612949565b919050565b600067ffffffffffffffff8211156129b0576129af61291a565b5b6129b9826126d5565b9050602081019050919050565b82818337600083830152505050565b60006129e86129e384612995565b61297a565b905082815260208101848484011115612a0457612a03612915565b5b612a0f8482856129c6565b509392505050565b600082601f830112612a2c57612a2b612910565b5b8135612a3c8482602086016129d5565b91505092915050565b600067ffffffffffffffff821115612a6057612a5f61291a565b5b602082029050602081019050919050565b600080fd5b6000612a89612a8484612a45565b61297a565b90508083825260208201905060208402830185811115612aac57612aab612a71565b5b835b81811015612af357803567ffffffffffffffff811115612ad157612ad0612910565b5b808601612ade8982612a17565b85526020850194505050602081019050612aae565b5050509392505050565b600082601f830112612b1257612b11612910565b5b8135612b22848260208601612a76565b91505092915050565b600067ffffffffffffffff821115612b4657612b4561291a565b5b602082029050602081019050919050565b6000612b6a612b6584612b2b565b61297a565b90508083825260208201905060208402830185811115612b8d57612b8c612a71565b5b835b81811015612bb65780612ba2888261264d565b845260208401935050602081019050612b8f565b5050509392505050565b600082601f830112612bd557612bd4612910565b5b8135612be5848260208601612b57565b91505092915050565b600080600080600060a08688031215612c0a57612c096124cd565b5b6000612c188882890161284d565b955050602086013567ffffffffffffffff811115612c3957612c386124d2565b5b612c4588828901612a17565b9450506040612c568882890161264d565b935050606086013567ffffffffffffffff811115612c7757612c766124d2565b5b612c8388828901612afd565b925050608086013567ffffffffffffffff811115612ca457612ca36124d2565b5b612cb088828901612bc0565b9150509295509295909350565b600060208284031215612cd357612cd26124cd565b5b6000612ce18482850161284d565b91505092915050565b600081519050919050565b600082825260208201905092915050565b6000819050602082019050919050565b612d1f8161262c565b82525050565b6000612d318383612d16565b60208301905092915050565b6000602082019050919050565b6000612d5582612cea565b612d5f8185612cf5565b9350612d6a83612d06565b8060005b83811015612d9b578151612d828882612d25565b9750612d8d83612d3d565b925050600181019050612d6e565b5085935050505092915050565b60006020820190508181036000830152612dc28184612d4a565b905092915050565b60008060408385031215612de157612de06124cd565b5b6000612def8582860161264d565b9250506020612e008582860161264d565b9150509250929050565b60006080820190508181036000830152612e2481876126e6565b9050612e336020830186612740565b612e406040830185612568565b612e4d6060830184612568565b95945050505050565b60008060408385031215612e6d57612e6c6124cd565b5b6000612e7b8582860161264d565b9250506020612e8c8582860161284d565b9150509250929050565b600060e0820190508181036000830152612eb0818a6126e6565b9050612ebf6020830189612731565b612ecc6040830188612740565b612ed96060830187612740565b612ee66080830186612568565b612ef360a0830185612740565b612f0060c0830184612740565b98975050505050505050565b600081519050919050565b600082825260208201905092915050565b6000819050602082019050919050565b600082825260208201905092915050565b6000612f548261268f565b612f5e8185612f38565b9350612f6e8185602086016126ab565b612f77816126d5565b840191505092915050565b6000612f8e8383612f49565b905092915050565b6000602082019050919050565b6000612fae82612f0c565b612fb88185612f17565b935083602082028501612fca85612f28565b8060005b858110156130065784840389528151612fe78582612f82565b9450612ff283612f96565b925060208a01995050600181019050612fce565b50829750879550505050505092915050565b600081519050919050565b600082825260208201905092915050565b6000819050602082019050919050565b61304d8161271f565b82525050565b600061305f8383613044565b60208301905092915050565b6000602082019050919050565b600061308382613018565b61308d8185613023565b935061309883613034565b8060005b838110156130c95781516130b08882613053565b97506130bb8361306b565b92505060018101905061309c565b5085935050505092915050565b600081519050919050565b600082825260208201905092915050565b6000819050602082019050919050565b61310b8161255c565b82525050565b600061311d8383613102565b60208301905092915050565b6000602082019050919050565b6000613141826130d6565b61314b81856130e1565b9350613156836130f2565b8060005b8381101561318757815161316e8882613111565b975061317983613129565b92505060018101905061315a565b5085935050505092915050565b600060c08201905081810360008301526131ae8189612fa3565b905081810360208301526131c28188613078565b905081810360408301526131d68187612d4a565b905081810360608301526131ea8186612d4a565b905081810360808301526131fe8185613136565b905081810360a08301526132128184612d4a565b9050979650505050505050565b600080600060608486031215613238576132376124cd565b5b60006132468682870161264d565b93505060206132578682870161284d565b92505060406132688682870161264d565b9150509250925092565b600060c082019050818103600083015261328c81896126e6565b905061329b6020830188612731565b6132a86040830187612740565b6132b56060830186612740565b6132c26080830185612568565b6132cf60a0830184612740565b979650505050505050565b7f4e487b7100000000000000000000000000000000000000000000000000000000600052602260045260246000fd5b6000600282049050600182168061332157607f821691505b602082108103613334576133336132da565b5b50919050565b7f50726f6a656374206973206e6f74206163746976650000000000000000000000600082015250565b600061337060158361269a565b915061337b8261333a565b602082019050919050565b6000602082019050818103600083015261339f81613363565b9050919050565b7f446f6e6174696f6e20616d6f756e74206d75737420626520677265617465722060008201527f7468616e20300000000000000000000000000000000000000000000000000000602082015250565b600061340260268361269a565b915061340d826133a6565b604082019050919050565b60006020820190508181036000830152613431816133f5565b9050919050565b7f4574686572207472616e73666572206661696c65640000000000000000000000600082015250565b600061346e60158361269a565b915061347982613438565b602082019050919050565b6000602082019050818103600083015261349d81613461565b9050919050565b7f4e487b7100000000000000000000000000000000000000000000000000000000600052601160045260246000fd5b60006134de8261262c565b91506134e98361262c565b9250828201905080821115613501576135006134a4565b5b92915050565b600060608201905061351c6000830186612731565b6135296020830185612740565b6135366040830184612740565b949350505050565b60008151905061354d81612636565b92915050565b600060208284031215613569576135686124cd565b5b60006135778482850161353e565b91505092915050565b7f4e487b7100000000000000000000000000000000000000000000000000000000600052603260045260246000fd5b60006135ba8261262c565b91507fffffffffffffffffffffffffffffffffffffffffffffffffffffffffffffffff82036135ec576135eb6134a4565b5b600182019050919050565b7f50726f6a65637420616c726561647920696e6163746976650000000000000000600082015250565b600061362d60188361269a565b9150613638826135f7565b602082019050919050565b6000602082019050818103600083015261365c81613620565b9050919050565b7f4d696c6573746f6e6520617272617973206d757374206d617463680000000000600082015250565b6000613699601b8361269a565b91506136a482613663565b602082019050919050565b600060208201905081810360008301526136c88161368c565b9050919050565b60008190508160005260206000209050919050565b60006020601f8301049050919050565b600082821b905092915050565b6000600883026137317fffffffffffffffffffffffffffffffffffffffffffffffffffffffffffffffff826136f4565b61373b86836136f4565b95508019841693508086168417925050509392505050565b600061376e6137696137648461262c565b6125b2565b61262c565b9050919050565b6000819050919050565b61378883613753565b61379c61379482613775565b848454613701565b825550505050565b600090565b6137b16137a4565b6137bc81848461377f565b505050565b5b818110156137e0576137d56000826137a9565b6001810190506137c2565b5050565b601f821115613825576137f6816136cf565b6137ff846136e4565b8101602085101561380e578190505b61382261381a856136e4565b8301826137c1565b50505b505050565b600082821c905092915050565b60006138486000198460080261382a565b1980831691505092915050565b60006138618383613837565b9150826002028217905092915050565b61387a8261268f565b67ffffffffffffffff8111156138935761389261291a565b5b61389d8254613309565b6138a88282856137e4565b600060209050601f8311600181146138db57600084156138c9578287015190505b6138d38582613855565b86555061393b565b601f1984166138e9866136cf565b60005b82811015613911578489015182556001820191506020850194506020810190506138ec565b8683101561392e578489015161392a601f891682613837565b8355505b6001600288020188555050505b505050505050565b6000604082019050818103600083015261395d81856126e6565b905061396c6020830184612731565b9392505050565b7f496e76616c6964206d696c6573746f6e6520696e646578000000000000000000600082015250565b60006139a960178361269a565b91506139b482613973565b602082019050919050565b600060208201905081810360008301526139d88161399c565b9050919050565b7f50726f6a656374206973207374696c6c20616374697665000000000000000000600082015250565b6000613a1560178361269a565b9150613a20826139df565b602082019050919050565b60006020820190508181036000830152613a4481613a08565b9050919050565b7f4e6f20646f6e6174696f6e20666f756e64000000000000000000000000000000600082015250565b6000613a8160118361269a565b9150613a8c82613a4b565b602082019050919050565b60006020820190508181036000830152613ab081613a74565b9050919050565b600081905092915050565b50565b6000613ad2600083613ab7565b9150613add82613ac2565b600082019050919050565b6000613af382613ac5565b9150819050919050565b7f526566756e64207472616e73666572206661696c656400000000000000000000600082015250565b6000613b3360168361269a565b9150613b3e82613afd565b602082019050919050565b60006020820190508181036000830152613b6281613b26565b9050919050565b6000606082019050613b7e6000830186612731565b613b8b6020830185612731565b613b986040830184612740565b949350505050565b613ba98161255c565b8114613bb457600080fd5b50565b600081519050613bc681613ba0565b92915050565b600060208284031215613be257613be16124cd565b5b6000613bf084828501613bb7565b91505092915050565b7f546f6b656e207472616e73666572206661696c65640000000000000000000000600082015250565b6000613c2f60158361269a565b9150613c3a82613bf9565b602082019050919050565b60006020820190508181036000830152613c5e81613c22565b9050919050565b7f4d696c6573746f6e6520616c726561647920636f6d706c657465640000000000600082015250565b6000613c9b601b8361269a565b9150613ca682613c65565b602082019050919050565b60006020820190508181036000830152613cca81613c8e565b9050919050565b6000604082019050613ce66000830185612731565b613cf3602083018461280c565b939250505056fea2646970667358221220f1d401c24bb9a5f2fd6310442ce174d6d594b3d0b72c90efe59af1ed3f03a8db64736f6c63430008150033",
  "immutableReferences": {},
  "source": "// SPDX-License-Identifier: MIT\npragma solidity ^0.8.21;\n\nimport \"@openzeppelin/contracts/utils/ReentrancyGuard.sol\";\nimport \"@openzeppelin/contracts/access/AccessControl.sol\";\nimport \"@openzeppelin/contracts/token/ERC20/IERC20.sol\";\nimport \"./DonationToken.sol\";\n\ncontract CharityPlatform is ReentrancyGuard, AccessControl {\n    bytes32 public constant ADMIN_ROLE = keccak256(\"ADMIN_ROLE\");\n    bytes32 public constant CHARITY_ROLE = keccak256(\"CHARITY_ROLE\");\n\n    DonationToken public donationToken;\n    \n    struct Project {\n        string name;\n        address charityAddress;\n        uint256 goalAmount;\n        uint256 raisedAmount;\n        bool isActive;\n        Milestone[] milestones;\n        mapping(address => uint256) donations;\n    }\n\n    struct Milestone {\n        string description;\n        uint256 targetAmount;\n        bool isCompleted;\n        bool fundsReleased;\n    }\n\n    mapping(uint256 => Project) public projects;\n    uint256 public projectCount;\n\n    event ProjectCreated(uint256 indexed projectId, string name, address charityAddress);\n    event DonationReceived(uint256 indexed projectId, address indexed donor, uint256 amount);\n    event MilestoneCompleted(uint256 indexed projectId, uint256 milestoneIndex);\n    event FundsReleased(uint256 indexed projectId, uint256 amount);\n    event RefundIssued(uint256 indexed projectId, address indexed donor, uint256 amount);\n\n    constructor(address _donationToken) {\n        _grantRole(DEFAULT_ADMIN_ROLE, msg.sender);\n        _grantRole(ADMIN_ROLE, msg.sender);\n        donationToken = DonationToken(_donationToken);\n    }\n\n    function createProject(\n        address _address,\n        string memory _name,\n        uint256 _goalAmount,\n        string[] memory _milestoneDescriptions,\n        uint256[] memory _milestoneTargets\n    ) external onlyRole(CHARITY_ROLE) {\n        require(_milestoneDescriptions.length == _milestoneTargets.length, \"Milestone arrays must match\");\n        \n        projectCount++;\n        Project storage project = projects[projectCount];\n        project.name = _name;\n        project.charityAddress = _address;\n        project.goalAmount = _goalAmount;\n        project.isActive = true;\n\n        for(uint i = 0; i < _milestoneDescriptions.length; i++) {\n            project.milestones.push(Milestone({\n                description: _milestoneDescriptions[i],\n                targetAmount: _milestoneTargets[i],\n                isCompleted: false,\n                fundsReleased: false\n            }));\n        }\n\n        emit ProjectCreated(projectCount, _name, _address);\n    }\n\n    function donate(uint256 _projectId, address _donor, address _recipient) external payable nonReentrant {\n        Project storage project = projects[_projectId];\n        require(project.isActive, \"Project is not active\");\n        require(msg.value > 0, \"Donation amount must be greater than 0\");\n        address payable recipient = payable(_recipient); \n        bool success = recipient.send(msg.value);\n        require(success, \"Ether transfer failed\");\n        project.donations[_donor] += msg.value;\n        project.raisedAmount += msg.value;\n        donationToken.mint(_donor, _projectId, msg.value);\n        emit DonationReceived(_projectId, _donor, msg.value);\n\n        uint256 milestoneAmount = 0;\n        \n        for (uint i=0; i < project.milestones.length; i++) {\n            milestoneAmount += project.milestones[i].targetAmount;\n            if (project.raisedAmount >= milestoneAmount && !project.milestones[i].isCompleted) {\n                completeMilestone(_projectId, i);\n            }\n        }\n    }\n\n    // function completeMilestone(uint256 _projectId, uint256 _milestoneIndex) external onlyRole(ADMIN_ROLE) {\n    //     Project storage project = projects[_projectId];\n    //     require(_milestoneIndex < project.milestones.length, \"Invalid milestone index\");\n        \n    //     Milestone storage milestone = project.milestones[_milestoneIndex];\n    //     require(!milestone.isCompleted, \"Milestone already completed\");\n        \n    //     milestone.isCompleted = true;\n    //     emit MilestoneCompleted(_projectId, _milestoneIndex);\n\n    //     // Release funds for completed milestone\n    //     if(!milestone.fundsReleased && project.raisedAmount >= milestone.targetAmount) {\n    //         milestone.fundsReleased = true;\n    //         uint256 releaseAmount = milestone.targetAmount;\n            \n    //         (bool success, ) = project.charityAddress.call{value: releaseAmount}(\"\");\n    //         require(success, \"Fund transfer failed\");\n            \n    //         emit FundsReleased(_projectId, releaseAmount);\n    //     }\n    // }\n\n    function completeMilestone(uint256 _projectId, uint256 _milestoneIndex) internal {\n        Project storage project = projects[_projectId];\n        require(_milestoneIndex < project.milestones.length, \"Invalid milestone index\");\n        \n        Milestone storage milestone = project.milestones[_milestoneIndex];\n        require(!milestone.isCompleted, \"Milestone already completed\");\n        \n        milestone.isCompleted = true;\n        emit MilestoneCompleted(_projectId, _milestoneIndex);\n\n        // Release funds for completed milestone\n        // if(!milestone.fundsReleased && project.raisedAmount >= milestone.targetAmount) {\n        //     milestone.fundsReleased = true;\n        //     uint256 releaseAmount = milestone.targetAmount;\n            \n        //     (bool success, ) = project.charityAddress.call{value: releaseAmount}(\"\");\n        //     require(success, \"Fund transfer failed\");\n            \n        //     emit FundsReleased(_projectId, releaseAmount);\n        // }\n    }\n\n    function requestRefund(uint256 _projectId) external nonReentrant {\n        Project storage project = projects[_projectId];\n        require(!project.isActive, \"Project is still active\");\n        \n        uint256 donationAmount = project.donations[msg.sender];\n        require(donationAmount > 0, \"No donation found\");\n\n        project.donations[msg.sender] = 0;\n        \n        (bool success, ) = msg.sender.call{value: donationAmount}(\"\");\n        require(success, \"Refund transfer failed\");\n\n        emit RefundIssued(_projectId, msg.sender, donationAmount);\n    }\n\n    function deactivateProject(uint256 _projectId) external onlyRole(ADMIN_ROLE) {\n        Project storage project = projects[_projectId];\n        require(project.isActive, \"Project already inactive\");\n        project.isActive = false;\n    }\n\n    // Multi-currency support functions\n    function donateToken(uint256 _projectId, address _tokenAddress, uint256 _amount) external nonReentrant {\n        Project storage project = projects[_projectId];\n        require(project.isActive, \"Project is not active\");\n        \n        IERC20 token = IERC20(_tokenAddress);\n        require(token.transferFrom(msg.sender, address(this), _amount), \"Token transfer failed\");\n        \n        project.donations[msg.sender] += _amount;\n        project.raisedAmount += _amount;\n\n        // Mint donation NFT\n        donationToken.mint(msg.sender, _projectId, _amount);\n        \n        emit DonationReceived(_projectId, msg.sender, _amount);\n    }\n\n    // Administrative functions\n    function addCharity(address _charityAddress) external onlyRole(ADMIN_ROLE) {\n        _grantRole(CHARITY_ROLE, _charityAddress);\n    }\n\n    function removeCharity(address _charityAddress) external onlyRole(ADMIN_ROLE) {\n        revokeRole(CHARITY_ROLE, _charityAddress);\n    }\n\n    // View functions\n    function getProject(uint256 _projectId) external view returns (\n        string memory name,\n        address charityAddress,\n        uint256 goalAmount,\n        uint256 raisedAmount,\n        bool isActive,\n        uint256 milestoneCount\n    ) {\n        Project storage project = projects[_projectId];\n        return (\n            project.name,\n            project.charityAddress,\n            project.goalAmount,\n            project.raisedAmount,\n            project.isActive,\n            project.milestones.length\n        );\n    }\n\n    function getProjectDonations(uint256 _projectId, address _donor) external view returns (\n        uint256 donorAmount\n    ) {\n        Project storage project = projects[_projectId];\n        uint256 amount = project.donations[_donor];\n        return (\n            amount\n        );\n    }\n\n    function getProjects() external view returns (\n        string[] memory name,\n        address[] memory charityAddress,\n        uint256[] memory goalAmount,\n        uint256[] memory raisedAmount,\n        bool[] memory isActive,\n        uint256[] memory milestoneCount\n    ) {\n        string[] memory allNames = new string[](projectCount);\n        address[] memory allCharityAddreses = new address[](projectCount);\n        uint256[] memory allGoalAmounts = new uint256[](projectCount);\n        uint256[] memory allRaisedAmounts = new uint256[](projectCount);\n        bool[] memory areActive = new bool[](projectCount);\n        uint256[] memory milestoneCounts = new uint256[](projectCount);\n        for (uint i = 0; i < projectCount; i++) {\n            allNames[i] = projects[i].name;\n            allCharityAddreses[i] = projects[i].charityAddress;\n            allGoalAmounts[i] = projects[i].goalAmount;\n            allRaisedAmounts[i] = projects[i].raisedAmount;\n            areActive[i] = projects[i].isActive;\n            milestoneCounts[i] = projects[i].milestones.length;\n        }\n        return (\n            allNames, \n            allCharityAddreses, \n            allGoalAmounts,\n            allRaisedAmounts,\n            areActive,\n            milestoneCounts\n        );\n    }\n\n    function getMyDonationProjectIds(address _donor) external view returns (\n        uint256[] memory id\n    ) {     \n        uint256[] memory allIds = new uint256[](projectCount);\n        uint count = 0;\n        for (uint i = 0; i < projectCount; i++) {\n            if (projects[i].donations[_donor] > 0) {\n                allIds[count] = i;\n                count += 1;\n            }\n        }\n        return (\n            allIds\n        );\n    }\n\n    function getMyDonationProject(uint256 _projectId, address _donor) external view returns (\n        string memory name,\n        address charityAddress,\n        uint256 goalAmount,\n        uint256 raisedAmount,\n        bool isActive,\n        uint256 milestoneCount,\n        uint256 donorAmount\n    ) {\n        Project storage project = projects[_projectId];\n        uint256 amount = project.donations[_donor];\n        return (\n            project.name,\n            project.charityAddress,\n            project.goalAmount,\n            project.raisedAmount,\n            project.isActive,\n            project.milestones.length,\n            amount\n        );\n    }\n\n    function getMyCharityProjectIds(address _address) external view returns (\n        uint256[] memory id\n    ) {     \n        uint256[] memory allIds = new uint256[](projectCount);\n        uint count = 0;\n        for (uint i = 0; i < projectCount; i++) {\n            if (projects[i].charityAddress == _address) {\n                allIds[count] = i;\n                count += 1;\n            }\n        }\n        return (\n            allIds\n        );\n    }\n\n    function getMilestone(uint256 _projectId, uint256 _milestoneIndex) external view returns (\n        string memory description,\n        uint256 targetAmount,\n        bool isCompleted,\n        bool fundsReleased\n    ) {\n        Project storage project = projects[_projectId];\n        require(_milestoneIndex < project.milestones.length, \"Invalid milestone index\");\n        \n        Milestone storage milestone = project.milestones[_milestoneIndex];\n        return (\n            milestone.description,\n            milestone.targetAmount,\n            milestone.isCompleted,\n            milestone.fundsReleased\n        );\n    }\n\n    receive() external payable {}\n}",
  "sourcePath": "/Users/artazidele/Documents/LU-2023-2024/Blokkedes biznesa/CharityDonation/contracts/CharityPlatform.sol",
  "compiler": {
    "name": "solc",
    "version": "0.8.21+commit.d9974bed.Emscripten.clang"
  },
  "schemaVersion": "3.4.16",
  "updatedAt": "2025-01-04T20:35:59.103Z",
  "networkType": "ethereum",
  "devdoc": {
    "errors": {
      "AccessControlBadConfirmation()": [
        {
          "details": "The caller of a function is not the expected one. NOTE: Don't confuse with {AccessControlUnauthorizedAccount}."
        }
      ],
      "AccessControlUnauthorizedAccount(address,bytes32)": [
        {
          "details": "The `account` is missing a role."
        }
      ],
      "ReentrancyGuardReentrantCall()": [
        {
          "details": "Unauthorized reentrant call."
        }
      ]
    },
    "events": {
      "RoleAdminChanged(bytes32,bytes32,bytes32)": {
        "details": "Emitted when `newAdminRole` is set as ``role``'s admin role, replacing `previousAdminRole` `DEFAULT_ADMIN_ROLE` is the starting admin for all roles, despite {RoleAdminChanged} not being emitted signaling this."
      },
      "RoleGranted(bytes32,address,address)": {
        "details": "Emitted when `account` is granted `role`. `sender` is the account that originated the contract call. This account bears the admin role (for the granted role). Expected in cases where the role was granted using the internal {AccessControl-_grantRole}."
      },
      "RoleRevoked(bytes32,address,address)": {
        "details": "Emitted when `account` is revoked `role`. `sender` is the account that originated the contract call:   - if using `revokeRole`, it is the admin role bearer   - if using `renounceRole`, it is the role bearer (i.e. `account`)"
      }
    },
    "kind": "dev",
    "methods": {
      "getRoleAdmin(bytes32)": {
        "details": "Returns the admin role that controls `role`. See {grantRole} and {revokeRole}. To change a role's admin, use {_setRoleAdmin}."
      },
      "grantRole(bytes32,address)": {
        "details": "Grants `role` to `account`. If `account` had not been already granted `role`, emits a {RoleGranted} event. Requirements: - the caller must have ``role``'s admin role. May emit a {RoleGranted} event."
      },
      "hasRole(bytes32,address)": {
        "details": "Returns `true` if `account` has been granted `role`."
      },
      "renounceRole(bytes32,address)": {
        "details": "Revokes `role` from the calling account. Roles are often managed via {grantRole} and {revokeRole}: this function's purpose is to provide a mechanism for accounts to lose their privileges if they are compromised (such as when a trusted device is misplaced). If the calling account had been revoked `role`, emits a {RoleRevoked} event. Requirements: - the caller must be `callerConfirmation`. May emit a {RoleRevoked} event."
      },
      "revokeRole(bytes32,address)": {
        "details": "Revokes `role` from `account`. If `account` had been granted `role`, emits a {RoleRevoked} event. Requirements: - the caller must have ``role``'s admin role. May emit a {RoleRevoked} event."
      },
      "supportsInterface(bytes4)": {
        "details": "See {IERC165-supportsInterface}."
      }
    },
    "version": 1
  },
  "userdoc": {
    "kind": "user",
    "methods": {},
    "version": 1
  }
}