{
  "contractName": "CharityPlatform",
  "abi": [
    {
      "inputs": [
        {
          "internalType": "address",
          "name": "_donationToken",
          "type": "address"
        }
      ],
      "stateMutability": "nonpayable",
      "type": "constructor"
    },
    {
      "inputs": [],
      "name": "AccessControlBadConfirmation",
      "type": "error"
    },
    {
      "inputs": [
        {
          "internalType": "address",
          "name": "account",
          "type": "address"
        },
        {
          "internalType": "bytes32",
          "name": "neededRole",
          "type": "bytes32"
        }
      ],
      "name": "AccessControlUnauthorizedAccount",
      "type": "error"
    },
    {
      "inputs": [],
      "name": "ReentrancyGuardReentrantCall",
      "type": "error"
    },
    {
      "anonymous": false,
      "inputs": [
        {
          "indexed": true,
          "internalType": "uint256",
          "name": "projectId",
          "type": "uint256"
        },
        {
          "indexed": true,
          "internalType": "address",
          "name": "donor",
          "type": "address"
        },
        {
          "indexed": false,
          "internalType": "uint256",
          "name": "amount",
          "type": "uint256"
        }
      ],
      "name": "DonationReceived",
      "type": "event"
    },
    {
      "anonymous": false,
      "inputs": [
        {
          "indexed": true,
          "internalType": "uint256",
          "name": "projectId",
          "type": "uint256"
        },
        {
          "indexed": false,
          "internalType": "uint256",
          "name": "amount",
          "type": "uint256"
        }
      ],
      "name": "FundsReleased",
      "type": "event"
    },
    {
      "anonymous": false,
      "inputs": [
        {
          "indexed": false,
          "internalType": "uint256",
          "name": "milestoneIndex",
          "type": "uint256"
        }
      ],
      "name": "MilestoneCompleted",
      "type": "event"
    },
    {
      "anonymous": false,
      "inputs": [
        {
          "indexed": true,
          "internalType": "uint256",
          "name": "projectId",
          "type": "uint256"
        },
        {
          "indexed": false,
          "internalType": "string",
          "name": "name",
          "type": "string"
        },
        {
          "indexed": false,
          "internalType": "address",
          "name": "charityAddress",
          "type": "address"
        }
      ],
      "name": "ProjectCreated",
      "type": "event"
    },
    {
      "anonymous": false,
      "inputs": [
        {
          "indexed": true,
          "internalType": "uint256",
          "name": "projectId",
          "type": "uint256"
        },
        {
          "indexed": true,
          "internalType": "address",
          "name": "donor",
          "type": "address"
        },
        {
          "indexed": false,
          "internalType": "uint256",
          "name": "amount",
          "type": "uint256"
        }
      ],
      "name": "RefundIssued",
      "type": "event"
    },
    {
      "anonymous": false,
      "inputs": [
        {
          "indexed": true,
          "internalType": "bytes32",
          "name": "role",
          "type": "bytes32"
        },
        {
          "indexed": true,
          "internalType": "bytes32",
          "name": "previousAdminRole",
          "type": "bytes32"
        },
        {
          "indexed": true,
          "internalType": "bytes32",
          "name": "newAdminRole",
          "type": "bytes32"
        }
      ],
      "name": "RoleAdminChanged",
      "type": "event"
    },
    {
      "anonymous": false,
      "inputs": [
        {
          "indexed": true,
          "internalType": "bytes32",
          "name": "role",
          "type": "bytes32"
        },
        {
          "indexed": true,
          "internalType": "address",
          "name": "account",
          "type": "address"
        },
        {
          "indexed": true,
          "internalType": "address",
          "name": "sender",
          "type": "address"
        }
      ],
      "name": "RoleGranted",
      "type": "event"
    },
    {
      "anonymous": false,
      "inputs": [
        {
          "indexed": true,
          "internalType": "bytes32",
          "name": "role",
          "type": "bytes32"
        },
        {
          "indexed": true,
          "internalType": "address",
          "name": "account",
          "type": "address"
        },
        {
          "indexed": true,
          "internalType": "address",
          "name": "sender",
          "type": "address"
        }
      ],
      "name": "RoleRevoked",
      "type": "event"
    },
    {
      "inputs": [],
      "name": "ADMIN_ROLE",
      "outputs": [
        {
          "internalType": "bytes32",
          "name": "",
          "type": "bytes32"
        }
      ],
      "stateMutability": "view",
      "type": "function"
    },
    {
      "inputs": [],
      "name": "CHARITY_ROLE",
      "outputs": [
        {
          "internalType": "bytes32",
          "name": "",
          "type": "bytes32"
        }
      ],
      "stateMutability": "view",
      "type": "function"
    },
    {
      "inputs": [],
      "name": "DEFAULT_ADMIN_ROLE",
      "outputs": [
        {
          "internalType": "bytes32",
          "name": "",
          "type": "bytes32"
        }
      ],
      "stateMutability": "view",
      "type": "function"
    },
    {
      "inputs": [],
      "name": "donationToken",
      "outputs": [
        {
          "internalType": "contract DonationToken",
          "name": "",
          "type": "address"
        }
      ],
      "stateMutability": "view",
      "type": "function"
    },
    {
      "inputs": [
        {
          "internalType": "bytes32",
          "name": "role",
          "type": "bytes32"
        }
      ],
      "name": "getRoleAdmin",
      "outputs": [
        {
          "internalType": "bytes32",
          "name": "",
          "type": "bytes32"
        }
      ],
      "stateMutability": "view",
      "type": "function"
    },
    {
      "inputs": [
        {
          "internalType": "bytes32",
          "name": "role",
          "type": "bytes32"
        },
        {
          "internalType": "address",
          "name": "account",
          "type": "address"
        }
      ],
      "name": "grantRole",
      "outputs": [],
      "stateMutability": "nonpayable",
      "type": "function"
    },
    {
      "inputs": [
        {
          "internalType": "bytes32",
          "name": "role",
          "type": "bytes32"
        },
        {
          "internalType": "address",
          "name": "account",
          "type": "address"
        }
      ],
      "name": "hasRole",
      "outputs": [
        {
          "internalType": "bool",
          "name": "",
          "type": "bool"
        }
      ],
      "stateMutability": "view",
      "type": "function"
    },
    {
      "inputs": [
        {
          "internalType": "uint256",
          "name": "",
          "type": "uint256"
        }
      ],
      "name": "milestones",
      "outputs": [
        {
          "internalType": "uint256",
          "name": "id",
          "type": "uint256"
        },
        {
          "internalType": "uint256",
          "name": "projectId",
          "type": "uint256"
        },
        {
          "internalType": "string",
          "name": "description",
          "type": "string"
        },
        {
          "internalType": "uint256",
          "name": "targetAmount",
          "type": "uint256"
        },
        {
          "internalType": "uint256",
          "name": "raisedAmount",
          "type": "uint256"
        },
        {
          "internalType": "bool",
          "name": "isCompleted",
          "type": "bool"
        },
        {
          "internalType": "bool",
          "name": "fundsReleased",
          "type": "bool"
        },
        {
          "internalType": "string",
          "name": "usageInfo",
          "type": "string"
        }
      ],
      "stateMutability": "view",
      "type": "function"
    },
    {
      "inputs": [],
      "name": "milestonesCount",
      "outputs": [
        {
          "internalType": "uint256",
          "name": "",
          "type": "uint256"
        }
      ],
      "stateMutability": "view",
      "type": "function"
    },
    {
      "inputs": [],
      "name": "projectCount",
      "outputs": [
        {
          "internalType": "uint256",
          "name": "",
          "type": "uint256"
        }
      ],
      "stateMutability": "view",
      "type": "function"
    },
    {
      "inputs": [
        {
          "internalType": "uint256",
          "name": "",
          "type": "uint256"
        }
      ],
      "name": "projectIds",
      "outputs": [
        {
          "internalType": "uint256",
          "name": "",
          "type": "uint256"
        }
      ],
      "stateMutability": "view",
      "type": "function"
    },
    {
      "inputs": [
        {
          "internalType": "uint256",
          "name": "",
          "type": "uint256"
        }
      ],
      "name": "projects",
      "outputs": [
        {
          "internalType": "uint256",
          "name": "id",
          "type": "uint256"
        },
        {
          "internalType": "string",
          "name": "name",
          "type": "string"
        },
        {
          "internalType": "address",
          "name": "charityAddress",
          "type": "address"
        },
        {
          "internalType": "uint256",
          "name": "goalAmount",
          "type": "uint256"
        },
        {
          "internalType": "uint256",
          "name": "raisedAmount",
          "type": "uint256"
        },
        {
          "internalType": "bool",
          "name": "isActive",
          "type": "bool"
        },
        {
          "internalType": "bool",
          "name": "isFunded",
          "type": "bool"
        }
      ],
      "stateMutability": "view",
      "type": "function"
    },
    {
      "inputs": [
        {
          "internalType": "bytes32",
          "name": "role",
          "type": "bytes32"
        },
        {
          "internalType": "address",
          "name": "callerConfirmation",
          "type": "address"
        }
      ],
      "name": "renounceRole",
      "outputs": [],
      "stateMutability": "nonpayable",
      "type": "function"
    },
    {
      "inputs": [
        {
          "internalType": "bytes32",
          "name": "role",
          "type": "bytes32"
        },
        {
          "internalType": "address",
          "name": "account",
          "type": "address"
        }
      ],
      "name": "revokeRole",
      "outputs": [],
      "stateMutability": "nonpayable",
      "type": "function"
    },
    {
      "inputs": [
        {
          "internalType": "bytes4",
          "name": "interfaceId",
          "type": "bytes4"
        }
      ],
      "name": "supportsInterface",
      "outputs": [
        {
          "internalType": "bool",
          "name": "",
          "type": "bool"
        }
      ],
      "stateMutability": "view",
      "type": "function"
    },
    {
      "stateMutability": "payable",
      "type": "receive"
    },
    {
      "inputs": [
        {
          "internalType": "uint256",
          "name": "_milestoneId",
          "type": "uint256"
        },
        {
          "internalType": "string",
          "name": "_info",
          "type": "string"
        }
      ],
      "name": "setUsageInfo",
      "outputs": [],
      "stateMutability": "nonpayable",
      "type": "function"
    },
    {
      "inputs": [
        {
          "internalType": "uint256",
          "name": "_milestoneId",
          "type": "uint256"
        }
      ],
      "name": "getUsageInfo",
      "outputs": [
        {
          "internalType": "string",
          "name": "",
          "type": "string"
        }
      ],
      "stateMutability": "view",
      "type": "function"
    },
    {
      "inputs": [
        {
          "internalType": "address",
          "name": "_address",
          "type": "address"
        },
        {
          "internalType": "string",
          "name": "_name",
          "type": "string"
        },
        {
          "internalType": "uint256",
          "name": "_goalAmount",
          "type": "uint256"
        },
        {
          "internalType": "string[]",
          "name": "_milestoneDescriptions",
          "type": "string[]"
        },
        {
          "internalType": "uint256[]",
          "name": "_milestoneTargets",
          "type": "uint256[]"
        }
      ],
      "name": "createProject",
      "outputs": [],
      "stateMutability": "nonpayable",
      "type": "function"
    },
    {
      "inputs": [
        {
          "internalType": "uint256",
          "name": "_projectId",
          "type": "uint256"
        },
        {
          "internalType": "uint256",
          "name": "_milestoneId",
          "type": "uint256"
        },
        {
          "internalType": "address",
          "name": "_donor",
          "type": "address"
        },
        {
          "internalType": "address",
          "name": "_recipient",
          "type": "address"
        }
      ],
      "name": "donate",
      "outputs": [],
      "stateMutability": "payable",
      "type": "function"
    },
    {
      "inputs": [
        {
          "internalType": "uint256",
          "name": "_projectId",
          "type": "uint256"
        }
      ],
      "name": "requestRefund",
      "outputs": [],
      "stateMutability": "nonpayable",
      "type": "function"
    },
    {
      "inputs": [
        {
          "internalType": "uint256",
          "name": "_projectId",
          "type": "uint256"
        },
        {
          "internalType": "address",
          "name": "_sender",
          "type": "address"
        }
      ],
      "name": "deactivateProject",
      "outputs": [],
      "stateMutability": "nonpayable",
      "type": "function"
    },
    {
      "inputs": [
        {
          "internalType": "address",
          "name": "_charityAddress",
          "type": "address"
        }
      ],
      "name": "addCharity",
      "outputs": [],
      "stateMutability": "nonpayable",
      "type": "function"
    },
    {
      "inputs": [
        {
          "internalType": "address",
          "name": "_charityAddress",
          "type": "address"
        }
      ],
      "name": "removeCharity",
      "outputs": [],
      "stateMutability": "nonpayable",
      "type": "function"
    },
    {
      "inputs": [
        {
          "internalType": "uint256",
          "name": "_projectId",
          "type": "uint256"
        }
      ],
      "name": "getProject",
      "outputs": [
        {
          "internalType": "string",
          "name": "name",
          "type": "string"
        },
        {
          "internalType": "address",
          "name": "charityAddress",
          "type": "address"
        },
        {
          "internalType": "uint256",
          "name": "goalAmount",
          "type": "uint256"
        },
        {
          "internalType": "uint256",
          "name": "raisedAmount",
          "type": "uint256"
        },
        {
          "internalType": "bool",
          "name": "isActive",
          "type": "bool"
        },
        {
          "internalType": "bool",
          "name": "isFunded",
          "type": "bool"
        },
        {
          "internalType": "uint256",
          "name": "milestoneCount",
          "type": "uint256"
        }
      ],
      "stateMutability": "view",
      "type": "function"
    },
    {
      "inputs": [
        {
          "internalType": "uint256",
          "name": "_projectId",
          "type": "uint256"
        },
        {
          "internalType": "address",
          "name": "_donor",
          "type": "address"
        }
      ],
      "name": "getProjectDonations",
      "outputs": [
        {
          "internalType": "uint256",
          "name": "donorAmount",
          "type": "uint256"
        }
      ],
      "stateMutability": "view",
      "type": "function"
    },
    {
      "inputs": [],
      "name": "getProjects",
      "outputs": [
        {
          "internalType": "string[]",
          "name": "name",
          "type": "string[]"
        },
        {
          "internalType": "address[]",
          "name": "charityAddress",
          "type": "address[]"
        },
        {
          "internalType": "uint256[]",
          "name": "goalAmount",
          "type": "uint256[]"
        },
        {
          "internalType": "uint256[]",
          "name": "raisedAmount",
          "type": "uint256[]"
        },
        {
          "internalType": "bool[]",
          "name": "isActive",
          "type": "bool[]"
        },
        {
          "internalType": "uint256[]",
          "name": "milestoneCount",
          "type": "uint256[]"
        }
      ],
      "stateMutability": "view",
      "type": "function"
    },
    {
      "inputs": [
        {
          "internalType": "uint256",
          "name": "_projectId",
          "type": "uint256"
        },
        {
          "internalType": "uint256",
          "name": "_milestoneIndex",
          "type": "uint256"
        }
      ],
      "name": "getMilestone",
      "outputs": [
        {
          "internalType": "string",
          "name": "description",
          "type": "string"
        },
        {
          "internalType": "uint256",
          "name": "targetAmount",
          "type": "uint256"
        },
        {
          "internalType": "uint256",
          "name": "raisedAmount",
          "type": "uint256"
        },
        {
          "internalType": "bool",
          "name": "isCompleted",
          "type": "bool"
        },
        {
          "internalType": "bool",
          "name": "fundsReleased",
          "type": "bool"
        }
      ],
      "stateMutability": "view",
      "type": "function"
    },
    {
      "inputs": [
        {
          "internalType": "address",
          "name": "_address",
          "type": "address"
        },
        {
          "internalType": "uint256",
          "name": "_projectId",
          "type": "uint256"
        },
        {
          "internalType": "uint256",
          "name": "_milestoneIndex",
          "type": "uint256"
        }
      ],
      "name": "getMilestoneAmount",
      "outputs": [
        {
          "internalType": "uint256",
          "name": "donatedAmount",
          "type": "uint256"
        }
      ],
      "stateMutability": "view",
      "type": "function"
    }
  ],
  "bytecode": "0x60806040523480156200001157600080fd5b5060405162003fb538038062003fb58339818101604052810190620000379190620002c0565b6001600081905550620000546000801b33620000e060201b60201c565b50620000877fa49807205ce4d355092ef5a8a18f56e8913cf4a201fbe287825b095693c2177533620000e060201b60201c565b5080600260006101000a81548173ffffffffffffffffffffffffffffffffffffffff021916908373ffffffffffffffffffffffffffffffffffffffff1602179055506000600681905550600060078190555050620002f2565b6000620000f48383620001e360201b60201c565b620001d857600180600085815260200190815260200160002060000160008473ffffffffffffffffffffffffffffffffffffffff1673ffffffffffffffffffffffffffffffffffffffff16815260200190815260200160002060006101000a81548160ff021916908315150217905550620001746200024e60201b60201c565b73ffffffffffffffffffffffffffffffffffffffff168273ffffffffffffffffffffffffffffffffffffffff16847f2f8788117e7eff1d82e926ec794901d17c78024a50270940304540a733656f0d60405160405180910390a460019050620001dd565b600090505b92915050565b60006001600084815260200190815260200160002060000160008373ffffffffffffffffffffffffffffffffffffffff1673ffffffffffffffffffffffffffffffffffffffff16815260200190815260200160002060009054906101000a900460ff16905092915050565b600033905090565b600080fd5b600073ffffffffffffffffffffffffffffffffffffffff82169050919050565b600062000288826200025b565b9050919050565b6200029a816200027b565b8114620002a657600080fd5b50565b600081519050620002ba816200028f565b92915050565b600060208284031215620002d957620002d862000256565b5b6000620002e984828501620002a9565b91505092915050565b613cb380620003026000396000f3fe6080604052600436106101bb5760003560e01c8063a217fddf116100ec578063ca314f1d1161008a578063dcc6012811610064578063dcc6012814610648578063dd36341a14610678578063e89e4ed6146106b5578063f0f3f2c8146106f9576101c2565b8063ca314f1d146105a5578063cbdfe9fd146105e2578063d547741f1461061f576101c2565b8063aa974f37116100c6578063aa974f371461050c578063ab36e4a614610528578063abefe59114610553578063b55d84731461057c576101c2565b8063a217fddf1461048f578063a4b2409e146104ba578063a78f061b146104e3576101c2565b806348c35ad41161015957806375b238fc1161013357806375b238fc146103bd57806378b14f0a146103e85780638ed9895c1461041157806391d1485414610452576101c2565b806348c35ad41461032c5780636cd0b5d1146103695780636f0c806714610392576101c2565b8063248a9ca311610195578063248a9ca3146102725780632f2ff15d146102af57806336568abe146102d857806336fbad2614610301576101c2565b806301ffc9a7146101c75780630df7215914610204578063107046bd1461022f576101c2565b366101c257005b600080fd5b3480156101d357600080fd5b506101ee60048036038101906101e991906124f0565b61073c565b6040516101fb9190612538565b60405180910390f35b34801561021057600080fd5b506102196107b6565b60405161022691906125d2565b60405180910390f35b34801561023b57600080fd5b5061025660048036038101906102519190612623565b6107dc565b6040516102699796959493929190612710565b60405180910390f35b34801561027e57600080fd5b50610299600480360381019061029491906127bc565b6108e0565b6040516102a691906127f8565b60405180910390f35b3480156102bb57600080fd5b506102d660048036038101906102d1919061283f565b610900565b005b3480156102e457600080fd5b506102ff60048036038101906102fa919061283f565b610922565b005b34801561030d57600080fd5b5061031661099d565b604051610323919061287f565b60405180910390f35b34801561033857600080fd5b50610353600480360381019061034e9190612623565b6109a3565b604051610360919061287f565b60405180910390f35b34801561037557600080fd5b50610390600480360381019061038b9190612b78565b6109c7565b005b34801561039e57600080fd5b506103a7610bda565b6040516103b491906127f8565b60405180910390f35b3480156103c957600080fd5b506103d2610bfe565b6040516103df91906127f8565b60405180910390f35b3480156103f457600080fd5b5061040f600480360381019061040a9190612c47565b610c22565b005b34801561041d57600080fd5b5061043860048036038101906104339190612c74565b610c7b565b604051610449959493929190612cb4565b60405180910390f35b34801561045e57600080fd5b506104796004803603810190610474919061283f565b610df4565b6040516104869190612538565b60405180910390f35b34801561049b57600080fd5b506104a4610e5f565b6040516104b191906127f8565b60405180910390f35b3480156104c657600080fd5b506104e160048036038101906104dc9190612623565b610e66565b005b3480156104ef57600080fd5b5061050a60048036038101906105059190612d0e565b6110b0565b005b61052660048036038101906105219190612d6a565b611109565b005b34801561053457600080fd5b5061053d6114e4565b60405161054a919061287f565b60405180910390f35b34801561055f57600080fd5b5061057a60048036038101906105759190612c47565b6114ea565b005b34801561058857600080fd5b506105a3600480360381019061059e9190612dd1565b611542565b005b3480156105b157600080fd5b506105cc60048036038101906105c79190612e11565b611689565b6040516105d9919061287f565b60405180910390f35b3480156105ee57600080fd5b5061060960048036038101906106049190612623565b611774565b6040516106169190612e64565b60405180910390f35b34801561062b57600080fd5b506106466004803603810190610641919061283f565b611822565b005b34801561065457600080fd5b5061065d611844565b60405161066f969594939291906131cc565b60405180910390f35b34801561068457600080fd5b5061069f600480360381019061069a9190612dd1565b611c9c565b6040516106ac919061287f565b60405180910390f35b3480156106c157600080fd5b506106dc60048036038101906106d79190612623565b611d05565b6040516106f0989796959493929190613257565b60405180910390f35b34801561070557600080fd5b50610720600480360381019061071b9190612623565b611e77565b60405161073397969594939291906132e3565b60405180910390f35b60007f7965db0b000000000000000000000000000000000000000000000000000000007bffffffffffffffffffffffffffffffffffffffffffffffffffffffff1916827bffffffffffffffffffffffffffffffffffffffffffffffffffffffff191614806107af57506107ae82611f9e565b5b9050919050565b600260009054906101000a900473ffffffffffffffffffffffffffffffffffffffff1681565b600360205280600052604060002060009150905080600001549080600101805461080590613388565b80601f016020809104026020016040519081016040528092919081815260200182805461083190613388565b801561087e5780601f106108535761010080835404028352916020019161087e565b820191906000526020600020905b81548152906001019060200180831161086157829003601f168201915b5050505050908060020160009054906101000a900473ffffffffffffffffffffffffffffffffffffffff16908060030154908060040154908060050160009054906101000a900460ff16908060070160009054906101000a900460ff16905087565b600060016000838152602001908152602001600020600101549050919050565b610909826108e0565b61091281612008565b61091c838361201c565b50505050565b61092a61210d565b73ffffffffffffffffffffffffffffffffffffffff168173ffffffffffffffffffffffffffffffffffffffff161461098e576040517f6697b23200000000000000000000000000000000000000000000000000000000815260040160405180910390fd5b6109988282612115565b505050565b60065481565b600481815481106109b357600080fd5b906000526020600020016000915090505481565b7f838cb9e68162e54d2dfda44baa96273d8a6cb729c0d42995215e0f52841feb776109f181612008565b8151835114610a35576040517f08c379a0000000000000000000000000000000000000000000000000000000008152600401610a2c90613405565b60405180910390fd5b60066000815480929190610a4890613454565b91905055506000600360006006548152602001908152602001600020905060046006549080600181540180825580915050600190039060005260206000200160009091909190915055600654816000018190555085816001019081610aad919061363e565b50868160020160006101000a81548173ffffffffffffffffffffffffffffffffffffffff021916908373ffffffffffffffffffffffffffffffffffffffff16021790555084816003018190555060018160050160006101000a81548160ff02191690831515021790555060008160070160006101000a81548160ff02191690831515021790555060005b8451811015610b9457610b81858281518110610b5657610b55613710565b5b6020026020010151858381518110610b7157610b70613710565b5b6020026020010151600654612208565b8080610b8c90613454565b915050610b37565b506006547fc0c54fed07481d0998e1446b2c13759606bf4f26b78306307413ac4c4309aa828789604051610bc992919061373f565b60405180910390a250505050505050565b7f838cb9e68162e54d2dfda44baa96273d8a6cb729c0d42995215e0f52841feb7781565b7fa49807205ce4d355092ef5a8a18f56e8913cf4a201fbe287825b095693c2177581565b7fa49807205ce4d355092ef5a8a18f56e8913cf4a201fbe287825b095693c21775610c4c81612008565b610c767f838cb9e68162e54d2dfda44baa96273d8a6cb729c0d42995215e0f52841feb778361201c565b505050565b6060600080600080600060036000898152602001908152602001600020905080600601805490508710610ce3576040517f08c379a0000000000000000000000000000000000000000000000000000000008152600401610cda906137bb565b60405180910390fd5b6000816006018881548110610cfb57610cfa613710565b5b90600052602060002001549050600060056000838152602001908152602001600020905080600201816003015482600401548360050160009054906101000a900460ff168460050160019054906101000a900460ff16848054610d5d90613388565b80601f0160208091040260200160405190810160405280929190818152602001828054610d8990613388565b8015610dd65780601f10610dab57610100808354040283529160200191610dd6565b820191906000526020600020905b815481529060010190602001808311610db957829003601f168201915b50505050509450975097509750975097505050509295509295909350565b60006001600084815260200190815260200160002060000160008373ffffffffffffffffffffffffffffffffffffffff1673ffffffffffffffffffffffffffffffffffffffff16815260200190815260200160002060009054906101000a900460ff16905092915050565b6000801b81565b610e6e612322565b60006003600083815260200190815260200160002090508060050160009054906101000a900460ff1615610ed7576040517f08c379a0000000000000000000000000000000000000000000000000000000008152600401610ece90613827565b60405180910390fd5b60008160080160003373ffffffffffffffffffffffffffffffffffffffff1673ffffffffffffffffffffffffffffffffffffffff16815260200190815260200160002054905060008111610f60576040517f08c379a0000000000000000000000000000000000000000000000000000000008152600401610f5790613893565b60405180910390fd5b60008260080160003373ffffffffffffffffffffffffffffffffffffffff1673ffffffffffffffffffffffffffffffffffffffff1681526020019081526020016000208190555060003373ffffffffffffffffffffffffffffffffffffffff1682604051610fcd906138e4565b60006040518083038185875af1925050503d806000811461100a576040519150601f19603f3d011682016040523d82523d6000602084013e61100f565b606091505b5050905080611053576040517f08c379a000000000000000000000000000000000000000000000000000000000815260040161104a90613945565b60405180910390fd5b3373ffffffffffffffffffffffffffffffffffffffff16847f7a482fdeb6bc9a1376f597068a214a7a39472bb2eff1b8cad21ba04f49ddca1b8460405161109a919061287f565b60405180910390a35050506110ad612368565b50565b7f838cb9e68162e54d2dfda44baa96273d8a6cb729c0d42995215e0f52841feb776110da81612008565b600060056000858152602001908152602001600020905082816007019081611102919061363e565b5050505050565b611111612322565b60006003600086815260200190815260200160002090508060050160009054906101000a900460ff16611179576040517f08c379a0000000000000000000000000000000000000000000000000000000008152600401611170906139b1565b60405180910390fd5b600034116111bc576040517f08c379a00000000000000000000000000000000000000000000000000000000081526004016111b390613a43565b60405180910390fd5b600082905060008173ffffffffffffffffffffffffffffffffffffffff166108fc349081150290604051600060405180830381858888f1935050505090508061123a576040517f08c379a000000000000000000000000000000000000000000000000000000000815260040161123190613aaf565b60405180910390fd5b348360080160008773ffffffffffffffffffffffffffffffffffffffff1673ffffffffffffffffffffffffffffffffffffffff168152602001908152602001600020600082825461128b9190613acf565b92505081905550348360040160008282546112a69190613acf565b92505081905550600260009054906101000a900473ffffffffffffffffffffffffffffffffffffffff1673ffffffffffffffffffffffffffffffffffffffff1663156e29f68689346040518463ffffffff1660e01b815260040161130c93929190613b03565b6020604051808303816000875af115801561132b573d6000803e3d6000fd5b505050506040513d601f19601f8201168201806040525081019061134f9190613b4f565b50600083600601878154811061136857611367613710565b5b906000526020600020015490506000600560008381526020019081526020016000209050348160060160008973ffffffffffffffffffffffffffffffffffffffff1673ffffffffffffffffffffffffffffffffffffffff16815260200190815260200160002060008282546113dd9190613acf565b92505081905550348160040160008282546113f89190613acf565b925050819055508673ffffffffffffffffffffffffffffffffffffffff16897f0b5b4c52969ff7329ecf7ee536409fda87812b15a8622bc6e8cdeab3aee14a2634604051611446919061287f565b60405180910390a38060030154816004015414801561147457508060050160009054906101000a900460ff16155b15611487576114868160000154612372565b5b8460070160009054906101000a900460ff161580156114ae57508460030154856004015410155b156114d15760018560070160006101000a81548160ff0219169083151502179055505b50505050506114de612368565b50505050565b60075481565b7fa49807205ce4d355092ef5a8a18f56e8913cf4a201fbe287825b095693c2177561151481612008565b61153e7f838cb9e68162e54d2dfda44baa96273d8a6cb729c0d42995215e0f52841feb7783611822565b5050565b7f838cb9e68162e54d2dfda44baa96273d8a6cb729c0d42995215e0f52841feb7761156c81612008565b60006003600085815260200190815260200160002090508060050160009054906101000a900460ff166115d4576040517f08c379a00000000000000000000000000000000000000000000000000000000081526004016115cb90613bc8565b60405180910390fd5b8273ffffffffffffffffffffffffffffffffffffffff168160020160009054906101000a900473ffffffffffffffffffffffffffffffffffffffff1673ffffffffffffffffffffffffffffffffffffffff1614611666576040517f08c379a000000000000000000000000000000000000000000000000000000000815260040161165d90613bc8565b60405180910390fd5b60008160050160006101000a81548160ff02191690831515021790555050505050565b600080600360008581526020019081526020016000209050806006018054905083106116ea576040517f08c379a00000000000000000000000000000000000000000000000000000000081526004016116e1906137bb565b60405180910390fd5b600081600601848154811061170257611701613710565b5b9060005260206000200154905060006005600083815260200190815260200160002090508060060160008873ffffffffffffffffffffffffffffffffffffffff1673ffffffffffffffffffffffffffffffffffffffff1681526020019081526020016000205493505050509392505050565b6060600060056000848152602001908152602001600020905080600701805461179c90613388565b80601f01602080910402602001604051908101604052809291908181526020018280546117c890613388565b80156118155780601f106117ea57610100808354040283529160200191611815565b820191906000526020600020905b8154815290600101906020018083116117f857829003601f168201915b5050505050915050919050565b61182b826108e0565b61183481612008565b61183e8383612115565b50505050565b606080606080606080600060065467ffffffffffffffff81111561186b5761186a6128a4565b5b60405190808252806020026020018201604052801561189e57816020015b60608152602001906001900390816118895790505b509050600060065467ffffffffffffffff8111156118bf576118be6128a4565b5b6040519080825280602002602001820160405280156118ed5781602001602082028036833780820191505090505b509050600060065467ffffffffffffffff81111561190e5761190d6128a4565b5b60405190808252806020026020018201604052801561193c5781602001602082028036833780820191505090505b509050600060065467ffffffffffffffff81111561195d5761195c6128a4565b5b60405190808252806020026020018201604052801561198b5781602001602082028036833780820191505090505b509050600060065467ffffffffffffffff8111156119ac576119ab6128a4565b5b6040519080825280602002602001820160405280156119da5781602001602082028036833780820191505090505b509050600060065467ffffffffffffffff8111156119fb576119fa6128a4565b5b604051908082528060200260200182016040528015611a295781602001602082028036833780820191505090505b50905060005b600654811015611c7b57600360008281526020019081526020016000206001018054611a5a90613388565b80601f0160208091040260200160405190810160405280929190818152602001828054611a8690613388565b8015611ad35780601f10611aa857610100808354040283529160200191611ad3565b820191906000526020600020905b815481529060010190602001808311611ab657829003601f168201915b5050505050878281518110611aeb57611aea613710565b5b60200260200101819052506003600082815260200190815260200160002060020160009054906101000a900473ffffffffffffffffffffffffffffffffffffffff16868281518110611b4057611b3f613710565b5b602002602001019073ffffffffffffffffffffffffffffffffffffffff16908173ffffffffffffffffffffffffffffffffffffffff16815250506003600082815260200190815260200160002060030154858281518110611ba457611ba3613710565b5b6020026020010181815250506003600082815260200190815260200160002060040154848281518110611bda57611bd9613710565b5b6020026020010181815250506003600082815260200190815260200160002060050160009054906101000a900460ff16838281518110611c1d57611c1c613710565b5b6020026020010190151590811515815250506003600082815260200190815260200160002060060180549050828281518110611c5c57611c5b613710565b5b6020026020010181815250508080611c7390613454565b915050611a2f565b508585858585859b509b509b509b509b509b50505050505050909192939495565b60008060036000858152602001908152602001600020905060008160080160008573ffffffffffffffffffffffffffffffffffffffff1673ffffffffffffffffffffffffffffffffffffffff168152602001908152602001600020549050809250505092915050565b6005602052806000526040600020600091509050806000015490806001015490806002018054611d3490613388565b80601f0160208091040260200160405190810160405280929190818152602001828054611d6090613388565b8015611dad5780601f10611d8257610100808354040283529160200191611dad565b820191906000526020600020905b815481529060010190602001808311611d9057829003601f168201915b5050505050908060030154908060040154908060050160009054906101000a900460ff16908060050160019054906101000a900460ff1690806007018054611df490613388565b80601f0160208091040260200160405190810160405280929190818152602001828054611e2090613388565b8015611e6d5780601f10611e4257610100808354040283529160200191611e6d565b820191906000526020600020905b815481529060010190602001808311611e5057829003601f168201915b5050505050905088565b60606000806000806000806000600360008a81526020019081526020016000209050806001018160020160009054906101000a900473ffffffffffffffffffffffffffffffffffffffff16826003015483600401548460050160009054906101000a900460ff168560070160009054906101000a900460ff168660060180549050868054611f0490613388565b80601f0160208091040260200160405190810160405280929190818152602001828054611f3090613388565b8015611f7d5780601f10611f5257610100808354040283529160200191611f7d565b820191906000526020600020905b815481529060010190602001808311611f6057829003601f168201915b50505050509650975097509750975097509750975050919395979092949650565b60007f01ffc9a7000000000000000000000000000000000000000000000000000000007bffffffffffffffffffffffffffffffffffffffffffffffffffffffff1916827bffffffffffffffffffffffffffffffffffffffffffffffffffffffff1916149050919050565b6120198161201461210d565b612433565b50565b60006120288383610df4565b61210257600180600085815260200190815260200160002060000160008473ffffffffffffffffffffffffffffffffffffffff1673ffffffffffffffffffffffffffffffffffffffff16815260200190815260200160002060006101000a81548160ff02191690831515021790555061209f61210d565b73ffffffffffffffffffffffffffffffffffffffff168273ffffffffffffffffffffffffffffffffffffffff16847f2f8788117e7eff1d82e926ec794901d17c78024a50270940304540a733656f0d60405160405180910390a460019050612107565b600090505b92915050565b600033905090565b60006121218383610df4565b156121fd5760006001600085815260200190815260200160002060000160008473ffffffffffffffffffffffffffffffffffffffff1673ffffffffffffffffffffffffffffffffffffffff16815260200190815260200160002060006101000a81548160ff02191690831515021790555061219a61210d565b73ffffffffffffffffffffffffffffffffffffffff168273ffffffffffffffffffffffffffffffffffffffff16847ff6391f5c32d9c69d2a47ea670b442974b53935d1edc7fd64eb21e047a839171b60405160405180910390a460019050612202565b600090505b92915050565b7f838cb9e68162e54d2dfda44baa96273d8a6cb729c0d42995215e0f52841feb7761223281612008565b6007600081548092919061224590613454565b919050555060006005600060075481526020019081526020016000209050600754816000018190555082816001018190555084816002019081612288919061363e565b508381600301819055506000816004018190555060008160050160006101000a81548160ff02191690831515021790555060008160050160016101000a81548160ff0219169083151502179055506000600360008581526020019081526020016000209050806006016007549080600181540180825580915050600190039060005260206000200160009091909190915055505050505050565b60026000540361235e576040517f3ee5aeb500000000000000000000000000000000000000000000000000000000815260040160405180910390fd5b6002600081905550565b6001600081905550565b60006005600083815260200190815260200160002090508060050160009054906101000a900460ff16156123db576040517f08c379a00000000000000000000000000000000000000000000000000000000081526004016123d290613c34565b60405180910390fd5b60018160050160006101000a81548160ff0219169083151502179055507f41f5e423c5ae79dcb8565618891e74a7a6e76232568150b33d79001a62391b1e82604051612427919061287f565b60405180910390a15050565b61243d8282610df4565b6124805780826040517fe2517d3f000000000000000000000000000000000000000000000000000000008152600401612477929190613c54565b60405180910390fd5b5050565b6000604051905090565b600080fd5b600080fd5b60007fffffffff0000000000000000000000000000000000000000000000000000000082169050919050565b6124cd81612498565b81146124d857600080fd5b50565b6000813590506124ea816124c4565b92915050565b6000602082840312156125065761250561248e565b5b6000612514848285016124db565b91505092915050565b60008115159050919050565b6125328161251d565b82525050565b600060208201905061254d6000830184612529565b92915050565b600073ffffffffffffffffffffffffffffffffffffffff82169050919050565b6000819050919050565b600061259861259361258e84612553565b612573565b612553565b9050919050565b60006125aa8261257d565b9050919050565b60006125bc8261259f565b9050919050565b6125cc816125b1565b82525050565b60006020820190506125e760008301846125c3565b92915050565b6000819050919050565b612600816125ed565b811461260b57600080fd5b50565b60008135905061261d816125f7565b92915050565b6000602082840312156126395761263861248e565b5b60006126478482850161260e565b91505092915050565b612659816125ed565b82525050565b600081519050919050565b600082825260208201905092915050565b60005b8381101561269957808201518184015260208101905061267e565b60008484015250505050565b6000601f19601f8301169050919050565b60006126c18261265f565b6126cb818561266a565b93506126db81856020860161267b565b6126e4816126a5565b840191505092915050565b60006126fa82612553565b9050919050565b61270a816126ef565b82525050565b600060e082019050612725600083018a612650565b818103602083015261273781896126b6565b90506127466040830188612701565b6127536060830187612650565b6127606080830186612650565b61276d60a0830185612529565b61277a60c0830184612529565b98975050505050505050565b6000819050919050565b61279981612786565b81146127a457600080fd5b50565b6000813590506127b681612790565b92915050565b6000602082840312156127d2576127d161248e565b5b60006127e0848285016127a7565b91505092915050565b6127f281612786565b82525050565b600060208201905061280d60008301846127e9565b92915050565b61281c816126ef565b811461282757600080fd5b50565b60008135905061283981612813565b92915050565b600080604083850312156128565761285561248e565b5b6000612864858286016127a7565b92505060206128758582860161282a565b9150509250929050565b60006020820190506128946000830184612650565b92915050565b600080fd5b600080fd5b7f4e487b7100000000000000000000000000000000000000000000000000000000600052604160045260246000fd5b6128dc826126a5565b810181811067ffffffffffffffff821117156128fb576128fa6128a4565b5b80604052505050565b600061290e612484565b905061291a82826128d3565b919050565b600067ffffffffffffffff82111561293a576129396128a4565b5b612943826126a5565b9050602081019050919050565b82818337600083830152505050565b600061297261296d8461291f565b612904565b90508281526020810184848401111561298e5761298d61289f565b5b612999848285612950565b509392505050565b600082601f8301126129b6576129b561289a565b5b81356129c684826020860161295f565b91505092915050565b600067ffffffffffffffff8211156129ea576129e96128a4565b5b602082029050602081019050919050565b600080fd5b6000612a13612a0e846129cf565b612904565b90508083825260208201905060208402830185811115612a3657612a356129fb565b5b835b81811015612a7d57803567ffffffffffffffff811115612a5b57612a5a61289a565b5b808601612a6889826129a1565b85526020850194505050602081019050612a38565b5050509392505050565b600082601f830112612a9c57612a9b61289a565b5b8135612aac848260208601612a00565b91505092915050565b600067ffffffffffffffff821115612ad057612acf6128a4565b5b602082029050602081019050919050565b6000612af4612aef84612ab5565b612904565b90508083825260208201905060208402830185811115612b1757612b166129fb565b5b835b81811015612b405780612b2c888261260e565b845260208401935050602081019050612b19565b5050509392505050565b600082601f830112612b5f57612b5e61289a565b5b8135612b6f848260208601612ae1565b91505092915050565b600080600080600060a08688031215612b9457612b9361248e565b5b6000612ba28882890161282a565b955050602086013567ffffffffffffffff811115612bc357612bc2612493565b5b612bcf888289016129a1565b9450506040612be08882890161260e565b935050606086013567ffffffffffffffff811115612c0157612c00612493565b5b612c0d88828901612a87565b925050608086013567ffffffffffffffff811115612c2e57612c2d612493565b5b612c3a88828901612b4a565b9150509295509295909350565b600060208284031215612c5d57612c5c61248e565b5b6000612c6b8482850161282a565b91505092915050565b60008060408385031215612c8b57612c8a61248e565b5b6000612c998582860161260e565b9250506020612caa8582860161260e565b9150509250929050565b600060a0820190508181036000830152612cce81886126b6565b9050612cdd6020830187612650565b612cea6040830186612650565b612cf76060830185612529565b612d046080830184612529565b9695505050505050565b60008060408385031215612d2557612d2461248e565b5b6000612d338582860161260e565b925050602083013567ffffffffffffffff811115612d5457612d53612493565b5b612d60858286016129a1565b9150509250929050565b60008060008060808587031215612d8457612d8361248e565b5b6000612d928782880161260e565b9450506020612da38782880161260e565b9350506040612db48782880161282a565b9250506060612dc58782880161282a565b91505092959194509250565b60008060408385031215612de857612de761248e565b5b6000612df68582860161260e565b9250506020612e078582860161282a565b9150509250929050565b600080600060608486031215612e2a57612e2961248e565b5b6000612e388682870161282a565b9350506020612e498682870161260e565b9250506040612e5a8682870161260e565b9150509250925092565b60006020820190508181036000830152612e7e81846126b6565b905092915050565b600081519050919050565b600082825260208201905092915050565b6000819050602082019050919050565b600082825260208201905092915050565b6000612ece8261265f565b612ed88185612eb2565b9350612ee881856020860161267b565b612ef1816126a5565b840191505092915050565b6000612f088383612ec3565b905092915050565b6000602082019050919050565b6000612f2882612e86565b612f328185612e91565b935083602082028501612f4485612ea2565b8060005b85811015612f805784840389528151612f618582612efc565b9450612f6c83612f10565b925060208a01995050600181019050612f48565b50829750879550505050505092915050565b600081519050919050565b600082825260208201905092915050565b6000819050602082019050919050565b612fc7816126ef565b82525050565b6000612fd98383612fbe565b60208301905092915050565b6000602082019050919050565b6000612ffd82612f92565b6130078185612f9d565b935061301283612fae565b8060005b8381101561304357815161302a8882612fcd565b975061303583612fe5565b925050600181019050613016565b5085935050505092915050565b600081519050919050565b600082825260208201905092915050565b6000819050602082019050919050565b613085816125ed565b82525050565b6000613097838361307c565b60208301905092915050565b6000602082019050919050565b60006130bb82613050565b6130c5818561305b565b93506130d08361306c565b8060005b838110156131015781516130e8888261308b565b97506130f3836130a3565b9250506001810190506130d4565b5085935050505092915050565b600081519050919050565b600082825260208201905092915050565b6000819050602082019050919050565b6131438161251d565b82525050565b6000613155838361313a565b60208301905092915050565b6000602082019050919050565b60006131798261310e565b6131838185613119565b935061318e8361312a565b8060005b838110156131bf5781516131a68882613149565b97506131b183613161565b925050600181019050613192565b5085935050505092915050565b600060c08201905081810360008301526131e68189612f1d565b905081810360208301526131fa8188612ff2565b9050818103604083015261320e81876130b0565b9050818103606083015261322281866130b0565b90508181036080830152613236818561316e565b905081810360a083015261324a81846130b0565b9050979650505050505050565b60006101008201905061326d600083018b612650565b61327a602083018a612650565b818103604083015261328c81896126b6565b905061329b6060830188612650565b6132a86080830187612650565b6132b560a0830186612529565b6132c260c0830185612529565b81810360e08301526132d481846126b6565b90509998505050505050505050565b600060e08201905081810360008301526132fd818a6126b6565b905061330c6020830189612701565b6133196040830188612650565b6133266060830187612650565b6133336080830186612529565b61334060a0830185612529565b61334d60c0830184612650565b98975050505050505050565b7f4e487b7100000000000000000000000000000000000000000000000000000000600052602260045260246000fd5b600060028204905060018216806133a057607f821691505b6020821081036133b3576133b2613359565b5b50919050565b7f4d696c6573746f6e6520617272617973206d757374206d617463680000000000600082015250565b60006133ef601b8361266a565b91506133fa826133b9565b602082019050919050565b6000602082019050818103600083015261341e816133e2565b9050919050565b7f4e487b7100000000000000000000000000000000000000000000000000000000600052601160045260246000fd5b600061345f826125ed565b91507fffffffffffffffffffffffffffffffffffffffffffffffffffffffffffffffff820361349157613490613425565b5b600182019050919050565b60008190508160005260206000209050919050565b60006020601f8301049050919050565b600082821b905092915050565b6000600883026134fe7fffffffffffffffffffffffffffffffffffffffffffffffffffffffffffffffff826134c1565b61350886836134c1565b95508019841693508086168417925050509392505050565b600061353b613536613531846125ed565b612573565b6125ed565b9050919050565b6000819050919050565b61355583613520565b61356961356182613542565b8484546134ce565b825550505050565b600090565b61357e613571565b61358981848461354c565b505050565b5b818110156135ad576135a2600082613576565b60018101905061358f565b5050565b601f8211156135f2576135c38161349c565b6135cc846134b1565b810160208510156135db578190505b6135ef6135e7856134b1565b83018261358e565b50505b505050565b600082821c905092915050565b6000613615600019846008026135f7565b1980831691505092915050565b600061362e8383613604565b9150826002028217905092915050565b6136478261265f565b67ffffffffffffffff8111156136605761365f6128a4565b5b61366a8254613388565b6136758282856135b1565b600060209050601f8311600181146136a85760008415613696578287015190505b6136a08582613622565b865550613708565b601f1984166136b68661349c565b60005b828110156136de578489015182556001820191506020850194506020810190506136b9565b868310156136fb57848901516136f7601f891682613604565b8355505b6001600288020188555050505b505050505050565b7f4e487b7100000000000000000000000000000000000000000000000000000000600052603260045260246000fd5b6000604082019050818103600083015261375981856126b6565b90506137686020830184612701565b9392505050565b7f496e76616c6964206d696c6573746f6e6520696e646578000000000000000000600082015250565b60006137a560178361266a565b91506137b08261376f565b602082019050919050565b600060208201905081810360008301526137d481613798565b9050919050565b7f50726f6a656374206973207374696c6c20616374697665000000000000000000600082015250565b600061381160178361266a565b915061381c826137db565b602082019050919050565b6000602082019050818103600083015261384081613804565b9050919050565b7f4e6f20646f6e6174696f6e20666f756e64000000000000000000000000000000600082015250565b600061387d60118361266a565b915061388882613847565b602082019050919050565b600060208201905081810360008301526138ac81613870565b9050919050565b600081905092915050565b50565b60006138ce6000836138b3565b91506138d9826138be565b600082019050919050565b60006138ef826138c1565b9150819050919050565b7f526566756e64207472616e73666572206661696c656400000000000000000000600082015250565b600061392f60168361266a565b915061393a826138f9565b602082019050919050565b6000602082019050818103600083015261395e81613922565b9050919050565b7f50726f6a656374206973206e6f74206163746976650000000000000000000000600082015250565b600061399b60158361266a565b91506139a682613965565b602082019050919050565b600060208201905081810360008301526139ca8161398e565b9050919050565b7f446f6e6174696f6e20616d6f756e74206d75737420626520677265617465722060008201527f7468616e20300000000000000000000000000000000000000000000000000000602082015250565b6000613a2d60268361266a565b9150613a38826139d1565b604082019050919050565b60006020820190508181036000830152613a5c81613a20565b9050919050565b7f4574686572207472616e73666572206661696c65640000000000000000000000600082015250565b6000613a9960158361266a565b9150613aa482613a63565b602082019050919050565b60006020820190508181036000830152613ac881613a8c565b9050919050565b6000613ada826125ed565b9150613ae5836125ed565b9250828201905080821115613afd57613afc613425565b5b92915050565b6000606082019050613b186000830186612701565b613b256020830185612650565b613b326040830184612650565b949350505050565b600081519050613b49816125f7565b92915050565b600060208284031215613b6557613b6461248e565b5b6000613b7384828501613b3a565b91505092915050565b7f50726f6a65637420616c726561647920696e6163746976650000000000000000600082015250565b6000613bb260188361266a565b9150613bbd82613b7c565b602082019050919050565b60006020820190508181036000830152613be181613ba5565b9050919050565b7f4d696c6573746f6e6520616c726561647920636f6d706c657465640000000000600082015250565b6000613c1e601b8361266a565b9150613c2982613be8565b602082019050919050565b60006020820190508181036000830152613c4d81613c11565b9050919050565b6000604082019050613c696000830185612701565b613c7660208301846127e9565b939250505056fea2646970667358221220376084d1c1860b2d5f1e3f0259050d8651e25af38a7a002830697669c0dfafeb64736f6c63430008150033",
  "immutableReferences": {},
  "source": "// SPDX-License-Identifier: MIT\npragma solidity ^0.8.21;\n\nimport \"@openzeppelin/contracts/utils/ReentrancyGuard.sol\";\nimport \"@openzeppelin/contracts/access/AccessControl.sol\";\nimport \"@openzeppelin/contracts/token/ERC20/IERC20.sol\";\nimport \"./DonationToken.sol\";\n\ncontract CharityPlatform is ReentrancyGuard, AccessControl {\n    bytes32 public constant ADMIN_ROLE = keccak256(\"ADMIN_ROLE\");\n    bytes32 public constant CHARITY_ROLE = keccak256(\"CHARITY_ROLE\");\n\n    DonationToken public donationToken;\n    \n    struct Project {\n        uint256 id;\n        string name;\n        address charityAddress;\n        uint256 goalAmount;\n        uint256 raisedAmount;\n        bool isActive;\n        uint256[] milestones;\n        bool isFunded;\n        mapping(address => uint256) donations;\n    }\n\nstruct Milestone {\n    uint256 id;\n    uint256 projectId;\n    string description;\n    uint256 targetAmount;\n    uint256 raisedAmount;\n    bool isCompleted;\n    bool fundsReleased;\n    mapping(address => uint256) donations;\n    string usageInfo;\n}\n\nfunction setUsageInfo(uint256 _milestoneId, string memory _info) external onlyRole(CHARITY_ROLE) {\n    Milestone storage milestone = milestones[_milestoneId];\n    milestone.usageInfo = _info;\n}\n\nfunction getUsageInfo(uint256 _milestoneId) external view returns (string memory) {\n    Milestone storage milestone = milestones[_milestoneId];\n    return milestone.usageInfo;\n}\n\n    mapping(uint256 => Project) public projects;\n    uint256[] public projectIds;\n    mapping(uint256 => Milestone) public milestones;\n    uint256 public projectCount;\n    uint256 public milestonesCount;\n\n    event ProjectCreated(uint256 indexed projectId, string name, address charityAddress);\n    event DonationReceived(uint256 indexed projectId, address indexed donor, uint256 amount);\n    event MilestoneCompleted(uint256 milestoneIndex);\n    event FundsReleased(uint256 indexed projectId, uint256 amount);\n    event RefundIssued(uint256 indexed projectId, address indexed donor, uint256 amount);\n\n    constructor(address _donationToken) {\n        _grantRole(DEFAULT_ADMIN_ROLE, msg.sender);\n        _grantRole(ADMIN_ROLE, msg.sender);\n        donationToken = DonationToken(_donationToken);\n        projectCount = 0;\n        milestonesCount = 0;\n    }\n\n    function createProject(\n        address _address,\n        string memory _name,\n        uint256 _goalAmount,\n        string[] memory _milestoneDescriptions,\n        uint256[] memory _milestoneTargets\n    ) external onlyRole(CHARITY_ROLE) {\n        require(_milestoneDescriptions.length == _milestoneTargets.length, \"Milestone arrays must match\");\n        \n        projectCount++;\n        Project storage project = projects[projectCount];\n        projectIds.push(projectCount);\n        project.id = projectCount;\n        project.name = _name;\n        project.charityAddress = _address;\n        project.goalAmount = _goalAmount;\n        project.isActive = true;\n        project.isFunded = false;\n\n        for(uint i = 0; i < _milestoneDescriptions.length; i++) {\n            createMilestone(_milestoneDescriptions[i], _milestoneTargets[i], projectCount);\n        }\n\n        emit ProjectCreated(projectCount, _name, _address);\n    }\n\n    function createMilestone(\n        string memory _description,\n        uint256 _targetAmount,\n        uint256 _projectId\n    ) internal onlyRole(CHARITY_ROLE) {\n        milestonesCount++;\n        Milestone storage milestone = milestones[milestonesCount];\n        milestone.id = milestonesCount;\n        milestone.projectId = _projectId;\n        milestone.description = _description;\n        milestone.targetAmount = _targetAmount;\n        milestone.raisedAmount = 0;\n        milestone.isCompleted = false;\n        milestone.fundsReleased = false;\n        Project storage project = projects[_projectId];\n        project.milestones.push(milestonesCount);\n    }\n\n    function donate(\n        uint256 _projectId, \n        uint256 _milestoneId, \n        address _donor, \n        address _recipient\n    ) external payable nonReentrant {\n        Project storage project = projects[_projectId];\n        require(project.isActive, \"Project is not active\");\n        require(msg.value > 0, \"Donation amount must be greater than 0\");\n        address payable recipient = payable(_recipient); \n        bool success = recipient.send(msg.value);\n        require(success, \"Ether transfer failed\");\n        project.donations[_donor] += msg.value;\n        project.raisedAmount += msg.value;\n        donationToken.mint(_donor, _projectId, msg.value);\n\n        uint256 milestoneProjectIndex = project.milestones[_milestoneId];\n        Milestone storage milestone = milestones[milestoneProjectIndex];\n        milestone.donations[_donor] += msg.value;\n        milestone.raisedAmount += msg.value;\n\n        emit DonationReceived(_projectId, _donor, msg.value);\n\n        if (milestone.raisedAmount == milestone.targetAmount && !milestone.isCompleted) {\n            completeMilestone(milestone.id);\n        }\n\n        if (!project.isFunded && project.raisedAmount >= project.goalAmount) {\n            project.isFunded = true;\n        }\n    }\n\n    function completeMilestone(uint256 _milestoneIndex) internal {\n        Milestone storage milestone = milestones[_milestoneIndex];\n        require(!milestone.isCompleted, \"Milestone already completed\");\n        \n        milestone.isCompleted = true;\n        emit MilestoneCompleted(_milestoneIndex);\n    }\n\n    function requestRefund(uint256 _projectId) external nonReentrant {\n        Project storage project = projects[_projectId];\n        require(!project.isActive, \"Project is still active\");\n        \n        uint256 donationAmount = project.donations[msg.sender];\n        require(donationAmount > 0, \"No donation found\");\n\n        project.donations[msg.sender] = 0;\n        \n        (bool success, ) = msg.sender.call{value: donationAmount}(\"\");\n        require(success, \"Refund transfer failed\");\n\n        emit RefundIssued(_projectId, msg.sender, donationAmount);\n    }\n\n    function deactivateProject(uint256 _projectId, address _sender) external onlyRole(CHARITY_ROLE) {\n        Project storage project = projects[_projectId];\n        require(project.isActive, \"Project already inactive\");\n        require(project.charityAddress == _sender, \"Project already inactive\");\n        project.isActive = false;\n    }\n\n    // Administrative functions\n    function addCharity(address _charityAddress) external onlyRole(ADMIN_ROLE) {\n        _grantRole(CHARITY_ROLE, _charityAddress);\n    }\n\n    function removeCharity(address _charityAddress) external onlyRole(ADMIN_ROLE) {\n        revokeRole(CHARITY_ROLE, _charityAddress);\n    }\n\n    // View functions\n    function getProject(uint256 _projectId) external view returns (\n        string memory name,\n        address charityAddress,\n        uint256 goalAmount,\n        uint256 raisedAmount,\n        bool isActive,\n        bool isFunded,\n        uint256 milestoneCount\n    ) {\n        Project storage project = projects[_projectId];\n        return (\n            project.name,\n            project.charityAddress,\n            project.goalAmount,\n            project.raisedAmount,\n            project.isActive,\n            project.isFunded,\n            project.milestones.length\n        );\n    }\n\n    function getProjectDonations(uint256 _projectId, address _donor) external view returns (\n        uint256 donorAmount\n    ) {\n        Project storage project = projects[_projectId];\n        uint256 amount = project.donations[_donor];\n        return (\n            amount\n        );\n    }\n\n    function getProjects() external view returns (\n        string[] memory name,\n        address[] memory charityAddress,\n        uint256[] memory goalAmount,\n        uint256[] memory raisedAmount,\n        bool[] memory isActive,\n        uint256[] memory milestoneCount\n    ) {\n        string[] memory allNames = new string[](projectCount);\n        address[] memory allCharityAddreses = new address[](projectCount);\n        uint256[] memory allGoalAmounts = new uint256[](projectCount);\n        uint256[] memory allRaisedAmounts = new uint256[](projectCount);\n        bool[] memory areActive = new bool[](projectCount);\n        uint256[] memory milestoneCounts = new uint256[](projectCount);\n        for (uint i = 0; i < projectCount; i++) {\n            allNames[i] = projects[i].name;\n            allCharityAddreses[i] = projects[i].charityAddress;\n            allGoalAmounts[i] = projects[i].goalAmount;\n            allRaisedAmounts[i] = projects[i].raisedAmount;\n            areActive[i] = projects[i].isActive;\n            milestoneCounts[i] = projects[i].milestones.length;\n        }\n        return (\n            allNames, \n            allCharityAddreses, \n            allGoalAmounts,\n            allRaisedAmounts,\n            areActive,\n            milestoneCounts\n        );\n    }\n\n    function getMilestone(uint256 _projectId, uint256 _milestoneIndex) external view returns (\n        string memory description,\n        uint256 targetAmount,\n        uint256 raisedAmount,\n        bool isCompleted,\n        bool fundsReleased\n    ) {\n        Project storage project = projects[_projectId];\n        require(_milestoneIndex < project.milestones.length, \"Invalid milestone index\");\n        \n        uint256 milestoneProjectIndex = project.milestones[_milestoneIndex];\n        Milestone storage milestone = milestones[milestoneProjectIndex];\n\n        return (\n            milestone.description,\n            milestone.targetAmount,\n            milestone.raisedAmount,\n            milestone.isCompleted,\n            milestone.fundsReleased\n        );\n    }\n\n    function getMilestoneAmount(address _address, uint256 _projectId, uint256 _milestoneIndex) external view returns (\n        uint256 donatedAmount\n    ) {\n        Project storage project = projects[_projectId];\n        require(_milestoneIndex < project.milestones.length, \"Invalid milestone index\");\n        \n        uint256 milestoneProjectIndex = project.milestones[_milestoneIndex];\n        Milestone storage milestone = milestones[milestoneProjectIndex];\n\n        return (\n            milestone.donations[_address]\n        );\n    }\n\n    receive() external payable {}\n}",
  "sourcePath": "/Users/robertslipsnis/Desktop/Block/blockchain-for-business-project/contracts/CharityPlatform.sol",
  "compiler": {
    "name": "solc",
    "version": "0.8.21+commit.d9974bed.Emscripten.clang"
  },
  "schemaVersion": "3.4.16",
  "updatedAt": "2025-01-10T13:06:09.769Z",
  "networkType": "ethereum",
  "devdoc": {
    "errors": {
      "AccessControlBadConfirmation()": [
        {
          "details": "The caller of a function is not the expected one. NOTE: Don't confuse with {AccessControlUnauthorizedAccount}."
        }
      ],
      "AccessControlUnauthorizedAccount(address,bytes32)": [
        {
          "details": "The `account` is missing a role."
        }
      ],
      "ReentrancyGuardReentrantCall()": [
        {
          "details": "Unauthorized reentrant call."
        }
      ]
    },
    "events": {
      "RoleAdminChanged(bytes32,bytes32,bytes32)": {
        "details": "Emitted when `newAdminRole` is set as ``role``'s admin role, replacing `previousAdminRole` `DEFAULT_ADMIN_ROLE` is the starting admin for all roles, despite {RoleAdminChanged} not being emitted signaling this."
      },
      "RoleGranted(bytes32,address,address)": {
        "details": "Emitted when `account` is granted `role`. `sender` is the account that originated the contract call. This account bears the admin role (for the granted role). Expected in cases where the role was granted using the internal {AccessControl-_grantRole}."
      },
      "RoleRevoked(bytes32,address,address)": {
        "details": "Emitted when `account` is revoked `role`. `sender` is the account that originated the contract call:   - if using `revokeRole`, it is the admin role bearer   - if using `renounceRole`, it is the role bearer (i.e. `account`)"
      }
    },
    "kind": "dev",
    "methods": {
      "getRoleAdmin(bytes32)": {
        "details": "Returns the admin role that controls `role`. See {grantRole} and {revokeRole}. To change a role's admin, use {_setRoleAdmin}."
      },
      "grantRole(bytes32,address)": {
        "details": "Grants `role` to `account`. If `account` had not been already granted `role`, emits a {RoleGranted} event. Requirements: - the caller must have ``role``'s admin role. May emit a {RoleGranted} event."
      },
      "hasRole(bytes32,address)": {
        "details": "Returns `true` if `account` has been granted `role`."
      },
      "renounceRole(bytes32,address)": {
        "details": "Revokes `role` from the calling account. Roles are often managed via {grantRole} and {revokeRole}: this function's purpose is to provide a mechanism for accounts to lose their privileges if they are compromised (such as when a trusted device is misplaced). If the calling account had been revoked `role`, emits a {RoleRevoked} event. Requirements: - the caller must be `callerConfirmation`. May emit a {RoleRevoked} event."
      },
      "revokeRole(bytes32,address)": {
        "details": "Revokes `role` from `account`. If `account` had been granted `role`, emits a {RoleRevoked} event. Requirements: - the caller must have ``role``'s admin role. May emit a {RoleRevoked} event."
      },
      "supportsInterface(bytes4)": {
        "details": "See {IERC165-supportsInterface}."
      }
    },
    "version": 1
  },
  "userdoc": {
    "kind": "user",
    "methods": {},
    "version": 1
  }
}