{
  "contractName": "CharityPlatform2",
  "abi": [
    {
      "inputs": [
        {
          "internalType": "address",
          "name": "_donationToken",
          "type": "address"
        }
      ],
      "stateMutability": "nonpayable",
      "type": "constructor"
    },
    {
      "inputs": [],
      "name": "AccessControlBadConfirmation",
      "type": "error"
    },
    {
      "inputs": [
        {
          "internalType": "address",
          "name": "account",
          "type": "address"
        },
        {
          "internalType": "bytes32",
          "name": "neededRole",
          "type": "bytes32"
        }
      ],
      "name": "AccessControlUnauthorizedAccount",
      "type": "error"
    },
    {
      "inputs": [],
      "name": "ReentrancyGuardReentrantCall",
      "type": "error"
    },
    {
      "anonymous": false,
      "inputs": [
        {
          "indexed": true,
          "internalType": "uint256",
          "name": "projectId",
          "type": "uint256"
        },
        {
          "indexed": true,
          "internalType": "address",
          "name": "donor",
          "type": "address"
        },
        {
          "indexed": false,
          "internalType": "uint256",
          "name": "amount",
          "type": "uint256"
        }
      ],
      "name": "DonationReceived",
      "type": "event"
    },
    {
      "anonymous": false,
      "inputs": [
        {
          "indexed": true,
          "internalType": "uint256",
          "name": "projectId",
          "type": "uint256"
        },
        {
          "indexed": false,
          "internalType": "uint256",
          "name": "amount",
          "type": "uint256"
        }
      ],
      "name": "FundsReleased",
      "type": "event"
    },
    {
      "anonymous": false,
      "inputs": [
        {
          "indexed": false,
          "internalType": "uint256",
          "name": "milestoneIndex",
          "type": "uint256"
        }
      ],
      "name": "MilestoneCompleted",
      "type": "event"
    },
    {
      "anonymous": false,
      "inputs": [
        {
          "indexed": true,
          "internalType": "uint256",
          "name": "projectId",
          "type": "uint256"
        },
        {
          "indexed": false,
          "internalType": "string",
          "name": "name",
          "type": "string"
        },
        {
          "indexed": false,
          "internalType": "address",
          "name": "charityAddress",
          "type": "address"
        }
      ],
      "name": "ProjectCreated",
      "type": "event"
    },
    {
      "anonymous": false,
      "inputs": [
        {
          "indexed": true,
          "internalType": "uint256",
          "name": "projectId",
          "type": "uint256"
        },
        {
          "indexed": true,
          "internalType": "address",
          "name": "donor",
          "type": "address"
        },
        {
          "indexed": false,
          "internalType": "uint256",
          "name": "amount",
          "type": "uint256"
        }
      ],
      "name": "RefundIssued",
      "type": "event"
    },
    {
      "anonymous": false,
      "inputs": [
        {
          "indexed": true,
          "internalType": "bytes32",
          "name": "role",
          "type": "bytes32"
        },
        {
          "indexed": true,
          "internalType": "bytes32",
          "name": "previousAdminRole",
          "type": "bytes32"
        },
        {
          "indexed": true,
          "internalType": "bytes32",
          "name": "newAdminRole",
          "type": "bytes32"
        }
      ],
      "name": "RoleAdminChanged",
      "type": "event"
    },
    {
      "anonymous": false,
      "inputs": [
        {
          "indexed": true,
          "internalType": "bytes32",
          "name": "role",
          "type": "bytes32"
        },
        {
          "indexed": true,
          "internalType": "address",
          "name": "account",
          "type": "address"
        },
        {
          "indexed": true,
          "internalType": "address",
          "name": "sender",
          "type": "address"
        }
      ],
      "name": "RoleGranted",
      "type": "event"
    },
    {
      "anonymous": false,
      "inputs": [
        {
          "indexed": true,
          "internalType": "bytes32",
          "name": "role",
          "type": "bytes32"
        },
        {
          "indexed": true,
          "internalType": "address",
          "name": "account",
          "type": "address"
        },
        {
          "indexed": true,
          "internalType": "address",
          "name": "sender",
          "type": "address"
        }
      ],
      "name": "RoleRevoked",
      "type": "event"
    },
    {
      "inputs": [],
      "name": "ADMIN_ROLE",
      "outputs": [
        {
          "internalType": "bytes32",
          "name": "",
          "type": "bytes32"
        }
      ],
      "stateMutability": "view",
      "type": "function"
    },
    {
      "inputs": [],
      "name": "CHARITY_ROLE",
      "outputs": [
        {
          "internalType": "bytes32",
          "name": "",
          "type": "bytes32"
        }
      ],
      "stateMutability": "view",
      "type": "function"
    },
    {
      "inputs": [],
      "name": "DEFAULT_ADMIN_ROLE",
      "outputs": [
        {
          "internalType": "bytes32",
          "name": "",
          "type": "bytes32"
        }
      ],
      "stateMutability": "view",
      "type": "function"
    },
    {
      "inputs": [],
      "name": "donationToken",
      "outputs": [
        {
          "internalType": "contract DonationToken",
          "name": "",
          "type": "address"
        }
      ],
      "stateMutability": "view",
      "type": "function"
    },
    {
      "inputs": [
        {
          "internalType": "bytes32",
          "name": "role",
          "type": "bytes32"
        }
      ],
      "name": "getRoleAdmin",
      "outputs": [
        {
          "internalType": "bytes32",
          "name": "",
          "type": "bytes32"
        }
      ],
      "stateMutability": "view",
      "type": "function"
    },
    {
      "inputs": [
        {
          "internalType": "bytes32",
          "name": "role",
          "type": "bytes32"
        },
        {
          "internalType": "address",
          "name": "account",
          "type": "address"
        }
      ],
      "name": "grantRole",
      "outputs": [],
      "stateMutability": "nonpayable",
      "type": "function"
    },
    {
      "inputs": [
        {
          "internalType": "bytes32",
          "name": "role",
          "type": "bytes32"
        },
        {
          "internalType": "address",
          "name": "account",
          "type": "address"
        }
      ],
      "name": "hasRole",
      "outputs": [
        {
          "internalType": "bool",
          "name": "",
          "type": "bool"
        }
      ],
      "stateMutability": "view",
      "type": "function"
    },
    {
      "inputs": [
        {
          "internalType": "uint256",
          "name": "",
          "type": "uint256"
        }
      ],
      "name": "milestones",
      "outputs": [
        {
          "internalType": "uint256",
          "name": "id",
          "type": "uint256"
        },
        {
          "internalType": "uint256",
          "name": "projectId",
          "type": "uint256"
        },
        {
          "internalType": "string",
          "name": "description",
          "type": "string"
        },
        {
          "internalType": "uint256",
          "name": "targetAmount",
          "type": "uint256"
        },
        {
          "internalType": "uint256",
          "name": "raisedAmount",
          "type": "uint256"
        },
        {
          "internalType": "bool",
          "name": "isCompleted",
          "type": "bool"
        },
        {
          "internalType": "bool",
          "name": "fundsReleased",
          "type": "bool"
        }
      ],
      "stateMutability": "view",
      "type": "function"
    },
    {
      "inputs": [],
      "name": "milestonesCount",
      "outputs": [
        {
          "internalType": "uint256",
          "name": "",
          "type": "uint256"
        }
      ],
      "stateMutability": "view",
      "type": "function"
    },
    {
      "inputs": [],
      "name": "projectCount",
      "outputs": [
        {
          "internalType": "uint256",
          "name": "",
          "type": "uint256"
        }
      ],
      "stateMutability": "view",
      "type": "function"
    },
    {
      "inputs": [
        {
          "internalType": "uint256",
          "name": "",
          "type": "uint256"
        }
      ],
      "name": "projectIds",
      "outputs": [
        {
          "internalType": "uint256",
          "name": "",
          "type": "uint256"
        }
      ],
      "stateMutability": "view",
      "type": "function"
    },
    {
      "inputs": [
        {
          "internalType": "uint256",
          "name": "",
          "type": "uint256"
        }
      ],
      "name": "projects",
      "outputs": [
        {
          "internalType": "uint256",
          "name": "id",
          "type": "uint256"
        },
        {
          "internalType": "string",
          "name": "name",
          "type": "string"
        },
        {
          "internalType": "address",
          "name": "charityAddress",
          "type": "address"
        },
        {
          "internalType": "uint256",
          "name": "goalAmount",
          "type": "uint256"
        },
        {
          "internalType": "uint256",
          "name": "raisedAmount",
          "type": "uint256"
        },
        {
          "internalType": "bool",
          "name": "isActive",
          "type": "bool"
        }
      ],
      "stateMutability": "view",
      "type": "function"
    },
    {
      "inputs": [
        {
          "internalType": "bytes32",
          "name": "role",
          "type": "bytes32"
        },
        {
          "internalType": "address",
          "name": "callerConfirmation",
          "type": "address"
        }
      ],
      "name": "renounceRole",
      "outputs": [],
      "stateMutability": "nonpayable",
      "type": "function"
    },
    {
      "inputs": [
        {
          "internalType": "bytes32",
          "name": "role",
          "type": "bytes32"
        },
        {
          "internalType": "address",
          "name": "account",
          "type": "address"
        }
      ],
      "name": "revokeRole",
      "outputs": [],
      "stateMutability": "nonpayable",
      "type": "function"
    },
    {
      "inputs": [
        {
          "internalType": "bytes4",
          "name": "interfaceId",
          "type": "bytes4"
        }
      ],
      "name": "supportsInterface",
      "outputs": [
        {
          "internalType": "bool",
          "name": "",
          "type": "bool"
        }
      ],
      "stateMutability": "view",
      "type": "function"
    },
    {
      "stateMutability": "payable",
      "type": "receive"
    },
    {
      "inputs": [
        {
          "internalType": "address",
          "name": "_address",
          "type": "address"
        },
        {
          "internalType": "string",
          "name": "_name",
          "type": "string"
        },
        {
          "internalType": "uint256",
          "name": "_goalAmount",
          "type": "uint256"
        },
        {
          "internalType": "string[]",
          "name": "_milestoneDescriptions",
          "type": "string[]"
        },
        {
          "internalType": "uint256[]",
          "name": "_milestoneTargets",
          "type": "uint256[]"
        }
      ],
      "name": "createProject",
      "outputs": [],
      "stateMutability": "nonpayable",
      "type": "function"
    },
    {
      "inputs": [
        {
          "internalType": "uint256",
          "name": "_projectId",
          "type": "uint256"
        },
        {
          "internalType": "uint256",
          "name": "_milestoneId",
          "type": "uint256"
        },
        {
          "internalType": "address",
          "name": "_donor",
          "type": "address"
        },
        {
          "internalType": "address",
          "name": "_recipient",
          "type": "address"
        }
      ],
      "name": "donate",
      "outputs": [],
      "stateMutability": "payable",
      "type": "function"
    },
    {
      "inputs": [
        {
          "internalType": "uint256",
          "name": "_projectId",
          "type": "uint256"
        }
      ],
      "name": "requestRefund",
      "outputs": [],
      "stateMutability": "nonpayable",
      "type": "function"
    },
    {
      "inputs": [
        {
          "internalType": "uint256",
          "name": "_projectId",
          "type": "uint256"
        }
      ],
      "name": "deactivateProject",
      "outputs": [],
      "stateMutability": "nonpayable",
      "type": "function"
    },
    {
      "inputs": [
        {
          "internalType": "address",
          "name": "_charityAddress",
          "type": "address"
        }
      ],
      "name": "addCharity",
      "outputs": [],
      "stateMutability": "nonpayable",
      "type": "function"
    },
    {
      "inputs": [
        {
          "internalType": "address",
          "name": "_charityAddress",
          "type": "address"
        }
      ],
      "name": "removeCharity",
      "outputs": [],
      "stateMutability": "nonpayable",
      "type": "function"
    },
    {
      "inputs": [
        {
          "internalType": "uint256",
          "name": "_projectId",
          "type": "uint256"
        }
      ],
      "name": "getProject",
      "outputs": [
        {
          "internalType": "string",
          "name": "name",
          "type": "string"
        },
        {
          "internalType": "address",
          "name": "charityAddress",
          "type": "address"
        },
        {
          "internalType": "uint256",
          "name": "goalAmount",
          "type": "uint256"
        },
        {
          "internalType": "uint256",
          "name": "raisedAmount",
          "type": "uint256"
        },
        {
          "internalType": "bool",
          "name": "isActive",
          "type": "bool"
        },
        {
          "internalType": "uint256",
          "name": "milestoneCount",
          "type": "uint256"
        }
      ],
      "stateMutability": "view",
      "type": "function"
    },
    {
      "inputs": [
        {
          "internalType": "uint256",
          "name": "_projectId",
          "type": "uint256"
        },
        {
          "internalType": "address",
          "name": "_donor",
          "type": "address"
        }
      ],
      "name": "getProjectDonations",
      "outputs": [
        {
          "internalType": "uint256",
          "name": "donorAmount",
          "type": "uint256"
        }
      ],
      "stateMutability": "view",
      "type": "function"
    },
    {
      "inputs": [],
      "name": "getProjects",
      "outputs": [
        {
          "internalType": "string[]",
          "name": "name",
          "type": "string[]"
        },
        {
          "internalType": "address[]",
          "name": "charityAddress",
          "type": "address[]"
        },
        {
          "internalType": "uint256[]",
          "name": "goalAmount",
          "type": "uint256[]"
        },
        {
          "internalType": "uint256[]",
          "name": "raisedAmount",
          "type": "uint256[]"
        },
        {
          "internalType": "bool[]",
          "name": "isActive",
          "type": "bool[]"
        },
        {
          "internalType": "uint256[]",
          "name": "milestoneCount",
          "type": "uint256[]"
        }
      ],
      "stateMutability": "view",
      "type": "function"
    },
    {
      "inputs": [
        {
          "internalType": "address",
          "name": "_donor",
          "type": "address"
        }
      ],
      "name": "getMyDonationProjectIds",
      "outputs": [
        {
          "internalType": "uint256[]",
          "name": "id",
          "type": "uint256[]"
        }
      ],
      "stateMutability": "view",
      "type": "function"
    },
    {
      "inputs": [
        {
          "internalType": "uint256",
          "name": "_projectId",
          "type": "uint256"
        },
        {
          "internalType": "address",
          "name": "_donor",
          "type": "address"
        }
      ],
      "name": "getMyDonationProject",
      "outputs": [
        {
          "internalType": "string",
          "name": "name",
          "type": "string"
        },
        {
          "internalType": "address",
          "name": "charityAddress",
          "type": "address"
        },
        {
          "internalType": "uint256",
          "name": "goalAmount",
          "type": "uint256"
        },
        {
          "internalType": "uint256",
          "name": "raisedAmount",
          "type": "uint256"
        },
        {
          "internalType": "bool",
          "name": "isActive",
          "type": "bool"
        },
        {
          "internalType": "uint256",
          "name": "milestoneCount",
          "type": "uint256"
        },
        {
          "internalType": "uint256",
          "name": "donorAmount",
          "type": "uint256"
        }
      ],
      "stateMutability": "view",
      "type": "function"
    },
    {
      "inputs": [
        {
          "internalType": "address",
          "name": "_address",
          "type": "address"
        }
      ],
      "name": "getMyCharityProjectIds",
      "outputs": [
        {
          "internalType": "uint256[]",
          "name": "id",
          "type": "uint256[]"
        }
      ],
      "stateMutability": "view",
      "type": "function"
    },
    {
      "inputs": [
        {
          "internalType": "uint256",
          "name": "_projectId",
          "type": "uint256"
        },
        {
          "internalType": "uint256",
          "name": "_milestoneIndex",
          "type": "uint256"
        }
      ],
      "name": "getMilestone",
      "outputs": [
        {
          "internalType": "string",
          "name": "description",
          "type": "string"
        },
        {
          "internalType": "uint256",
          "name": "targetAmount",
          "type": "uint256"
        },
        {
          "internalType": "uint256",
          "name": "raisedAmount",
          "type": "uint256"
        },
        {
          "internalType": "bool",
          "name": "isCompleted",
          "type": "bool"
        },
        {
          "internalType": "bool",
          "name": "fundsReleased",
          "type": "bool"
        }
      ],
      "stateMutability": "view",
      "type": "function"
    },
    {
      "inputs": [
        {
          "internalType": "address",
          "name": "_address",
          "type": "address"
        },
        {
          "internalType": "uint256",
          "name": "_projectId",
          "type": "uint256"
        },
        {
          "internalType": "uint256",
          "name": "_milestoneIndex",
          "type": "uint256"
        }
      ],
      "name": "getMilestoneAmount",
      "outputs": [
        {
          "internalType": "uint256",
          "name": "donatedAmount",
          "type": "uint256"
        }
      ],
      "stateMutability": "view",
      "type": "function"
    }
  ],
  "bytecode": "0x60806040523480156200001157600080fd5b50604051620040f6380380620040f68339818101604052810190620000379190620002c0565b6001600081905550620000546000801b33620000e060201b60201c565b50620000877fa49807205ce4d355092ef5a8a18f56e8913cf4a201fbe287825b095693c2177533620000e060201b60201c565b5080600260006101000a81548173ffffffffffffffffffffffffffffffffffffffff021916908373ffffffffffffffffffffffffffffffffffffffff1602179055506000600681905550600060078190555050620002f2565b6000620000f48383620001e360201b60201c565b620001d857600180600085815260200190815260200160002060000160008473ffffffffffffffffffffffffffffffffffffffff1673ffffffffffffffffffffffffffffffffffffffff16815260200190815260200160002060006101000a81548160ff021916908315150217905550620001746200024e60201b60201c565b73ffffffffffffffffffffffffffffffffffffffff168273ffffffffffffffffffffffffffffffffffffffff16847f2f8788117e7eff1d82e926ec794901d17c78024a50270940304540a733656f0d60405160405180910390a460019050620001dd565b600090505b92915050565b60006001600084815260200190815260200160002060000160008373ffffffffffffffffffffffffffffffffffffffff1673ffffffffffffffffffffffffffffffffffffffff16815260200190815260200160002060009054906101000a900460ff16905092915050565b600033905090565b600080fd5b600073ffffffffffffffffffffffffffffffffffffffff82169050919050565b600062000288826200025b565b9050919050565b6200029a816200027b565b8114620002a657600080fd5b50565b600081519050620002ba816200028f565b92915050565b600060208284031215620002d957620002d862000256565b5b6000620002e984828501620002a9565b91505092915050565b613df480620003026000396000f3fe6080604052600436106101c65760003560e01c80638ed9895c116100f7578063ac350c5911610095578063dcc6012811610064578063dcc60128146106a9578063dd36341a146106d9578063e89e4ed614610716578063f0f3f2c814610759576101cd565b8063ac350c59146105c3578063ca314f1d14610600578063d358d8e91461063d578063d547741f14610680576101cd565b8063a4b2409e116100d1578063a4b2409e1461052a578063aa974f3714610553578063ab36e4a61461056f578063abefe5911461059a576101cd565b80638ed9895c1461048157806391d14854146104c2578063a217fddf146104ff576101cd565b8063436e6958116101645780636f0c80671161013e5780636f0c8067146103c557806371b8ab32146103f057806375b238fc1461042d57806378b14f0a14610458576101cd565b8063436e69581461033657806348c35ad41461035f5780636cd0b5d11461039c576101cd565b8063248a9ca3116101a0578063248a9ca31461027c5780632f2ff15d146102b957806336568abe146102e257806336fbad261461030b576101cd565b806301ffc9a7146101d25780630df721591461020f578063107046bd1461023a576101cd565b366101cd57005b600080fd5b3480156101de57600080fd5b506101f960048036038101906101f49190612649565b61079b565b6040516102069190612691565b60405180910390f35b34801561021b57600080fd5b50610224610815565b604051610231919061272b565b60405180910390f35b34801561024657600080fd5b50610261600480360381019061025c919061277c565b61083b565b60405161027396959493929190612869565b60405180910390f35b34801561028857600080fd5b506102a3600480360381019061029e9190612907565b61092c565b6040516102b09190612943565b60405180910390f35b3480156102c557600080fd5b506102e060048036038101906102db919061298a565b61094c565b005b3480156102ee57600080fd5b506103096004803603810190610304919061298a565b61096e565b005b34801561031757600080fd5b506103206109e9565b60405161032d91906129ca565b60405180910390f35b34801561034257600080fd5b5061035d6004803603810190610358919061277c565b6109ef565b005b34801561036b57600080fd5b506103866004803603810190610381919061277c565b610aa3565b60405161039391906129ca565b60405180910390f35b3480156103a857600080fd5b506103c360048036038101906103be9190612cc3565b610ac7565b005b3480156103d157600080fd5b506103da610cbd565b6040516103e79190612943565b60405180910390f35b3480156103fc57600080fd5b5061041760048036038101906104129190612d92565b610ce1565b6040516104249190612e7d565b60405180910390f35b34801561043957600080fd5b50610442610df8565b60405161044f9190612943565b60405180910390f35b34801561046457600080fd5b5061047f600480360381019061047a9190612d92565b610e1c565b005b34801561048d57600080fd5b506104a860048036038101906104a39190612e9f565b610e75565b6040516104b9959493929190612edf565b60405180910390f35b3480156104ce57600080fd5b506104e960048036038101906104e4919061298a565b610fee565b6040516104f69190612691565b60405180910390f35b34801561050b57600080fd5b50610514611059565b6040516105219190612943565b60405180910390f35b34801561053657600080fd5b50610551600480360381019061054c919061277c565b611060565b005b61056d60048036038101906105689190612f39565b6112aa565b005b34801561057b57600080fd5b5061058461163b565b60405161059191906129ca565b60405180910390f35b3480156105a657600080fd5b506105c160048036038101906105bc9190612d92565b611641565b005b3480156105cf57600080fd5b506105ea60048036038101906105e59190612d92565b611699565b6040516105f79190612e7d565b60405180910390f35b34801561060c57600080fd5b5061062760048036038101906106229190612fa0565b6117d8565b60405161063491906129ca565b60405180910390f35b34801561064957600080fd5b50610664600480360381019061065f9190612ff3565b6118c3565b6040516106779796959493929190613033565b60405180910390f35b34801561068c57600080fd5b506106a760048036038101906106a2919061298a565b611a21565b005b3480156106b557600080fd5b506106be611a43565b6040516106d096959493929190613331565b60405180910390f35b3480156106e557600080fd5b5061070060048036038101906106fb9190612ff3565b611e9b565b60405161070d91906129ca565b60405180910390f35b34801561072257600080fd5b5061073d6004803603810190610738919061277c565b611f04565b60405161075097969594939291906133bc565b60405180910390f35b34801561076557600080fd5b50610780600480360381019061077b919061277c565b611fe8565b60405161079296959493929190613432565b60405180910390f35b60007f7965db0b000000000000000000000000000000000000000000000000000000007bffffffffffffffffffffffffffffffffffffffffffffffffffffffff1916827bffffffffffffffffffffffffffffffffffffffffffffffffffffffff1916148061080e575061080d826120f7565b5b9050919050565b600260009054906101000a900473ffffffffffffffffffffffffffffffffffffffff1681565b6003602052806000526040600020600091509050806000015490806001018054610864906134c9565b80601f0160208091040260200160405190810160405280929190818152602001828054610890906134c9565b80156108dd5780601f106108b2576101008083540402835291602001916108dd565b820191906000526020600020905b8154815290600101906020018083116108c057829003601f168201915b5050505050908060020160009054906101000a900473ffffffffffffffffffffffffffffffffffffffff16908060030154908060040154908060050160009054906101000a900460ff16905086565b600060016000838152602001908152602001600020600101549050919050565b6109558261092c565b61095e81612161565b6109688383612175565b50505050565b610976612266565b73ffffffffffffffffffffffffffffffffffffffff168173ffffffffffffffffffffffffffffffffffffffff16146109da576040517f6697b23200000000000000000000000000000000000000000000000000000000815260040160405180910390fd5b6109e4828261226e565b505050565b60065481565b7fa49807205ce4d355092ef5a8a18f56e8913cf4a201fbe287825b095693c21775610a1981612161565b60006003600084815260200190815260200160002090508060050160009054906101000a900460ff16610a81576040517f08c379a0000000000000000000000000000000000000000000000000000000008152600401610a7890613546565b60405180910390fd5b60008160050160006101000a81548160ff021916908315150217905550505050565b60048181548110610ab357600080fd5b906000526020600020016000915090505481565b7f838cb9e68162e54d2dfda44baa96273d8a6cb729c0d42995215e0f52841feb77610af181612161565b8151835114610b35576040517f08c379a0000000000000000000000000000000000000000000000000000000008152600401610b2c906135b2565b60405180910390fd5b60066000815480929190610b4890613601565b91905055506000600360006006548152602001908152602001600020905060046006549080600181540180825580915050600190039060005260206000200160009091909190915055600654816000018190555085816001019081610bad91906137eb565b50868160020160006101000a81548173ffffffffffffffffffffffffffffffffffffffff021916908373ffffffffffffffffffffffffffffffffffffffff16021790555084816003018190555060018160050160006101000a81548160ff02191690831515021790555060005b8451811015610c7757610c64858281518110610c3957610c386138bd565b5b6020026020010151858381518110610c5457610c536138bd565b5b6020026020010151600654612361565b8080610c6f90613601565b915050610c1a565b506006547fc0c54fed07481d0998e1446b2c13759606bf4f26b78306307413ac4c4309aa828789604051610cac9291906138ec565b60405180910390a250505050505050565b7f838cb9e68162e54d2dfda44baa96273d8a6cb729c0d42995215e0f52841feb7781565b606060008067ffffffffffffffff811115610cff57610cfe6129ef565b5b604051908082528060200260200182016040528015610d2d5781602001602082028036833780820191505090505b509050600080600190505b6001600654610d47919061391c565b811015610ded5760006003600083815260200190815260200160002060070160008773ffffffffffffffffffffffffffffffffffffffff1673ffffffffffffffffffffffffffffffffffffffff168152602001908152602001600020541115610dda5780838381518110610dbe57610dbd6138bd565b5b602002602001018181525050600182610dd7919061391c565b91505b8080610de590613601565b915050610d38565b508192505050919050565b7fa49807205ce4d355092ef5a8a18f56e8913cf4a201fbe287825b095693c2177581565b7fa49807205ce4d355092ef5a8a18f56e8913cf4a201fbe287825b095693c21775610e4681612161565b610e707f838cb9e68162e54d2dfda44baa96273d8a6cb729c0d42995215e0f52841feb7783612175565b505050565b6060600080600080600060036000898152602001908152602001600020905080600601805490508710610edd576040517f08c379a0000000000000000000000000000000000000000000000000000000008152600401610ed49061399c565b60405180910390fd5b6000816006018881548110610ef557610ef46138bd565b5b90600052602060002001549050600060056000838152602001908152602001600020905080600201816003015482600401548360050160009054906101000a900460ff168460050160019054906101000a900460ff16848054610f57906134c9565b80601f0160208091040260200160405190810160405280929190818152602001828054610f83906134c9565b8015610fd05780601f10610fa557610100808354040283529160200191610fd0565b820191906000526020600020905b815481529060010190602001808311610fb357829003601f168201915b50505050509450975097509750975097505050509295509295909350565b60006001600084815260200190815260200160002060000160008373ffffffffffffffffffffffffffffffffffffffff1673ffffffffffffffffffffffffffffffffffffffff16815260200190815260200160002060009054906101000a900460ff16905092915050565b6000801b81565b61106861247b565b60006003600083815260200190815260200160002090508060050160009054906101000a900460ff16156110d1576040517f08c379a00000000000000000000000000000000000000000000000000000000081526004016110c890613a08565b60405180910390fd5b60008160070160003373ffffffffffffffffffffffffffffffffffffffff1673ffffffffffffffffffffffffffffffffffffffff1681526020019081526020016000205490506000811161115a576040517f08c379a000000000000000000000000000000000000000000000000000000000815260040161115190613a74565b60405180910390fd5b60008260070160003373ffffffffffffffffffffffffffffffffffffffff1673ffffffffffffffffffffffffffffffffffffffff1681526020019081526020016000208190555060003373ffffffffffffffffffffffffffffffffffffffff16826040516111c790613ac5565b60006040518083038185875af1925050503d8060008114611204576040519150601f19603f3d011682016040523d82523d6000602084013e611209565b606091505b505090508061124d576040517f08c379a000000000000000000000000000000000000000000000000000000000815260040161124490613b26565b60405180910390fd5b3373ffffffffffffffffffffffffffffffffffffffff16847f7a482fdeb6bc9a1376f597068a214a7a39472bb2eff1b8cad21ba04f49ddca1b8460405161129491906129ca565b60405180910390a35050506112a76124c1565b50565b6112b261247b565b60006003600086815260200190815260200160002090508060050160009054906101000a900460ff1661131a576040517f08c379a000000000000000000000000000000000000000000000000000000000815260040161131190613b92565b60405180910390fd5b6000341161135d576040517f08c379a000000000000000000000000000000000000000000000000000000000815260040161135490613c24565b60405180910390fd5b600082905060008173ffffffffffffffffffffffffffffffffffffffff166108fc349081150290604051600060405180830381858888f193505050509050806113db576040517f08c379a00000000000000000000000000000000000000000000000000000000081526004016113d290613c90565b60405180910390fd5b348360070160008773ffffffffffffffffffffffffffffffffffffffff1673ffffffffffffffffffffffffffffffffffffffff168152602001908152602001600020600082825461142c919061391c565b9250508190555034836004016000828254611447919061391c565b92505081905550600260009054906101000a900473ffffffffffffffffffffffffffffffffffffffff1673ffffffffffffffffffffffffffffffffffffffff1663156e29f68689346040518463ffffffff1660e01b81526004016114ad93929190613cb0565b6020604051808303816000875af11580156114cc573d6000803e3d6000fd5b505050506040513d601f19601f820116820180604052508101906114f09190613cfc565b506000836006018781548110611509576115086138bd565b5b906000526020600020015490506000600560008381526020019081526020016000209050348160060160008973ffffffffffffffffffffffffffffffffffffffff1673ffffffffffffffffffffffffffffffffffffffff168152602001908152602001600020600082825461157e919061391c565b9250508190555034816004016000828254611599919061391c565b925050819055508673ffffffffffffffffffffffffffffffffffffffff16897f0b5b4c52969ff7329ecf7ee536409fda87812b15a8622bc6e8cdeab3aee14a26346040516115e791906129ca565b60405180910390a38060030154816004015414801561161557508060050160009054906101000a900460ff16155b156116285761162781600001546124cb565b5b50505050506116356124c1565b50505050565b60075481565b7fa49807205ce4d355092ef5a8a18f56e8913cf4a201fbe287825b095693c2177561166b81612161565b6116957f838cb9e68162e54d2dfda44baa96273d8a6cb729c0d42995215e0f52841feb7783611a21565b5050565b606060008067ffffffffffffffff8111156116b7576116b66129ef565b5b6040519080825280602002602001820160405280156116e55781602001602082028036833780820191505090505b5090506000600190506000600190505b6001600654611704919061391c565b8110156117cd578473ffffffffffffffffffffffffffffffffffffffff166003600083815260200190815260200160002060020160009054906101000a900473ffffffffffffffffffffffffffffffffffffffff1673ffffffffffffffffffffffffffffffffffffffff16036117ba57600360008281526020019081526020016000206000015483838151811061179e5761179d6138bd565b5b6020026020010181815250506001826117b7919061391c565b91505b80806117c590613601565b9150506116f5565b508192505050919050565b60008060036000858152602001908152602001600020905080600601805490508310611839576040517f08c379a00000000000000000000000000000000000000000000000000000000081526004016118309061399c565b60405180910390fd5b6000816006018481548110611851576118506138bd565b5b9060005260206000200154905060006005600083815260200190815260200160002090508060060160008873ffffffffffffffffffffffffffffffffffffffff1673ffffffffffffffffffffffffffffffffffffffff1681526020019081526020016000205493505050509392505050565b60606000806000806000806000600360008b8152602001908152602001600020905060008160070160008b73ffffffffffffffffffffffffffffffffffffffff1673ffffffffffffffffffffffffffffffffffffffff168152602001908152602001600020549050816001018260020160009054906101000a900473ffffffffffffffffffffffffffffffffffffffff16836003015484600401548560050160009054906101000a900460ff16866006018054905086868054611985906134c9565b80601f01602080910402602001604051908101604052809291908181526020018280546119b1906134c9565b80156119fe5780601f106119d3576101008083540402835291602001916119fe565b820191906000526020600020905b8154815290600101906020018083116119e157829003601f168201915b505050505096509850985098509850985098509850505092959891949750929550565b611a2a8261092c565b611a3381612161565b611a3d838361226e565b50505050565b606080606080606080600060065467ffffffffffffffff811115611a6a57611a696129ef565b5b604051908082528060200260200182016040528015611a9d57816020015b6060815260200190600190039081611a885790505b509050600060065467ffffffffffffffff811115611abe57611abd6129ef565b5b604051908082528060200260200182016040528015611aec5781602001602082028036833780820191505090505b509050600060065467ffffffffffffffff811115611b0d57611b0c6129ef565b5b604051908082528060200260200182016040528015611b3b5781602001602082028036833780820191505090505b509050600060065467ffffffffffffffff811115611b5c57611b5b6129ef565b5b604051908082528060200260200182016040528015611b8a5781602001602082028036833780820191505090505b509050600060065467ffffffffffffffff811115611bab57611baa6129ef565b5b604051908082528060200260200182016040528015611bd95781602001602082028036833780820191505090505b509050600060065467ffffffffffffffff811115611bfa57611bf96129ef565b5b604051908082528060200260200182016040528015611c285781602001602082028036833780820191505090505b50905060005b600654811015611e7a57600360008281526020019081526020016000206001018054611c59906134c9565b80601f0160208091040260200160405190810160405280929190818152602001828054611c85906134c9565b8015611cd25780601f10611ca757610100808354040283529160200191611cd2565b820191906000526020600020905b815481529060010190602001808311611cb557829003601f168201915b5050505050878281518110611cea57611ce96138bd565b5b60200260200101819052506003600082815260200190815260200160002060020160009054906101000a900473ffffffffffffffffffffffffffffffffffffffff16868281518110611d3f57611d3e6138bd565b5b602002602001019073ffffffffffffffffffffffffffffffffffffffff16908173ffffffffffffffffffffffffffffffffffffffff16815250506003600082815260200190815260200160002060030154858281518110611da357611da26138bd565b5b6020026020010181815250506003600082815260200190815260200160002060040154848281518110611dd957611dd86138bd565b5b6020026020010181815250506003600082815260200190815260200160002060050160009054906101000a900460ff16838281518110611e1c57611e1b6138bd565b5b6020026020010190151590811515815250506003600082815260200190815260200160002060060180549050828281518110611e5b57611e5a6138bd565b5b6020026020010181815250508080611e7290613601565b915050611c2e565b508585858585859b509b509b509b509b509b50505050505050909192939495565b60008060036000858152602001908152602001600020905060008160070160008573ffffffffffffffffffffffffffffffffffffffff1673ffffffffffffffffffffffffffffffffffffffff168152602001908152602001600020549050809250505092915050565b6005602052806000526040600020600091509050806000015490806001015490806002018054611f33906134c9565b80601f0160208091040260200160405190810160405280929190818152602001828054611f5f906134c9565b8015611fac5780601f10611f8157610100808354040283529160200191611fac565b820191906000526020600020905b815481529060010190602001808311611f8f57829003601f168201915b5050505050908060030154908060040154908060050160009054906101000a900460ff16908060050160019054906101000a900460ff16905087565b6060600080600080600080600360008981526020019081526020016000209050806001018160020160009054906101000a900473ffffffffffffffffffffffffffffffffffffffff16826003015483600401548460050160009054906101000a900460ff168560060180549050858054612061906134c9565b80601f016020809104026020016040519081016040528092919081815260200182805461208d906134c9565b80156120da5780601f106120af576101008083540402835291602001916120da565b820191906000526020600020905b8154815290600101906020018083116120bd57829003601f168201915b505050505095509650965096509650965096505091939550919395565b60007f01ffc9a7000000000000000000000000000000000000000000000000000000007bffffffffffffffffffffffffffffffffffffffffffffffffffffffff1916827bffffffffffffffffffffffffffffffffffffffffffffffffffffffff1916149050919050565b6121728161216d612266565b61258c565b50565b60006121818383610fee565b61225b57600180600085815260200190815260200160002060000160008473ffffffffffffffffffffffffffffffffffffffff1673ffffffffffffffffffffffffffffffffffffffff16815260200190815260200160002060006101000a81548160ff0219169083151502179055506121f8612266565b73ffffffffffffffffffffffffffffffffffffffff168273ffffffffffffffffffffffffffffffffffffffff16847f2f8788117e7eff1d82e926ec794901d17c78024a50270940304540a733656f0d60405160405180910390a460019050612260565b600090505b92915050565b600033905090565b600061227a8383610fee565b156123565760006001600085815260200190815260200160002060000160008473ffffffffffffffffffffffffffffffffffffffff1673ffffffffffffffffffffffffffffffffffffffff16815260200190815260200160002060006101000a81548160ff0219169083151502179055506122f3612266565b73ffffffffffffffffffffffffffffffffffffffff168273ffffffffffffffffffffffffffffffffffffffff16847ff6391f5c32d9c69d2a47ea670b442974b53935d1edc7fd64eb21e047a839171b60405160405180910390a46001905061235b565b600090505b92915050565b7f838cb9e68162e54d2dfda44baa96273d8a6cb729c0d42995215e0f52841feb7761238b81612161565b6007600081548092919061239e90613601565b9190505550600060056000600754815260200190815260200160002090506007548160000181905550828160010181905550848160020190816123e191906137eb565b508381600301819055506000816004018190555060008160050160006101000a81548160ff02191690831515021790555060008160050160016101000a81548160ff0219169083151502179055506000600360008581526020019081526020016000209050806006016007549080600181540180825580915050600190039060005260206000200160009091909190915055505050505050565b6002600054036124b7576040517f3ee5aeb500000000000000000000000000000000000000000000000000000000815260040160405180910390fd5b6002600081905550565b6001600081905550565b60006005600083815260200190815260200160002090508060050160009054906101000a900460ff1615612534576040517f08c379a000000000000000000000000000000000000000000000000000000000815260040161252b90613d75565b60405180910390fd5b60018160050160006101000a81548160ff0219169083151502179055507f41f5e423c5ae79dcb8565618891e74a7a6e76232568150b33d79001a62391b1e8260405161258091906129ca565b60405180910390a15050565b6125968282610fee565b6125d95780826040517fe2517d3f0000000000000000000000000000000000000000000000000000000081526004016125d0929190613d95565b60405180910390fd5b5050565b6000604051905090565b600080fd5b600080fd5b60007fffffffff0000000000000000000000000000000000000000000000000000000082169050919050565b612626816125f1565b811461263157600080fd5b50565b6000813590506126438161261d565b92915050565b60006020828403121561265f5761265e6125e7565b5b600061266d84828501612634565b91505092915050565b60008115159050919050565b61268b81612676565b82525050565b60006020820190506126a66000830184612682565b92915050565b600073ffffffffffffffffffffffffffffffffffffffff82169050919050565b6000819050919050565b60006126f16126ec6126e7846126ac565b6126cc565b6126ac565b9050919050565b6000612703826126d6565b9050919050565b6000612715826126f8565b9050919050565b6127258161270a565b82525050565b6000602082019050612740600083018461271c565b92915050565b6000819050919050565b61275981612746565b811461276457600080fd5b50565b60008135905061277681612750565b92915050565b600060208284031215612792576127916125e7565b5b60006127a084828501612767565b91505092915050565b6127b281612746565b82525050565b600081519050919050565b600082825260208201905092915050565b60005b838110156127f25780820151818401526020810190506127d7565b60008484015250505050565b6000601f19601f8301169050919050565b600061281a826127b8565b61282481856127c3565b93506128348185602086016127d4565b61283d816127fe565b840191505092915050565b6000612853826126ac565b9050919050565b61286381612848565b82525050565b600060c08201905061287e60008301896127a9565b8181036020830152612890818861280f565b905061289f604083018761285a565b6128ac60608301866127a9565b6128b960808301856127a9565b6128c660a0830184612682565b979650505050505050565b6000819050919050565b6128e4816128d1565b81146128ef57600080fd5b50565b600081359050612901816128db565b92915050565b60006020828403121561291d5761291c6125e7565b5b600061292b848285016128f2565b91505092915050565b61293d816128d1565b82525050565b60006020820190506129586000830184612934565b92915050565b61296781612848565b811461297257600080fd5b50565b6000813590506129848161295e565b92915050565b600080604083850312156129a1576129a06125e7565b5b60006129af858286016128f2565b92505060206129c085828601612975565b9150509250929050565b60006020820190506129df60008301846127a9565b92915050565b600080fd5b600080fd5b7f4e487b7100000000000000000000000000000000000000000000000000000000600052604160045260246000fd5b612a27826127fe565b810181811067ffffffffffffffff82111715612a4657612a456129ef565b5b80604052505050565b6000612a596125dd565b9050612a658282612a1e565b919050565b600067ffffffffffffffff821115612a8557612a846129ef565b5b612a8e826127fe565b9050602081019050919050565b82818337600083830152505050565b6000612abd612ab884612a6a565b612a4f565b905082815260208101848484011115612ad957612ad86129ea565b5b612ae4848285612a9b565b509392505050565b600082601f830112612b0157612b006129e5565b5b8135612b11848260208601612aaa565b91505092915050565b600067ffffffffffffffff821115612b3557612b346129ef565b5b602082029050602081019050919050565b600080fd5b6000612b5e612b5984612b1a565b612a4f565b90508083825260208201905060208402830185811115612b8157612b80612b46565b5b835b81811015612bc857803567ffffffffffffffff811115612ba657612ba56129e5565b5b808601612bb38982612aec565b85526020850194505050602081019050612b83565b5050509392505050565b600082601f830112612be757612be66129e5565b5b8135612bf7848260208601612b4b565b91505092915050565b600067ffffffffffffffff821115612c1b57612c1a6129ef565b5b602082029050602081019050919050565b6000612c3f612c3a84612c00565b612a4f565b90508083825260208201905060208402830185811115612c6257612c61612b46565b5b835b81811015612c8b5780612c778882612767565b845260208401935050602081019050612c64565b5050509392505050565b600082601f830112612caa57612ca96129e5565b5b8135612cba848260208601612c2c565b91505092915050565b600080600080600060a08688031215612cdf57612cde6125e7565b5b6000612ced88828901612975565b955050602086013567ffffffffffffffff811115612d0e57612d0d6125ec565b5b612d1a88828901612aec565b9450506040612d2b88828901612767565b935050606086013567ffffffffffffffff811115612d4c57612d4b6125ec565b5b612d5888828901612bd2565b925050608086013567ffffffffffffffff811115612d7957612d786125ec565b5b612d8588828901612c95565b9150509295509295909350565b600060208284031215612da857612da76125e7565b5b6000612db684828501612975565b91505092915050565b600081519050919050565b600082825260208201905092915050565b6000819050602082019050919050565b612df481612746565b82525050565b6000612e068383612deb565b60208301905092915050565b6000602082019050919050565b6000612e2a82612dbf565b612e348185612dca565b9350612e3f83612ddb565b8060005b83811015612e70578151612e578882612dfa565b9750612e6283612e12565b925050600181019050612e43565b5085935050505092915050565b60006020820190508181036000830152612e978184612e1f565b905092915050565b60008060408385031215612eb657612eb56125e7565b5b6000612ec485828601612767565b9250506020612ed585828601612767565b9150509250929050565b600060a0820190508181036000830152612ef9818861280f565b9050612f0860208301876127a9565b612f1560408301866127a9565b612f226060830185612682565b612f2f6080830184612682565b9695505050505050565b60008060008060808587031215612f5357612f526125e7565b5b6000612f6187828801612767565b9450506020612f7287828801612767565b9350506040612f8387828801612975565b9250506060612f9487828801612975565b91505092959194509250565b600080600060608486031215612fb957612fb86125e7565b5b6000612fc786828701612975565b9350506020612fd886828701612767565b9250506040612fe986828701612767565b9150509250925092565b6000806040838503121561300a576130096125e7565b5b600061301885828601612767565b925050602061302985828601612975565b9150509250929050565b600060e082019050818103600083015261304d818a61280f565b905061305c602083018961285a565b61306960408301886127a9565b61307660608301876127a9565b6130836080830186612682565b61309060a08301856127a9565b61309d60c08301846127a9565b98975050505050505050565b600081519050919050565b600082825260208201905092915050565b6000819050602082019050919050565b600082825260208201905092915050565b60006130f1826127b8565b6130fb81856130d5565b935061310b8185602086016127d4565b613114816127fe565b840191505092915050565b600061312b83836130e6565b905092915050565b6000602082019050919050565b600061314b826130a9565b61315581856130b4565b935083602082028501613167856130c5565b8060005b858110156131a35784840389528151613184858261311f565b945061318f83613133565b925060208a0199505060018101905061316b565b50829750879550505050505092915050565b600081519050919050565b600082825260208201905092915050565b6000819050602082019050919050565b6131ea81612848565b82525050565b60006131fc83836131e1565b60208301905092915050565b6000602082019050919050565b6000613220826131b5565b61322a81856131c0565b9350613235836131d1565b8060005b8381101561326657815161324d88826131f0565b975061325883613208565b925050600181019050613239565b5085935050505092915050565b600081519050919050565b600082825260208201905092915050565b6000819050602082019050919050565b6132a881612676565b82525050565b60006132ba838361329f565b60208301905092915050565b6000602082019050919050565b60006132de82613273565b6132e8818561327e565b93506132f38361328f565b8060005b8381101561332457815161330b88826132ae565b9750613316836132c6565b9250506001810190506132f7565b5085935050505092915050565b600060c082019050818103600083015261334b8189613140565b9050818103602083015261335f8188613215565b905081810360408301526133738187612e1f565b905081810360608301526133878186612e1f565b9050818103608083015261339b81856132d3565b905081810360a08301526133af8184612e1f565b9050979650505050505050565b600060e0820190506133d1600083018a6127a9565b6133de60208301896127a9565b81810360408301526133f0818861280f565b90506133ff60608301876127a9565b61340c60808301866127a9565b61341960a0830185612682565b61342660c0830184612682565b98975050505050505050565b600060c082019050818103600083015261344c818961280f565b905061345b602083018861285a565b61346860408301876127a9565b61347560608301866127a9565b6134826080830185612682565b61348f60a08301846127a9565b979650505050505050565b7f4e487b7100000000000000000000000000000000000000000000000000000000600052602260045260246000fd5b600060028204905060018216806134e157607f821691505b6020821081036134f4576134f361349a565b5b50919050565b7f50726f6a65637420616c726561647920696e6163746976650000000000000000600082015250565b60006135306018836127c3565b915061353b826134fa565b602082019050919050565b6000602082019050818103600083015261355f81613523565b9050919050565b7f4d696c6573746f6e6520617272617973206d757374206d617463680000000000600082015250565b600061359c601b836127c3565b91506135a782613566565b602082019050919050565b600060208201905081810360008301526135cb8161358f565b9050919050565b7f4e487b7100000000000000000000000000000000000000000000000000000000600052601160045260246000fd5b600061360c82612746565b91507fffffffffffffffffffffffffffffffffffffffffffffffffffffffffffffffff820361363e5761363d6135d2565b5b600182019050919050565b60008190508160005260206000209050919050565b60006020601f8301049050919050565b600082821b905092915050565b6000600883026136ab7fffffffffffffffffffffffffffffffffffffffffffffffffffffffffffffffff8261366e565b6136b5868361366e565b95508019841693508086168417925050509392505050565b60006136e86136e36136de84612746565b6126cc565b612746565b9050919050565b6000819050919050565b613702836136cd565b61371661370e826136ef565b84845461367b565b825550505050565b600090565b61372b61371e565b6137368184846136f9565b505050565b5b8181101561375a5761374f600082613723565b60018101905061373c565b5050565b601f82111561379f5761377081613649565b6137798461365e565b81016020851015613788578190505b61379c6137948561365e565b83018261373b565b50505b505050565b600082821c905092915050565b60006137c2600019846008026137a4565b1980831691505092915050565b60006137db83836137b1565b9150826002028217905092915050565b6137f4826127b8565b67ffffffffffffffff81111561380d5761380c6129ef565b5b61381782546134c9565b61382282828561375e565b600060209050601f8311600181146138555760008415613843578287015190505b61384d85826137cf565b8655506138b5565b601f19841661386386613649565b60005b8281101561388b57848901518255600182019150602085019450602081019050613866565b868310156138a857848901516138a4601f8916826137b1565b8355505b6001600288020188555050505b505050505050565b7f4e487b7100000000000000000000000000000000000000000000000000000000600052603260045260246000fd5b60006040820190508181036000830152613906818561280f565b9050613915602083018461285a565b9392505050565b600061392782612746565b915061393283612746565b925082820190508082111561394a576139496135d2565b5b92915050565b7f496e76616c6964206d696c6573746f6e6520696e646578000000000000000000600082015250565b60006139866017836127c3565b915061399182613950565b602082019050919050565b600060208201905081810360008301526139b581613979565b9050919050565b7f50726f6a656374206973207374696c6c20616374697665000000000000000000600082015250565b60006139f26017836127c3565b91506139fd826139bc565b602082019050919050565b60006020820190508181036000830152613a21816139e5565b9050919050565b7f4e6f20646f6e6174696f6e20666f756e64000000000000000000000000000000600082015250565b6000613a5e6011836127c3565b9150613a6982613a28565b602082019050919050565b60006020820190508181036000830152613a8d81613a51565b9050919050565b600081905092915050565b50565b6000613aaf600083613a94565b9150613aba82613a9f565b600082019050919050565b6000613ad082613aa2565b9150819050919050565b7f526566756e64207472616e73666572206661696c656400000000000000000000600082015250565b6000613b106016836127c3565b9150613b1b82613ada565b602082019050919050565b60006020820190508181036000830152613b3f81613b03565b9050919050565b7f50726f6a656374206973206e6f74206163746976650000000000000000000000600082015250565b6000613b7c6015836127c3565b9150613b8782613b46565b602082019050919050565b60006020820190508181036000830152613bab81613b6f565b9050919050565b7f446f6e6174696f6e20616d6f756e74206d75737420626520677265617465722060008201527f7468616e20300000000000000000000000000000000000000000000000000000602082015250565b6000613c0e6026836127c3565b9150613c1982613bb2565b604082019050919050565b60006020820190508181036000830152613c3d81613c01565b9050919050565b7f4574686572207472616e73666572206661696c65640000000000000000000000600082015250565b6000613c7a6015836127c3565b9150613c8582613c44565b602082019050919050565b60006020820190508181036000830152613ca981613c6d565b9050919050565b6000606082019050613cc5600083018661285a565b613cd260208301856127a9565b613cdf60408301846127a9565b949350505050565b600081519050613cf681612750565b92915050565b600060208284031215613d1257613d116125e7565b5b6000613d2084828501613ce7565b91505092915050565b7f4d696c6573746f6e6520616c726561647920636f6d706c657465640000000000600082015250565b6000613d5f601b836127c3565b9150613d6a82613d29565b602082019050919050565b60006020820190508181036000830152613d8e81613d52565b9050919050565b6000604082019050613daa600083018561285a565b613db76020830184612934565b939250505056fea26469706673582212200d17a1b1d4290ba60e5e4ad4d8ceae163c5f4c00d5ee8189c783a206437d0df364736f6c63430008150033",
  "immutableReferences": {},
  "source": "// SPDX-License-Identifier: MIT\npragma solidity ^0.8.21;\n\nimport \"@openzeppelin/contracts/utils/ReentrancyGuard.sol\";\nimport \"@openzeppelin/contracts/access/AccessControl.sol\";\nimport \"@openzeppelin/contracts/token/ERC20/IERC20.sol\";\nimport \"./DonationToken.sol\";\n\ncontract CharityPlatform2 is ReentrancyGuard, AccessControl {\n    bytes32 public constant ADMIN_ROLE = keccak256(\"ADMIN_ROLE\");\n    bytes32 public constant CHARITY_ROLE = keccak256(\"CHARITY_ROLE\");\n\n    DonationToken public donationToken;\n    \n    struct Project {\n        uint256 id;\n        string name;\n        address charityAddress;\n        uint256 goalAmount;\n        uint256 raisedAmount;\n        bool isActive;\n        uint256[] milestones;\n        mapping(address => uint256) donations;\n    }\n\n    struct Milestone {\n        uint256 id;\n        uint256 projectId;\n        string description;\n        uint256 targetAmount;\n        uint256 raisedAmount;\n        bool isCompleted;\n        bool fundsReleased;\n        mapping(address => uint256) donations;\n    }\n\n    mapping(uint256 => Project) public projects;\n    uint256[] public projectIds;\n    mapping(uint256 => Milestone) public milestones;\n    uint256 public projectCount;\n    uint256 public milestonesCount;\n\n    event ProjectCreated(uint256 indexed projectId, string name, address charityAddress);\n    event DonationReceived(uint256 indexed projectId, address indexed donor, uint256 amount);\n    event MilestoneCompleted(uint256 milestoneIndex);\n    event FundsReleased(uint256 indexed projectId, uint256 amount);\n    event RefundIssued(uint256 indexed projectId, address indexed donor, uint256 amount);\n\n    constructor(address _donationToken) {\n        _grantRole(DEFAULT_ADMIN_ROLE, msg.sender);\n        _grantRole(ADMIN_ROLE, msg.sender);\n        donationToken = DonationToken(_donationToken);\n        projectCount = 0;\n        milestonesCount = 0;\n    }\n\n    function createProject(\n        address _address,\n        string memory _name,\n        uint256 _goalAmount,\n        string[] memory _milestoneDescriptions,\n        uint256[] memory _milestoneTargets\n    ) external onlyRole(CHARITY_ROLE) {\n        require(_milestoneDescriptions.length == _milestoneTargets.length, \"Milestone arrays must match\");\n        \n        projectCount++;\n        Project storage project = projects[projectCount];\n        projectIds.push(projectCount);\n        project.id = projectCount;\n        project.name = _name;\n        project.charityAddress = _address;\n        project.goalAmount = _goalAmount;\n        project.isActive = true;\n\n        for(uint i = 0; i < _milestoneDescriptions.length; i++) {\n            createMilestone(_milestoneDescriptions[i], _milestoneTargets[i], projectCount);\n        }\n\n        emit ProjectCreated(projectCount, _name, _address);\n    }\n\n    function createMilestone(\n        string memory _description,\n        uint256 _targetAmount,\n        uint256 _projectId\n    ) internal onlyRole(CHARITY_ROLE) {\n        milestonesCount++;\n        Milestone storage milestone = milestones[milestonesCount];\n        milestone.id = milestonesCount;\n        milestone.projectId = _projectId;\n        milestone.description = _description;\n        milestone.targetAmount = _targetAmount;\n        milestone.raisedAmount = 0;\n        milestone.isCompleted = false;\n        milestone.fundsReleased = false;\n        Project storage project = projects[_projectId];\n        project.milestones.push(milestonesCount);\n    }\n\n    function donate(uint256 _projectId, uint256 _milestoneId, address _donor, address _recipient) external payable nonReentrant {\n        Project storage project = projects[_projectId];\n        require(project.isActive, \"Project is not active\");\n        require(msg.value > 0, \"Donation amount must be greater than 0\");\n        address payable recipient = payable(_recipient); \n        bool success = recipient.send(msg.value);\n        require(success, \"Ether transfer failed\");\n        project.donations[_donor] += msg.value;\n        project.raisedAmount += msg.value;\n        donationToken.mint(_donor, _projectId, msg.value);\n\n        uint256 milestoneProjectIndex = project.milestones[_milestoneId];\n        Milestone storage milestone = milestones[milestoneProjectIndex];\n        milestone.donations[_donor] += msg.value;\n        milestone.raisedAmount += msg.value;\n\n        emit DonationReceived(_projectId, _donor, msg.value);\n\n        if (milestone.raisedAmount == milestone.targetAmount && !milestone.isCompleted) {\n            completeMilestone(milestone.id);\n        }\n    }\n\n    function completeMilestone(uint256 _milestoneIndex) internal {\n        Milestone storage milestone = milestones[_milestoneIndex];\n        require(!milestone.isCompleted, \"Milestone already completed\");\n        \n        milestone.isCompleted = true;\n        emit MilestoneCompleted(_milestoneIndex);\n    }\n\n    function requestRefund(uint256 _projectId) external nonReentrant {\n        Project storage project = projects[_projectId];\n        require(!project.isActive, \"Project is still active\");\n        \n        uint256 donationAmount = project.donations[msg.sender];\n        require(donationAmount > 0, \"No donation found\");\n\n        project.donations[msg.sender] = 0;\n        \n        (bool success, ) = msg.sender.call{value: donationAmount}(\"\");\n        require(success, \"Refund transfer failed\");\n\n        emit RefundIssued(_projectId, msg.sender, donationAmount);\n    }\n\n    function deactivateProject(uint256 _projectId) external onlyRole(ADMIN_ROLE) {\n        Project storage project = projects[_projectId];\n        require(project.isActive, \"Project already inactive\");\n        project.isActive = false;\n    }\n\n    // Administrative functions\n    function addCharity(address _charityAddress) external onlyRole(ADMIN_ROLE) {\n        _grantRole(CHARITY_ROLE, _charityAddress);\n    }\n\n    function removeCharity(address _charityAddress) external onlyRole(ADMIN_ROLE) {\n        revokeRole(CHARITY_ROLE, _charityAddress);\n    }\n\n    // View functions\n    function getProject(uint256 _projectId) external view returns (\n        string memory name,\n        address charityAddress,\n        uint256 goalAmount,\n        uint256 raisedAmount,\n        bool isActive,\n        uint256 milestoneCount\n    ) {\n        Project storage project = projects[_projectId];\n        return (\n            project.name,\n            project.charityAddress,\n            project.goalAmount,\n            project.raisedAmount,\n            project.isActive,\n            project.milestones.length\n        );\n    }\n\n    function getProjectDonations(uint256 _projectId, address _donor) external view returns (\n        uint256 donorAmount\n    ) {\n        Project storage project = projects[_projectId];\n        uint256 amount = project.donations[_donor];\n        return (\n            amount\n        );\n    }\n\n    function getProjects() external view returns (\n        string[] memory name,\n        address[] memory charityAddress,\n        uint256[] memory goalAmount,\n        uint256[] memory raisedAmount,\n        bool[] memory isActive,\n        uint256[] memory milestoneCount\n    ) {\n        string[] memory allNames = new string[](projectCount);\n        address[] memory allCharityAddreses = new address[](projectCount);\n        uint256[] memory allGoalAmounts = new uint256[](projectCount);\n        uint256[] memory allRaisedAmounts = new uint256[](projectCount);\n        bool[] memory areActive = new bool[](projectCount);\n        uint256[] memory milestoneCounts = new uint256[](projectCount);\n        for (uint i = 0; i < projectCount; i++) {\n            allNames[i] = projects[i].name;\n            allCharityAddreses[i] = projects[i].charityAddress;\n            allGoalAmounts[i] = projects[i].goalAmount;\n            allRaisedAmounts[i] = projects[i].raisedAmount;\n            areActive[i] = projects[i].isActive;\n            milestoneCounts[i] = projects[i].milestones.length;\n        }\n        return (\n            allNames, \n            allCharityAddreses, \n            allGoalAmounts,\n            allRaisedAmounts,\n            areActive,\n            milestoneCounts\n        );\n    }\n\n    function getMyDonationProjectIds(address _donor) external view returns (\n        uint256[] memory id\n    ) {     \n        uint256[] memory allIds = new uint256[](0);\n        uint count = 0;\n        for (uint i = 1; i < projectCount+1; i++) {\n            if (projects[i].donations[_donor] > 0) {\n                allIds[count] = i;\n                count += 1;\n            }\n        }\n        return (\n            allIds\n        );\n    }\n\n    function getMyDonationProject(uint256 _projectId, address _donor) external view returns (\n        string memory name,\n        address charityAddress,\n        uint256 goalAmount,\n        uint256 raisedAmount,\n        bool isActive,\n        uint256 milestoneCount,\n        uint256 donorAmount\n    ) {\n        Project storage project = projects[_projectId];\n        uint256 amount = project.donations[_donor];\n        return (\n            project.name,\n            project.charityAddress,\n            project.goalAmount,\n            project.raisedAmount,\n            project.isActive,\n            project.milestones.length,\n            amount\n        );\n    }\n\n    function getMyCharityProjectIds(address _address) external view returns (\n        uint256[] memory id\n        // uint memory id\n        // address charityAddress\n    ) {     \n        uint256[] memory allIds = new uint256[](0);\n        uint count = 1;\n        \n        for (uint i = 1; i < projectCount+1; i++) {\n            if (projects[i].charityAddress == _address) {\n                allIds[count] = projects[i].id;\n                count += 1;\n                // allIds.push(i);\n            }\n        }\n        return (\n            allIds\n            // projects[1].charityAddress\n        );\n    }\n\n    // function getMyCharityProjectIds(address _address) external view returns (\n    //     uint256 id\n    // ) {     \n    //     uint256 count = 5;\n    //     return count;\n    // }\n\n    function getMilestone(uint256 _projectId, uint256 _milestoneIndex) external view returns (\n        string memory description,\n        uint256 targetAmount,\n        uint256 raisedAmount,\n        bool isCompleted,\n        bool fundsReleased\n    ) {\n        Project storage project = projects[_projectId];\n        require(_milestoneIndex < project.milestones.length, \"Invalid milestone index\");\n        \n        uint256 milestoneProjectIndex = project.milestones[_milestoneIndex];\n        Milestone storage milestone = milestones[milestoneProjectIndex];\n\n        return (\n            milestone.description,\n            milestone.targetAmount,\n            milestone.raisedAmount,\n            milestone.isCompleted,\n            milestone.fundsReleased\n        );\n    }\n\n    function getMilestoneAmount(address _address, uint256 _projectId, uint256 _milestoneIndex) external view returns (\n        uint256 donatedAmount\n    ) {\n        Project storage project = projects[_projectId];\n        require(_milestoneIndex < project.milestones.length, \"Invalid milestone index\");\n        \n        uint256 milestoneProjectIndex = project.milestones[_milestoneIndex];\n        Milestone storage milestone = milestones[milestoneProjectIndex];\n\n        return (\n            milestone.donations[_address]\n        );\n    }\n\n    receive() external payable {}\n}",
  "sourcePath": "/Users/artazidele/Documents/LU-2023-2024/Blokkedes biznesa/CharityDonation/contracts/CharityPlatform2.sol",
  "compiler": {
    "name": "solc",
    "version": "0.8.21+commit.d9974bed.Emscripten.clang"
  },
  "schemaVersion": "3.4.16",
  "updatedAt": "2025-01-06T20:50:22.632Z",
  "devdoc": {
    "errors": {
      "AccessControlBadConfirmation()": [
        {
          "details": "The caller of a function is not the expected one. NOTE: Don't confuse with {AccessControlUnauthorizedAccount}."
        }
      ],
      "AccessControlUnauthorizedAccount(address,bytes32)": [
        {
          "details": "The `account` is missing a role."
        }
      ],
      "ReentrancyGuardReentrantCall()": [
        {
          "details": "Unauthorized reentrant call."
        }
      ]
    },
    "events": {
      "RoleAdminChanged(bytes32,bytes32,bytes32)": {
        "details": "Emitted when `newAdminRole` is set as ``role``'s admin role, replacing `previousAdminRole` `DEFAULT_ADMIN_ROLE` is the starting admin for all roles, despite {RoleAdminChanged} not being emitted signaling this."
      },
      "RoleGranted(bytes32,address,address)": {
        "details": "Emitted when `account` is granted `role`. `sender` is the account that originated the contract call. This account bears the admin role (for the granted role). Expected in cases where the role was granted using the internal {AccessControl-_grantRole}."
      },
      "RoleRevoked(bytes32,address,address)": {
        "details": "Emitted when `account` is revoked `role`. `sender` is the account that originated the contract call:   - if using `revokeRole`, it is the admin role bearer   - if using `renounceRole`, it is the role bearer (i.e. `account`)"
      }
    },
    "kind": "dev",
    "methods": {
      "getRoleAdmin(bytes32)": {
        "details": "Returns the admin role that controls `role`. See {grantRole} and {revokeRole}. To change a role's admin, use {_setRoleAdmin}."
      },
      "grantRole(bytes32,address)": {
        "details": "Grants `role` to `account`. If `account` had not been already granted `role`, emits a {RoleGranted} event. Requirements: - the caller must have ``role``'s admin role. May emit a {RoleGranted} event."
      },
      "hasRole(bytes32,address)": {
        "details": "Returns `true` if `account` has been granted `role`."
      },
      "renounceRole(bytes32,address)": {
        "details": "Revokes `role` from the calling account. Roles are often managed via {grantRole} and {revokeRole}: this function's purpose is to provide a mechanism for accounts to lose their privileges if they are compromised (such as when a trusted device is misplaced). If the calling account had been revoked `role`, emits a {RoleRevoked} event. Requirements: - the caller must be `callerConfirmation`. May emit a {RoleRevoked} event."
      },
      "revokeRole(bytes32,address)": {
        "details": "Revokes `role` from `account`. If `account` had been granted `role`, emits a {RoleRevoked} event. Requirements: - the caller must have ``role``'s admin role. May emit a {RoleRevoked} event."
      },
      "supportsInterface(bytes4)": {
        "details": "See {IERC165-supportsInterface}."
      }
    },
    "version": 1
  },
  "userdoc": {
    "kind": "user",
    "methods": {},
    "version": 1
  }
}