{
  "contractName": "CharityPlatform",
  "abi": [
    {
      "inputs": [
        {
          "internalType": "address",
          "name": "_donationToken",
          "type": "address"
        }
      ],
      "stateMutability": "nonpayable",
      "type": "constructor"
    },
    {
      "inputs": [],
      "name": "AccessControlBadConfirmation",
      "type": "error"
    },
    {
      "inputs": [
        {
          "internalType": "address",
          "name": "account",
          "type": "address"
        },
        {
          "internalType": "bytes32",
          "name": "neededRole",
          "type": "bytes32"
        }
      ],
      "name": "AccessControlUnauthorizedAccount",
      "type": "error"
    },
    {
      "inputs": [],
      "name": "ReentrancyGuardReentrantCall",
      "type": "error"
    },
    {
      "anonymous": false,
      "inputs": [
        {
          "indexed": true,
          "internalType": "uint256",
          "name": "projectId",
          "type": "uint256"
        },
        {
          "indexed": true,
          "internalType": "address",
          "name": "donor",
          "type": "address"
        },
        {
          "indexed": false,
          "internalType": "uint256",
          "name": "amount",
          "type": "uint256"
        }
      ],
      "name": "DonationReceived",
      "type": "event"
    },
    {
      "anonymous": false,
      "inputs": [
        {
          "indexed": true,
          "internalType": "uint256",
          "name": "projectId",
          "type": "uint256"
        },
        {
          "indexed": false,
          "internalType": "uint256",
          "name": "amount",
          "type": "uint256"
        }
      ],
      "name": "FundsReleased",
      "type": "event"
    },
    {
      "anonymous": false,
      "inputs": [
        {
          "indexed": true,
          "internalType": "uint256",
          "name": "projectId",
          "type": "uint256"
        },
        {
          "indexed": false,
          "internalType": "uint256",
          "name": "milestoneIndex",
          "type": "uint256"
        }
      ],
      "name": "MilestoneCompleted",
      "type": "event"
    },
    {
      "anonymous": false,
      "inputs": [
        {
          "indexed": true,
          "internalType": "uint256",
          "name": "projectId",
          "type": "uint256"
        },
        {
          "indexed": false,
          "internalType": "string",
          "name": "name",
          "type": "string"
        },
        {
          "indexed": false,
          "internalType": "address",
          "name": "charityAddress",
          "type": "address"
        }
      ],
      "name": "ProjectCreated",
      "type": "event"
    },
    {
      "anonymous": false,
      "inputs": [
        {
          "indexed": true,
          "internalType": "uint256",
          "name": "projectId",
          "type": "uint256"
        },
        {
          "indexed": true,
          "internalType": "address",
          "name": "donor",
          "type": "address"
        },
        {
          "indexed": false,
          "internalType": "uint256",
          "name": "amount",
          "type": "uint256"
        }
      ],
      "name": "RefundIssued",
      "type": "event"
    },
    {
      "anonymous": false,
      "inputs": [
        {
          "indexed": true,
          "internalType": "bytes32",
          "name": "role",
          "type": "bytes32"
        },
        {
          "indexed": true,
          "internalType": "bytes32",
          "name": "previousAdminRole",
          "type": "bytes32"
        },
        {
          "indexed": true,
          "internalType": "bytes32",
          "name": "newAdminRole",
          "type": "bytes32"
        }
      ],
      "name": "RoleAdminChanged",
      "type": "event"
    },
    {
      "anonymous": false,
      "inputs": [
        {
          "indexed": true,
          "internalType": "bytes32",
          "name": "role",
          "type": "bytes32"
        },
        {
          "indexed": true,
          "internalType": "address",
          "name": "account",
          "type": "address"
        },
        {
          "indexed": true,
          "internalType": "address",
          "name": "sender",
          "type": "address"
        }
      ],
      "name": "RoleGranted",
      "type": "event"
    },
    {
      "anonymous": false,
      "inputs": [
        {
          "indexed": true,
          "internalType": "bytes32",
          "name": "role",
          "type": "bytes32"
        },
        {
          "indexed": true,
          "internalType": "address",
          "name": "account",
          "type": "address"
        },
        {
          "indexed": true,
          "internalType": "address",
          "name": "sender",
          "type": "address"
        }
      ],
      "name": "RoleRevoked",
      "type": "event"
    },
    {
      "inputs": [],
      "name": "ADMIN_ROLE",
      "outputs": [
        {
          "internalType": "bytes32",
          "name": "",
          "type": "bytes32"
        }
      ],
      "stateMutability": "view",
      "type": "function"
    },
    {
      "inputs": [],
      "name": "CHARITY_ROLE",
      "outputs": [
        {
          "internalType": "bytes32",
          "name": "",
          "type": "bytes32"
        }
      ],
      "stateMutability": "view",
      "type": "function"
    },
    {
      "inputs": [],
      "name": "DEFAULT_ADMIN_ROLE",
      "outputs": [
        {
          "internalType": "bytes32",
          "name": "",
          "type": "bytes32"
        }
      ],
      "stateMutability": "view",
      "type": "function"
    },
    {
      "inputs": [],
      "name": "donationToken",
      "outputs": [
        {
          "internalType": "contract DonationToken",
          "name": "",
          "type": "address"
        }
      ],
      "stateMutability": "view",
      "type": "function"
    },
    {
      "inputs": [
        {
          "internalType": "bytes32",
          "name": "role",
          "type": "bytes32"
        }
      ],
      "name": "getRoleAdmin",
      "outputs": [
        {
          "internalType": "bytes32",
          "name": "",
          "type": "bytes32"
        }
      ],
      "stateMutability": "view",
      "type": "function"
    },
    {
      "inputs": [
        {
          "internalType": "bytes32",
          "name": "role",
          "type": "bytes32"
        },
        {
          "internalType": "address",
          "name": "account",
          "type": "address"
        }
      ],
      "name": "grantRole",
      "outputs": [],
      "stateMutability": "nonpayable",
      "type": "function"
    },
    {
      "inputs": [
        {
          "internalType": "bytes32",
          "name": "role",
          "type": "bytes32"
        },
        {
          "internalType": "address",
          "name": "account",
          "type": "address"
        }
      ],
      "name": "hasRole",
      "outputs": [
        {
          "internalType": "bool",
          "name": "",
          "type": "bool"
        }
      ],
      "stateMutability": "view",
      "type": "function"
    },
    {
      "inputs": [],
      "name": "projectCount",
      "outputs": [
        {
          "internalType": "uint256",
          "name": "",
          "type": "uint256"
        }
      ],
      "stateMutability": "view",
      "type": "function"
    },
    {
      "inputs": [
        {
          "internalType": "uint256",
          "name": "",
          "type": "uint256"
        }
      ],
      "name": "projects",
      "outputs": [
        {
          "internalType": "string",
          "name": "name",
          "type": "string"
        },
        {
          "internalType": "address",
          "name": "charityAddress",
          "type": "address"
        },
        {
          "internalType": "uint256",
          "name": "goalAmount",
          "type": "uint256"
        },
        {
          "internalType": "uint256",
          "name": "raisedAmount",
          "type": "uint256"
        },
        {
          "internalType": "bool",
          "name": "isActive",
          "type": "bool"
        }
      ],
      "stateMutability": "view",
      "type": "function"
    },
    {
      "inputs": [
        {
          "internalType": "bytes32",
          "name": "role",
          "type": "bytes32"
        },
        {
          "internalType": "address",
          "name": "callerConfirmation",
          "type": "address"
        }
      ],
      "name": "renounceRole",
      "outputs": [],
      "stateMutability": "nonpayable",
      "type": "function"
    },
    {
      "inputs": [
        {
          "internalType": "bytes32",
          "name": "role",
          "type": "bytes32"
        },
        {
          "internalType": "address",
          "name": "account",
          "type": "address"
        }
      ],
      "name": "revokeRole",
      "outputs": [],
      "stateMutability": "nonpayable",
      "type": "function"
    },
    {
      "inputs": [
        {
          "internalType": "bytes4",
          "name": "interfaceId",
          "type": "bytes4"
        }
      ],
      "name": "supportsInterface",
      "outputs": [
        {
          "internalType": "bool",
          "name": "",
          "type": "bool"
        }
      ],
      "stateMutability": "view",
      "type": "function"
    },
    {
      "stateMutability": "payable",
      "type": "receive"
    },
    {
      "inputs": [
        {
          "internalType": "string",
          "name": "_name",
          "type": "string"
        },
        {
          "internalType": "uint256",
          "name": "_goalAmount",
          "type": "uint256"
        },
        {
          "internalType": "string[]",
          "name": "_milestoneDescriptions",
          "type": "string[]"
        },
        {
          "internalType": "uint256[]",
          "name": "_milestoneTargets",
          "type": "uint256[]"
        }
      ],
      "name": "createProject",
      "outputs": [],
      "stateMutability": "nonpayable",
      "type": "function"
    },
    {
      "inputs": [
        {
          "internalType": "uint256",
          "name": "_projectId",
          "type": "uint256"
        },
        {
          "internalType": "address",
          "name": "_donor",
          "type": "address"
        }
      ],
      "name": "donate",
      "outputs": [],
      "stateMutability": "payable",
      "type": "function"
    },
    {
      "inputs": [
        {
          "internalType": "uint256",
          "name": "_projectId",
          "type": "uint256"
        },
        {
          "internalType": "uint256",
          "name": "_milestoneIndex",
          "type": "uint256"
        }
      ],
      "name": "completeMilestone",
      "outputs": [],
      "stateMutability": "nonpayable",
      "type": "function"
    },
    {
      "inputs": [
        {
          "internalType": "uint256",
          "name": "_projectId",
          "type": "uint256"
        }
      ],
      "name": "requestRefund",
      "outputs": [],
      "stateMutability": "nonpayable",
      "type": "function"
    },
    {
      "inputs": [
        {
          "internalType": "uint256",
          "name": "_projectId",
          "type": "uint256"
        }
      ],
      "name": "deactivateProject",
      "outputs": [],
      "stateMutability": "nonpayable",
      "type": "function"
    },
    {
      "inputs": [
        {
          "internalType": "uint256",
          "name": "_projectId",
          "type": "uint256"
        },
        {
          "internalType": "address",
          "name": "_tokenAddress",
          "type": "address"
        },
        {
          "internalType": "uint256",
          "name": "_amount",
          "type": "uint256"
        }
      ],
      "name": "donateToken",
      "outputs": [],
      "stateMutability": "nonpayable",
      "type": "function"
    },
    {
      "inputs": [
        {
          "internalType": "address",
          "name": "_charityAddress",
          "type": "address"
        }
      ],
      "name": "addCharity",
      "outputs": [],
      "stateMutability": "nonpayable",
      "type": "function"
    },
    {
      "inputs": [
        {
          "internalType": "address",
          "name": "_charityAddress",
          "type": "address"
        }
      ],
      "name": "removeCharity",
      "outputs": [],
      "stateMutability": "nonpayable",
      "type": "function"
    },
    {
      "inputs": [
        {
          "internalType": "uint256",
          "name": "_projectId",
          "type": "uint256"
        }
      ],
      "name": "getProject",
      "outputs": [
        {
          "internalType": "string",
          "name": "name",
          "type": "string"
        },
        {
          "internalType": "address",
          "name": "charityAddress",
          "type": "address"
        },
        {
          "internalType": "uint256",
          "name": "goalAmount",
          "type": "uint256"
        },
        {
          "internalType": "uint256",
          "name": "raisedAmount",
          "type": "uint256"
        },
        {
          "internalType": "bool",
          "name": "isActive",
          "type": "bool"
        },
        {
          "internalType": "uint256",
          "name": "milestoneCount",
          "type": "uint256"
        }
      ],
      "stateMutability": "view",
      "type": "function"
    },
    {
      "inputs": [
        {
          "internalType": "uint256",
          "name": "_projectId",
          "type": "uint256"
        },
        {
          "internalType": "address",
          "name": "_donor",
          "type": "address"
        }
      ],
      "name": "getProjectDonations",
      "outputs": [
        {
          "internalType": "uint256",
          "name": "donorAmount",
          "type": "uint256"
        }
      ],
      "stateMutability": "view",
      "type": "function"
    },
    {
      "inputs": [],
      "name": "getProjects",
      "outputs": [
        {
          "internalType": "string[]",
          "name": "name",
          "type": "string[]"
        },
        {
          "internalType": "address[]",
          "name": "charityAddress",
          "type": "address[]"
        },
        {
          "internalType": "uint256[]",
          "name": "goalAmount",
          "type": "uint256[]"
        },
        {
          "internalType": "uint256[]",
          "name": "raisedAmount",
          "type": "uint256[]"
        },
        {
          "internalType": "bool[]",
          "name": "isActive",
          "type": "bool[]"
        },
        {
          "internalType": "uint256[]",
          "name": "milestoneCount",
          "type": "uint256[]"
        }
      ],
      "stateMutability": "view",
      "type": "function"
    },
    {
      "inputs": [
        {
          "internalType": "uint256",
          "name": "_projectId",
          "type": "uint256"
        },
        {
          "internalType": "uint256",
          "name": "_milestoneIndex",
          "type": "uint256"
        }
      ],
      "name": "getMilestone",
      "outputs": [
        {
          "internalType": "string",
          "name": "description",
          "type": "string"
        },
        {
          "internalType": "uint256",
          "name": "targetAmount",
          "type": "uint256"
        },
        {
          "internalType": "bool",
          "name": "isCompleted",
          "type": "bool"
        },
        {
          "internalType": "bool",
          "name": "fundsReleased",
          "type": "bool"
        }
      ],
      "stateMutability": "view",
      "type": "function"
    }
  ],
  "bytecode": "0x60806040523480156200001157600080fd5b5060405162003ba038038062003ba08339818101604052810190620000379190620002b0565b6001600081905550620000546000801b33620000d060201b60201c565b50620000877fa49807205ce4d355092ef5a8a18f56e8913cf4a201fbe287825b095693c2177533620000d060201b60201c565b5080600260006101000a81548173ffffffffffffffffffffffffffffffffffffffff021916908373ffffffffffffffffffffffffffffffffffffffff16021790555050620002e2565b6000620000e48383620001d360201b60201c565b620001c857600180600085815260200190815260200160002060000160008473ffffffffffffffffffffffffffffffffffffffff1673ffffffffffffffffffffffffffffffffffffffff16815260200190815260200160002060006101000a81548160ff021916908315150217905550620001646200023e60201b60201c565b73ffffffffffffffffffffffffffffffffffffffff168273ffffffffffffffffffffffffffffffffffffffff16847f2f8788117e7eff1d82e926ec794901d17c78024a50270940304540a733656f0d60405160405180910390a460019050620001cd565b600090505b92915050565b60006001600084815260200190815260200160002060000160008373ffffffffffffffffffffffffffffffffffffffff1673ffffffffffffffffffffffffffffffffffffffff16815260200190815260200160002060009054906101000a900460ff16905092915050565b600033905090565b600080fd5b600073ffffffffffffffffffffffffffffffffffffffff82169050919050565b600062000278826200024b565b9050919050565b6200028a816200026b565b81146200029657600080fd5b50565b600081519050620002aa816200027f565b92915050565b600060208284031215620002c957620002c862000246565b5b6000620002d98482850162000299565b91505092915050565b6138ae80620002f26000396000f3fe60806040526004361061014f5760003560e01c80638ed9895c116100b6578063d547741f1161006f578063d547741f146104a5578063dcc60128146104ce578063dd36341a146104fe578063f05719351461053b578063f0f3f2c814610564578063f326206b146105a657610156565b80638ed9895c1461038257806391d14854146103c2578063a217fddf146103ff578063a4b2409e1461042a578063abefe59114610453578063afd14b821461047c57610156565b806336fbad261161010857806336fbad2614610293578063436e6958146102be5780636f0c8067146102e757806375b238fc1461031257806378b14f0a1461033d5780638004f9fa1461036657610156565b806301ffc9a71461015b5780630df7215914610198578063107046bd146101c3578063248a9ca3146102045780632f2ff15d1461024157806336568abe1461026a57610156565b3661015657005b600080fd5b34801561016757600080fd5b50610182600480360381019061017d91906121ac565b6105cf565b60405161018f91906121f4565b60405180910390f35b3480156101a457600080fd5b506101ad610649565b6040516101ba919061228e565b60405180910390f35b3480156101cf57600080fd5b506101ea60048036038101906101e591906122df565b61066f565b6040516101fb9594939291906123cc565b60405180910390f35b34801561021057600080fd5b5061022b6004803603810190610226919061245c565b61075a565b6040516102389190612498565b60405180910390f35b34801561024d57600080fd5b50610268600480360381019061026391906124df565b61077a565b005b34801561027657600080fd5b50610291600480360381019061028c91906124df565b61079c565b005b34801561029f57600080fd5b506102a8610817565b6040516102b5919061251f565b60405180910390f35b3480156102ca57600080fd5b506102e560048036038101906102e091906122df565b61081d565b005b3480156102f357600080fd5b506102fc6108d1565b6040516103099190612498565b60405180910390f35b34801561031e57600080fd5b506103276108f5565b6040516103349190612498565b60405180910390f35b34801561034957600080fd5b50610364600480360381019061035f919061253a565b610919565b005b610380600480360381019061037b9190612567565b610972565b005b34801561038e57600080fd5b506103a960048036038101906103a491906125a7565b610c08565b6040516103b994939291906125e7565b60405180910390f35b3480156103ce57600080fd5b506103e960048036038101906103e491906124df565b610d62565b6040516103f691906121f4565b60405180910390f35b34801561040b57600080fd5b50610414610dcd565b6040516104219190612498565b60405180910390f35b34801561043657600080fd5b50610451600480360381019061044c91906122df565b610dd4565b005b34801561045f57600080fd5b5061047a6004803603810190610475919061253a565b61101e565b005b34801561048857600080fd5b506104a3600480360381019061049e9190612911565b611076565b005b3480156104b157600080fd5b506104cc60048036038101906104c791906124df565b6112de565b005b3480156104da57600080fd5b506104e3611300565b6040516104f596959493929190612d12565b60405180910390f35b34801561050a57600080fd5b5061052560048036038101906105209190612567565b611758565b604051610532919061251f565b60405180910390f35b34801561054757600080fd5b50610562600480360381019061055d9190612d9d565b6117c1565b005b34801561057057600080fd5b5061058b600480360381019061058691906122df565b611a69565b60405161059d96959493929190612df0565b60405180910390f35b3480156105b257600080fd5b506105cd60048036038101906105c891906125a7565b611b78565b005b60007f7965db0b000000000000000000000000000000000000000000000000000000007bffffffffffffffffffffffffffffffffffffffffffffffffffffffff1916827bffffffffffffffffffffffffffffffffffffffffffffffffffffffff19161480610642575061064182611e35565b5b9050919050565b600260009054906101000a900473ffffffffffffffffffffffffffffffffffffffff1681565b600360205280600052604060002060009150905080600001805461069290612e87565b80601f01602080910402602001604051908101604052809291908181526020018280546106be90612e87565b801561070b5780601f106106e05761010080835404028352916020019161070b565b820191906000526020600020905b8154815290600101906020018083116106ee57829003601f168201915b5050505050908060010160009054906101000a900473ffffffffffffffffffffffffffffffffffffffff16908060020154908060030154908060040160009054906101000a900460ff16905085565b600060016000838152602001908152602001600020600101549050919050565b6107838261075a565b61078c81611e9f565b6107968383611eb3565b50505050565b6107a4611fa4565b73ffffffffffffffffffffffffffffffffffffffff168173ffffffffffffffffffffffffffffffffffffffff1614610808576040517f6697b23200000000000000000000000000000000000000000000000000000000815260040160405180910390fd5b6108128282611fac565b505050565b60045481565b7fa49807205ce4d355092ef5a8a18f56e8913cf4a201fbe287825b095693c2177561084781611e9f565b60006003600084815260200190815260200160002090508060040160009054906101000a900460ff166108af576040517f08c379a00000000000000000000000000000000000000000000000000000000081526004016108a690612f04565b60405180910390fd5b60008160040160006101000a81548160ff021916908315150217905550505050565b7f838cb9e68162e54d2dfda44baa96273d8a6cb729c0d42995215e0f52841feb7781565b7fa49807205ce4d355092ef5a8a18f56e8913cf4a201fbe287825b095693c2177581565b7fa49807205ce4d355092ef5a8a18f56e8913cf4a201fbe287825b095693c2177561094381611e9f565b61096d7f838cb9e68162e54d2dfda44baa96273d8a6cb729c0d42995215e0f52841feb7783611eb3565b505050565b61097a61209f565b60006003600084815260200190815260200160002090508060040160009054906101000a900460ff166109e2576040517f08c379a00000000000000000000000000000000000000000000000000000000081526004016109d990612f70565b60405180910390fd5b60003411610a25576040517f08c379a0000000000000000000000000000000000000000000000000000000008152600401610a1c90613002565b60405180910390fd5b60008160010160009054906101000a900473ffffffffffffffffffffffffffffffffffffffff1690508073ffffffffffffffffffffffffffffffffffffffff166108fc349081150290604051600060405180830381858888f19350505050158015610a94573d6000803e3d6000fd5b50348260060160008573ffffffffffffffffffffffffffffffffffffffff1673ffffffffffffffffffffffffffffffffffffffff1681526020019081526020016000206000828254610ae69190613051565b9250508190555034826003016000828254610b019190613051565b92505081905550600260009054906101000a900473ffffffffffffffffffffffffffffffffffffffff1673ffffffffffffffffffffffffffffffffffffffff1663156e29f68486346040518463ffffffff1660e01b8152600401610b6793929190613085565b6020604051808303816000875af1158015610b86573d6000803e3d6000fd5b505050506040513d601f19601f82011682018060405250810190610baa91906130d1565b508273ffffffffffffffffffffffffffffffffffffffff16847f0b5b4c52969ff7329ecf7ee536409fda87812b15a8622bc6e8cdeab3aee14a2634604051610bf2919061251f565b60405180910390a35050610c046120e5565b5050565b606060008060008060036000888152602001908152602001600020905080600501805490508610610c6e576040517f08c379a0000000000000000000000000000000000000000000000000000000008152600401610c659061314a565b60405180910390fd5b6000816005018781548110610c8657610c8561316a565b5b906000526020600020906003020190508060000181600101548260020160009054906101000a900460ff168360020160019054906101000a900460ff16838054610ccf90612e87565b80601f0160208091040260200160405190810160405280929190818152602001828054610cfb90612e87565b8015610d485780601f10610d1d57610100808354040283529160200191610d48565b820191906000526020600020905b815481529060010190602001808311610d2b57829003601f168201915b505050505093509550955095509550505092959194509250565b60006001600084815260200190815260200160002060000160008373ffffffffffffffffffffffffffffffffffffffff1673ffffffffffffffffffffffffffffffffffffffff16815260200190815260200160002060009054906101000a900460ff16905092915050565b6000801b81565b610ddc61209f565b60006003600083815260200190815260200160002090508060040160009054906101000a900460ff1615610e45576040517f08c379a0000000000000000000000000000000000000000000000000000000008152600401610e3c906131e5565b60405180910390fd5b60008160060160003373ffffffffffffffffffffffffffffffffffffffff1673ffffffffffffffffffffffffffffffffffffffff16815260200190815260200160002054905060008111610ece576040517f08c379a0000000000000000000000000000000000000000000000000000000008152600401610ec590613251565b60405180910390fd5b60008260060160003373ffffffffffffffffffffffffffffffffffffffff1673ffffffffffffffffffffffffffffffffffffffff1681526020019081526020016000208190555060003373ffffffffffffffffffffffffffffffffffffffff1682604051610f3b906132a2565b60006040518083038185875af1925050503d8060008114610f78576040519150601f19603f3d011682016040523d82523d6000602084013e610f7d565b606091505b5050905080610fc1576040517f08c379a0000000000000000000000000000000000000000000000000000000008152600401610fb890613303565b60405180910390fd5b3373ffffffffffffffffffffffffffffffffffffffff16847f7a482fdeb6bc9a1376f597068a214a7a39472bb2eff1b8cad21ba04f49ddca1b84604051611008919061251f565b60405180910390a350505061101b6120e5565b50565b7fa49807205ce4d355092ef5a8a18f56e8913cf4a201fbe287825b095693c2177561104881611e9f565b6110727f838cb9e68162e54d2dfda44baa96273d8a6cb729c0d42995215e0f52841feb77836112de565b5050565b7f838cb9e68162e54d2dfda44baa96273d8a6cb729c0d42995215e0f52841feb776110a081611e9f565b81518351146110e4576040517f08c379a00000000000000000000000000000000000000000000000000000000081526004016110db9061336f565b60405180910390fd5b600460008154809291906110f79061338f565b919050555060006003600060045481526020019081526020016000209050858160000190816111269190613579565b50338160010160006101000a81548173ffffffffffffffffffffffffffffffffffffffff021916908373ffffffffffffffffffffffffffffffffffffffff16021790555084816002018190555060018160040160006101000a81548160ff02191690831515021790555060005b8451811015611299578160050160405180608001604052808784815181106111be576111bd61316a565b5b602002602001015181526020018684815181106111de576111dd61316a565b5b6020026020010151815260200160001515815260200160001515815250908060018154018082558091505060019003906000526020600020906003020160009091909190915060008201518160000190816112399190613579565b506020820151816001015560408201518160020160006101000a81548160ff02191690831515021790555060608201518160020160016101000a81548160ff021916908315150217905550505080806112919061338f565b915050611193565b506004547fc0c54fed07481d0998e1446b2c13759606bf4f26b78306307413ac4c4309aa8287336040516112ce92919061364b565b60405180910390a2505050505050565b6112e78261075a565b6112f081611e9f565b6112fa8383611fac565b50505050565b606080606080606080600060045467ffffffffffffffff8111156113275761132661263d565b5b60405190808252806020026020018201604052801561135a57816020015b60608152602001906001900390816113455790505b509050600060045467ffffffffffffffff81111561137b5761137a61263d565b5b6040519080825280602002602001820160405280156113a95781602001602082028036833780820191505090505b509050600060045467ffffffffffffffff8111156113ca576113c961263d565b5b6040519080825280602002602001820160405280156113f85781602001602082028036833780820191505090505b509050600060045467ffffffffffffffff8111156114195761141861263d565b5b6040519080825280602002602001820160405280156114475781602001602082028036833780820191505090505b509050600060045467ffffffffffffffff8111156114685761146761263d565b5b6040519080825280602002602001820160405280156114965781602001602082028036833780820191505090505b509050600060045467ffffffffffffffff8111156114b7576114b661263d565b5b6040519080825280602002602001820160405280156114e55781602001602082028036833780820191505090505b50905060005b6004548110156117375760036000828152602001908152602001600020600001805461151690612e87565b80601f016020809104026020016040519081016040528092919081815260200182805461154290612e87565b801561158f5780601f106115645761010080835404028352916020019161158f565b820191906000526020600020905b81548152906001019060200180831161157257829003601f168201915b50505050508782815181106115a7576115a661316a565b5b60200260200101819052506003600082815260200190815260200160002060010160009054906101000a900473ffffffffffffffffffffffffffffffffffffffff168682815181106115fc576115fb61316a565b5b602002602001019073ffffffffffffffffffffffffffffffffffffffff16908173ffffffffffffffffffffffffffffffffffffffff168152505060036000828152602001908152602001600020600201548582815181106116605761165f61316a565b5b60200260200101818152505060036000828152602001908152602001600020600301548482815181106116965761169561316a565b5b6020026020010181815250506003600082815260200190815260200160002060040160009054906101000a900460ff168382815181106116d9576116d861316a565b5b60200260200101901515908115158152505060036000828152602001908152602001600020600501805490508282815181106117185761171761316a565b5b602002602001018181525050808061172f9061338f565b9150506114eb565b508585858585859b509b509b509b509b509b50505050505050909192939495565b60008060036000858152602001908152602001600020905060008160060160008573ffffffffffffffffffffffffffffffffffffffff1673ffffffffffffffffffffffffffffffffffffffff168152602001908152602001600020549050809250505092915050565b6117c961209f565b60006003600085815260200190815260200160002090508060040160009054906101000a900460ff16611831576040517f08c379a000000000000000000000000000000000000000000000000000000000815260040161182890612f70565b60405180910390fd5b60008390508073ffffffffffffffffffffffffffffffffffffffff166323b872dd3330866040518463ffffffff1660e01b81526004016118739392919061367b565b6020604051808303816000875af1158015611892573d6000803e3d6000fd5b505050506040513d601f19601f820116820180604052508101906118b691906136de565b6118f5576040517f08c379a00000000000000000000000000000000000000000000000000000000081526004016118ec90613757565b60405180910390fd5b828260060160003373ffffffffffffffffffffffffffffffffffffffff1673ffffffffffffffffffffffffffffffffffffffff16815260200190815260200160002060008282546119469190613051565b92505081905550828260030160008282546119619190613051565b92505081905550600260009054906101000a900473ffffffffffffffffffffffffffffffffffffffff1673ffffffffffffffffffffffffffffffffffffffff1663156e29f63387866040518463ffffffff1660e01b81526004016119c793929190613085565b6020604051808303816000875af11580156119e6573d6000803e3d6000fd5b505050506040513d601f19601f82011682018060405250810190611a0a91906130d1565b503373ffffffffffffffffffffffffffffffffffffffff16857f0b5b4c52969ff7329ecf7ee536409fda87812b15a8622bc6e8cdeab3aee14a2685604051611a52919061251f565b60405180910390a35050611a646120e5565b505050565b6060600080600080600080600360008981526020019081526020016000209050806000018160010160009054906101000a900473ffffffffffffffffffffffffffffffffffffffff16826002015483600301548460040160009054906101000a900460ff168560050180549050858054611ae290612e87565b80601f0160208091040260200160405190810160405280929190818152602001828054611b0e90612e87565b8015611b5b5780601f10611b3057610100808354040283529160200191611b5b565b820191906000526020600020905b815481529060010190602001808311611b3e57829003601f168201915b505050505095509650965096509650965096505091939550919395565b7fa49807205ce4d355092ef5a8a18f56e8913cf4a201fbe287825b095693c21775611ba281611e9f565b600060036000858152602001908152602001600020905080600501805490508310611c02576040517f08c379a0000000000000000000000000000000000000000000000000000000008152600401611bf99061314a565b60405180910390fd5b6000816005018481548110611c1a57611c1961316a565b5b906000526020600020906003020190508060020160009054906101000a900460ff1615611c7c576040517f08c379a0000000000000000000000000000000000000000000000000000000008152600401611c73906137c3565b60405180910390fd5b60018160020160006101000a81548160ff021916908315150217905550847f1b7218c0ac23ea9cbe4df603d2b340fbf469a115b73ea3d11460727f445d6be185604051611cc9919061251f565b60405180910390a28060020160019054906101000a900460ff16158015611cf857508060010154826003015410155b15611e2e5760018160020160016101000a81548160ff02191690831515021790555060008160010154905060008360010160009054906101000a900473ffffffffffffffffffffffffffffffffffffffff1673ffffffffffffffffffffffffffffffffffffffff1682604051611d6d906132a2565b60006040518083038185875af1925050503d8060008114611daa576040519150601f19603f3d011682016040523d82523d6000602084013e611daf565b606091505b5050905080611df3576040517f08c379a0000000000000000000000000000000000000000000000000000000008152600401611dea9061382f565b60405180910390fd5b867f80230996023d69b50793fa73f1919127c9d8e741d3989743c479169f22e7a28883604051611e23919061251f565b60405180910390a250505b5050505050565b60007f01ffc9a7000000000000000000000000000000000000000000000000000000007bffffffffffffffffffffffffffffffffffffffffffffffffffffffff1916827bffffffffffffffffffffffffffffffffffffffffffffffffffffffff1916149050919050565b611eb081611eab611fa4565b6120ef565b50565b6000611ebf8383610d62565b611f9957600180600085815260200190815260200160002060000160008473ffffffffffffffffffffffffffffffffffffffff1673ffffffffffffffffffffffffffffffffffffffff16815260200190815260200160002060006101000a81548160ff021916908315150217905550611f36611fa4565b73ffffffffffffffffffffffffffffffffffffffff168273ffffffffffffffffffffffffffffffffffffffff16847f2f8788117e7eff1d82e926ec794901d17c78024a50270940304540a733656f0d60405160405180910390a460019050611f9e565b600090505b92915050565b600033905090565b6000611fb88383610d62565b156120945760006001600085815260200190815260200160002060000160008473ffffffffffffffffffffffffffffffffffffffff1673ffffffffffffffffffffffffffffffffffffffff16815260200190815260200160002060006101000a81548160ff021916908315150217905550612031611fa4565b73ffffffffffffffffffffffffffffffffffffffff168273ffffffffffffffffffffffffffffffffffffffff16847ff6391f5c32d9c69d2a47ea670b442974b53935d1edc7fd64eb21e047a839171b60405160405180910390a460019050612099565b600090505b92915050565b6002600054036120db576040517f3ee5aeb500000000000000000000000000000000000000000000000000000000815260040160405180910390fd5b6002600081905550565b6001600081905550565b6120f98282610d62565b61213c5780826040517fe2517d3f00000000000000000000000000000000000000000000000000000000815260040161213392919061384f565b60405180910390fd5b5050565b6000604051905090565b600080fd5b600080fd5b60007fffffffff0000000000000000000000000000000000000000000000000000000082169050919050565b61218981612154565b811461219457600080fd5b50565b6000813590506121a681612180565b92915050565b6000602082840312156121c2576121c161214a565b5b60006121d084828501612197565b91505092915050565b60008115159050919050565b6121ee816121d9565b82525050565b600060208201905061220960008301846121e5565b92915050565b600073ffffffffffffffffffffffffffffffffffffffff82169050919050565b6000819050919050565b600061225461224f61224a8461220f565b61222f565b61220f565b9050919050565b600061226682612239565b9050919050565b60006122788261225b565b9050919050565b6122888161226d565b82525050565b60006020820190506122a3600083018461227f565b92915050565b6000819050919050565b6122bc816122a9565b81146122c757600080fd5b50565b6000813590506122d9816122b3565b92915050565b6000602082840312156122f5576122f461214a565b5b6000612303848285016122ca565b91505092915050565b600081519050919050565b600082825260208201905092915050565b60005b8381101561234657808201518184015260208101905061232b565b60008484015250505050565b6000601f19601f8301169050919050565b600061236e8261230c565b6123788185612317565b9350612388818560208601612328565b61239181612352565b840191505092915050565b60006123a78261220f565b9050919050565b6123b78161239c565b82525050565b6123c6816122a9565b82525050565b600060a08201905081810360008301526123e68188612363565b90506123f560208301876123ae565b61240260408301866123bd565b61240f60608301856123bd565b61241c60808301846121e5565b9695505050505050565b6000819050919050565b61243981612426565b811461244457600080fd5b50565b60008135905061245681612430565b92915050565b6000602082840312156124725761247161214a565b5b600061248084828501612447565b91505092915050565b61249281612426565b82525050565b60006020820190506124ad6000830184612489565b92915050565b6124bc8161239c565b81146124c757600080fd5b50565b6000813590506124d9816124b3565b92915050565b600080604083850312156124f6576124f561214a565b5b600061250485828601612447565b9250506020612515858286016124ca565b9150509250929050565b600060208201905061253460008301846123bd565b92915050565b6000602082840312156125505761254f61214a565b5b600061255e848285016124ca565b91505092915050565b6000806040838503121561257e5761257d61214a565b5b600061258c858286016122ca565b925050602061259d858286016124ca565b9150509250929050565b600080604083850312156125be576125bd61214a565b5b60006125cc858286016122ca565b92505060206125dd858286016122ca565b9150509250929050565b600060808201905081810360008301526126018187612363565b905061261060208301866123bd565b61261d60408301856121e5565b61262a60608301846121e5565b95945050505050565b600080fd5b600080fd5b7f4e487b7100000000000000000000000000000000000000000000000000000000600052604160045260246000fd5b61267582612352565b810181811067ffffffffffffffff821117156126945761269361263d565b5b80604052505050565b60006126a7612140565b90506126b3828261266c565b919050565b600067ffffffffffffffff8211156126d3576126d261263d565b5b6126dc82612352565b9050602081019050919050565b82818337600083830152505050565b600061270b612706846126b8565b61269d565b90508281526020810184848401111561272757612726612638565b5b6127328482856126e9565b509392505050565b600082601f83011261274f5761274e612633565b5b813561275f8482602086016126f8565b91505092915050565b600067ffffffffffffffff8211156127835761278261263d565b5b602082029050602081019050919050565b600080fd5b60006127ac6127a784612768565b61269d565b905080838252602082019050602084028301858111156127cf576127ce612794565b5b835b8181101561281657803567ffffffffffffffff8111156127f4576127f3612633565b5b808601612801898261273a565b855260208501945050506020810190506127d1565b5050509392505050565b600082601f83011261283557612834612633565b5b8135612845848260208601612799565b91505092915050565b600067ffffffffffffffff8211156128695761286861263d565b5b602082029050602081019050919050565b600061288d6128888461284e565b61269d565b905080838252602082019050602084028301858111156128b0576128af612794565b5b835b818110156128d957806128c588826122ca565b8452602084019350506020810190506128b2565b5050509392505050565b600082601f8301126128f8576128f7612633565b5b813561290884826020860161287a565b91505092915050565b6000806000806080858703121561292b5761292a61214a565b5b600085013567ffffffffffffffff8111156129495761294861214f565b5b6129558782880161273a565b9450506020612966878288016122ca565b935050604085013567ffffffffffffffff8111156129875761298661214f565b5b61299387828801612820565b925050606085013567ffffffffffffffff8111156129b4576129b361214f565b5b6129c0878288016128e3565b91505092959194509250565b600081519050919050565b600082825260208201905092915050565b6000819050602082019050919050565b600082825260208201905092915050565b6000612a148261230c565b612a1e81856129f8565b9350612a2e818560208601612328565b612a3781612352565b840191505092915050565b6000612a4e8383612a09565b905092915050565b6000602082019050919050565b6000612a6e826129cc565b612a7881856129d7565b935083602082028501612a8a856129e8565b8060005b85811015612ac65784840389528151612aa78582612a42565b9450612ab283612a56565b925060208a01995050600181019050612a8e565b50829750879550505050505092915050565b600081519050919050565b600082825260208201905092915050565b6000819050602082019050919050565b612b0d8161239c565b82525050565b6000612b1f8383612b04565b60208301905092915050565b6000602082019050919050565b6000612b4382612ad8565b612b4d8185612ae3565b9350612b5883612af4565b8060005b83811015612b89578151612b708882612b13565b9750612b7b83612b2b565b925050600181019050612b5c565b5085935050505092915050565b600081519050919050565b600082825260208201905092915050565b6000819050602082019050919050565b612bcb816122a9565b82525050565b6000612bdd8383612bc2565b60208301905092915050565b6000602082019050919050565b6000612c0182612b96565b612c0b8185612ba1565b9350612c1683612bb2565b8060005b83811015612c47578151612c2e8882612bd1565b9750612c3983612be9565b925050600181019050612c1a565b5085935050505092915050565b600081519050919050565b600082825260208201905092915050565b6000819050602082019050919050565b612c89816121d9565b82525050565b6000612c9b8383612c80565b60208301905092915050565b6000602082019050919050565b6000612cbf82612c54565b612cc98185612c5f565b9350612cd483612c70565b8060005b83811015612d05578151612cec8882612c8f565b9750612cf783612ca7565b925050600181019050612cd8565b5085935050505092915050565b600060c0820190508181036000830152612d2c8189612a63565b90508181036020830152612d408188612b38565b90508181036040830152612d548187612bf6565b90508181036060830152612d688186612bf6565b90508181036080830152612d7c8185612cb4565b905081810360a0830152612d908184612bf6565b9050979650505050505050565b600080600060608486031215612db657612db561214a565b5b6000612dc4868287016122ca565b9350506020612dd5868287016124ca565b9250506040612de6868287016122ca565b9150509250925092565b600060c0820190508181036000830152612e0a8189612363565b9050612e1960208301886123ae565b612e2660408301876123bd565b612e3360608301866123bd565b612e4060808301856121e5565b612e4d60a08301846123bd565b979650505050505050565b7f4e487b7100000000000000000000000000000000000000000000000000000000600052602260045260246000fd5b60006002820490506001821680612e9f57607f821691505b602082108103612eb257612eb1612e58565b5b50919050565b7f50726f6a65637420616c726561647920696e6163746976650000000000000000600082015250565b6000612eee601883612317565b9150612ef982612eb8565b602082019050919050565b60006020820190508181036000830152612f1d81612ee1565b9050919050565b7f50726f6a656374206973206e6f74206163746976650000000000000000000000600082015250565b6000612f5a601583612317565b9150612f6582612f24565b602082019050919050565b60006020820190508181036000830152612f8981612f4d565b9050919050565b7f446f6e6174696f6e20616d6f756e74206d75737420626520677265617465722060008201527f7468616e20300000000000000000000000000000000000000000000000000000602082015250565b6000612fec602683612317565b9150612ff782612f90565b604082019050919050565b6000602082019050818103600083015261301b81612fdf565b9050919050565b7f4e487b7100000000000000000000000000000000000000000000000000000000600052601160045260246000fd5b600061305c826122a9565b9150613067836122a9565b925082820190508082111561307f5761307e613022565b5b92915050565b600060608201905061309a60008301866123ae565b6130a760208301856123bd565b6130b460408301846123bd565b949350505050565b6000815190506130cb816122b3565b92915050565b6000602082840312156130e7576130e661214a565b5b60006130f5848285016130bc565b91505092915050565b7f496e76616c6964206d696c6573746f6e6520696e646578000000000000000000600082015250565b6000613134601783612317565b915061313f826130fe565b602082019050919050565b6000602082019050818103600083015261316381613127565b9050919050565b7f4e487b7100000000000000000000000000000000000000000000000000000000600052603260045260246000fd5b7f50726f6a656374206973207374696c6c20616374697665000000000000000000600082015250565b60006131cf601783612317565b91506131da82613199565b602082019050919050565b600060208201905081810360008301526131fe816131c2565b9050919050565b7f4e6f20646f6e6174696f6e20666f756e64000000000000000000000000000000600082015250565b600061323b601183612317565b915061324682613205565b602082019050919050565b6000602082019050818103600083015261326a8161322e565b9050919050565b600081905092915050565b50565b600061328c600083613271565b91506132978261327c565b600082019050919050565b60006132ad8261327f565b9150819050919050565b7f526566756e64207472616e73666572206661696c656400000000000000000000600082015250565b60006132ed601683612317565b91506132f8826132b7565b602082019050919050565b6000602082019050818103600083015261331c816132e0565b9050919050565b7f4d696c6573746f6e6520617272617973206d757374206d617463680000000000600082015250565b6000613359601b83612317565b915061336482613323565b602082019050919050565b600060208201905081810360008301526133888161334c565b9050919050565b600061339a826122a9565b91507fffffffffffffffffffffffffffffffffffffffffffffffffffffffffffffffff82036133cc576133cb613022565b5b600182019050919050565b60008190508160005260206000209050919050565b60006020601f8301049050919050565b600082821b905092915050565b6000600883026134397fffffffffffffffffffffffffffffffffffffffffffffffffffffffffffffffff826133fc565b61344386836133fc565b95508019841693508086168417925050509392505050565b600061347661347161346c846122a9565b61222f565b6122a9565b9050919050565b6000819050919050565b6134908361345b565b6134a461349c8261347d565b848454613409565b825550505050565b600090565b6134b96134ac565b6134c4818484613487565b505050565b5b818110156134e8576134dd6000826134b1565b6001810190506134ca565b5050565b601f82111561352d576134fe816133d7565b613507846133ec565b81016020851015613516578190505b61352a613522856133ec565b8301826134c9565b50505b505050565b600082821c905092915050565b600061355060001984600802613532565b1980831691505092915050565b6000613569838361353f565b9150826002028217905092915050565b6135828261230c565b67ffffffffffffffff81111561359b5761359a61263d565b5b6135a58254612e87565b6135b08282856134ec565b600060209050601f8311600181146135e357600084156135d1578287015190505b6135db858261355d565b865550613643565b601f1984166135f1866133d7565b60005b82811015613619578489015182556001820191506020850194506020810190506135f4565b868310156136365784890151613632601f89168261353f565b8355505b6001600288020188555050505b505050505050565b600060408201905081810360008301526136658185612363565b905061367460208301846123ae565b9392505050565b600060608201905061369060008301866123ae565b61369d60208301856123ae565b6136aa60408301846123bd565b949350505050565b6136bb816121d9565b81146136c657600080fd5b50565b6000815190506136d8816136b2565b92915050565b6000602082840312156136f4576136f361214a565b5b6000613702848285016136c9565b91505092915050565b7f546f6b656e207472616e73666572206661696c65640000000000000000000000600082015250565b6000613741601583612317565b915061374c8261370b565b602082019050919050565b6000602082019050818103600083015261377081613734565b9050919050565b7f4d696c6573746f6e6520616c726561647920636f6d706c657465640000000000600082015250565b60006137ad601b83612317565b91506137b882613777565b602082019050919050565b600060208201905081810360008301526137dc816137a0565b9050919050565b7f46756e64207472616e73666572206661696c6564000000000000000000000000600082015250565b6000613819601483612317565b9150613824826137e3565b602082019050919050565b600060208201905081810360008301526138488161380c565b9050919050565b600060408201905061386460008301856123ae565b6138716020830184612489565b939250505056fea2646970667358221220922a00eacb07274c9b0d7c596c9361fb9aa5a632da0263a5d882360a14b6c05964736f6c63430008150033",
  "immutableReferences": {},
  "source": "// SPDX-License-Identifier: MIT\npragma solidity ^0.8.21;\n\nimport \"@openzeppelin/contracts/utils/ReentrancyGuard.sol\";\nimport \"@openzeppelin/contracts/access/AccessControl.sol\";\nimport \"@openzeppelin/contracts/token/ERC20/IERC20.sol\";\nimport \"./DonationToken.sol\";\n\ncontract CharityPlatform is ReentrancyGuard, AccessControl {\n    bytes32 public constant ADMIN_ROLE = keccak256(\"ADMIN_ROLE\");\n    bytes32 public constant CHARITY_ROLE = keccak256(\"CHARITY_ROLE\");\n\n    DonationToken public donationToken;\n    \n    struct Project {\n        string name;\n        address charityAddress;\n        uint256 goalAmount;\n        uint256 raisedAmount;\n        bool isActive;\n        Milestone[] milestones;\n        mapping(address => uint256) donations;\n    }\n\n    struct Milestone {\n        string description;\n        uint256 targetAmount;\n        bool isCompleted;\n        bool fundsReleased;\n    }\n\n    mapping(uint256 => Project) public projects;\n    uint256 public projectCount;\n\n    event ProjectCreated(uint256 indexed projectId, string name, address charityAddress);\n    event DonationReceived(uint256 indexed projectId, address indexed donor, uint256 amount);\n    event MilestoneCompleted(uint256 indexed projectId, uint256 milestoneIndex);\n    event FundsReleased(uint256 indexed projectId, uint256 amount);\n    event RefundIssued(uint256 indexed projectId, address indexed donor, uint256 amount);\n\n    constructor(address _donationToken) {\n        _grantRole(DEFAULT_ADMIN_ROLE, msg.sender);\n        _grantRole(ADMIN_ROLE, msg.sender);\n        donationToken = DonationToken(_donationToken);\n    }\n\n    function createProject(\n        string memory _name,\n        uint256 _goalAmount,\n        string[] memory _milestoneDescriptions,\n        uint256[] memory _milestoneTargets\n    ) external onlyRole(CHARITY_ROLE) {\n        require(_milestoneDescriptions.length == _milestoneTargets.length, \"Milestone arrays must match\");\n        \n        projectCount++;\n        Project storage project = projects[projectCount];\n        project.name = _name;\n        project.charityAddress = msg.sender;\n        project.goalAmount = _goalAmount;\n        project.isActive = true;\n\n        for(uint i = 0; i < _milestoneDescriptions.length; i++) {\n            project.milestones.push(Milestone({\n                description: _milestoneDescriptions[i],\n                targetAmount: _milestoneTargets[i],\n                isCompleted: false,\n                fundsReleased: false\n            }));\n        }\n\n        emit ProjectCreated(projectCount, _name, msg.sender);\n    }\n\n    function donate(uint256 _projectId, address _donor) external payable nonReentrant {\n        Project storage project = projects[_projectId];\n        require(project.isActive, \"Project is not active\");\n        require(msg.value > 0, \"Donation amount must be greater than 0\");\n\n        // IERC20 token = IERC20(project.charityAddress);\n        // require(token.transferFrom(_donor, address(this), msg.value), \"Token transfer failed\");\n\n        address payable recipient = payable(project.charityAddress); \n        recipient.transfer(msg.value); \n\n        project.donations[_donor] += msg.value;\n        project.raisedAmount += msg.value;\n\n        // Mint donation NFT\n        donationToken.mint(_donor, _projectId, msg.value);\n        // donationToken.mint(_donor, project.charityAddress, _projectId, msg.value);\n\n        emit DonationReceived(_projectId, _donor, msg.value);\n    }\n\n    function completeMilestone(uint256 _projectId, uint256 _milestoneIndex) external onlyRole(ADMIN_ROLE) {\n        Project storage project = projects[_projectId];\n        require(_milestoneIndex < project.milestones.length, \"Invalid milestone index\");\n        \n        Milestone storage milestone = project.milestones[_milestoneIndex];\n        require(!milestone.isCompleted, \"Milestone already completed\");\n        \n        milestone.isCompleted = true;\n        emit MilestoneCompleted(_projectId, _milestoneIndex);\n\n        // Release funds for completed milestone\n        if(!milestone.fundsReleased && project.raisedAmount >= milestone.targetAmount) {\n            milestone.fundsReleased = true;\n            uint256 releaseAmount = milestone.targetAmount;\n            \n            (bool success, ) = project.charityAddress.call{value: releaseAmount}(\"\");\n            require(success, \"Fund transfer failed\");\n            \n            emit FundsReleased(_projectId, releaseAmount);\n        }\n    }\n\n    function requestRefund(uint256 _projectId) external nonReentrant {\n        Project storage project = projects[_projectId];\n        require(!project.isActive, \"Project is still active\");\n        \n        uint256 donationAmount = project.donations[msg.sender];\n        require(donationAmount > 0, \"No donation found\");\n\n        project.donations[msg.sender] = 0;\n        \n        (bool success, ) = msg.sender.call{value: donationAmount}(\"\");\n        require(success, \"Refund transfer failed\");\n\n        emit RefundIssued(_projectId, msg.sender, donationAmount);\n    }\n\n    function deactivateProject(uint256 _projectId) external onlyRole(ADMIN_ROLE) {\n        Project storage project = projects[_projectId];\n        require(project.isActive, \"Project already inactive\");\n        project.isActive = false;\n    }\n\n    // Multi-currency support functions\n    function donateToken(uint256 _projectId, address _tokenAddress, uint256 _amount) external nonReentrant {\n        Project storage project = projects[_projectId];\n        require(project.isActive, \"Project is not active\");\n        \n        IERC20 token = IERC20(_tokenAddress);\n        require(token.transferFrom(msg.sender, address(this), _amount), \"Token transfer failed\");\n        \n        project.donations[msg.sender] += _amount;\n        project.raisedAmount += _amount;\n\n        // Mint donation NFT\n        donationToken.mint(msg.sender, _projectId, _amount);\n        \n        emit DonationReceived(_projectId, msg.sender, _amount);\n    }\n\n    // Administrative functions\n    function addCharity(address _charityAddress) external onlyRole(ADMIN_ROLE) {\n        _grantRole(CHARITY_ROLE, _charityAddress);\n    }\n\n    function removeCharity(address _charityAddress) external onlyRole(ADMIN_ROLE) {\n        revokeRole(CHARITY_ROLE, _charityAddress);\n    }\n\n    // View functions\n    function getProject(uint256 _projectId) external view returns (\n        string memory name,\n        address charityAddress,\n        uint256 goalAmount,\n        uint256 raisedAmount,\n        bool isActive,\n        uint256 milestoneCount\n    ) {\n        Project storage project = projects[_projectId];\n        return (\n            project.name,\n            project.charityAddress,\n            project.goalAmount,\n            project.raisedAmount,\n            project.isActive,\n            project.milestones.length\n        );\n    }\n\n    function getProjectDonations(uint256 _projectId, address _donor) external view returns (\n        uint256 donorAmount\n    ) {\n        Project storage project = projects[_projectId];\n        uint256 amount = project.donations[_donor];\n        return (\n            amount\n        );\n    }\n\n    function getProjects() external view returns (\n        string[] memory name,\n        address[] memory charityAddress,\n        uint256[] memory goalAmount,\n        uint256[] memory raisedAmount,\n        bool[] memory isActive,\n        uint256[] memory milestoneCount\n    ) {\n        string[] memory allNames = new string[](projectCount);\n        address[] memory allCharityAddreses = new address[](projectCount);\n        uint256[] memory allGoalAmounts = new uint256[](projectCount);\n        uint256[] memory allRaisedAmounts = new uint256[](projectCount);\n        bool[] memory areActive = new bool[](projectCount);\n        uint256[] memory milestoneCounts = new uint256[](projectCount);\n        for (uint i = 0; i < projectCount; i++) {\n            allNames[i] = projects[i].name;\n            allCharityAddreses[i] = projects[i].charityAddress;\n            allGoalAmounts[i] = projects[i].goalAmount;\n            allRaisedAmounts[i] = projects[i].raisedAmount;\n            areActive[i] = projects[i].isActive;\n            milestoneCounts[i] = projects[i].milestones.length;\n        }\n        return (\n            allNames, \n            allCharityAddreses, \n            allGoalAmounts,\n            allRaisedAmounts,\n            areActive,\n            milestoneCounts\n        );\n    }\n\n    function getMilestone(uint256 _projectId, uint256 _milestoneIndex) external view returns (\n        string memory description,\n        uint256 targetAmount,\n        bool isCompleted,\n        bool fundsReleased\n    ) {\n        Project storage project = projects[_projectId];\n        require(_milestoneIndex < project.milestones.length, \"Invalid milestone index\");\n        \n        Milestone storage milestone = project.milestones[_milestoneIndex];\n        return (\n            milestone.description,\n            milestone.targetAmount,\n            milestone.isCompleted,\n            milestone.fundsReleased\n        );\n    }\n\n    receive() external payable {}\n}",
  "sourcePath": "/Users/artazidele/Documents/LU-2023-2024/Blokkedes biznesa/CharityDonation/contracts/CharityPlatform.sol",
  "compiler": {
    "name": "solc",
    "version": "0.8.21+commit.d9974bed.Emscripten.clang"
  },
  "schemaVersion": "3.4.16",
  "updatedAt": "2024-12-07T10:50:30.153Z",
  "networkType": "ethereum",
  "devdoc": {
    "errors": {
      "AccessControlBadConfirmation()": [
        {
          "details": "The caller of a function is not the expected one. NOTE: Don't confuse with {AccessControlUnauthorizedAccount}."
        }
      ],
      "AccessControlUnauthorizedAccount(address,bytes32)": [
        {
          "details": "The `account` is missing a role."
        }
      ],
      "ReentrancyGuardReentrantCall()": [
        {
          "details": "Unauthorized reentrant call."
        }
      ]
    },
    "events": {
      "RoleAdminChanged(bytes32,bytes32,bytes32)": {
        "details": "Emitted when `newAdminRole` is set as ``role``'s admin role, replacing `previousAdminRole` `DEFAULT_ADMIN_ROLE` is the starting admin for all roles, despite {RoleAdminChanged} not being emitted signaling this."
      },
      "RoleGranted(bytes32,address,address)": {
        "details": "Emitted when `account` is granted `role`. `sender` is the account that originated the contract call. This account bears the admin role (for the granted role). Expected in cases where the role was granted using the internal {AccessControl-_grantRole}."
      },
      "RoleRevoked(bytes32,address,address)": {
        "details": "Emitted when `account` is revoked `role`. `sender` is the account that originated the contract call:   - if using `revokeRole`, it is the admin role bearer   - if using `renounceRole`, it is the role bearer (i.e. `account`)"
      }
    },
    "kind": "dev",
    "methods": {
      "getRoleAdmin(bytes32)": {
        "details": "Returns the admin role that controls `role`. See {grantRole} and {revokeRole}. To change a role's admin, use {_setRoleAdmin}."
      },
      "grantRole(bytes32,address)": {
        "details": "Grants `role` to `account`. If `account` had not been already granted `role`, emits a {RoleGranted} event. Requirements: - the caller must have ``role``'s admin role. May emit a {RoleGranted} event."
      },
      "hasRole(bytes32,address)": {
        "details": "Returns `true` if `account` has been granted `role`."
      },
      "renounceRole(bytes32,address)": {
        "details": "Revokes `role` from the calling account. Roles are often managed via {grantRole} and {revokeRole}: this function's purpose is to provide a mechanism for accounts to lose their privileges if they are compromised (such as when a trusted device is misplaced). If the calling account had been revoked `role`, emits a {RoleRevoked} event. Requirements: - the caller must be `callerConfirmation`. May emit a {RoleRevoked} event."
      },
      "revokeRole(bytes32,address)": {
        "details": "Revokes `role` from `account`. If `account` had been granted `role`, emits a {RoleRevoked} event. Requirements: - the caller must have ``role``'s admin role. May emit a {RoleRevoked} event."
      },
      "supportsInterface(bytes4)": {
        "details": "See {IERC165-supportsInterface}."
      }
    },
    "version": 1
  },
  "userdoc": {
    "kind": "user",
    "methods": {},
    "version": 1
  }
}