{
  "contractName": "CharityPlatform",
  "abi": [
    {
      "inputs": [
        {
          "internalType": "address",
          "name": "_donationToken",
          "type": "address"
        }
      ],
      "stateMutability": "nonpayable",
      "type": "constructor"
    },
    {
      "inputs": [],
      "name": "AccessControlBadConfirmation",
      "type": "error"
    },
    {
      "inputs": [
        {
          "internalType": "address",
          "name": "account",
          "type": "address"
        },
        {
          "internalType": "bytes32",
          "name": "neededRole",
          "type": "bytes32"
        }
      ],
      "name": "AccessControlUnauthorizedAccount",
      "type": "error"
    },
    {
      "inputs": [],
      "name": "ReentrancyGuardReentrantCall",
      "type": "error"
    },
    {
      "anonymous": false,
      "inputs": [
        {
          "indexed": true,
          "internalType": "uint256",
          "name": "projectId",
          "type": "uint256"
        },
        {
          "indexed": true,
          "internalType": "address",
          "name": "donor",
          "type": "address"
        },
        {
          "indexed": false,
          "internalType": "uint256",
          "name": "amount",
          "type": "uint256"
        }
      ],
      "name": "DonationReceived",
      "type": "event"
    },
    {
      "anonymous": false,
      "inputs": [
        {
          "indexed": true,
          "internalType": "uint256",
          "name": "projectId",
          "type": "uint256"
        },
        {
          "indexed": false,
          "internalType": "uint256",
          "name": "amount",
          "type": "uint256"
        }
      ],
      "name": "FundsReleased",
      "type": "event"
    },
    {
      "anonymous": false,
      "inputs": [
        {
          "indexed": true,
          "internalType": "uint256",
          "name": "projectId",
          "type": "uint256"
        },
        {
          "indexed": false,
          "internalType": "uint256",
          "name": "milestoneIndex",
          "type": "uint256"
        }
      ],
      "name": "MilestoneCompleted",
      "type": "event"
    },
    {
      "anonymous": false,
      "inputs": [
        {
          "indexed": true,
          "internalType": "uint256",
          "name": "projectId",
          "type": "uint256"
        },
        {
          "indexed": false,
          "internalType": "string",
          "name": "name",
          "type": "string"
        },
        {
          "indexed": false,
          "internalType": "address",
          "name": "charityAddress",
          "type": "address"
        }
      ],
      "name": "ProjectCreated",
      "type": "event"
    },
    {
      "anonymous": false,
      "inputs": [
        {
          "indexed": true,
          "internalType": "uint256",
          "name": "projectId",
          "type": "uint256"
        },
        {
          "indexed": true,
          "internalType": "address",
          "name": "donor",
          "type": "address"
        },
        {
          "indexed": false,
          "internalType": "uint256",
          "name": "amount",
          "type": "uint256"
        }
      ],
      "name": "RefundIssued",
      "type": "event"
    },
    {
      "anonymous": false,
      "inputs": [
        {
          "indexed": true,
          "internalType": "bytes32",
          "name": "role",
          "type": "bytes32"
        },
        {
          "indexed": true,
          "internalType": "bytes32",
          "name": "previousAdminRole",
          "type": "bytes32"
        },
        {
          "indexed": true,
          "internalType": "bytes32",
          "name": "newAdminRole",
          "type": "bytes32"
        }
      ],
      "name": "RoleAdminChanged",
      "type": "event"
    },
    {
      "anonymous": false,
      "inputs": [
        {
          "indexed": true,
          "internalType": "bytes32",
          "name": "role",
          "type": "bytes32"
        },
        {
          "indexed": true,
          "internalType": "address",
          "name": "account",
          "type": "address"
        },
        {
          "indexed": true,
          "internalType": "address",
          "name": "sender",
          "type": "address"
        }
      ],
      "name": "RoleGranted",
      "type": "event"
    },
    {
      "anonymous": false,
      "inputs": [
        {
          "indexed": true,
          "internalType": "bytes32",
          "name": "role",
          "type": "bytes32"
        },
        {
          "indexed": true,
          "internalType": "address",
          "name": "account",
          "type": "address"
        },
        {
          "indexed": true,
          "internalType": "address",
          "name": "sender",
          "type": "address"
        }
      ],
      "name": "RoleRevoked",
      "type": "event"
    },
    {
      "inputs": [],
      "name": "ADMIN_ROLE",
      "outputs": [
        {
          "internalType": "bytes32",
          "name": "",
          "type": "bytes32"
        }
      ],
      "stateMutability": "view",
      "type": "function"
    },
    {
      "inputs": [],
      "name": "CHARITY_ROLE",
      "outputs": [
        {
          "internalType": "bytes32",
          "name": "",
          "type": "bytes32"
        }
      ],
      "stateMutability": "view",
      "type": "function"
    },
    {
      "inputs": [],
      "name": "DEFAULT_ADMIN_ROLE",
      "outputs": [
        {
          "internalType": "bytes32",
          "name": "",
          "type": "bytes32"
        }
      ],
      "stateMutability": "view",
      "type": "function"
    },
    {
      "inputs": [],
      "name": "donationToken",
      "outputs": [
        {
          "internalType": "contract DonationToken",
          "name": "",
          "type": "address"
        }
      ],
      "stateMutability": "view",
      "type": "function"
    },
    {
      "inputs": [
        {
          "internalType": "bytes32",
          "name": "role",
          "type": "bytes32"
        }
      ],
      "name": "getRoleAdmin",
      "outputs": [
        {
          "internalType": "bytes32",
          "name": "",
          "type": "bytes32"
        }
      ],
      "stateMutability": "view",
      "type": "function"
    },
    {
      "inputs": [
        {
          "internalType": "bytes32",
          "name": "role",
          "type": "bytes32"
        },
        {
          "internalType": "address",
          "name": "account",
          "type": "address"
        }
      ],
      "name": "grantRole",
      "outputs": [],
      "stateMutability": "nonpayable",
      "type": "function"
    },
    {
      "inputs": [
        {
          "internalType": "bytes32",
          "name": "role",
          "type": "bytes32"
        },
        {
          "internalType": "address",
          "name": "account",
          "type": "address"
        }
      ],
      "name": "hasRole",
      "outputs": [
        {
          "internalType": "bool",
          "name": "",
          "type": "bool"
        }
      ],
      "stateMutability": "view",
      "type": "function"
    },
    {
      "inputs": [],
      "name": "projectCount",
      "outputs": [
        {
          "internalType": "uint256",
          "name": "",
          "type": "uint256"
        }
      ],
      "stateMutability": "view",
      "type": "function"
    },
    {
      "inputs": [
        {
          "internalType": "uint256",
          "name": "",
          "type": "uint256"
        }
      ],
      "name": "projects",
      "outputs": [
        {
          "internalType": "string",
          "name": "name",
          "type": "string"
        },
        {
          "internalType": "address",
          "name": "charityAddress",
          "type": "address"
        },
        {
          "internalType": "uint256",
          "name": "goalAmount",
          "type": "uint256"
        },
        {
          "internalType": "uint256",
          "name": "raisedAmount",
          "type": "uint256"
        },
        {
          "internalType": "bool",
          "name": "isActive",
          "type": "bool"
        }
      ],
      "stateMutability": "view",
      "type": "function"
    },
    {
      "inputs": [
        {
          "internalType": "bytes32",
          "name": "role",
          "type": "bytes32"
        },
        {
          "internalType": "address",
          "name": "callerConfirmation",
          "type": "address"
        }
      ],
      "name": "renounceRole",
      "outputs": [],
      "stateMutability": "nonpayable",
      "type": "function"
    },
    {
      "inputs": [
        {
          "internalType": "bytes32",
          "name": "role",
          "type": "bytes32"
        },
        {
          "internalType": "address",
          "name": "account",
          "type": "address"
        }
      ],
      "name": "revokeRole",
      "outputs": [],
      "stateMutability": "nonpayable",
      "type": "function"
    },
    {
      "inputs": [
        {
          "internalType": "bytes4",
          "name": "interfaceId",
          "type": "bytes4"
        }
      ],
      "name": "supportsInterface",
      "outputs": [
        {
          "internalType": "bool",
          "name": "",
          "type": "bool"
        }
      ],
      "stateMutability": "view",
      "type": "function"
    },
    {
      "stateMutability": "payable",
      "type": "receive"
    },
    {
      "inputs": [
        {
          "internalType": "string",
          "name": "_name",
          "type": "string"
        },
        {
          "internalType": "uint256",
          "name": "_goalAmount",
          "type": "uint256"
        },
        {
          "internalType": "string[]",
          "name": "_milestoneDescriptions",
          "type": "string[]"
        },
        {
          "internalType": "uint256[]",
          "name": "_milestoneTargets",
          "type": "uint256[]"
        }
      ],
      "name": "createProject",
      "outputs": [],
      "stateMutability": "nonpayable",
      "type": "function"
    },
    {
      "inputs": [
        {
          "internalType": "uint256",
          "name": "_projectId",
          "type": "uint256"
        },
        {
          "internalType": "address",
          "name": "_donor",
          "type": "address"
        }
      ],
      "name": "donate",
      "outputs": [],
      "stateMutability": "payable",
      "type": "function"
    },
    {
      "inputs": [
        {
          "internalType": "address",
          "name": "_recipient",
          "type": "address"
        }
      ],
      "name": "donate2",
      "outputs": [
        {
          "internalType": "bool",
          "name": "",
          "type": "bool"
        }
      ],
      "stateMutability": "payable",
      "type": "function"
    },
    {
      "inputs": [
        {
          "internalType": "uint256",
          "name": "_projectId",
          "type": "uint256"
        },
        {
          "internalType": "uint256",
          "name": "_milestoneIndex",
          "type": "uint256"
        }
      ],
      "name": "completeMilestone",
      "outputs": [],
      "stateMutability": "nonpayable",
      "type": "function"
    },
    {
      "inputs": [
        {
          "internalType": "uint256",
          "name": "_projectId",
          "type": "uint256"
        }
      ],
      "name": "requestRefund",
      "outputs": [],
      "stateMutability": "nonpayable",
      "type": "function"
    },
    {
      "inputs": [
        {
          "internalType": "uint256",
          "name": "_projectId",
          "type": "uint256"
        }
      ],
      "name": "deactivateProject",
      "outputs": [],
      "stateMutability": "nonpayable",
      "type": "function"
    },
    {
      "inputs": [
        {
          "internalType": "uint256",
          "name": "_projectId",
          "type": "uint256"
        },
        {
          "internalType": "address",
          "name": "_tokenAddress",
          "type": "address"
        },
        {
          "internalType": "uint256",
          "name": "_amount",
          "type": "uint256"
        }
      ],
      "name": "donateToken",
      "outputs": [],
      "stateMutability": "nonpayable",
      "type": "function"
    },
    {
      "inputs": [
        {
          "internalType": "address",
          "name": "_charityAddress",
          "type": "address"
        }
      ],
      "name": "addCharity",
      "outputs": [],
      "stateMutability": "nonpayable",
      "type": "function"
    },
    {
      "inputs": [
        {
          "internalType": "address",
          "name": "_charityAddress",
          "type": "address"
        }
      ],
      "name": "removeCharity",
      "outputs": [],
      "stateMutability": "nonpayable",
      "type": "function"
    },
    {
      "inputs": [
        {
          "internalType": "uint256",
          "name": "_projectId",
          "type": "uint256"
        }
      ],
      "name": "getProject",
      "outputs": [
        {
          "internalType": "string",
          "name": "name",
          "type": "string"
        },
        {
          "internalType": "address",
          "name": "charityAddress",
          "type": "address"
        },
        {
          "internalType": "uint256",
          "name": "goalAmount",
          "type": "uint256"
        },
        {
          "internalType": "uint256",
          "name": "raisedAmount",
          "type": "uint256"
        },
        {
          "internalType": "bool",
          "name": "isActive",
          "type": "bool"
        },
        {
          "internalType": "uint256",
          "name": "milestoneCount",
          "type": "uint256"
        }
      ],
      "stateMutability": "view",
      "type": "function"
    },
    {
      "inputs": [
        {
          "internalType": "uint256",
          "name": "_projectId",
          "type": "uint256"
        },
        {
          "internalType": "address",
          "name": "_donor",
          "type": "address"
        }
      ],
      "name": "getProjectDonations",
      "outputs": [
        {
          "internalType": "uint256",
          "name": "donorAmount",
          "type": "uint256"
        }
      ],
      "stateMutability": "view",
      "type": "function"
    },
    {
      "inputs": [],
      "name": "getProjects",
      "outputs": [
        {
          "internalType": "string[]",
          "name": "name",
          "type": "string[]"
        },
        {
          "internalType": "address[]",
          "name": "charityAddress",
          "type": "address[]"
        },
        {
          "internalType": "uint256[]",
          "name": "goalAmount",
          "type": "uint256[]"
        },
        {
          "internalType": "uint256[]",
          "name": "raisedAmount",
          "type": "uint256[]"
        },
        {
          "internalType": "bool[]",
          "name": "isActive",
          "type": "bool[]"
        },
        {
          "internalType": "uint256[]",
          "name": "milestoneCount",
          "type": "uint256[]"
        }
      ],
      "stateMutability": "view",
      "type": "function"
    },
    {
      "inputs": [
        {
          "internalType": "uint256",
          "name": "_projectId",
          "type": "uint256"
        },
        {
          "internalType": "uint256",
          "name": "_milestoneIndex",
          "type": "uint256"
        }
      ],
      "name": "getMilestone",
      "outputs": [
        {
          "internalType": "string",
          "name": "description",
          "type": "string"
        },
        {
          "internalType": "uint256",
          "name": "targetAmount",
          "type": "uint256"
        },
        {
          "internalType": "bool",
          "name": "isCompleted",
          "type": "bool"
        },
        {
          "internalType": "bool",
          "name": "fundsReleased",
          "type": "bool"
        }
      ],
      "stateMutability": "view",
      "type": "function"
    }
  ],
  "bytecode": "0x60806040523480156200001157600080fd5b5060405162003ce038038062003ce08339818101604052810190620000379190620002b0565b6001600081905550620000546000801b33620000d060201b60201c565b50620000877fa49807205ce4d355092ef5a8a18f56e8913cf4a201fbe287825b095693c2177533620000d060201b60201c565b5080600260006101000a81548173ffffffffffffffffffffffffffffffffffffffff021916908373ffffffffffffffffffffffffffffffffffffffff16021790555050620002e2565b6000620000e48383620001d360201b60201c565b620001c857600180600085815260200190815260200160002060000160008473ffffffffffffffffffffffffffffffffffffffff1673ffffffffffffffffffffffffffffffffffffffff16815260200190815260200160002060006101000a81548160ff021916908315150217905550620001646200023e60201b60201c565b73ffffffffffffffffffffffffffffffffffffffff168273ffffffffffffffffffffffffffffffffffffffff16847f2f8788117e7eff1d82e926ec794901d17c78024a50270940304540a733656f0d60405160405180910390a460019050620001cd565b600090505b92915050565b60006001600084815260200190815260200160002060000160008373ffffffffffffffffffffffffffffffffffffffff1673ffffffffffffffffffffffffffffffffffffffff16815260200190815260200160002060009054906101000a900460ff16905092915050565b600033905090565b600080fd5b600073ffffffffffffffffffffffffffffffffffffffff82169050919050565b600062000278826200024b565b9050919050565b6200028a816200026b565b81146200029657600080fd5b50565b600081519050620002aa816200027f565b92915050565b600060208284031215620002c957620002c862000246565b5b6000620002d98482850162000299565b91505092915050565b6139ee80620002f26000396000f3fe60806040526004361061016a5760003560e01c80638004f9fa116100d1578063afd14b821161008a578063dd36341a11610064578063dd36341a14610549578063f057193514610586578063f0f3f2c8146105af578063f326206b146105f157610171565b8063afd14b82146104c7578063d547741f146104f0578063dcc601281461051957610171565b80638004f9fa146103b15780638ed9895c146103cd57806391d148541461040d578063a217fddf1461044a578063a4b2409e14610475578063abefe5911461049e57610171565b806336fbad261161012357806336fbad26146102ae578063436e6958146102d9578063568833a0146103025780636f0c80671461033257806375b238fc1461035d57806378b14f0a1461038857610171565b806301ffc9a7146101765780630df72159146101b3578063107046bd146101de578063248a9ca31461021f5780632f2ff15d1461025c57806336568abe1461028557610171565b3661017157005b600080fd5b34801561018257600080fd5b5061019d60048036038101906101989190612280565b61061a565b6040516101aa91906122c8565b60405180910390f35b3480156101bf57600080fd5b506101c8610694565b6040516101d59190612362565b60405180910390f35b3480156101ea57600080fd5b50610205600480360381019061020091906123b3565b6106ba565b6040516102169594939291906124a0565b60405180910390f35b34801561022b57600080fd5b5061024660048036038101906102419190612530565b6107a5565b604051610253919061256c565b60405180910390f35b34801561026857600080fd5b50610283600480360381019061027e91906125b3565b6107c5565b005b34801561029157600080fd5b506102ac60048036038101906102a791906125b3565b6107e7565b005b3480156102ba57600080fd5b506102c3610862565b6040516102d091906125f3565b60405180910390f35b3480156102e557600080fd5b5061030060048036038101906102fb91906123b3565b610868565b005b61031c6004803603810190610317919061260e565b61091c565b60405161032991906122c8565b60405180910390f35b34801561033e57600080fd5b506103476109a5565b604051610354919061256c565b60405180910390f35b34801561036957600080fd5b506103726109c9565b60405161037f919061256c565b60405180910390f35b34801561039457600080fd5b506103af60048036038101906103aa919061260e565b6109ed565b005b6103cb60048036038101906103c6919061263b565b610a46565b005b3480156103d957600080fd5b506103f460048036038101906103ef919061267b565b610cdc565b60405161040494939291906126bb565b60405180910390f35b34801561041957600080fd5b50610434600480360381019061042f91906125b3565b610e36565b60405161044191906122c8565b60405180910390f35b34801561045657600080fd5b5061045f610ea1565b60405161046c919061256c565b60405180910390f35b34801561048157600080fd5b5061049c600480360381019061049791906123b3565b610ea8565b005b3480156104aa57600080fd5b506104c560048036038101906104c0919061260e565b6110f2565b005b3480156104d357600080fd5b506104ee60048036038101906104e991906129e5565b61114a565b005b3480156104fc57600080fd5b50610517600480360381019061051291906125b3565b6113b2565b005b34801561052557600080fd5b5061052e6113d4565b60405161054096959493929190612de6565b60405180910390f35b34801561055557600080fd5b50610570600480360381019061056b919061263b565b61182c565b60405161057d91906125f3565b60405180910390f35b34801561059257600080fd5b506105ad60048036038101906105a89190612e71565b611895565b005b3480156105bb57600080fd5b506105d660048036038101906105d191906123b3565b611b3d565b6040516105e896959493929190612ec4565b60405180910390f35b3480156105fd57600080fd5b506106186004803603810190610613919061267b565b611c4c565b005b60007f7965db0b000000000000000000000000000000000000000000000000000000007bffffffffffffffffffffffffffffffffffffffffffffffffffffffff1916827bffffffffffffffffffffffffffffffffffffffffffffffffffffffff1916148061068d575061068c82611f09565b5b9050919050565b600260009054906101000a900473ffffffffffffffffffffffffffffffffffffffff1681565b60036020528060005260406000206000915090508060000180546106dd90612f5b565b80601f016020809104026020016040519081016040528092919081815260200182805461070990612f5b565b80156107565780601f1061072b57610100808354040283529160200191610756565b820191906000526020600020905b81548152906001019060200180831161073957829003601f168201915b5050505050908060010160009054906101000a900473ffffffffffffffffffffffffffffffffffffffff16908060020154908060030154908060040160009054906101000a900460ff16905085565b600060016000838152602001908152602001600020600101549050919050565b6107ce826107a5565b6107d781611f73565b6107e18383611f87565b50505050565b6107ef612078565b73ffffffffffffffffffffffffffffffffffffffff168173ffffffffffffffffffffffffffffffffffffffff1614610853576040517f6697b23200000000000000000000000000000000000000000000000000000000815260040160405180910390fd5b61085d8282612080565b505050565b60045481565b7fa49807205ce4d355092ef5a8a18f56e8913cf4a201fbe287825b095693c2177561089281611f73565b60006003600084815260200190815260200160002090508060040160009054906101000a900460ff166108fa576040517f08c379a00000000000000000000000000000000000000000000000000000000081526004016108f190612fd8565b60405180910390fd5b60008160040160006101000a81548160ff021916908315150217905550505050565b60008082905060008173ffffffffffffffffffffffffffffffffffffffff166108fc349081150290604051600060405180830381858888f1935050505090508061099b576040517f08c379a000000000000000000000000000000000000000000000000000000000815260040161099290613044565b60405180910390fd5b8092505050919050565b7f838cb9e68162e54d2dfda44baa96273d8a6cb729c0d42995215e0f52841feb7781565b7fa49807205ce4d355092ef5a8a18f56e8913cf4a201fbe287825b095693c2177581565b7fa49807205ce4d355092ef5a8a18f56e8913cf4a201fbe287825b095693c21775610a1781611f73565b610a417f838cb9e68162e54d2dfda44baa96273d8a6cb729c0d42995215e0f52841feb7783611f87565b505050565b610a4e612173565b60006003600084815260200190815260200160002090508060040160009054906101000a900460ff16610ab6576040517f08c379a0000000000000000000000000000000000000000000000000000000008152600401610aad906130b0565b60405180910390fd5b60003411610af9576040517f08c379a0000000000000000000000000000000000000000000000000000000008152600401610af090613142565b60405180910390fd5b60008160010160009054906101000a900473ffffffffffffffffffffffffffffffffffffffff1690508073ffffffffffffffffffffffffffffffffffffffff166108fc349081150290604051600060405180830381858888f19350505050158015610b68573d6000803e3d6000fd5b50348260060160008573ffffffffffffffffffffffffffffffffffffffff1673ffffffffffffffffffffffffffffffffffffffff1681526020019081526020016000206000828254610bba9190613191565b9250508190555034826003016000828254610bd59190613191565b92505081905550600260009054906101000a900473ffffffffffffffffffffffffffffffffffffffff1673ffffffffffffffffffffffffffffffffffffffff1663156e29f68486346040518463ffffffff1660e01b8152600401610c3b939291906131c5565b6020604051808303816000875af1158015610c5a573d6000803e3d6000fd5b505050506040513d601f19601f82011682018060405250810190610c7e9190613211565b508273ffffffffffffffffffffffffffffffffffffffff16847f0b5b4c52969ff7329ecf7ee536409fda87812b15a8622bc6e8cdeab3aee14a2634604051610cc691906125f3565b60405180910390a35050610cd86121b9565b5050565b606060008060008060036000888152602001908152602001600020905080600501805490508610610d42576040517f08c379a0000000000000000000000000000000000000000000000000000000008152600401610d399061328a565b60405180910390fd5b6000816005018781548110610d5a57610d596132aa565b5b906000526020600020906003020190508060000181600101548260020160009054906101000a900460ff168360020160019054906101000a900460ff16838054610da390612f5b565b80601f0160208091040260200160405190810160405280929190818152602001828054610dcf90612f5b565b8015610e1c5780601f10610df157610100808354040283529160200191610e1c565b820191906000526020600020905b815481529060010190602001808311610dff57829003601f168201915b505050505093509550955095509550505092959194509250565b60006001600084815260200190815260200160002060000160008373ffffffffffffffffffffffffffffffffffffffff1673ffffffffffffffffffffffffffffffffffffffff16815260200190815260200160002060009054906101000a900460ff16905092915050565b6000801b81565b610eb0612173565b60006003600083815260200190815260200160002090508060040160009054906101000a900460ff1615610f19576040517f08c379a0000000000000000000000000000000000000000000000000000000008152600401610f1090613325565b60405180910390fd5b60008160060160003373ffffffffffffffffffffffffffffffffffffffff1673ffffffffffffffffffffffffffffffffffffffff16815260200190815260200160002054905060008111610fa2576040517f08c379a0000000000000000000000000000000000000000000000000000000008152600401610f9990613391565b60405180910390fd5b60008260060160003373ffffffffffffffffffffffffffffffffffffffff1673ffffffffffffffffffffffffffffffffffffffff1681526020019081526020016000208190555060003373ffffffffffffffffffffffffffffffffffffffff168260405161100f906133e2565b60006040518083038185875af1925050503d806000811461104c576040519150601f19603f3d011682016040523d82523d6000602084013e611051565b606091505b5050905080611095576040517f08c379a000000000000000000000000000000000000000000000000000000000815260040161108c90613443565b60405180910390fd5b3373ffffffffffffffffffffffffffffffffffffffff16847f7a482fdeb6bc9a1376f597068a214a7a39472bb2eff1b8cad21ba04f49ddca1b846040516110dc91906125f3565b60405180910390a35050506110ef6121b9565b50565b7fa49807205ce4d355092ef5a8a18f56e8913cf4a201fbe287825b095693c2177561111c81611f73565b6111467f838cb9e68162e54d2dfda44baa96273d8a6cb729c0d42995215e0f52841feb77836113b2565b5050565b7f838cb9e68162e54d2dfda44baa96273d8a6cb729c0d42995215e0f52841feb7761117481611f73565b81518351146111b8576040517f08c379a00000000000000000000000000000000000000000000000000000000081526004016111af906134af565b60405180910390fd5b600460008154809291906111cb906134cf565b919050555060006003600060045481526020019081526020016000209050858160000190816111fa91906136b9565b50338160010160006101000a81548173ffffffffffffffffffffffffffffffffffffffff021916908373ffffffffffffffffffffffffffffffffffffffff16021790555084816002018190555060018160040160006101000a81548160ff02191690831515021790555060005b845181101561136d57816005016040518060800160405280878481518110611292576112916132aa565b5b602002602001015181526020018684815181106112b2576112b16132aa565b5b60200260200101518152602001600015158152602001600015158152509080600181540180825580915050600190039060005260206000209060030201600090919091909150600082015181600001908161130d91906136b9565b506020820151816001015560408201518160020160006101000a81548160ff02191690831515021790555060608201518160020160016101000a81548160ff02191690831515021790555050508080611365906134cf565b915050611267565b506004547fc0c54fed07481d0998e1446b2c13759606bf4f26b78306307413ac4c4309aa8287336040516113a292919061378b565b60405180910390a2505050505050565b6113bb826107a5565b6113c481611f73565b6113ce8383612080565b50505050565b606080606080606080600060045467ffffffffffffffff8111156113fb576113fa612711565b5b60405190808252806020026020018201604052801561142e57816020015b60608152602001906001900390816114195790505b509050600060045467ffffffffffffffff81111561144f5761144e612711565b5b60405190808252806020026020018201604052801561147d5781602001602082028036833780820191505090505b509050600060045467ffffffffffffffff81111561149e5761149d612711565b5b6040519080825280602002602001820160405280156114cc5781602001602082028036833780820191505090505b509050600060045467ffffffffffffffff8111156114ed576114ec612711565b5b60405190808252806020026020018201604052801561151b5781602001602082028036833780820191505090505b509050600060045467ffffffffffffffff81111561153c5761153b612711565b5b60405190808252806020026020018201604052801561156a5781602001602082028036833780820191505090505b509050600060045467ffffffffffffffff81111561158b5761158a612711565b5b6040519080825280602002602001820160405280156115b95781602001602082028036833780820191505090505b50905060005b60045481101561180b576003600082815260200190815260200160002060000180546115ea90612f5b565b80601f016020809104026020016040519081016040528092919081815260200182805461161690612f5b565b80156116635780601f1061163857610100808354040283529160200191611663565b820191906000526020600020905b81548152906001019060200180831161164657829003601f168201915b505050505087828151811061167b5761167a6132aa565b5b60200260200101819052506003600082815260200190815260200160002060010160009054906101000a900473ffffffffffffffffffffffffffffffffffffffff168682815181106116d0576116cf6132aa565b5b602002602001019073ffffffffffffffffffffffffffffffffffffffff16908173ffffffffffffffffffffffffffffffffffffffff16815250506003600082815260200190815260200160002060020154858281518110611734576117336132aa565b5b602002602001018181525050600360008281526020019081526020016000206003015484828151811061176a576117696132aa565b5b6020026020010181815250506003600082815260200190815260200160002060040160009054906101000a900460ff168382815181106117ad576117ac6132aa565b5b60200260200101901515908115158152505060036000828152602001908152602001600020600501805490508282815181106117ec576117eb6132aa565b5b6020026020010181815250508080611803906134cf565b9150506115bf565b508585858585859b509b509b509b509b509b50505050505050909192939495565b60008060036000858152602001908152602001600020905060008160060160008573ffffffffffffffffffffffffffffffffffffffff1673ffffffffffffffffffffffffffffffffffffffff168152602001908152602001600020549050809250505092915050565b61189d612173565b60006003600085815260200190815260200160002090508060040160009054906101000a900460ff16611905576040517f08c379a00000000000000000000000000000000000000000000000000000000081526004016118fc906130b0565b60405180910390fd5b60008390508073ffffffffffffffffffffffffffffffffffffffff166323b872dd3330866040518463ffffffff1660e01b8152600401611947939291906137bb565b6020604051808303816000875af1158015611966573d6000803e3d6000fd5b505050506040513d601f19601f8201168201806040525081019061198a919061381e565b6119c9576040517f08c379a00000000000000000000000000000000000000000000000000000000081526004016119c090613897565b60405180910390fd5b828260060160003373ffffffffffffffffffffffffffffffffffffffff1673ffffffffffffffffffffffffffffffffffffffff1681526020019081526020016000206000828254611a1a9190613191565b9250508190555082826003016000828254611a359190613191565b92505081905550600260009054906101000a900473ffffffffffffffffffffffffffffffffffffffff1673ffffffffffffffffffffffffffffffffffffffff1663156e29f63387866040518463ffffffff1660e01b8152600401611a9b939291906131c5565b6020604051808303816000875af1158015611aba573d6000803e3d6000fd5b505050506040513d601f19601f82011682018060405250810190611ade9190613211565b503373ffffffffffffffffffffffffffffffffffffffff16857f0b5b4c52969ff7329ecf7ee536409fda87812b15a8622bc6e8cdeab3aee14a2685604051611b2691906125f3565b60405180910390a35050611b386121b9565b505050565b6060600080600080600080600360008981526020019081526020016000209050806000018160010160009054906101000a900473ffffffffffffffffffffffffffffffffffffffff16826002015483600301548460040160009054906101000a900460ff168560050180549050858054611bb690612f5b565b80601f0160208091040260200160405190810160405280929190818152602001828054611be290612f5b565b8015611c2f5780601f10611c0457610100808354040283529160200191611c2f565b820191906000526020600020905b815481529060010190602001808311611c1257829003601f168201915b505050505095509650965096509650965096505091939550919395565b7fa49807205ce4d355092ef5a8a18f56e8913cf4a201fbe287825b095693c21775611c7681611f73565b600060036000858152602001908152602001600020905080600501805490508310611cd6576040517f08c379a0000000000000000000000000000000000000000000000000000000008152600401611ccd9061328a565b60405180910390fd5b6000816005018481548110611cee57611ced6132aa565b5b906000526020600020906003020190508060020160009054906101000a900460ff1615611d50576040517f08c379a0000000000000000000000000000000000000000000000000000000008152600401611d4790613903565b60405180910390fd5b60018160020160006101000a81548160ff021916908315150217905550847f1b7218c0ac23ea9cbe4df603d2b340fbf469a115b73ea3d11460727f445d6be185604051611d9d91906125f3565b60405180910390a28060020160019054906101000a900460ff16158015611dcc57508060010154826003015410155b15611f025760018160020160016101000a81548160ff02191690831515021790555060008160010154905060008360010160009054906101000a900473ffffffffffffffffffffffffffffffffffffffff1673ffffffffffffffffffffffffffffffffffffffff1682604051611e41906133e2565b60006040518083038185875af1925050503d8060008114611e7e576040519150601f19603f3d011682016040523d82523d6000602084013e611e83565b606091505b5050905080611ec7576040517f08c379a0000000000000000000000000000000000000000000000000000000008152600401611ebe9061396f565b60405180910390fd5b867f80230996023d69b50793fa73f1919127c9d8e741d3989743c479169f22e7a28883604051611ef791906125f3565b60405180910390a250505b5050505050565b60007f01ffc9a7000000000000000000000000000000000000000000000000000000007bffffffffffffffffffffffffffffffffffffffffffffffffffffffff1916827bffffffffffffffffffffffffffffffffffffffffffffffffffffffff1916149050919050565b611f8481611f7f612078565b6121c3565b50565b6000611f938383610e36565b61206d57600180600085815260200190815260200160002060000160008473ffffffffffffffffffffffffffffffffffffffff1673ffffffffffffffffffffffffffffffffffffffff16815260200190815260200160002060006101000a81548160ff02191690831515021790555061200a612078565b73ffffffffffffffffffffffffffffffffffffffff168273ffffffffffffffffffffffffffffffffffffffff16847f2f8788117e7eff1d82e926ec794901d17c78024a50270940304540a733656f0d60405160405180910390a460019050612072565b600090505b92915050565b600033905090565b600061208c8383610e36565b156121685760006001600085815260200190815260200160002060000160008473ffffffffffffffffffffffffffffffffffffffff1673ffffffffffffffffffffffffffffffffffffffff16815260200190815260200160002060006101000a81548160ff021916908315150217905550612105612078565b73ffffffffffffffffffffffffffffffffffffffff168273ffffffffffffffffffffffffffffffffffffffff16847ff6391f5c32d9c69d2a47ea670b442974b53935d1edc7fd64eb21e047a839171b60405160405180910390a46001905061216d565b600090505b92915050565b6002600054036121af576040517f3ee5aeb500000000000000000000000000000000000000000000000000000000815260040160405180910390fd5b6002600081905550565b6001600081905550565b6121cd8282610e36565b6122105780826040517fe2517d3f00000000000000000000000000000000000000000000000000000000815260040161220792919061398f565b60405180910390fd5b5050565b6000604051905090565b600080fd5b600080fd5b60007fffffffff0000000000000000000000000000000000000000000000000000000082169050919050565b61225d81612228565b811461226857600080fd5b50565b60008135905061227a81612254565b92915050565b6000602082840312156122965761229561221e565b5b60006122a48482850161226b565b91505092915050565b60008115159050919050565b6122c2816122ad565b82525050565b60006020820190506122dd60008301846122b9565b92915050565b600073ffffffffffffffffffffffffffffffffffffffff82169050919050565b6000819050919050565b600061232861232361231e846122e3565b612303565b6122e3565b9050919050565b600061233a8261230d565b9050919050565b600061234c8261232f565b9050919050565b61235c81612341565b82525050565b60006020820190506123776000830184612353565b92915050565b6000819050919050565b6123908161237d565b811461239b57600080fd5b50565b6000813590506123ad81612387565b92915050565b6000602082840312156123c9576123c861221e565b5b60006123d78482850161239e565b91505092915050565b600081519050919050565b600082825260208201905092915050565b60005b8381101561241a5780820151818401526020810190506123ff565b60008484015250505050565b6000601f19601f8301169050919050565b6000612442826123e0565b61244c81856123eb565b935061245c8185602086016123fc565b61246581612426565b840191505092915050565b600061247b826122e3565b9050919050565b61248b81612470565b82525050565b61249a8161237d565b82525050565b600060a08201905081810360008301526124ba8188612437565b90506124c96020830187612482565b6124d66040830186612491565b6124e36060830185612491565b6124f060808301846122b9565b9695505050505050565b6000819050919050565b61250d816124fa565b811461251857600080fd5b50565b60008135905061252a81612504565b92915050565b6000602082840312156125465761254561221e565b5b60006125548482850161251b565b91505092915050565b612566816124fa565b82525050565b6000602082019050612581600083018461255d565b92915050565b61259081612470565b811461259b57600080fd5b50565b6000813590506125ad81612587565b92915050565b600080604083850312156125ca576125c961221e565b5b60006125d88582860161251b565b92505060206125e98582860161259e565b9150509250929050565b60006020820190506126086000830184612491565b92915050565b6000602082840312156126245761262361221e565b5b60006126328482850161259e565b91505092915050565b600080604083850312156126525761265161221e565b5b60006126608582860161239e565b92505060206126718582860161259e565b9150509250929050565b600080604083850312156126925761269161221e565b5b60006126a08582860161239e565b92505060206126b18582860161239e565b9150509250929050565b600060808201905081810360008301526126d58187612437565b90506126e46020830186612491565b6126f160408301856122b9565b6126fe60608301846122b9565b95945050505050565b600080fd5b600080fd5b7f4e487b7100000000000000000000000000000000000000000000000000000000600052604160045260246000fd5b61274982612426565b810181811067ffffffffffffffff8211171561276857612767612711565b5b80604052505050565b600061277b612214565b90506127878282612740565b919050565b600067ffffffffffffffff8211156127a7576127a6612711565b5b6127b082612426565b9050602081019050919050565b82818337600083830152505050565b60006127df6127da8461278c565b612771565b9050828152602081018484840111156127fb576127fa61270c565b5b6128068482856127bd565b509392505050565b600082601f83011261282357612822612707565b5b81356128338482602086016127cc565b91505092915050565b600067ffffffffffffffff82111561285757612856612711565b5b602082029050602081019050919050565b600080fd5b600061288061287b8461283c565b612771565b905080838252602082019050602084028301858111156128a3576128a2612868565b5b835b818110156128ea57803567ffffffffffffffff8111156128c8576128c7612707565b5b8086016128d5898261280e565b855260208501945050506020810190506128a5565b5050509392505050565b600082601f83011261290957612908612707565b5b813561291984826020860161286d565b91505092915050565b600067ffffffffffffffff82111561293d5761293c612711565b5b602082029050602081019050919050565b600061296161295c84612922565b612771565b9050808382526020820190506020840283018581111561298457612983612868565b5b835b818110156129ad5780612999888261239e565b845260208401935050602081019050612986565b5050509392505050565b600082601f8301126129cc576129cb612707565b5b81356129dc84826020860161294e565b91505092915050565b600080600080608085870312156129ff576129fe61221e565b5b600085013567ffffffffffffffff811115612a1d57612a1c612223565b5b612a298782880161280e565b9450506020612a3a8782880161239e565b935050604085013567ffffffffffffffff811115612a5b57612a5a612223565b5b612a67878288016128f4565b925050606085013567ffffffffffffffff811115612a8857612a87612223565b5b612a94878288016129b7565b91505092959194509250565b600081519050919050565b600082825260208201905092915050565b6000819050602082019050919050565b600082825260208201905092915050565b6000612ae8826123e0565b612af28185612acc565b9350612b028185602086016123fc565b612b0b81612426565b840191505092915050565b6000612b228383612add565b905092915050565b6000602082019050919050565b6000612b4282612aa0565b612b4c8185612aab565b935083602082028501612b5e85612abc565b8060005b85811015612b9a5784840389528151612b7b8582612b16565b9450612b8683612b2a565b925060208a01995050600181019050612b62565b50829750879550505050505092915050565b600081519050919050565b600082825260208201905092915050565b6000819050602082019050919050565b612be181612470565b82525050565b6000612bf38383612bd8565b60208301905092915050565b6000602082019050919050565b6000612c1782612bac565b612c218185612bb7565b9350612c2c83612bc8565b8060005b83811015612c5d578151612c448882612be7565b9750612c4f83612bff565b925050600181019050612c30565b5085935050505092915050565b600081519050919050565b600082825260208201905092915050565b6000819050602082019050919050565b612c9f8161237d565b82525050565b6000612cb18383612c96565b60208301905092915050565b6000602082019050919050565b6000612cd582612c6a565b612cdf8185612c75565b9350612cea83612c86565b8060005b83811015612d1b578151612d028882612ca5565b9750612d0d83612cbd565b925050600181019050612cee565b5085935050505092915050565b600081519050919050565b600082825260208201905092915050565b6000819050602082019050919050565b612d5d816122ad565b82525050565b6000612d6f8383612d54565b60208301905092915050565b6000602082019050919050565b6000612d9382612d28565b612d9d8185612d33565b9350612da883612d44565b8060005b83811015612dd9578151612dc08882612d63565b9750612dcb83612d7b565b925050600181019050612dac565b5085935050505092915050565b600060c0820190508181036000830152612e008189612b37565b90508181036020830152612e148188612c0c565b90508181036040830152612e288187612cca565b90508181036060830152612e3c8186612cca565b90508181036080830152612e508185612d88565b905081810360a0830152612e648184612cca565b9050979650505050505050565b600080600060608486031215612e8a57612e8961221e565b5b6000612e988682870161239e565b9350506020612ea98682870161259e565b9250506040612eba8682870161239e565b9150509250925092565b600060c0820190508181036000830152612ede8189612437565b9050612eed6020830188612482565b612efa6040830187612491565b612f076060830186612491565b612f1460808301856122b9565b612f2160a0830184612491565b979650505050505050565b7f4e487b7100000000000000000000000000000000000000000000000000000000600052602260045260246000fd5b60006002820490506001821680612f7357607f821691505b602082108103612f8657612f85612f2c565b5b50919050565b7f50726f6a65637420616c726561647920696e6163746976650000000000000000600082015250565b6000612fc26018836123eb565b9150612fcd82612f8c565b602082019050919050565b60006020820190508181036000830152612ff181612fb5565b9050919050565b7f4574686572207472616e73666572206661696c65640000000000000000000000600082015250565b600061302e6015836123eb565b915061303982612ff8565b602082019050919050565b6000602082019050818103600083015261305d81613021565b9050919050565b7f50726f6a656374206973206e6f74206163746976650000000000000000000000600082015250565b600061309a6015836123eb565b91506130a582613064565b602082019050919050565b600060208201905081810360008301526130c98161308d565b9050919050565b7f446f6e6174696f6e20616d6f756e74206d75737420626520677265617465722060008201527f7468616e20300000000000000000000000000000000000000000000000000000602082015250565b600061312c6026836123eb565b9150613137826130d0565b604082019050919050565b6000602082019050818103600083015261315b8161311f565b9050919050565b7f4e487b7100000000000000000000000000000000000000000000000000000000600052601160045260246000fd5b600061319c8261237d565b91506131a78361237d565b92508282019050808211156131bf576131be613162565b5b92915050565b60006060820190506131da6000830186612482565b6131e76020830185612491565b6131f46040830184612491565b949350505050565b60008151905061320b81612387565b92915050565b6000602082840312156132275761322661221e565b5b6000613235848285016131fc565b91505092915050565b7f496e76616c6964206d696c6573746f6e6520696e646578000000000000000000600082015250565b60006132746017836123eb565b915061327f8261323e565b602082019050919050565b600060208201905081810360008301526132a381613267565b9050919050565b7f4e487b7100000000000000000000000000000000000000000000000000000000600052603260045260246000fd5b7f50726f6a656374206973207374696c6c20616374697665000000000000000000600082015250565b600061330f6017836123eb565b915061331a826132d9565b602082019050919050565b6000602082019050818103600083015261333e81613302565b9050919050565b7f4e6f20646f6e6174696f6e20666f756e64000000000000000000000000000000600082015250565b600061337b6011836123eb565b915061338682613345565b602082019050919050565b600060208201905081810360008301526133aa8161336e565b9050919050565b600081905092915050565b50565b60006133cc6000836133b1565b91506133d7826133bc565b600082019050919050565b60006133ed826133bf565b9150819050919050565b7f526566756e64207472616e73666572206661696c656400000000000000000000600082015250565b600061342d6016836123eb565b9150613438826133f7565b602082019050919050565b6000602082019050818103600083015261345c81613420565b9050919050565b7f4d696c6573746f6e6520617272617973206d757374206d617463680000000000600082015250565b6000613499601b836123eb565b91506134a482613463565b602082019050919050565b600060208201905081810360008301526134c88161348c565b9050919050565b60006134da8261237d565b91507fffffffffffffffffffffffffffffffffffffffffffffffffffffffffffffffff820361350c5761350b613162565b5b600182019050919050565b60008190508160005260206000209050919050565b60006020601f8301049050919050565b600082821b905092915050565b6000600883026135797fffffffffffffffffffffffffffffffffffffffffffffffffffffffffffffffff8261353c565b613583868361353c565b95508019841693508086168417925050509392505050565b60006135b66135b16135ac8461237d565b612303565b61237d565b9050919050565b6000819050919050565b6135d08361359b565b6135e46135dc826135bd565b848454613549565b825550505050565b600090565b6135f96135ec565b6136048184846135c7565b505050565b5b818110156136285761361d6000826135f1565b60018101905061360a565b5050565b601f82111561366d5761363e81613517565b6136478461352c565b81016020851015613656578190505b61366a6136628561352c565b830182613609565b50505b505050565b600082821c905092915050565b600061369060001984600802613672565b1980831691505092915050565b60006136a9838361367f565b9150826002028217905092915050565b6136c2826123e0565b67ffffffffffffffff8111156136db576136da612711565b5b6136e58254612f5b565b6136f082828561362c565b600060209050601f8311600181146137235760008415613711578287015190505b61371b858261369d565b865550613783565b601f19841661373186613517565b60005b8281101561375957848901518255600182019150602085019450602081019050613734565b868310156137765784890151613772601f89168261367f565b8355505b6001600288020188555050505b505050505050565b600060408201905081810360008301526137a58185612437565b90506137b46020830184612482565b9392505050565b60006060820190506137d06000830186612482565b6137dd6020830185612482565b6137ea6040830184612491565b949350505050565b6137fb816122ad565b811461380657600080fd5b50565b600081519050613818816137f2565b92915050565b6000602082840312156138345761383361221e565b5b600061384284828501613809565b91505092915050565b7f546f6b656e207472616e73666572206661696c65640000000000000000000000600082015250565b60006138816015836123eb565b915061388c8261384b565b602082019050919050565b600060208201905081810360008301526138b081613874565b9050919050565b7f4d696c6573746f6e6520616c726561647920636f6d706c657465640000000000600082015250565b60006138ed601b836123eb565b91506138f8826138b7565b602082019050919050565b6000602082019050818103600083015261391c816138e0565b9050919050565b7f46756e64207472616e73666572206661696c6564000000000000000000000000600082015250565b60006139596014836123eb565b915061396482613923565b602082019050919050565b600060208201905081810360008301526139888161394c565b9050919050565b60006040820190506139a46000830185612482565b6139b1602083018461255d565b939250505056fea26469706673582212203ee6d013e0e6806a4316d2be127c5589d5e232f86f9d5b7d1773208f8534e62164736f6c63430008150033",
  "immutableReferences": {},
  "source": "// SPDX-License-Identifier: MIT\npragma solidity ^0.8.21;\n\nimport \"@openzeppelin/contracts/utils/ReentrancyGuard.sol\";\nimport \"@openzeppelin/contracts/access/AccessControl.sol\";\nimport \"@openzeppelin/contracts/token/ERC20/IERC20.sol\";\nimport \"./DonationToken.sol\";\n\ncontract CharityPlatform is ReentrancyGuard, AccessControl {\n    bytes32 public constant ADMIN_ROLE = keccak256(\"ADMIN_ROLE\");\n    bytes32 public constant CHARITY_ROLE = keccak256(\"CHARITY_ROLE\");\n\n    DonationToken public donationToken;\n    \n    struct Project {\n        string name;\n        address charityAddress;\n        uint256 goalAmount;\n        uint256 raisedAmount;\n        bool isActive;\n        Milestone[] milestones;\n        mapping(address => uint256) donations;\n    }\n\n    struct Milestone {\n        string description;\n        uint256 targetAmount;\n        bool isCompleted;\n        bool fundsReleased;\n    }\n\n    mapping(uint256 => Project) public projects;\n    uint256 public projectCount;\n\n    event ProjectCreated(uint256 indexed projectId, string name, address charityAddress);\n    event DonationReceived(uint256 indexed projectId, address indexed donor, uint256 amount);\n    event MilestoneCompleted(uint256 indexed projectId, uint256 milestoneIndex);\n    event FundsReleased(uint256 indexed projectId, uint256 amount);\n    event RefundIssued(uint256 indexed projectId, address indexed donor, uint256 amount);\n\n    constructor(address _donationToken) {\n        _grantRole(DEFAULT_ADMIN_ROLE, msg.sender);\n        _grantRole(ADMIN_ROLE, msg.sender);\n        donationToken = DonationToken(_donationToken);\n    }\n\n    function createProject(\n        string memory _name,\n        uint256 _goalAmount,\n        string[] memory _milestoneDescriptions,\n        uint256[] memory _milestoneTargets\n    ) external onlyRole(CHARITY_ROLE) {\n        require(_milestoneDescriptions.length == _milestoneTargets.length, \"Milestone arrays must match\");\n        \n        projectCount++;\n        Project storage project = projects[projectCount];\n        project.name = _name;\n        project.charityAddress = msg.sender;\n        project.goalAmount = _goalAmount;\n        project.isActive = true;\n\n        for(uint i = 0; i < _milestoneDescriptions.length; i++) {\n            project.milestones.push(Milestone({\n                description: _milestoneDescriptions[i],\n                targetAmount: _milestoneTargets[i],\n                isCompleted: false,\n                fundsReleased: false\n            }));\n        }\n\n        emit ProjectCreated(projectCount, _name, msg.sender);\n    }\n\n    function donate(uint256 _projectId, address _donor) external payable nonReentrant {\n        Project storage project = projects[_projectId];\n        require(project.isActive, \"Project is not active\");\n        require(msg.value > 0, \"Donation amount must be greater than 0\");\n\n        // IERC20 token = IERC20(project.charityAddress);\n        // require(token.transferFrom(_donor, project.charityAddress, msg.value), \"Token transfer failed\");\n\n        address payable recipient = payable(project.charityAddress); \n        recipient.transfer(msg.value);\n\n        project.donations[_donor] += msg.value;\n        project.raisedAmount += msg.value;\n\n        // Mint donation NFT\n        donationToken.mint(_donor, _projectId, msg.value);\n\n        emit DonationReceived(_projectId, _donor, msg.value);\n    }\n\n    function donate2(address _recipient) public payable returns (bool) {\n        \n        address payable recipient = payable(_recipient); \n        // recipient.transfer(msg.value);\n\n        bool success = recipient.send(msg.value);\n        require(success, \"Ether transfer failed\");\n        return success;\n\n    }\n\n    function completeMilestone(uint256 _projectId, uint256 _milestoneIndex) external onlyRole(ADMIN_ROLE) {\n        Project storage project = projects[_projectId];\n        require(_milestoneIndex < project.milestones.length, \"Invalid milestone index\");\n        \n        Milestone storage milestone = project.milestones[_milestoneIndex];\n        require(!milestone.isCompleted, \"Milestone already completed\");\n        \n        milestone.isCompleted = true;\n        emit MilestoneCompleted(_projectId, _milestoneIndex);\n\n        // Release funds for completed milestone\n        if(!milestone.fundsReleased && project.raisedAmount >= milestone.targetAmount) {\n            milestone.fundsReleased = true;\n            uint256 releaseAmount = milestone.targetAmount;\n            \n            (bool success, ) = project.charityAddress.call{value: releaseAmount}(\"\");\n            require(success, \"Fund transfer failed\");\n            \n            emit FundsReleased(_projectId, releaseAmount);\n        }\n    }\n\n    function requestRefund(uint256 _projectId) external nonReentrant {\n        Project storage project = projects[_projectId];\n        require(!project.isActive, \"Project is still active\");\n        \n        uint256 donationAmount = project.donations[msg.sender];\n        require(donationAmount > 0, \"No donation found\");\n\n        project.donations[msg.sender] = 0;\n        \n        (bool success, ) = msg.sender.call{value: donationAmount}(\"\");\n        require(success, \"Refund transfer failed\");\n\n        emit RefundIssued(_projectId, msg.sender, donationAmount);\n    }\n\n    function deactivateProject(uint256 _projectId) external onlyRole(ADMIN_ROLE) {\n        Project storage project = projects[_projectId];\n        require(project.isActive, \"Project already inactive\");\n        project.isActive = false;\n    }\n\n    // Multi-currency support functions\n    function donateToken(uint256 _projectId, address _tokenAddress, uint256 _amount) external nonReentrant {\n        Project storage project = projects[_projectId];\n        require(project.isActive, \"Project is not active\");\n        \n        IERC20 token = IERC20(_tokenAddress);\n        require(token.transferFrom(msg.sender, address(this), _amount), \"Token transfer failed\");\n        \n        project.donations[msg.sender] += _amount;\n        project.raisedAmount += _amount;\n\n        // Mint donation NFT\n        donationToken.mint(msg.sender, _projectId, _amount);\n        \n        emit DonationReceived(_projectId, msg.sender, _amount);\n    }\n\n    // Administrative functions\n    function addCharity(address _charityAddress) external onlyRole(ADMIN_ROLE) {\n        _grantRole(CHARITY_ROLE, _charityAddress);\n    }\n\n    function removeCharity(address _charityAddress) external onlyRole(ADMIN_ROLE) {\n        revokeRole(CHARITY_ROLE, _charityAddress);\n    }\n\n    // View functions\n    function getProject(uint256 _projectId) external view returns (\n        string memory name,\n        address charityAddress,\n        uint256 goalAmount,\n        uint256 raisedAmount,\n        bool isActive,\n        uint256 milestoneCount\n    ) {\n        Project storage project = projects[_projectId];\n        return (\n            project.name,\n            project.charityAddress,\n            project.goalAmount,\n            project.raisedAmount,\n            project.isActive,\n            project.milestones.length\n        );\n    }\n\n    function getProjectDonations(uint256 _projectId, address _donor) external view returns (\n        uint256 donorAmount\n    ) {\n        Project storage project = projects[_projectId];\n        uint256 amount = project.donations[_donor];\n        return (\n            amount\n        );\n    }\n\n    function getProjects() external view returns (\n        string[] memory name,\n        address[] memory charityAddress,\n        uint256[] memory goalAmount,\n        uint256[] memory raisedAmount,\n        bool[] memory isActive,\n        uint256[] memory milestoneCount\n    ) {\n        string[] memory allNames = new string[](projectCount);\n        address[] memory allCharityAddreses = new address[](projectCount);\n        uint256[] memory allGoalAmounts = new uint256[](projectCount);\n        uint256[] memory allRaisedAmounts = new uint256[](projectCount);\n        bool[] memory areActive = new bool[](projectCount);\n        uint256[] memory milestoneCounts = new uint256[](projectCount);\n        for (uint i = 0; i < projectCount; i++) {\n            allNames[i] = projects[i].name;\n            allCharityAddreses[i] = projects[i].charityAddress;\n            allGoalAmounts[i] = projects[i].goalAmount;\n            allRaisedAmounts[i] = projects[i].raisedAmount;\n            areActive[i] = projects[i].isActive;\n            milestoneCounts[i] = projects[i].milestones.length;\n        }\n        return (\n            allNames, \n            allCharityAddreses, \n            allGoalAmounts,\n            allRaisedAmounts,\n            areActive,\n            milestoneCounts\n        );\n    }\n\n    function getMilestone(uint256 _projectId, uint256 _milestoneIndex) external view returns (\n        string memory description,\n        uint256 targetAmount,\n        bool isCompleted,\n        bool fundsReleased\n    ) {\n        Project storage project = projects[_projectId];\n        require(_milestoneIndex < project.milestones.length, \"Invalid milestone index\");\n        \n        Milestone storage milestone = project.milestones[_milestoneIndex];\n        return (\n            milestone.description,\n            milestone.targetAmount,\n            milestone.isCompleted,\n            milestone.fundsReleased\n        );\n    }\n\n    receive() external payable {}\n}",
  "sourcePath": "/Users/artazidele/Documents/LU-2023-2024/Blokkedes biznesa/CharityDonation/contracts/CharityPlatform.sol",
  "compiler": {
    "name": "solc",
    "version": "0.8.21+commit.d9974bed.Emscripten.clang"
  },
  "schemaVersion": "3.4.16",
  "updatedAt": "2024-12-07T13:35:10.110Z",
  "networkType": "ethereum",
  "devdoc": {
    "errors": {
      "AccessControlBadConfirmation()": [
        {
          "details": "The caller of a function is not the expected one. NOTE: Don't confuse with {AccessControlUnauthorizedAccount}."
        }
      ],
      "AccessControlUnauthorizedAccount(address,bytes32)": [
        {
          "details": "The `account` is missing a role."
        }
      ],
      "ReentrancyGuardReentrantCall()": [
        {
          "details": "Unauthorized reentrant call."
        }
      ]
    },
    "events": {
      "RoleAdminChanged(bytes32,bytes32,bytes32)": {
        "details": "Emitted when `newAdminRole` is set as ``role``'s admin role, replacing `previousAdminRole` `DEFAULT_ADMIN_ROLE` is the starting admin for all roles, despite {RoleAdminChanged} not being emitted signaling this."
      },
      "RoleGranted(bytes32,address,address)": {
        "details": "Emitted when `account` is granted `role`. `sender` is the account that originated the contract call. This account bears the admin role (for the granted role). Expected in cases where the role was granted using the internal {AccessControl-_grantRole}."
      },
      "RoleRevoked(bytes32,address,address)": {
        "details": "Emitted when `account` is revoked `role`. `sender` is the account that originated the contract call:   - if using `revokeRole`, it is the admin role bearer   - if using `renounceRole`, it is the role bearer (i.e. `account`)"
      }
    },
    "kind": "dev",
    "methods": {
      "getRoleAdmin(bytes32)": {
        "details": "Returns the admin role that controls `role`. See {grantRole} and {revokeRole}. To change a role's admin, use {_setRoleAdmin}."
      },
      "grantRole(bytes32,address)": {
        "details": "Grants `role` to `account`. If `account` had not been already granted `role`, emits a {RoleGranted} event. Requirements: - the caller must have ``role``'s admin role. May emit a {RoleGranted} event."
      },
      "hasRole(bytes32,address)": {
        "details": "Returns `true` if `account` has been granted `role`."
      },
      "renounceRole(bytes32,address)": {
        "details": "Revokes `role` from the calling account. Roles are often managed via {grantRole} and {revokeRole}: this function's purpose is to provide a mechanism for accounts to lose their privileges if they are compromised (such as when a trusted device is misplaced). If the calling account had been revoked `role`, emits a {RoleRevoked} event. Requirements: - the caller must be `callerConfirmation`. May emit a {RoleRevoked} event."
      },
      "revokeRole(bytes32,address)": {
        "details": "Revokes `role` from `account`. If `account` had been granted `role`, emits a {RoleRevoked} event. Requirements: - the caller must have ``role``'s admin role. May emit a {RoleRevoked} event."
      },
      "supportsInterface(bytes4)": {
        "details": "See {IERC165-supportsInterface}."
      }
    },
    "version": 1
  },
  "userdoc": {
    "kind": "user",
    "methods": {},
    "version": 1
  }
}