{
  "contractName": "CharityPlatform",
  "abi": [
    {
      "inputs": [
        {
          "internalType": "address",
          "name": "_donationToken",
          "type": "address"
        }
      ],
      "stateMutability": "nonpayable",
      "type": "constructor"
    },
    {
      "inputs": [],
      "name": "AccessControlBadConfirmation",
      "type": "error"
    },
    {
      "inputs": [
        {
          "internalType": "address",
          "name": "account",
          "type": "address"
        },
        {
          "internalType": "bytes32",
          "name": "neededRole",
          "type": "bytes32"
        }
      ],
      "name": "AccessControlUnauthorizedAccount",
      "type": "error"
    },
    {
      "inputs": [],
      "name": "ReentrancyGuardReentrantCall",
      "type": "error"
    },
    {
      "anonymous": false,
      "inputs": [
        {
          "indexed": true,
          "internalType": "uint256",
          "name": "projectId",
          "type": "uint256"
        },
        {
          "indexed": true,
          "internalType": "address",
          "name": "donor",
          "type": "address"
        },
        {
          "indexed": false,
          "internalType": "uint256",
          "name": "amount",
          "type": "uint256"
        }
      ],
      "name": "DonationReceived",
      "type": "event"
    },
    {
      "anonymous": false,
      "inputs": [
        {
          "indexed": true,
          "internalType": "uint256",
          "name": "projectId",
          "type": "uint256"
        },
        {
          "indexed": false,
          "internalType": "uint256",
          "name": "amount",
          "type": "uint256"
        }
      ],
      "name": "FundsReleased",
      "type": "event"
    },
    {
      "anonymous": false,
      "inputs": [
        {
          "indexed": true,
          "internalType": "uint256",
          "name": "projectId",
          "type": "uint256"
        },
        {
          "indexed": false,
          "internalType": "uint256",
          "name": "milestoneIndex",
          "type": "uint256"
        }
      ],
      "name": "MilestoneCompleted",
      "type": "event"
    },
    {
      "anonymous": false,
      "inputs": [
        {
          "indexed": true,
          "internalType": "uint256",
          "name": "projectId",
          "type": "uint256"
        },
        {
          "indexed": false,
          "internalType": "string",
          "name": "name",
          "type": "string"
        },
        {
          "indexed": false,
          "internalType": "address",
          "name": "charityAddress",
          "type": "address"
        }
      ],
      "name": "ProjectCreated",
      "type": "event"
    },
    {
      "anonymous": false,
      "inputs": [
        {
          "indexed": true,
          "internalType": "uint256",
          "name": "projectId",
          "type": "uint256"
        },
        {
          "indexed": true,
          "internalType": "address",
          "name": "donor",
          "type": "address"
        },
        {
          "indexed": false,
          "internalType": "uint256",
          "name": "amount",
          "type": "uint256"
        }
      ],
      "name": "RefundIssued",
      "type": "event"
    },
    {
      "anonymous": false,
      "inputs": [
        {
          "indexed": true,
          "internalType": "bytes32",
          "name": "role",
          "type": "bytes32"
        },
        {
          "indexed": true,
          "internalType": "bytes32",
          "name": "previousAdminRole",
          "type": "bytes32"
        },
        {
          "indexed": true,
          "internalType": "bytes32",
          "name": "newAdminRole",
          "type": "bytes32"
        }
      ],
      "name": "RoleAdminChanged",
      "type": "event"
    },
    {
      "anonymous": false,
      "inputs": [
        {
          "indexed": true,
          "internalType": "bytes32",
          "name": "role",
          "type": "bytes32"
        },
        {
          "indexed": true,
          "internalType": "address",
          "name": "account",
          "type": "address"
        },
        {
          "indexed": true,
          "internalType": "address",
          "name": "sender",
          "type": "address"
        }
      ],
      "name": "RoleGranted",
      "type": "event"
    },
    {
      "anonymous": false,
      "inputs": [
        {
          "indexed": true,
          "internalType": "bytes32",
          "name": "role",
          "type": "bytes32"
        },
        {
          "indexed": true,
          "internalType": "address",
          "name": "account",
          "type": "address"
        },
        {
          "indexed": true,
          "internalType": "address",
          "name": "sender",
          "type": "address"
        }
      ],
      "name": "RoleRevoked",
      "type": "event"
    },
    {
      "inputs": [],
      "name": "ADMIN_ROLE",
      "outputs": [
        {
          "internalType": "bytes32",
          "name": "",
          "type": "bytes32"
        }
      ],
      "stateMutability": "view",
      "type": "function"
    },
    {
      "inputs": [],
      "name": "CHARITY_ROLE",
      "outputs": [
        {
          "internalType": "bytes32",
          "name": "",
          "type": "bytes32"
        }
      ],
      "stateMutability": "view",
      "type": "function"
    },
    {
      "inputs": [],
      "name": "DEFAULT_ADMIN_ROLE",
      "outputs": [
        {
          "internalType": "bytes32",
          "name": "",
          "type": "bytes32"
        }
      ],
      "stateMutability": "view",
      "type": "function"
    },
    {
      "inputs": [],
      "name": "donationToken",
      "outputs": [
        {
          "internalType": "contract DonationToken",
          "name": "",
          "type": "address"
        }
      ],
      "stateMutability": "view",
      "type": "function"
    },
    {
      "inputs": [
        {
          "internalType": "bytes32",
          "name": "role",
          "type": "bytes32"
        }
      ],
      "name": "getRoleAdmin",
      "outputs": [
        {
          "internalType": "bytes32",
          "name": "",
          "type": "bytes32"
        }
      ],
      "stateMutability": "view",
      "type": "function"
    },
    {
      "inputs": [
        {
          "internalType": "bytes32",
          "name": "role",
          "type": "bytes32"
        },
        {
          "internalType": "address",
          "name": "account",
          "type": "address"
        }
      ],
      "name": "grantRole",
      "outputs": [],
      "stateMutability": "nonpayable",
      "type": "function"
    },
    {
      "inputs": [
        {
          "internalType": "bytes32",
          "name": "role",
          "type": "bytes32"
        },
        {
          "internalType": "address",
          "name": "account",
          "type": "address"
        }
      ],
      "name": "hasRole",
      "outputs": [
        {
          "internalType": "bool",
          "name": "",
          "type": "bool"
        }
      ],
      "stateMutability": "view",
      "type": "function"
    },
    {
      "inputs": [],
      "name": "projectCount",
      "outputs": [
        {
          "internalType": "uint256",
          "name": "",
          "type": "uint256"
        }
      ],
      "stateMutability": "view",
      "type": "function"
    },
    {
      "inputs": [
        {
          "internalType": "uint256",
          "name": "",
          "type": "uint256"
        }
      ],
      "name": "projects",
      "outputs": [
        {
          "internalType": "string",
          "name": "name",
          "type": "string"
        },
        {
          "internalType": "address",
          "name": "charityAddress",
          "type": "address"
        },
        {
          "internalType": "uint256",
          "name": "goalAmount",
          "type": "uint256"
        },
        {
          "internalType": "uint256",
          "name": "raisedAmount",
          "type": "uint256"
        },
        {
          "internalType": "bool",
          "name": "isActive",
          "type": "bool"
        },
        {
          "internalType": "uint256",
          "name": "donationCount",
          "type": "uint256"
        }
      ],
      "stateMutability": "view",
      "type": "function"
    },
    {
      "inputs": [
        {
          "internalType": "bytes32",
          "name": "role",
          "type": "bytes32"
        },
        {
          "internalType": "address",
          "name": "callerConfirmation",
          "type": "address"
        }
      ],
      "name": "renounceRole",
      "outputs": [],
      "stateMutability": "nonpayable",
      "type": "function"
    },
    {
      "inputs": [
        {
          "internalType": "bytes32",
          "name": "role",
          "type": "bytes32"
        },
        {
          "internalType": "address",
          "name": "account",
          "type": "address"
        }
      ],
      "name": "revokeRole",
      "outputs": [],
      "stateMutability": "nonpayable",
      "type": "function"
    },
    {
      "inputs": [
        {
          "internalType": "bytes4",
          "name": "interfaceId",
          "type": "bytes4"
        }
      ],
      "name": "supportsInterface",
      "outputs": [
        {
          "internalType": "bool",
          "name": "",
          "type": "bool"
        }
      ],
      "stateMutability": "view",
      "type": "function"
    },
    {
      "stateMutability": "payable",
      "type": "receive"
    },
    {
      "inputs": [
        {
          "internalType": "string",
          "name": "_name",
          "type": "string"
        },
        {
          "internalType": "uint256",
          "name": "_goalAmount",
          "type": "uint256"
        },
        {
          "internalType": "string[]",
          "name": "_milestoneDescriptions",
          "type": "string[]"
        },
        {
          "internalType": "uint256[]",
          "name": "_milestoneTargets",
          "type": "uint256[]"
        }
      ],
      "name": "createProject",
      "outputs": [],
      "stateMutability": "nonpayable",
      "type": "function"
    },
    {
      "inputs": [
        {
          "internalType": "uint256",
          "name": "_projectId",
          "type": "uint256"
        },
        {
          "internalType": "address",
          "name": "_donor",
          "type": "address"
        }
      ],
      "name": "donate",
      "outputs": [],
      "stateMutability": "payable",
      "type": "function"
    },
    {
      "inputs": [],
      "name": "returnDonationToken",
      "outputs": [
        {
          "internalType": "contract DonationToken",
          "name": "",
          "type": "address"
        }
      ],
      "stateMutability": "nonpayable",
      "type": "function"
    },
    {
      "inputs": [
        {
          "internalType": "uint256",
          "name": "_projectId",
          "type": "uint256"
        },
        {
          "internalType": "uint256",
          "name": "_milestoneIndex",
          "type": "uint256"
        }
      ],
      "name": "completeMilestone",
      "outputs": [],
      "stateMutability": "nonpayable",
      "type": "function"
    },
    {
      "inputs": [
        {
          "internalType": "uint256",
          "name": "_projectId",
          "type": "uint256"
        }
      ],
      "name": "requestRefund",
      "outputs": [],
      "stateMutability": "nonpayable",
      "type": "function"
    },
    {
      "inputs": [
        {
          "internalType": "uint256",
          "name": "_projectId",
          "type": "uint256"
        }
      ],
      "name": "deactivateProject",
      "outputs": [],
      "stateMutability": "nonpayable",
      "type": "function"
    },
    {
      "inputs": [
        {
          "internalType": "uint256",
          "name": "_projectId",
          "type": "uint256"
        },
        {
          "internalType": "address",
          "name": "_tokenAddress",
          "type": "address"
        },
        {
          "internalType": "uint256",
          "name": "_amount",
          "type": "uint256"
        }
      ],
      "name": "donateToken",
      "outputs": [],
      "stateMutability": "nonpayable",
      "type": "function"
    },
    {
      "inputs": [
        {
          "internalType": "address",
          "name": "_charityAddress",
          "type": "address"
        }
      ],
      "name": "addCharity",
      "outputs": [],
      "stateMutability": "nonpayable",
      "type": "function"
    },
    {
      "inputs": [
        {
          "internalType": "address",
          "name": "_charityAddress",
          "type": "address"
        }
      ],
      "name": "removeCharity",
      "outputs": [],
      "stateMutability": "nonpayable",
      "type": "function"
    },
    {
      "inputs": [
        {
          "internalType": "uint256",
          "name": "_projectId",
          "type": "uint256"
        }
      ],
      "name": "getProject",
      "outputs": [
        {
          "internalType": "string",
          "name": "name",
          "type": "string"
        },
        {
          "internalType": "address",
          "name": "charityAddress",
          "type": "address"
        },
        {
          "internalType": "uint256",
          "name": "goalAmount",
          "type": "uint256"
        },
        {
          "internalType": "uint256",
          "name": "raisedAmount",
          "type": "uint256"
        },
        {
          "internalType": "bool",
          "name": "isActive",
          "type": "bool"
        },
        {
          "internalType": "uint256",
          "name": "milestoneCount",
          "type": "uint256"
        }
      ],
      "stateMutability": "view",
      "type": "function"
    },
    {
      "inputs": [
        {
          "internalType": "uint256",
          "name": "_projectId",
          "type": "uint256"
        },
        {
          "internalType": "address",
          "name": "_donor",
          "type": "address"
        }
      ],
      "name": "getProjectDonations",
      "outputs": [
        {
          "internalType": "uint256",
          "name": "donorAmount",
          "type": "uint256"
        }
      ],
      "stateMutability": "view",
      "type": "function"
    },
    {
      "inputs": [],
      "name": "getProjects",
      "outputs": [
        {
          "internalType": "string[]",
          "name": "name",
          "type": "string[]"
        },
        {
          "internalType": "address[]",
          "name": "charityAddress",
          "type": "address[]"
        },
        {
          "internalType": "uint256[]",
          "name": "goalAmount",
          "type": "uint256[]"
        },
        {
          "internalType": "uint256[]",
          "name": "raisedAmount",
          "type": "uint256[]"
        },
        {
          "internalType": "bool[]",
          "name": "isActive",
          "type": "bool[]"
        },
        {
          "internalType": "uint256[]",
          "name": "milestoneCount",
          "type": "uint256[]"
        }
      ],
      "stateMutability": "view",
      "type": "function"
    },
    {
      "inputs": [
        {
          "internalType": "uint256",
          "name": "_projectId",
          "type": "uint256"
        },
        {
          "internalType": "uint256",
          "name": "_milestoneIndex",
          "type": "uint256"
        }
      ],
      "name": "getMilestone",
      "outputs": [
        {
          "internalType": "string",
          "name": "description",
          "type": "string"
        },
        {
          "internalType": "uint256",
          "name": "targetAmount",
          "type": "uint256"
        },
        {
          "internalType": "bool",
          "name": "isCompleted",
          "type": "bool"
        },
        {
          "internalType": "bool",
          "name": "fundsReleased",
          "type": "bool"
        }
      ],
      "stateMutability": "view",
      "type": "function"
    }
  ],
  "bytecode": "0x60806040523480156200001157600080fd5b5060405162003b6638038062003b668339818101604052810190620000379190620002b0565b6001600081905550620000546000801b33620000d060201b60201c565b50620000877fa49807205ce4d355092ef5a8a18f56e8913cf4a201fbe287825b095693c2177533620000d060201b60201c565b5080600260006101000a81548173ffffffffffffffffffffffffffffffffffffffff021916908373ffffffffffffffffffffffffffffffffffffffff16021790555050620002e2565b6000620000e48383620001d360201b60201c565b620001c857600180600085815260200190815260200160002060000160008473ffffffffffffffffffffffffffffffffffffffff1673ffffffffffffffffffffffffffffffffffffffff16815260200190815260200160002060006101000a81548160ff021916908315150217905550620001646200023e60201b60201c565b73ffffffffffffffffffffffffffffffffffffffff168273ffffffffffffffffffffffffffffffffffffffff16847f2f8788117e7eff1d82e926ec794901d17c78024a50270940304540a733656f0d60405160405180910390a460019050620001cd565b600090505b92915050565b60006001600084815260200190815260200160002060000160008373ffffffffffffffffffffffffffffffffffffffff1673ffffffffffffffffffffffffffffffffffffffff16815260200190815260200160002060009054906101000a900460ff16905092915050565b600033905090565b600080fd5b600073ffffffffffffffffffffffffffffffffffffffff82169050919050565b600062000278826200024b565b9050919050565b6200028a816200026b565b81146200029657600080fd5b50565b600081519050620002aa816200027f565b92915050565b600060208284031215620002c957620002c862000246565b5b6000620002d98482850162000299565b91505092915050565b61387480620002f26000396000f3fe60806040526004361061016a5760003560e01c80638004f9fa116100d1578063afd14b821161008a578063dd36341a11610064578063dd36341a14610545578063f057193514610582578063f0f3f2c8146105ab578063f326206b146105ed57610171565b8063afd14b82146104c3578063d547741f146104ec578063dcc601281461051557610171565b80638004f9fa146103ad5780638ed9895c146103c957806391d1485414610409578063a217fddf14610446578063a4b2409e14610471578063abefe5911461049a57610171565b806336568abe1161012357806336568abe146102b157806336fbad26146102da578063436e6958146103055780636f0c80671461032e57806375b238fc1461035957806378b14f0a1461038457610171565b806301ffc9a7146101765780630df72159146101b3578063107046bd146101de5780631da502f914610220578063248a9ca31461024b5780632f2ff15d1461028857610171565b3661017157005b600080fd5b34801561018257600080fd5b5061019d600480360381019061019891906121cc565b610616565b6040516101aa9190612214565b60405180910390f35b3480156101bf57600080fd5b506101c8610690565b6040516101d591906122ae565b60405180910390f35b3480156101ea57600080fd5b50610205600480360381019061020091906122ff565b6106b6565b604051610217969594939291906123ec565b60405180910390f35b34801561022c57600080fd5b506102356107a7565b60405161024291906122ae565b60405180910390f35b34801561025757600080fd5b50610272600480360381019061026d919061248a565b6107d1565b60405161027f91906124c6565b60405180910390f35b34801561029457600080fd5b506102af60048036038101906102aa919061250d565b6107f1565b005b3480156102bd57600080fd5b506102d860048036038101906102d3919061250d565b610813565b005b3480156102e657600080fd5b506102ef61088e565b6040516102fc919061254d565b60405180910390f35b34801561031157600080fd5b5061032c600480360381019061032791906122ff565b610894565b005b34801561033a57600080fd5b50610343610948565b60405161035091906124c6565b60405180910390f35b34801561036557600080fd5b5061036e61096c565b60405161037b91906124c6565b60405180910390f35b34801561039057600080fd5b506103ab60048036038101906103a69190612568565b610990565b005b6103c760048036038101906103c29190612595565b6109e9565b005b3480156103d557600080fd5b506103f060048036038101906103eb91906125d5565b610c28565b6040516104009493929190612615565b60405180910390f35b34801561041557600080fd5b50610430600480360381019061042b919061250d565b610d82565b60405161043d9190612214565b60405180910390f35b34801561045257600080fd5b5061045b610ded565b60405161046891906124c6565b60405180910390f35b34801561047d57600080fd5b50610498600480360381019061049391906122ff565b610df4565b005b3480156104a657600080fd5b506104c160048036038101906104bc9190612568565b61103e565b005b3480156104cf57600080fd5b506104ea60048036038101906104e5919061293f565b611096565b005b3480156104f857600080fd5b50610513600480360381019061050e919061250d565b6112fe565b005b34801561052157600080fd5b5061052a611320565b60405161053c96959493929190612d40565b60405180910390f35b34801561055157600080fd5b5061056c60048036038101906105679190612595565b611778565b604051610579919061254d565b60405180910390f35b34801561058e57600080fd5b506105a960048036038101906105a49190612dcb565b6117e1565b005b3480156105b757600080fd5b506105d260048036038101906105cd91906122ff565b611a89565b6040516105e4969594939291906123ec565b60405180910390f35b3480156105f957600080fd5b50610614600480360381019061060f91906125d5565b611b98565b005b60007f7965db0b000000000000000000000000000000000000000000000000000000007bffffffffffffffffffffffffffffffffffffffffffffffffffffffff1916827bffffffffffffffffffffffffffffffffffffffffffffffffffffffff19161480610689575061068882611e55565b5b9050919050565b600260009054906101000a900473ffffffffffffffffffffffffffffffffffffffff1681565b60036020528060005260406000206000915090508060000180546106d990612e4d565b80601f016020809104026020016040519081016040528092919081815260200182805461070590612e4d565b80156107525780601f1061072757610100808354040283529160200191610752565b820191906000526020600020905b81548152906001019060200180831161073557829003601f168201915b5050505050908060010160009054906101000a900473ffffffffffffffffffffffffffffffffffffffff16908060020154908060030154908060040160009054906101000a900460ff16908060070154905086565b6000600260009054906101000a900473ffffffffffffffffffffffffffffffffffffffff16905090565b600060016000838152602001908152602001600020600101549050919050565b6107fa826107d1565b61080381611ebf565b61080d8383611ed3565b50505050565b61081b611fc4565b73ffffffffffffffffffffffffffffffffffffffff168173ffffffffffffffffffffffffffffffffffffffff161461087f576040517f6697b23200000000000000000000000000000000000000000000000000000000815260040160405180910390fd5b6108898282611fcc565b505050565b60045481565b7fa49807205ce4d355092ef5a8a18f56e8913cf4a201fbe287825b095693c217756108be81611ebf565b60006003600084815260200190815260200160002090508060040160009054906101000a900460ff16610926576040517f08c379a000000000000000000000000000000000000000000000000000000000815260040161091d90612eca565b60405180910390fd5b60008160040160006101000a81548160ff021916908315150217905550505050565b7f838cb9e68162e54d2dfda44baa96273d8a6cb729c0d42995215e0f52841feb7781565b7fa49807205ce4d355092ef5a8a18f56e8913cf4a201fbe287825b095693c2177581565b7fa49807205ce4d355092ef5a8a18f56e8913cf4a201fbe287825b095693c217756109ba81611ebf565b6109e47f838cb9e68162e54d2dfda44baa96273d8a6cb729c0d42995215e0f52841feb7783611ed3565b505050565b6109f16120bf565b60006003600084815260200190815260200160002090508060040160009054906101000a900460ff16610a59576040517f08c379a0000000000000000000000000000000000000000000000000000000008152600401610a5090612f36565b60405180910390fd5b60003411610a9c576040517f08c379a0000000000000000000000000000000000000000000000000000000008152600401610a9390612fc8565b60405180910390fd5b806007016000815480929190610ab190613017565b9190505550348160060160008473ffffffffffffffffffffffffffffffffffffffff1673ffffffffffffffffffffffffffffffffffffffff1681526020019081526020016000206000828254610b07919061305f565b9250508190555034816003016000828254610b22919061305f565b92505081905550600260009054906101000a900473ffffffffffffffffffffffffffffffffffffffff1673ffffffffffffffffffffffffffffffffffffffff1663156e29f68385346040518463ffffffff1660e01b8152600401610b8893929190613093565b6020604051808303816000875af1158015610ba7573d6000803e3d6000fd5b505050506040513d601f19601f82011682018060405250810190610bcb91906130df565b508173ffffffffffffffffffffffffffffffffffffffff16837f0b5b4c52969ff7329ecf7ee536409fda87812b15a8622bc6e8cdeab3aee14a2634604051610c13919061254d565b60405180910390a350610c24612105565b5050565b606060008060008060036000888152602001908152602001600020905080600501805490508610610c8e576040517f08c379a0000000000000000000000000000000000000000000000000000000008152600401610c8590613158565b60405180910390fd5b6000816005018781548110610ca657610ca5613178565b5b906000526020600020906003020190508060000181600101548260020160009054906101000a900460ff168360020160019054906101000a900460ff16838054610cef90612e4d565b80601f0160208091040260200160405190810160405280929190818152602001828054610d1b90612e4d565b8015610d685780601f10610d3d57610100808354040283529160200191610d68565b820191906000526020600020905b815481529060010190602001808311610d4b57829003601f168201915b505050505093509550955095509550505092959194509250565b60006001600084815260200190815260200160002060000160008373ffffffffffffffffffffffffffffffffffffffff1673ffffffffffffffffffffffffffffffffffffffff16815260200190815260200160002060009054906101000a900460ff16905092915050565b6000801b81565b610dfc6120bf565b60006003600083815260200190815260200160002090508060040160009054906101000a900460ff1615610e65576040517f08c379a0000000000000000000000000000000000000000000000000000000008152600401610e5c906131f3565b60405180910390fd5b60008160060160003373ffffffffffffffffffffffffffffffffffffffff1673ffffffffffffffffffffffffffffffffffffffff16815260200190815260200160002054905060008111610eee576040517f08c379a0000000000000000000000000000000000000000000000000000000008152600401610ee59061325f565b60405180910390fd5b60008260060160003373ffffffffffffffffffffffffffffffffffffffff1673ffffffffffffffffffffffffffffffffffffffff1681526020019081526020016000208190555060003373ffffffffffffffffffffffffffffffffffffffff1682604051610f5b906132b0565b60006040518083038185875af1925050503d8060008114610f98576040519150601f19603f3d011682016040523d82523d6000602084013e610f9d565b606091505b5050905080610fe1576040517f08c379a0000000000000000000000000000000000000000000000000000000008152600401610fd890613311565b60405180910390fd5b3373ffffffffffffffffffffffffffffffffffffffff16847f7a482fdeb6bc9a1376f597068a214a7a39472bb2eff1b8cad21ba04f49ddca1b84604051611028919061254d565b60405180910390a350505061103b612105565b50565b7fa49807205ce4d355092ef5a8a18f56e8913cf4a201fbe287825b095693c2177561106881611ebf565b6110927f838cb9e68162e54d2dfda44baa96273d8a6cb729c0d42995215e0f52841feb77836112fe565b5050565b7f838cb9e68162e54d2dfda44baa96273d8a6cb729c0d42995215e0f52841feb776110c081611ebf565b8151835114611104576040517f08c379a00000000000000000000000000000000000000000000000000000000081526004016110fb9061337d565b60405180910390fd5b6004600081548092919061111790613017565b91905055506000600360006004548152602001908152602001600020905085816000019081611146919061353f565b50338160010160006101000a81548173ffffffffffffffffffffffffffffffffffffffff021916908373ffffffffffffffffffffffffffffffffffffffff16021790555084816002018190555060018160040160006101000a81548160ff02191690831515021790555060005b84518110156112b9578160050160405180608001604052808784815181106111de576111dd613178565b5b602002602001015181526020018684815181106111fe576111fd613178565b5b602002602001015181526020016000151581526020016000151581525090806001815401808255809150506001900390600052602060002090600302016000909190919091506000820151816000019081611259919061353f565b506020820151816001015560408201518160020160006101000a81548160ff02191690831515021790555060608201518160020160016101000a81548160ff021916908315150217905550505080806112b190613017565b9150506111b3565b506004547fc0c54fed07481d0998e1446b2c13759606bf4f26b78306307413ac4c4309aa8287336040516112ee929190613611565b60405180910390a2505050505050565b611307826107d1565b61131081611ebf565b61131a8383611fcc565b50505050565b606080606080606080600060045467ffffffffffffffff8111156113475761134661266b565b5b60405190808252806020026020018201604052801561137a57816020015b60608152602001906001900390816113655790505b509050600060045467ffffffffffffffff81111561139b5761139a61266b565b5b6040519080825280602002602001820160405280156113c95781602001602082028036833780820191505090505b509050600060045467ffffffffffffffff8111156113ea576113e961266b565b5b6040519080825280602002602001820160405280156114185781602001602082028036833780820191505090505b509050600060045467ffffffffffffffff8111156114395761143861266b565b5b6040519080825280602002602001820160405280156114675781602001602082028036833780820191505090505b509050600060045467ffffffffffffffff8111156114885761148761266b565b5b6040519080825280602002602001820160405280156114b65781602001602082028036833780820191505090505b509050600060045467ffffffffffffffff8111156114d7576114d661266b565b5b6040519080825280602002602001820160405280156115055781602001602082028036833780820191505090505b50905060005b6004548110156117575760036000828152602001908152602001600020600001805461153690612e4d565b80601f016020809104026020016040519081016040528092919081815260200182805461156290612e4d565b80156115af5780601f10611584576101008083540402835291602001916115af565b820191906000526020600020905b81548152906001019060200180831161159257829003601f168201915b50505050508782815181106115c7576115c6613178565b5b60200260200101819052506003600082815260200190815260200160002060010160009054906101000a900473ffffffffffffffffffffffffffffffffffffffff1686828151811061161c5761161b613178565b5b602002602001019073ffffffffffffffffffffffffffffffffffffffff16908173ffffffffffffffffffffffffffffffffffffffff168152505060036000828152602001908152602001600020600201548582815181106116805761167f613178565b5b60200260200101818152505060036000828152602001908152602001600020600301548482815181106116b6576116b5613178565b5b6020026020010181815250506003600082815260200190815260200160002060040160009054906101000a900460ff168382815181106116f9576116f8613178565b5b602002602001019015159081151581525050600360008281526020019081526020016000206005018054905082828151811061173857611737613178565b5b602002602001018181525050808061174f90613017565b91505061150b565b508585858585859b509b509b509b509b509b50505050505050909192939495565b60008060036000858152602001908152602001600020905060008160060160008573ffffffffffffffffffffffffffffffffffffffff1673ffffffffffffffffffffffffffffffffffffffff168152602001908152602001600020549050809250505092915050565b6117e96120bf565b60006003600085815260200190815260200160002090508060040160009054906101000a900460ff16611851576040517f08c379a000000000000000000000000000000000000000000000000000000000815260040161184890612f36565b60405180910390fd5b60008390508073ffffffffffffffffffffffffffffffffffffffff166323b872dd3330866040518463ffffffff1660e01b815260040161189393929190613641565b6020604051808303816000875af11580156118b2573d6000803e3d6000fd5b505050506040513d601f19601f820116820180604052508101906118d691906136a4565b611915576040517f08c379a000000000000000000000000000000000000000000000000000000000815260040161190c9061371d565b60405180910390fd5b828260060160003373ffffffffffffffffffffffffffffffffffffffff1673ffffffffffffffffffffffffffffffffffffffff1681526020019081526020016000206000828254611966919061305f565b9250508190555082826003016000828254611981919061305f565b92505081905550600260009054906101000a900473ffffffffffffffffffffffffffffffffffffffff1673ffffffffffffffffffffffffffffffffffffffff1663156e29f63387866040518463ffffffff1660e01b81526004016119e793929190613093565b6020604051808303816000875af1158015611a06573d6000803e3d6000fd5b505050506040513d601f19601f82011682018060405250810190611a2a91906130df565b503373ffffffffffffffffffffffffffffffffffffffff16857f0b5b4c52969ff7329ecf7ee536409fda87812b15a8622bc6e8cdeab3aee14a2685604051611a72919061254d565b60405180910390a35050611a84612105565b505050565b6060600080600080600080600360008981526020019081526020016000209050806000018160010160009054906101000a900473ffffffffffffffffffffffffffffffffffffffff16826002015483600301548460040160009054906101000a900460ff168560050180549050858054611b0290612e4d565b80601f0160208091040260200160405190810160405280929190818152602001828054611b2e90612e4d565b8015611b7b5780601f10611b5057610100808354040283529160200191611b7b565b820191906000526020600020905b815481529060010190602001808311611b5e57829003601f168201915b505050505095509650965096509650965096505091939550919395565b7fa49807205ce4d355092ef5a8a18f56e8913cf4a201fbe287825b095693c21775611bc281611ebf565b600060036000858152602001908152602001600020905080600501805490508310611c22576040517f08c379a0000000000000000000000000000000000000000000000000000000008152600401611c1990613158565b60405180910390fd5b6000816005018481548110611c3a57611c39613178565b5b906000526020600020906003020190508060020160009054906101000a900460ff1615611c9c576040517f08c379a0000000000000000000000000000000000000000000000000000000008152600401611c9390613789565b60405180910390fd5b60018160020160006101000a81548160ff021916908315150217905550847f1b7218c0ac23ea9cbe4df603d2b340fbf469a115b73ea3d11460727f445d6be185604051611ce9919061254d565b60405180910390a28060020160019054906101000a900460ff16158015611d1857508060010154826003015410155b15611e4e5760018160020160016101000a81548160ff02191690831515021790555060008160010154905060008360010160009054906101000a900473ffffffffffffffffffffffffffffffffffffffff1673ffffffffffffffffffffffffffffffffffffffff1682604051611d8d906132b0565b60006040518083038185875af1925050503d8060008114611dca576040519150601f19603f3d011682016040523d82523d6000602084013e611dcf565b606091505b5050905080611e13576040517f08c379a0000000000000000000000000000000000000000000000000000000008152600401611e0a906137f5565b60405180910390fd5b867f80230996023d69b50793fa73f1919127c9d8e741d3989743c479169f22e7a28883604051611e43919061254d565b60405180910390a250505b5050505050565b60007f01ffc9a7000000000000000000000000000000000000000000000000000000007bffffffffffffffffffffffffffffffffffffffffffffffffffffffff1916827bffffffffffffffffffffffffffffffffffffffffffffffffffffffff1916149050919050565b611ed081611ecb611fc4565b61210f565b50565b6000611edf8383610d82565b611fb957600180600085815260200190815260200160002060000160008473ffffffffffffffffffffffffffffffffffffffff1673ffffffffffffffffffffffffffffffffffffffff16815260200190815260200160002060006101000a81548160ff021916908315150217905550611f56611fc4565b73ffffffffffffffffffffffffffffffffffffffff168273ffffffffffffffffffffffffffffffffffffffff16847f2f8788117e7eff1d82e926ec794901d17c78024a50270940304540a733656f0d60405160405180910390a460019050611fbe565b600090505b92915050565b600033905090565b6000611fd88383610d82565b156120b45760006001600085815260200190815260200160002060000160008473ffffffffffffffffffffffffffffffffffffffff1673ffffffffffffffffffffffffffffffffffffffff16815260200190815260200160002060006101000a81548160ff021916908315150217905550612051611fc4565b73ffffffffffffffffffffffffffffffffffffffff168273ffffffffffffffffffffffffffffffffffffffff16847ff6391f5c32d9c69d2a47ea670b442974b53935d1edc7fd64eb21e047a839171b60405160405180910390a4600190506120b9565b600090505b92915050565b6002600054036120fb576040517f3ee5aeb500000000000000000000000000000000000000000000000000000000815260040160405180910390fd5b6002600081905550565b6001600081905550565b6121198282610d82565b61215c5780826040517fe2517d3f000000000000000000000000000000000000000000000000000000008152600401612153929190613815565b60405180910390fd5b5050565b6000604051905090565b600080fd5b600080fd5b60007fffffffff0000000000000000000000000000000000000000000000000000000082169050919050565b6121a981612174565b81146121b457600080fd5b50565b6000813590506121c6816121a0565b92915050565b6000602082840312156121e2576121e161216a565b5b60006121f0848285016121b7565b91505092915050565b60008115159050919050565b61220e816121f9565b82525050565b60006020820190506122296000830184612205565b92915050565b600073ffffffffffffffffffffffffffffffffffffffff82169050919050565b6000819050919050565b600061227461226f61226a8461222f565b61224f565b61222f565b9050919050565b600061228682612259565b9050919050565b60006122988261227b565b9050919050565b6122a88161228d565b82525050565b60006020820190506122c3600083018461229f565b92915050565b6000819050919050565b6122dc816122c9565b81146122e757600080fd5b50565b6000813590506122f9816122d3565b92915050565b6000602082840312156123155761231461216a565b5b6000612323848285016122ea565b91505092915050565b600081519050919050565b600082825260208201905092915050565b60005b8381101561236657808201518184015260208101905061234b565b60008484015250505050565b6000601f19601f8301169050919050565b600061238e8261232c565b6123988185612337565b93506123a8818560208601612348565b6123b181612372565b840191505092915050565b60006123c78261222f565b9050919050565b6123d7816123bc565b82525050565b6123e6816122c9565b82525050565b600060c08201905081810360008301526124068189612383565b905061241560208301886123ce565b61242260408301876123dd565b61242f60608301866123dd565b61243c6080830185612205565b61244960a08301846123dd565b979650505050505050565b6000819050919050565b61246781612454565b811461247257600080fd5b50565b6000813590506124848161245e565b92915050565b6000602082840312156124a05761249f61216a565b5b60006124ae84828501612475565b91505092915050565b6124c081612454565b82525050565b60006020820190506124db60008301846124b7565b92915050565b6124ea816123bc565b81146124f557600080fd5b50565b600081359050612507816124e1565b92915050565b600080604083850312156125245761252361216a565b5b600061253285828601612475565b9250506020612543858286016124f8565b9150509250929050565b600060208201905061256260008301846123dd565b92915050565b60006020828403121561257e5761257d61216a565b5b600061258c848285016124f8565b91505092915050565b600080604083850312156125ac576125ab61216a565b5b60006125ba858286016122ea565b92505060206125cb858286016124f8565b9150509250929050565b600080604083850312156125ec576125eb61216a565b5b60006125fa858286016122ea565b925050602061260b858286016122ea565b9150509250929050565b6000608082019050818103600083015261262f8187612383565b905061263e60208301866123dd565b61264b6040830185612205565b6126586060830184612205565b95945050505050565b600080fd5b600080fd5b7f4e487b7100000000000000000000000000000000000000000000000000000000600052604160045260246000fd5b6126a382612372565b810181811067ffffffffffffffff821117156126c2576126c161266b565b5b80604052505050565b60006126d5612160565b90506126e1828261269a565b919050565b600067ffffffffffffffff8211156127015761270061266b565b5b61270a82612372565b9050602081019050919050565b82818337600083830152505050565b6000612739612734846126e6565b6126cb565b90508281526020810184848401111561275557612754612666565b5b612760848285612717565b509392505050565b600082601f83011261277d5761277c612661565b5b813561278d848260208601612726565b91505092915050565b600067ffffffffffffffff8211156127b1576127b061266b565b5b602082029050602081019050919050565b600080fd5b60006127da6127d584612796565b6126cb565b905080838252602082019050602084028301858111156127fd576127fc6127c2565b5b835b8181101561284457803567ffffffffffffffff81111561282257612821612661565b5b80860161282f8982612768565b855260208501945050506020810190506127ff565b5050509392505050565b600082601f83011261286357612862612661565b5b81356128738482602086016127c7565b91505092915050565b600067ffffffffffffffff8211156128975761289661266b565b5b602082029050602081019050919050565b60006128bb6128b68461287c565b6126cb565b905080838252602082019050602084028301858111156128de576128dd6127c2565b5b835b8181101561290757806128f388826122ea565b8452602084019350506020810190506128e0565b5050509392505050565b600082601f83011261292657612925612661565b5b81356129368482602086016128a8565b91505092915050565b600080600080608085870312156129595761295861216a565b5b600085013567ffffffffffffffff8111156129775761297661216f565b5b61298387828801612768565b9450506020612994878288016122ea565b935050604085013567ffffffffffffffff8111156129b5576129b461216f565b5b6129c18782880161284e565b925050606085013567ffffffffffffffff8111156129e2576129e161216f565b5b6129ee87828801612911565b91505092959194509250565b600081519050919050565b600082825260208201905092915050565b6000819050602082019050919050565b600082825260208201905092915050565b6000612a428261232c565b612a4c8185612a26565b9350612a5c818560208601612348565b612a6581612372565b840191505092915050565b6000612a7c8383612a37565b905092915050565b6000602082019050919050565b6000612a9c826129fa565b612aa68185612a05565b935083602082028501612ab885612a16565b8060005b85811015612af45784840389528151612ad58582612a70565b9450612ae083612a84565b925060208a01995050600181019050612abc565b50829750879550505050505092915050565b600081519050919050565b600082825260208201905092915050565b6000819050602082019050919050565b612b3b816123bc565b82525050565b6000612b4d8383612b32565b60208301905092915050565b6000602082019050919050565b6000612b7182612b06565b612b7b8185612b11565b9350612b8683612b22565b8060005b83811015612bb7578151612b9e8882612b41565b9750612ba983612b59565b925050600181019050612b8a565b5085935050505092915050565b600081519050919050565b600082825260208201905092915050565b6000819050602082019050919050565b612bf9816122c9565b82525050565b6000612c0b8383612bf0565b60208301905092915050565b6000602082019050919050565b6000612c2f82612bc4565b612c398185612bcf565b9350612c4483612be0565b8060005b83811015612c75578151612c5c8882612bff565b9750612c6783612c17565b925050600181019050612c48565b5085935050505092915050565b600081519050919050565b600082825260208201905092915050565b6000819050602082019050919050565b612cb7816121f9565b82525050565b6000612cc98383612cae565b60208301905092915050565b6000602082019050919050565b6000612ced82612c82565b612cf78185612c8d565b9350612d0283612c9e565b8060005b83811015612d33578151612d1a8882612cbd565b9750612d2583612cd5565b925050600181019050612d06565b5085935050505092915050565b600060c0820190508181036000830152612d5a8189612a91565b90508181036020830152612d6e8188612b66565b90508181036040830152612d828187612c24565b90508181036060830152612d968186612c24565b90508181036080830152612daa8185612ce2565b905081810360a0830152612dbe8184612c24565b9050979650505050505050565b600080600060608486031215612de457612de361216a565b5b6000612df2868287016122ea565b9350506020612e03868287016124f8565b9250506040612e14868287016122ea565b9150509250925092565b7f4e487b7100000000000000000000000000000000000000000000000000000000600052602260045260246000fd5b60006002820490506001821680612e6557607f821691505b602082108103612e7857612e77612e1e565b5b50919050565b7f50726f6a65637420616c726561647920696e6163746976650000000000000000600082015250565b6000612eb4601883612337565b9150612ebf82612e7e565b602082019050919050565b60006020820190508181036000830152612ee381612ea7565b9050919050565b7f50726f6a656374206973206e6f74206163746976650000000000000000000000600082015250565b6000612f20601583612337565b9150612f2b82612eea565b602082019050919050565b60006020820190508181036000830152612f4f81612f13565b9050919050565b7f446f6e6174696f6e20616d6f756e74206d75737420626520677265617465722060008201527f7468616e20300000000000000000000000000000000000000000000000000000602082015250565b6000612fb2602683612337565b9150612fbd82612f56565b604082019050919050565b60006020820190508181036000830152612fe181612fa5565b9050919050565b7f4e487b7100000000000000000000000000000000000000000000000000000000600052601160045260246000fd5b6000613022826122c9565b91507fffffffffffffffffffffffffffffffffffffffffffffffffffffffffffffffff820361305457613053612fe8565b5b600182019050919050565b600061306a826122c9565b9150613075836122c9565b925082820190508082111561308d5761308c612fe8565b5b92915050565b60006060820190506130a860008301866123ce565b6130b560208301856123dd565b6130c260408301846123dd565b949350505050565b6000815190506130d9816122d3565b92915050565b6000602082840312156130f5576130f461216a565b5b6000613103848285016130ca565b91505092915050565b7f496e76616c6964206d696c6573746f6e6520696e646578000000000000000000600082015250565b6000613142601783612337565b915061314d8261310c565b602082019050919050565b6000602082019050818103600083015261317181613135565b9050919050565b7f4e487b7100000000000000000000000000000000000000000000000000000000600052603260045260246000fd5b7f50726f6a656374206973207374696c6c20616374697665000000000000000000600082015250565b60006131dd601783612337565b91506131e8826131a7565b602082019050919050565b6000602082019050818103600083015261320c816131d0565b9050919050565b7f4e6f20646f6e6174696f6e20666f756e64000000000000000000000000000000600082015250565b6000613249601183612337565b915061325482613213565b602082019050919050565b600060208201905081810360008301526132788161323c565b9050919050565b600081905092915050565b50565b600061329a60008361327f565b91506132a58261328a565b600082019050919050565b60006132bb8261328d565b9150819050919050565b7f526566756e64207472616e73666572206661696c656400000000000000000000600082015250565b60006132fb601683612337565b9150613306826132c5565b602082019050919050565b6000602082019050818103600083015261332a816132ee565b9050919050565b7f4d696c6573746f6e6520617272617973206d757374206d617463680000000000600082015250565b6000613367601b83612337565b915061337282613331565b602082019050919050565b600060208201905081810360008301526133968161335a565b9050919050565b60008190508160005260206000209050919050565b60006020601f8301049050919050565b600082821b905092915050565b6000600883026133ff7fffffffffffffffffffffffffffffffffffffffffffffffffffffffffffffffff826133c2565b61340986836133c2565b95508019841693508086168417925050509392505050565b600061343c613437613432846122c9565b61224f565b6122c9565b9050919050565b6000819050919050565b61345683613421565b61346a61346282613443565b8484546133cf565b825550505050565b600090565b61347f613472565b61348a81848461344d565b505050565b5b818110156134ae576134a3600082613477565b600181019050613490565b5050565b601f8211156134f3576134c48161339d565b6134cd846133b2565b810160208510156134dc578190505b6134f06134e8856133b2565b83018261348f565b50505b505050565b600082821c905092915050565b6000613516600019846008026134f8565b1980831691505092915050565b600061352f8383613505565b9150826002028217905092915050565b6135488261232c565b67ffffffffffffffff8111156135615761356061266b565b5b61356b8254612e4d565b6135768282856134b2565b600060209050601f8311600181146135a95760008415613597578287015190505b6135a18582613523565b865550613609565b601f1984166135b78661339d565b60005b828110156135df578489015182556001820191506020850194506020810190506135ba565b868310156135fc57848901516135f8601f891682613505565b8355505b6001600288020188555050505b505050505050565b6000604082019050818103600083015261362b8185612383565b905061363a60208301846123ce565b9392505050565b600060608201905061365660008301866123ce565b61366360208301856123ce565b61367060408301846123dd565b949350505050565b613681816121f9565b811461368c57600080fd5b50565b60008151905061369e81613678565b92915050565b6000602082840312156136ba576136b961216a565b5b60006136c88482850161368f565b91505092915050565b7f546f6b656e207472616e73666572206661696c65640000000000000000000000600082015250565b6000613707601583612337565b9150613712826136d1565b602082019050919050565b60006020820190508181036000830152613736816136fa565b9050919050565b7f4d696c6573746f6e6520616c726561647920636f6d706c657465640000000000600082015250565b6000613773601b83612337565b915061377e8261373d565b602082019050919050565b600060208201905081810360008301526137a281613766565b9050919050565b7f46756e64207472616e73666572206661696c6564000000000000000000000000600082015250565b60006137df601483612337565b91506137ea826137a9565b602082019050919050565b6000602082019050818103600083015261380e816137d2565b9050919050565b600060408201905061382a60008301856123ce565b61383760208301846124b7565b939250505056fea26469706673582212201dcf53b62b99ecc1088873b9c27e055cf3fbf105b177eeef2d3e1cbc2593916164736f6c63430008150033",
  "immutableReferences": {},
  "source": "// SPDX-License-Identifier: MIT\npragma solidity ^0.8.21;\n\nimport \"@openzeppelin/contracts/utils/ReentrancyGuard.sol\";\nimport \"@openzeppelin/contracts/access/AccessControl.sol\";\nimport \"@openzeppelin/contracts/token/ERC20/IERC20.sol\";\nimport \"./DonationToken.sol\";\n\ncontract CharityPlatform is ReentrancyGuard, AccessControl {\n    bytes32 public constant ADMIN_ROLE = keccak256(\"ADMIN_ROLE\");\n    bytes32 public constant CHARITY_ROLE = keccak256(\"CHARITY_ROLE\");\n\n    DonationToken public donationToken;\n    \n    struct Project {\n        string name;\n        address charityAddress;\n        uint256 goalAmount;\n        uint256 raisedAmount;\n        bool isActive;\n        Milestone[] milestones;\n        mapping(address => uint256) donations;\n        //\n        uint256 donationCount;\n    }\n\n    struct Milestone {\n        string description;\n        uint256 targetAmount;\n        bool isCompleted;\n        bool fundsReleased;\n    }\n\n    mapping(uint256 => Project) public projects;\n    uint256 public projectCount;\n\n    event ProjectCreated(uint256 indexed projectId, string name, address charityAddress);\n    event DonationReceived(uint256 indexed projectId, address indexed donor, uint256 amount);\n    event MilestoneCompleted(uint256 indexed projectId, uint256 milestoneIndex);\n    event FundsReleased(uint256 indexed projectId, uint256 amount);\n    event RefundIssued(uint256 indexed projectId, address indexed donor, uint256 amount);\n\n    constructor(address _donationToken) {\n        _grantRole(DEFAULT_ADMIN_ROLE, msg.sender);\n        _grantRole(ADMIN_ROLE, msg.sender);\n        donationToken = DonationToken(_donationToken);\n    }\n\n    function createProject(\n        string memory _name,\n        uint256 _goalAmount,\n        string[] memory _milestoneDescriptions,\n        uint256[] memory _milestoneTargets\n    ) external onlyRole(CHARITY_ROLE) {\n        require(_milestoneDescriptions.length == _milestoneTargets.length, \"Milestone arrays must match\");\n        \n        projectCount++;\n        Project storage project = projects[projectCount];\n        project.name = _name;\n        project.charityAddress = msg.sender;\n        project.goalAmount = _goalAmount;\n        project.isActive = true;\n\n        for(uint i = 0; i < _milestoneDescriptions.length; i++) {\n            project.milestones.push(Milestone({\n                description: _milestoneDescriptions[i],\n                targetAmount: _milestoneTargets[i],\n                isCompleted: false,\n                fundsReleased: false\n            }));\n        }\n\n        emit ProjectCreated(projectCount, _name, msg.sender);\n    }\n\n    function donate(uint256 _projectId, address _donor) external payable nonReentrant {\n        Project storage project = projects[_projectId];\n        require(project.isActive, \"Project is not active\");\n        require(msg.value > 0, \"Donation amount must be greater than 0\");\n\n        project.donationCount++;\n\n        project.donations[_donor] += msg.value;\n        project.raisedAmount += msg.value;\n\n        //\n\n        // Mint donation NFT\n        donationToken.mint(_donor, _projectId, msg.value);\n\n        emit DonationReceived(_projectId, _donor, msg.value);\n    }\n\n    function returnDonationToken() external returns (DonationToken) { \n        return donationToken;\n    }\n\n    function completeMilestone(uint256 _projectId, uint256 _milestoneIndex) external onlyRole(ADMIN_ROLE) {\n        Project storage project = projects[_projectId];\n        require(_milestoneIndex < project.milestones.length, \"Invalid milestone index\");\n        \n        Milestone storage milestone = project.milestones[_milestoneIndex];\n        require(!milestone.isCompleted, \"Milestone already completed\");\n        \n        milestone.isCompleted = true;\n        emit MilestoneCompleted(_projectId, _milestoneIndex);\n\n        // Release funds for completed milestone\n        if(!milestone.fundsReleased && project.raisedAmount >= milestone.targetAmount) {\n            milestone.fundsReleased = true;\n            uint256 releaseAmount = milestone.targetAmount;\n            \n            (bool success, ) = project.charityAddress.call{value: releaseAmount}(\"\");\n            require(success, \"Fund transfer failed\");\n            \n            emit FundsReleased(_projectId, releaseAmount);\n        }\n    }\n\n    function requestRefund(uint256 _projectId) external nonReentrant {\n        Project storage project = projects[_projectId];\n        require(!project.isActive, \"Project is still active\");\n        \n        uint256 donationAmount = project.donations[msg.sender];\n        require(donationAmount > 0, \"No donation found\");\n\n        project.donations[msg.sender] = 0;\n        \n        (bool success, ) = msg.sender.call{value: donationAmount}(\"\");\n        require(success, \"Refund transfer failed\");\n\n        emit RefundIssued(_projectId, msg.sender, donationAmount);\n    }\n\n    function deactivateProject(uint256 _projectId) external onlyRole(ADMIN_ROLE) {\n        Project storage project = projects[_projectId];\n        require(project.isActive, \"Project already inactive\");\n        project.isActive = false;\n    }\n\n    // Multi-currency support functions\n    function donateToken(uint256 _projectId, address _tokenAddress, uint256 _amount) external nonReentrant {\n        Project storage project = projects[_projectId];\n        require(project.isActive, \"Project is not active\");\n        \n        IERC20 token = IERC20(_tokenAddress);\n        require(token.transferFrom(msg.sender, address(this), _amount), \"Token transfer failed\");\n        \n        project.donations[msg.sender] += _amount;\n        project.raisedAmount += _amount;\n\n        // Mint donation NFT\n        donationToken.mint(msg.sender, _projectId, _amount);\n        \n        emit DonationReceived(_projectId, msg.sender, _amount);\n    }\n\n    // Administrative functions\n    function addCharity(address _charityAddress) external onlyRole(ADMIN_ROLE) {\n        _grantRole(CHARITY_ROLE, _charityAddress);\n    }\n\n    function removeCharity(address _charityAddress) external onlyRole(ADMIN_ROLE) {\n        revokeRole(CHARITY_ROLE, _charityAddress);\n    }\n\n    // View functions\n    function getProject(uint256 _projectId) external view returns (\n        string memory name,\n        address charityAddress,\n        uint256 goalAmount,\n        uint256 raisedAmount,\n        bool isActive,\n        uint256 milestoneCount\n    ) {\n        Project storage project = projects[_projectId];\n        return (\n            project.name,\n            project.charityAddress,\n            project.goalAmount,\n            project.raisedAmount,\n            project.isActive,\n            project.milestones.length\n        );\n    }\n\n    function getProjectDonations(uint256 _projectId, address _donor) external view returns (\n        uint256 donorAmount\n    ) {\n        Project storage project = projects[_projectId];\n        uint256 amount = project.donations[_donor];\n        return (\n            amount\n        );\n    }\n\n    function getProjects() external view returns (\n        string[] memory name,\n        address[] memory charityAddress,\n        uint256[] memory goalAmount,\n        uint256[] memory raisedAmount,\n        bool[] memory isActive,\n        uint256[] memory milestoneCount\n    ) {\n        string[] memory allNames = new string[](projectCount);\n        address[] memory allCharityAddreses = new address[](projectCount);\n        uint256[] memory allGoalAmounts = new uint256[](projectCount);\n        uint256[] memory allRaisedAmounts = new uint256[](projectCount);\n        bool[] memory areActive = new bool[](projectCount);\n        uint256[] memory milestoneCounts = new uint256[](projectCount);\n        for (uint i = 0; i < projectCount; i++) {\n            allNames[i] = projects[i].name;\n            allCharityAddreses[i] = projects[i].charityAddress;\n            allGoalAmounts[i] = projects[i].goalAmount;\n            allRaisedAmounts[i] = projects[i].raisedAmount;\n            areActive[i] = projects[i].isActive;\n            milestoneCounts[i] = projects[i].milestones.length;\n        }\n        return (\n            allNames, \n            allCharityAddreses, \n            allGoalAmounts,\n            allRaisedAmounts,\n            areActive,\n            milestoneCounts\n        );\n    }\n\n    function getMilestone(uint256 _projectId, uint256 _milestoneIndex) external view returns (\n        string memory description,\n        uint256 targetAmount,\n        bool isCompleted,\n        bool fundsReleased\n    ) {\n        Project storage project = projects[_projectId];\n        require(_milestoneIndex < project.milestones.length, \"Invalid milestone index\");\n        \n        Milestone storage milestone = project.milestones[_milestoneIndex];\n        return (\n            milestone.description,\n            milestone.targetAmount,\n            milestone.isCompleted,\n            milestone.fundsReleased\n        );\n    }\n\n    receive() external payable {}\n}",
  "sourcePath": "/Users/artazidele/Documents/LU-2023-2024/Blokkedes biznesa/CharityDonation/contracts/CharityPlatform.sol",
  "compiler": {
    "name": "solc",
    "version": "0.8.21+commit.d9974bed.Emscripten.clang"
  },
  "schemaVersion": "3.4.16",
  "updatedAt": "2024-12-06T21:43:26.066Z",
  "networkType": "ethereum",
  "devdoc": {
    "errors": {
      "AccessControlBadConfirmation()": [
        {
          "details": "The caller of a function is not the expected one. NOTE: Don't confuse with {AccessControlUnauthorizedAccount}."
        }
      ],
      "AccessControlUnauthorizedAccount(address,bytes32)": [
        {
          "details": "The `account` is missing a role."
        }
      ],
      "ReentrancyGuardReentrantCall()": [
        {
          "details": "Unauthorized reentrant call."
        }
      ]
    },
    "events": {
      "RoleAdminChanged(bytes32,bytes32,bytes32)": {
        "details": "Emitted when `newAdminRole` is set as ``role``'s admin role, replacing `previousAdminRole` `DEFAULT_ADMIN_ROLE` is the starting admin for all roles, despite {RoleAdminChanged} not being emitted signaling this."
      },
      "RoleGranted(bytes32,address,address)": {
        "details": "Emitted when `account` is granted `role`. `sender` is the account that originated the contract call. This account bears the admin role (for the granted role). Expected in cases where the role was granted using the internal {AccessControl-_grantRole}."
      },
      "RoleRevoked(bytes32,address,address)": {
        "details": "Emitted when `account` is revoked `role`. `sender` is the account that originated the contract call:   - if using `revokeRole`, it is the admin role bearer   - if using `renounceRole`, it is the role bearer (i.e. `account`)"
      }
    },
    "kind": "dev",
    "methods": {
      "getRoleAdmin(bytes32)": {
        "details": "Returns the admin role that controls `role`. See {grantRole} and {revokeRole}. To change a role's admin, use {_setRoleAdmin}."
      },
      "grantRole(bytes32,address)": {
        "details": "Grants `role` to `account`. If `account` had not been already granted `role`, emits a {RoleGranted} event. Requirements: - the caller must have ``role``'s admin role. May emit a {RoleGranted} event."
      },
      "hasRole(bytes32,address)": {
        "details": "Returns `true` if `account` has been granted `role`."
      },
      "renounceRole(bytes32,address)": {
        "details": "Revokes `role` from the calling account. Roles are often managed via {grantRole} and {revokeRole}: this function's purpose is to provide a mechanism for accounts to lose their privileges if they are compromised (such as when a trusted device is misplaced). If the calling account had been revoked `role`, emits a {RoleRevoked} event. Requirements: - the caller must be `callerConfirmation`. May emit a {RoleRevoked} event."
      },
      "revokeRole(bytes32,address)": {
        "details": "Revokes `role` from `account`. If `account` had been granted `role`, emits a {RoleRevoked} event. Requirements: - the caller must have ``role``'s admin role. May emit a {RoleRevoked} event."
      },
      "supportsInterface(bytes4)": {
        "details": "See {IERC165-supportsInterface}."
      }
    },
    "version": 1
  },
  "userdoc": {
    "kind": "user",
    "methods": {},
    "version": 1
  }
}