{
  "contractName": "SimpleStorage",
  "abi": [
    {
      "constant": true,
      "inputs": [],
      "name": "data",
      "outputs": [
        {
          "name": "",
          "type": "uint256"
        }
      ],
      "payable": false,
      "stateMutability": "view",
      "type": "function",
      "signature": "0x73d4a13a"
    },
    {
      "constant": false,
      "inputs": [
        {
          "name": "_data",
          "type": "uint256"
        }
      ],
      "name": "set",
      "outputs": [],
      "payable": false,
      "stateMutability": "nonpayable",
      "type": "function",
      "signature": "0x60fe47b1"
    },
    {
      "constant": true,
      "inputs": [],
      "name": "get",
      "outputs": [
        {
          "name": "",
          "type": "uint256"
        }
      ],
      "payable": false,
      "stateMutability": "view",
      "type": "function",
      "signature": "0x6d4ce63c"
    }
  ],
  "bytecode": "0x608060405234801561001057600080fd5b5061011e806100206000396000f3fe608060405260043610604d576000357c01000000000000000000000000000000000000000000000000000000009004806360fe47b11460525780636d4ce63c14608957806373d4a13a1460b1575b600080fd5b348015605d57600080fd5b50608760048036036020811015607257600080fd5b810190808035906020019092919050505060d9565b005b348015609457600080fd5b50609b60e3565b6040518082815260200191505060405180910390f35b34801560bc57600080fd5b5060c360ec565b6040518082815260200191505060405180910390f35b8060008190555050565b60008054905090565b6000548156fea165627a7a72305820ed965975f6926f90df335c5fa4cb5c31e04ed980a7dacae136ef4275beb9908e0029",
  "source": "// SPDX-License-Identifier: MIT\npragma solidity >=0.4.22 <0.9.0;\n\ncontract SimpleStorage {\n    uint256 public data;\n\n    // Function to set data\n    function set(uint256 _data) public {\n        data = _data;\n    }\n\n    // Function to get data\n    function get() public view returns (uint256) {\n        return data;\n    }\n}",
  "sourcePath": "/Users/artazidele/Documents/LU-2023-2024/Blokkedes biznesa/project/project3/contracts/SimpleStorage.sol",
  "compiler": {
    "name": "solc",
    "version": "0.5.1+commit.c8a2cb62.Emscripten.clang"
  },
  "schemaVersion": "3.0.1",
  "updatedAt": "2024-11-23T19:15:47.670Z",
  "devdoc": {
    "methods": {}
  },
  "userdoc": {
    "methods": {}
  }
}